{
  "_format": "hh-sol-artifact-1",
  "contractName": "API",
  "sourceName": "contracts/API.sol",
  "abi": [
    {
      "inputs": [],
      "name": "AccessControlBadConfirmation",
      "type": "error"
    },
    {
      "inputs": [
        {
          "internalType": "address",
          "name": "account",
          "type": "address"
        },
        {
          "internalType": "bytes32",
          "name": "neededRole",
          "type": "bytes32"
        }
      ],
      "name": "AccessControlUnauthorizedAccount",
      "type": "error"
    },
    {
      "inputs": [
        {
          "internalType": "address",
          "name": "target",
          "type": "address"
        }
      ],
      "name": "AddressEmptyCode",
      "type": "error"
    },
    {
      "inputs": [
        {
          "internalType": "address",
          "name": "implementation",
          "type": "address"
        }
      ],
      "name": "ERC1967InvalidImplementation",
      "type": "error"
    },
    {
      "inputs": [],
      "name": "ERC1967NonPayable",
      "type": "error"
    },
    {
      "inputs": [],
      "name": "FailedInnerCall",
      "type": "error"
    },
    {
      "inputs": [],
      "name": "InvalidInitialization",
      "type": "error"
    },
    {
      "inputs": [],
      "name": "NotInitializing",
      "type": "error"
    },
    {
      "inputs": [],
      "name": "UUPSUnauthorizedCallContext",
      "type": "error"
    },
    {
      "inputs": [
        {
          "internalType": "bytes32",
          "name": "slot",
          "type": "bytes32"
        }
      ],
      "name": "UUPSUnsupportedProxiableUUID",
      "type": "error"
    },
    {
      "anonymous": false,
      "inputs": [
        {
          "indexed": false,
          "internalType": "uint64",
          "name": "version",
          "type": "uint64"
        }
      ],
      "name": "Initialized",
      "type": "event"
    },
    {
      "anonymous": false,
      "inputs": [
        {
          "indexed": true,
          "internalType": "bytes32",
          "name": "role",
          "type": "bytes32"
        },
        {
          "indexed": true,
          "internalType": "bytes32",
          "name": "previousAdminRole",
          "type": "bytes32"
        },
        {
          "indexed": true,
          "internalType": "bytes32",
          "name": "newAdminRole",
          "type": "bytes32"
        }
      ],
      "name": "RoleAdminChanged",
      "type": "event"
    },
    {
      "anonymous": false,
      "inputs": [
        {
          "indexed": true,
          "internalType": "bytes32",
          "name": "role",
          "type": "bytes32"
        },
        {
          "indexed": true,
          "internalType": "address",
          "name": "account",
          "type": "address"
        },
        {
          "indexed": true,
          "internalType": "address",
          "name": "sender",
          "type": "address"
        }
      ],
      "name": "RoleGranted",
      "type": "event"
    },
    {
      "anonymous": false,
      "inputs": [
        {
          "indexed": true,
          "internalType": "bytes32",
          "name": "role",
          "type": "bytes32"
        },
        {
          "indexed": true,
          "internalType": "address",
          "name": "account",
          "type": "address"
        },
        {
          "indexed": true,
          "internalType": "address",
          "name": "sender",
          "type": "address"
        }
      ],
      "name": "RoleRevoked",
      "type": "event"
    },
    {
      "anonymous": false,
      "inputs": [
        {
          "indexed": true,
          "internalType": "address",
          "name": "implementation",
          "type": "address"
        }
      ],
      "name": "Upgraded",
      "type": "event"
    },
    {
      "inputs": [],
      "name": "DEFAULT_ADMIN_ROLE",
      "outputs": [
        {
          "internalType": "bytes32",
          "name": "",
          "type": "bytes32"
        }
      ],
      "stateMutability": "view",
      "type": "function"
    },
    {
      "inputs": [],
      "name": "UPGRADE_INTERFACE_VERSION",
      "outputs": [
        {
          "internalType": "string",
          "name": "",
          "type": "string"
        }
      ],
      "stateMutability": "view",
      "type": "function"
    },
    {
      "inputs": [],
      "name": "checkIn",
      "outputs": [
        {
          "internalType": "contract CheckIn",
          "name": "",
          "type": "address"
        }
      ],
      "stateMutability": "view",
      "type": "function"
    },
    {
      "inputs": [],
      "name": "cryptRumble",
      "outputs": [
        {
          "internalType": "contract CryptoRumble",
          "name": "",
          "type": "address"
        }
      ],
      "stateMutability": "view",
      "type": "function"
    },
    {
      "inputs": [],
      "name": "equipment",
      "outputs": [
        {
          "internalType": "contract Equipment",
          "name": "",
          "type": "address"
        }
      ],
      "stateMutability": "view",
      "type": "function"
    },
    {
      "inputs": [],
      "name": "equipmentEdition",
      "outputs": [
        {
          "internalType": "contract EquipmentEdition",
          "name": "",
          "type": "address"
        }
      ],
      "stateMutability": "view",
      "type": "function"
    },
    {
      "inputs": [
        {
          "internalType": "address",
          "name": "player",
          "type": "address"
        }
      ],
      "name": "getAvailableLevel",
      "outputs": [
        {
          "components": [
            {
              "components": [
                {
                  "components": [
                    {
                      "internalType": "uint32[5]",
                      "name": "resistanceRatio",
                      "type": "uint32[5]"
                    },
                    {
                      "internalType": "uint32",
                      "name": "moves",
                      "type": "uint32"
                    },
                    {
                      "internalType": "uint32",
                      "name": "hp",
                      "type": "uint32"
                    },
                    {
                      "internalType": "uint32",
                      "name": "class",
                      "type": "uint32"
                    },
                    {
                      "internalType": "uint32[5]",
                      "name": "resistanceAbsolute",
                      "type": "uint32[5]"
                    },
                    {
                      "internalType": "uint32",
                      "name": "vitCost",
                      "type": "uint32"
                    },
                    {
                      "internalType": "uint32",
                      "name": "invulnerable",
                      "type": "uint32"
                    },
                    {
                      "internalType": "uint256",
                      "name": "board",
                      "type": "uint256"
                    },
                    {
                      "internalType": "address",
                      "name": "reward",
                      "type": "address"
                    }
                  ],
                  "internalType": "struct ILevel.Info",
                  "name": "info",
                  "type": "tuple"
                },
                {
                  "internalType": "uint256",
                  "name": "levelId",
                  "type": "uint256"
                },
                {
                  "components": [
                    {
                      "internalType": "uint256",
                      "name": "exp",
                      "type": "uint256"
                    },
                    {
                      "internalType": "uint256",
                      "name": "gp",
                      "type": "uint256"
                    },
                    {
                      "internalType": "uint256",
                      "name": "native",
                      "type": "uint256"
                    },
                    {
                      "internalType": "bool",
                      "name": "heroReward",
                      "type": "bool"
                    },
                    {
                      "internalType": "bool",
                      "name": "equipmentReward",
                      "type": "bool"
                    },
                    {
                      "internalType": "bool",
                      "name": "nftReward",
                      "type": "bool"
                    }
                  ],
                  "internalType": "struct API.RewardInfo",
                  "name": "reward",
                  "type": "tuple"
                }
              ],
              "internalType": "struct API.LevelInfo[]",
              "name": "levels",
              "type": "tuple[]"
            },
            {
              "components": [
                {
                  "components": [
                    {
                      "components": [
                        {
                          "internalType": "uint32[5]",
                          "name": "resistanceRatio",
                          "type": "uint32[5]"
                        },
                        {
                          "internalType": "uint32",
                          "name": "moves",
                          "type": "uint32"
                        },
                        {
                          "internalType": "uint32",
                          "name": "hp",
                          "type": "uint32"
                        },
                        {
                          "internalType": "uint32",
                          "name": "class",
                          "type": "uint32"
                        },
                        {
                          "internalType": "uint32[5]",
                          "name": "resistanceAbsolute",
                          "type": "uint32[5]"
                        },
                        {
                          "internalType": "uint32",
                          "name": "vitCost",
                          "type": "uint32"
                        },
                        {
                          "internalType": "uint32",
                          "name": "invulnerable",
                          "type": "uint32"
                        },
                        {
                          "internalType": "uint256",
                          "name": "board",
                          "type": "uint256"
                        },
                        {
                          "internalType": "address",
                          "name": "reward",
                          "type": "address"
                        }
                      ],
                      "internalType": "struct ILevel.Info",
                      "name": "info",
                      "type": "tuple"
                    },
                    {
                      "internalType": "uint32",
                      "name": "timeStart",
                      "type": "uint32"
                    },
                    {
                      "internalType": "uint32",
                      "name": "timeLength",
                      "type": "uint32"
                    },
                    {
                      "internalType": "bool",
                      "name": "farmReward",
                      "type": "bool"
                    }
                  ],
                  "internalType": "struct ILevel.Special",
                  "name": "info",
                  "type": "tuple"
                },
                {
                  "internalType": "uint256",
                  "name": "levelId",
                  "type": "uint256"
                },
                {
                  "components": [
                    {
                      "internalType": "uint256",
                      "name": "exp",
                      "type": "uint256"
                    },
                    {
                      "internalType": "uint256",
                      "name": "gp",
                      "type": "uint256"
                    },
                    {
                      "internalType": "uint256",
                      "name": "native",
                      "type": "uint256"
                    },
                    {
                      "internalType": "bool",
                      "name": "heroReward",
                      "type": "bool"
                    },
                    {
                      "internalType": "bool",
                      "name": "equipmentReward",
                      "type": "bool"
                    },
                    {
                      "internalType": "bool",
                      "name": "nftReward",
                      "type": "bool"
                    }
                  ],
                  "internalType": "struct API.RewardInfo",
                  "name": "reward",
                  "type": "tuple"
                }
              ],
              "internalType": "struct API.SpecialLevelInfo[]",
              "name": "specialLevels",
              "type": "tuple[]"
            },
            {
              "internalType": "uint256",
              "name": "progress",
              "type": "uint256"
            }
          ],
          "internalType": "struct API.Levels",
          "name": "lvs",
          "type": "tuple"
        }
      ],
      "stateMutability": "view",
      "type": "function"
    },
    {
      "inputs": [
        {
          "internalType": "address",
          "name": "player",
          "type": "address"
        },
        {
          "internalType": "uint256",
          "name": "timestamp",
          "type": "uint256"
        }
      ],
      "name": "getCheckInfo",
      "outputs": [
        {
          "components": [
            {
              "internalType": "uint256",
              "name": "dailyWinReward",
              "type": "uint256"
            },
            {
              "internalType": "bool",
              "name": "dailyWinClaimed",
              "type": "bool"
            },
            {
              "internalType": "bool",
              "name": "dailyWinCanClaim",
              "type": "bool"
            },
            {
              "internalType": "uint256[]",
              "name": "checkInRewards",
              "type": "uint256[]"
            },
            {
              "internalType": "bool[7]",
              "name": "checkedIn",
              "type": "bool[7]"
            },
            {
              "internalType": "uint256",
              "name": "nextRewardIndex",
              "type": "uint256"
            }
          ],
          "internalType": "struct API.CheckDTO",
          "name": "dto",
          "type": "tuple"
        }
      ],
      "stateMutability": "view",
      "type": "function"
    },
    {
      "inputs": [
        {
          "internalType": "address",
          "name": "player",
          "type": "address"
        }
      ],
      "name": "getCurrentGame",
      "outputs": [
        {
          "components": [
            {
              "components": [
                {
                  "internalType": "address",
                  "name": "player",
                  "type": "address"
                },
                {
                  "internalType": "uint256",
                  "name": "gameId",
                  "type": "uint256"
                },
                {
                  "internalType": "uint256",
                  "name": "levelId",
                  "type": "uint256"
                },
                {
                  "internalType": "uint256[3]",
                  "name": "heroId",
                  "type": "uint256[3]"
                },
                {
                  "internalType": "uint128",
                  "name": "timeStart",
                  "type": "uint128"
                },
                {
                  "internalType": "uint128",
                  "name": "timeEnd",
                  "type": "uint128"
                },
                {
                  "internalType": "uint256",
                  "name": "nonce",
                  "type": "uint256"
                },
                {
                  "internalType": "uint256",
                  "name": "board",
                  "type": "uint256"
                },
                {
                  "internalType": "uint256",
                  "name": "damageMade",
                  "type": "uint256"
                },
                {
                  "internalType": "uint256",
                  "name": "moveMade",
                  "type": "uint256"
                },
                {
                  "internalType": "bool",
                  "name": "specialLevel",
                  "type": "bool"
                }
              ],
              "internalType": "struct ICryptoRumble.Game",
              "name": "game",
              "type": "tuple"
            },
            {
              "components": [
                {
                  "components": [
                    {
                      "internalType": "uint128",
                      "name": "attack",
                      "type": "uint128"
                    },
                    {
                      "internalType": "uint32",
                      "name": "quality",
                      "type": "uint32"
                    },
                    {
                      "internalType": "uint32",
                      "name": "class",
                      "type": "uint32"
                    },
                    {
                      "internalType": "uint32",
                      "name": "lv",
                      "type": "uint32"
                    },
                    {
                      "internalType": "uint32",
                      "name": "exp",
                      "type": "uint32"
                    },
                    {
                      "internalType": "uint32",
                      "name": "locked",
                      "type": "uint32"
                    },
                    {
                      "internalType": "uint32",
                      "name": "lvCap",
                      "type": "uint32"
                    },
                    {
                      "internalType": "uint32",
                      "name": "edition",
                      "type": "uint32"
                    },
                    {
                      "internalType": "uint128",
                      "name": "atkGroth",
                      "type": "uint128"
                    },
                    {
                      "internalType": "uint128[3]",
                      "name": "equiped",
                      "type": "uint128[3]"
                    },
                    {
                      "internalType": "bool",
                      "name": "revealed",
                      "type": "bool"
                    }
                  ],
                  "internalType": "struct IHero.Stats",
                  "name": "stats",
                  "type": "tuple"
                },
                {
                  "components": [
                    {
                      "components": [
                        {
                          "internalType": "uint128",
                          "name": "attack",
                          "type": "uint128"
                        },
                        {
                          "internalType": "uint32",
                          "name": "quality",
                          "type": "uint32"
                        },
                        {
                          "internalType": "uint32",
                          "name": "locked",
                          "type": "uint32"
                        },
                        {
                          "internalType": "uint32",
                          "name": "edition",
                          "type": "uint32"
                        },
                        {
                          "internalType": "uint32",
                          "name": "kind",
                          "type": "uint32"
                        },
                        {
                          "internalType": "bool",
                          "name": "revealed",
                          "type": "bool"
                        }
                      ],
                      "internalType": "struct IEquipment.Stats",
                      "name": "stats",
                      "type": "tuple"
                    },
                    {
                      "internalType": "uint256",
                      "name": "equipmentId",
                      "type": "uint256"
                    }
                  ],
                  "internalType": "struct API.EquipmentInfo[]",
                  "name": "equipments",
                  "type": "tuple[]"
                },
                {
                  "internalType": "uint256",
                  "name": "heroId",
                  "type": "uint256"
                },
                {
                  "internalType": "uint64[5]",
                  "name": "atks",
                  "type": "uint64[5]"
                }
              ],
              "internalType": "struct API.HeroInfo[]",
              "name": "heroes",
              "type": "tuple[]"
            },
            {
              "components": [
                {
                  "components": [
                    {
                      "internalType": "uint32[5]",
                      "name": "resistanceRatio",
                      "type": "uint32[5]"
                    },
                    {
                      "internalType": "uint32",
                      "name": "moves",
                      "type": "uint32"
                    },
                    {
                      "internalType": "uint32",
                      "name": "hp",
                      "type": "uint32"
                    },
                    {
                      "internalType": "uint32",
                      "name": "class",
                      "type": "uint32"
                    },
                    {
                      "internalType": "uint32[5]",
                      "name": "resistanceAbsolute",
                      "type": "uint32[5]"
                    },
                    {
                      "internalType": "uint32",
                      "name": "vitCost",
                      "type": "uint32"
                    },
                    {
                      "internalType": "uint32",
                      "name": "invulnerable",
                      "type": "uint32"
                    },
                    {
                      "internalType": "uint256",
                      "name": "board",
                      "type": "uint256"
                    },
                    {
                      "internalType": "address",
                      "name": "reward",
                      "type": "address"
                    }
                  ],
                  "internalType": "struct ILevel.Info",
                  "name": "info",
                  "type": "tuple"
                },
                {
                  "internalType": "uint32",
                  "name": "timeStart",
                  "type": "uint32"
                },
                {
                  "internalType": "uint32",
                  "name": "timeLength",
                  "type": "uint32"
                },
                {
                  "internalType": "bool",
                  "name": "farmReward",
                  "type": "bool"
                }
              ],
              "internalType": "struct ILevel.Special",
              "name": "level",
              "type": "tuple"
            },
            {
              "components": [
                {
                  "internalType": "uint256",
                  "name": "exp",
                  "type": "uint256"
                },
                {
                  "internalType": "uint256",
                  "name": "gp",
                  "type": "uint256"
                },
                {
                  "internalType": "uint256",
                  "name": "native",
                  "type": "uint256"
                },
                {
                  "internalType": "bool",
                  "name": "heroReward",
                  "type": "bool"
                },
                {
                  "internalType": "bool",
                  "name": "equipmentReward",
                  "type": "bool"
                },
                {
                  "internalType": "bool",
                  "name": "nftReward",
                  "type": "bool"
                }
              ],
              "internalType": "struct API.RewardInfo",
              "name": "reward",
              "type": "tuple"
            }
          ],
          "internalType": "struct API.GameInfo",
          "name": "",
          "type": "tuple"
        }
      ],
      "stateMutability": "view",
      "type": "function"
    },
    {
      "inputs": [
        {
          "internalType": "uint256",
          "name": "gameId",
          "type": "uint256"
        }
      ],
      "name": "getGame",
      "outputs": [
        {
          "components": [
            {
              "components": [
                {
                  "internalType": "address",
                  "name": "player",
                  "type": "address"
                },
                {
                  "internalType": "uint256",
                  "name": "gameId",
                  "type": "uint256"
                },
                {
                  "internalType": "uint256",
                  "name": "levelId",
                  "type": "uint256"
                },
                {
                  "internalType": "uint256[3]",
                  "name": "heroId",
                  "type": "uint256[3]"
                },
                {
                  "internalType": "uint128",
                  "name": "timeStart",
                  "type": "uint128"
                },
                {
                  "internalType": "uint128",
                  "name": "timeEnd",
                  "type": "uint128"
                },
                {
                  "internalType": "uint256",
                  "name": "nonce",
                  "type": "uint256"
                },
                {
                  "internalType": "uint256",
                  "name": "board",
                  "type": "uint256"
                },
                {
                  "internalType": "uint256",
                  "name": "damageMade",
                  "type": "uint256"
                },
                {
                  "internalType": "uint256",
                  "name": "moveMade",
                  "type": "uint256"
                },
                {
                  "internalType": "bool",
                  "name": "specialLevel",
                  "type": "bool"
                }
              ],
              "internalType": "struct ICryptoRumble.Game",
              "name": "game",
              "type": "tuple"
            },
            {
              "components": [
                {
                  "components": [
                    {
                      "internalType": "uint128",
                      "name": "attack",
                      "type": "uint128"
                    },
                    {
                      "internalType": "uint32",
                      "name": "quality",
                      "type": "uint32"
                    },
                    {
                      "internalType": "uint32",
                      "name": "class",
                      "type": "uint32"
                    },
                    {
                      "internalType": "uint32",
                      "name": "lv",
                      "type": "uint32"
                    },
                    {
                      "internalType": "uint32",
                      "name": "exp",
                      "type": "uint32"
                    },
                    {
                      "internalType": "uint32",
                      "name": "locked",
                      "type": "uint32"
                    },
                    {
                      "internalType": "uint32",
                      "name": "lvCap",
                      "type": "uint32"
                    },
                    {
                      "internalType": "uint32",
                      "name": "edition",
                      "type": "uint32"
                    },
                    {
                      "internalType": "uint128",
                      "name": "atkGroth",
                      "type": "uint128"
                    },
                    {
                      "internalType": "uint128[3]",
                      "name": "equiped",
                      "type": "uint128[3]"
                    },
                    {
                      "internalType": "bool",
                      "name": "revealed",
                      "type": "bool"
                    }
                  ],
                  "internalType": "struct IHero.Stats",
                  "name": "stats",
                  "type": "tuple"
                },
                {
                  "components": [
                    {
                      "components": [
                        {
                          "internalType": "uint128",
                          "name": "attack",
                          "type": "uint128"
                        },
                        {
                          "internalType": "uint32",
                          "name": "quality",
                          "type": "uint32"
                        },
                        {
                          "internalType": "uint32",
                          "name": "locked",
                          "type": "uint32"
                        },
                        {
                          "internalType": "uint32",
                          "name": "edition",
                          "type": "uint32"
                        },
                        {
                          "internalType": "uint32",
                          "name": "kind",
                          "type": "uint32"
                        },
                        {
                          "internalType": "bool",
                          "name": "revealed",
                          "type": "bool"
                        }
                      ],
                      "internalType": "struct IEquipment.Stats",
                      "name": "stats",
                      "type": "tuple"
                    },
                    {
                      "internalType": "uint256",
                      "name": "equipmentId",
                      "type": "uint256"
                    }
                  ],
                  "internalType": "struct API.EquipmentInfo[]",
                  "name": "equipments",
                  "type": "tuple[]"
                },
                {
                  "internalType": "uint256",
                  "name": "heroId",
                  "type": "uint256"
                },
                {
                  "internalType": "uint64[5]",
                  "name": "atks",
                  "type": "uint64[5]"
                }
              ],
              "internalType": "struct API.HeroInfo[]",
              "name": "heroes",
              "type": "tuple[]"
            },
            {
              "components": [
                {
                  "components": [
                    {
                      "internalType": "uint32[5]",
                      "name": "resistanceRatio",
                      "type": "uint32[5]"
                    },
                    {
                      "internalType": "uint32",
                      "name": "moves",
                      "type": "uint32"
                    },
                    {
                      "internalType": "uint32",
                      "name": "hp",
                      "type": "uint32"
                    },
                    {
                      "internalType": "uint32",
                      "name": "class",
                      "type": "uint32"
                    },
                    {
                      "internalType": "uint32[5]",
                      "name": "resistanceAbsolute",
                      "type": "uint32[5]"
                    },
                    {
                      "internalType": "uint32",
                      "name": "vitCost",
                      "type": "uint32"
                    },
                    {
                      "internalType": "uint32",
                      "name": "invulnerable",
                      "type": "uint32"
                    },
                    {
                      "internalType": "uint256",
                      "name": "board",
                      "type": "uint256"
                    },
                    {
                      "internalType": "address",
                      "name": "reward",
                      "type": "address"
                    }
                  ],
                  "internalType": "struct ILevel.Info",
                  "name": "info",
                  "type": "tuple"
                },
                {
                  "internalType": "uint32",
                  "name": "timeStart",
                  "type": "uint32"
                },
                {
                  "internalType": "uint32",
                  "name": "timeLength",
                  "type": "uint32"
                },
                {
                  "internalType": "bool",
                  "name": "farmReward",
                  "type": "bool"
                }
              ],
              "internalType": "struct ILevel.Special",
              "name": "level",
              "type": "tuple"
            },
            {
              "components": [
                {
                  "internalType": "uint256",
                  "name": "exp",
                  "type": "uint256"
                },
                {
                  "internalType": "uint256",
                  "name": "gp",
                  "type": "uint256"
                },
                {
                  "internalType": "uint256",
                  "name": "native",
                  "type": "uint256"
                },
                {
                  "internalType": "bool",
                  "name": "heroReward",
                  "type": "bool"
                },
                {
                  "internalType": "bool",
                  "name": "equipmentReward",
                  "type": "bool"
                },
                {
                  "internalType": "bool",
                  "name": "nftReward",
                  "type": "bool"
                }
              ],
              "internalType": "struct API.RewardInfo",
              "name": "reward",
              "type": "tuple"
            }
          ],
          "internalType": "struct API.GameInfo",
          "name": "gameInfo",
          "type": "tuple"
        }
      ],
      "stateMutability": "view",
      "type": "function"
    },
    {
      "inputs": [
        {
          "internalType": "address",
          "name": "player",
          "type": "address"
        },
        {
          "components": [
            {
              "internalType": "uint256",
              "name": "from",
              "type": "uint256"
            },
            {
              "internalType": "uint256",
              "name": "length",
              "type": "uint256"
            }
          ],
          "internalType": "struct API.Filter",
          "name": "filter",
          "type": "tuple"
        }
      ],
      "name": "getOwnedEquipments",
      "outputs": [
        {
          "components": [
            {
              "components": [
                {
                  "components": [
                    {
                      "internalType": "uint128",
                      "name": "attack",
                      "type": "uint128"
                    },
                    {
                      "internalType": "uint32",
                      "name": "quality",
                      "type": "uint32"
                    },
                    {
                      "internalType": "uint32",
                      "name": "locked",
                      "type": "uint32"
                    },
                    {
                      "internalType": "uint32",
                      "name": "edition",
                      "type": "uint32"
                    },
                    {
                      "internalType": "uint32",
                      "name": "kind",
                      "type": "uint32"
                    },
                    {
                      "internalType": "bool",
                      "name": "revealed",
                      "type": "bool"
                    }
                  ],
                  "internalType": "struct IEquipment.Stats",
                  "name": "stats",
                  "type": "tuple"
                },
                {
                  "internalType": "uint256",
                  "name": "equipmentId",
                  "type": "uint256"
                }
              ],
              "internalType": "struct API.EquipmentInfo[]",
              "name": "stats",
              "type": "tuple[]"
            },
            {
              "internalType": "uint256",
              "name": "total",
              "type": "uint256"
            }
          ],
          "internalType": "struct API.OwnedEquipment",
          "name": "equipments",
          "type": "tuple"
        }
      ],
      "stateMutability": "view",
      "type": "function"
    },
    {
      "inputs": [
        {
          "internalType": "address",
          "name": "player",
          "type": "address"
        },
        {
          "components": [
            {
              "internalType": "uint256",
              "name": "from",
              "type": "uint256"
            },
            {
              "internalType": "uint256",
              "name": "length",
              "type": "uint256"
            }
          ],
          "internalType": "struct API.Filter",
          "name": "filter",
          "type": "tuple"
        }
      ],
      "name": "getOwnedHeroes",
      "outputs": [
        {
          "components": [
            {
              "components": [
                {
                  "components": [
                    {
                      "internalType": "uint128",
                      "name": "attack",
                      "type": "uint128"
                    },
                    {
                      "internalType": "uint32",
                      "name": "quality",
                      "type": "uint32"
                    },
                    {
                      "internalType": "uint32",
                      "name": "class",
                      "type": "uint32"
                    },
                    {
                      "internalType": "uint32",
                      "name": "lv",
                      "type": "uint32"
                    },
                    {
                      "internalType": "uint32",
                      "name": "exp",
                      "type": "uint32"
                    },
                    {
                      "internalType": "uint32",
                      "name": "locked",
                      "type": "uint32"
                    },
                    {
                      "internalType": "uint32",
                      "name": "lvCap",
                      "type": "uint32"
                    },
                    {
                      "internalType": "uint32",
                      "name": "edition",
                      "type": "uint32"
                    },
                    {
                      "internalType": "uint128",
                      "name": "atkGroth",
                      "type": "uint128"
                    },
                    {
                      "internalType": "uint128[3]",
                      "name": "equiped",
                      "type": "uint128[3]"
                    },
                    {
                      "internalType": "bool",
                      "name": "revealed",
                      "type": "bool"
                    }
                  ],
                  "internalType": "struct IHero.Stats",
                  "name": "stats",
                  "type": "tuple"
                },
                {
                  "components": [
                    {
                      "components": [
                        {
                          "internalType": "uint128",
                          "name": "attack",
                          "type": "uint128"
                        },
                        {
                          "internalType": "uint32",
                          "name": "quality",
                          "type": "uint32"
                        },
                        {
                          "internalType": "uint32",
                          "name": "locked",
                          "type": "uint32"
                        },
                        {
                          "internalType": "uint32",
                          "name": "edition",
                          "type": "uint32"
                        },
                        {
                          "internalType": "uint32",
                          "name": "kind",
                          "type": "uint32"
                        },
                        {
                          "internalType": "bool",
                          "name": "revealed",
                          "type": "bool"
                        }
                      ],
                      "internalType": "struct IEquipment.Stats",
                      "name": "stats",
                      "type": "tuple"
                    },
                    {
                      "internalType": "uint256",
                      "name": "equipmentId",
                      "type": "uint256"
                    }
                  ],
                  "internalType": "struct API.EquipmentInfo[]",
                  "name": "equipments",
                  "type": "tuple[]"
                },
                {
                  "internalType": "uint256",
                  "name": "heroId",
                  "type": "uint256"
                },
                {
                  "internalType": "uint64[5]",
                  "name": "atks",
                  "type": "uint64[5]"
                }
              ],
              "internalType": "struct API.HeroInfo[]",
              "name": "stats",
              "type": "tuple[]"
            },
            {
              "internalType": "uint256",
              "name": "total",
              "type": "uint256"
            }
          ],
          "internalType": "struct API.OwnedHero",
          "name": "heroes",
          "type": "tuple"
        }
      ],
      "stateMutability": "view",
      "type": "function"
    },
    {
      "inputs": [
        {
          "internalType": "contract IERC721Enumerable",
          "name": "nft",
          "type": "address"
        },
        {
          "internalType": "address",
          "name": "player",
          "type": "address"
        },
        {
          "components": [
            {
              "internalType": "uint256",
              "name": "from",
              "type": "uint256"
            },
            {
              "internalType": "uint256",
              "name": "length",
              "type": "uint256"
            }
          ],
          "internalType": "struct API.Filter",
          "name": "filter",
          "type": "tuple"
        }
      ],
      "name": "getOwnedNFT",
      "outputs": [
        {
          "components": [
            {
              "internalType": "uint256[]",
              "name": "ids",
              "type": "uint256[]"
            },
            {
              "internalType": "uint256",
              "name": "total",
              "type": "uint256"
            }
          ],
          "internalType": "struct API.OwnedNFT",
          "name": "owned",
          "type": "tuple"
        }
      ],
      "stateMutability": "view",
      "type": "function"
    },
    {
      "inputs": [
        {
          "internalType": "bytes32",
          "name": "role",
          "type": "bytes32"
        }
      ],
      "name": "getRoleAdmin",
      "outputs": [
        {
          "internalType": "bytes32",
          "name": "",
          "type": "bytes32"
        }
      ],
      "stateMutability": "view",
      "type": "function"
    },
    {
      "inputs": [
        {
          "internalType": "bytes32",
          "name": "role",
          "type": "bytes32"
        },
        {
          "internalType": "address",
          "name": "account",
          "type": "address"
        }
      ],
      "name": "grantRole",
      "outputs": [],
      "stateMutability": "nonpayable",
      "type": "function"
    },
    {
      "inputs": [
        {
          "internalType": "bytes32",
          "name": "role",
          "type": "bytes32"
        },
        {
          "internalType": "address",
          "name": "account",
          "type": "address"
        }
      ],
      "name": "hasRole",
      "outputs": [
        {
          "internalType": "bool",
          "name": "",
          "type": "bool"
        }
      ],
      "stateMutability": "view",
      "type": "function"
    },
    {
      "inputs": [],
      "name": "hero",
      "outputs": [
        {
          "internalType": "contract Hero",
          "name": "",
          "type": "address"
        }
      ],
      "stateMutability": "view",
      "type": "function"
    },
    {
      "inputs": [],
      "name": "heroEdition",
      "outputs": [
        {
          "internalType": "contract HeroEdition",
          "name": "",
          "type": "address"
        }
      ],
      "stateMutability": "view",
      "type": "function"
    },
    {
      "inputs": [
        {
          "internalType": "contract CryptoRumble",
          "name": "cr",
          "type": "address"
        },
        {
          "internalType": "contract Equipment",
          "name": "eq",
          "type": "address"
        },
        {
          "internalType": "contract Hero",
          "name": "h",
          "type": "address"
        },
        {
          "internalType": "contract Level",
          "name": "l",
          "type": "address"
        },
        {
          "internalType": "contract EquipmentEdition",
          "name": "ee",
          "type": "address"
        },
        {
          "internalType": "contract HeroEdition",
          "name": "he",
          "type": "address"
        }
      ],
      "name": "initialize",
      "outputs": [],
      "stateMutability": "nonpayable",
      "type": "function"
    },
    {
      "inputs": [],
      "name": "level",
      "outputs": [
        {
          "internalType": "contract Level",
          "name": "",
          "type": "address"
        }
      ],
      "stateMutability": "view",
      "type": "function"
    },
    {
      "inputs": [],
      "name": "proxiableUUID",
      "outputs": [
        {
          "internalType": "bytes32",
          "name": "",
          "type": "bytes32"
        }
      ],
      "stateMutability": "view",
      "type": "function"
    },
    {
      "inputs": [
        {
          "internalType": "bytes32",
          "name": "role",
          "type": "bytes32"
        },
        {
          "internalType": "address",
          "name": "callerConfirmation",
          "type": "address"
        }
      ],
      "name": "renounceRole",
      "outputs": [],
      "stateMutability": "nonpayable",
      "type": "function"
    },
    {
      "inputs": [
        {
          "internalType": "bytes32",
          "name": "role",
          "type": "bytes32"
        },
        {
          "internalType": "address",
          "name": "account",
          "type": "address"
        }
      ],
      "name": "revokeRole",
      "outputs": [],
      "stateMutability": "nonpayable",
      "type": "function"
    },
    {
      "inputs": [
        {
          "internalType": "contract CheckIn",
          "name": "ci",
          "type": "address"
        }
      ],
      "name": "setCheckIn",
      "outputs": [],
      "stateMutability": "nonpayable",
      "type": "function"
    },
    {
      "inputs": [
        {
          "internalType": "contract Equipment",
          "name": "eq",
          "type": "address"
        },
        {
          "internalType": "contract EquipmentEdition",
          "name": "ed",
          "type": "address"
        }
      ],
      "name": "setEquipment",
      "outputs": [],
      "stateMutability": "nonpayable",
      "type": "function"
    },
    {
      "inputs": [
        {
          "internalType": "contract Level",
          "name": "l",
          "type": "address"
        }
      ],
      "name": "setLevel",
      "outputs": [],
      "stateMutability": "nonpayable",
      "type": "function"
    },
    {
      "inputs": [
        {
          "internalType": "bytes4",
          "name": "interfaceId",
          "type": "bytes4"
        }
      ],
      "name": "supportsInterface",
      "outputs": [
        {
          "internalType": "bool",
          "name": "",
          "type": "bool"
        }
      ],
      "stateMutability": "view",
      "type": "function"
    },
    {
      "inputs": [
        {
          "internalType": "address",
          "name": "newImplementation",
          "type": "address"
        },
        {
          "internalType": "bytes",
          "name": "data",
          "type": "bytes"
        }
      ],
      "name": "upgradeToAndCall",
      "outputs": [],
      "stateMutability": "payable",
      "type": "function"
    }
  ],
  "bytecode": "0x60a06040523060805234801561001457600080fd5b50608051613e4061003e6000396000818161247c015281816124a501526125f00152613e406000f3fe6080604052600436106101b75760003560e01c80637f513d5d116100ec578063b0043ecc1161008a578063cc2a9a5b11610064578063cc2a9a5b14610542578063ccb6ae0214610562578063d547741f14610582578063ea1e97ff146105a257600080fd5b8063b0043ecc146104c8578063b4ea54c2146104f5578063cbd85ca41461052257600080fd5b806391d14854116100c657806391d1485414610435578063a217fddf14610455578063a2f77bcc1461046a578063ad3cb1cc1461048a57600080fd5b80637f513d5d146103c857806381f7bf1e146103e85780638403f4fc1461040857600080fd5b8063447b2a061161015957806352d1902d1161013357806352d1902d146103535780636fd5ae151461036857806374c9f2a3146103885780637f26f765146103a857600080fd5b8063447b2a06146102f35780634ed55d12146103205780634f1ef2861461034057600080fd5b8063248a9ca311610195578063248a9ca3146102565780632f2ff15d1461028457806336568abe146102a657806338d5b36d146102c657600080fd5b806301ffc9a7146101bc578063037e6f8c146101f1578063183ff0851461021e575b600080fd5b3480156101c857600080fd5b506101dc6101d7366004612bcb565b6105c2565b60405190151581526020015b60405180910390f35b3480156101fd57600080fd5b5061021161020c366004612c22565b6105f9565b6040516101e89190612ceb565b34801561022a57600080fd5b5060065461023e906001600160a01b031681565b6040516001600160a01b0390911681526020016101e8565b34801561026257600080fd5b50610276610271366004612d1d565b61086f565b6040519081526020016101e8565b34801561029057600080fd5b506102a461029f366004612d36565b610891565b005b3480156102b257600080fd5b506102a46102c1366004612d36565b6108b3565b3480156102d257600080fd5b506102e66102e1366004612c22565b6108eb565b6040516101e89190612efc565b3480156102ff57600080fd5b5061031361030e366004612f18565b610e5e565b6040516101e89190613086565b34801561032c57600080fd5b5060005461023e906001600160a01b031681565b6102a461034e36600461327f565b610ee7565b34801561035f57600080fd5b50610276610f06565b34801561037457600080fd5b5060035461023e906001600160a01b031681565b34801561039457600080fd5b5060015461023e906001600160a01b031681565b3480156103b457600080fd5b506102a46103c3366004612f18565b610f23565b3480156103d457600080fd5b5060025461023e906001600160a01b031681565b3480156103f457600080fd5b5060045461023e906001600160a01b031681565b34801561041457600080fd5b50610428610423366004613326565b610f51565b6040516101e8919061339e565b34801561044157600080fd5b506101dc610450366004612d36565b61112d565b34801561046157600080fd5b50610276600081565b34801561047657600080fd5b50610313610485366004612d1d565b611165565b34801561049657600080fd5b506104bb604051806040016040528060058152602001640352e302e360dc1b81525081565b6040516101e891906133de565b3480156104d457600080fd5b506104e86104e3366004613411565b611906565b6040516101e8919061343d565b34801561050157600080fd5b50610515610510366004612f18565b611b89565b6040516101e8919061351c565b34801561052e57600080fd5b5060055461023e906001600160a01b031681565b34801561054e57600080fd5b506102a461055d3660046135bf565b61213c565b34801561056e57600080fd5b506102a461057d366004613641565b6122bf565b34801561058e57600080fd5b506102a461059d366004612d36565b6122f9565b3480156105ae57600080fd5b506102a46105bd366004612f18565b612315565b60006001600160e01b03198216637965db0b60e01b14806105f357506301ffc9a760e01b6001600160e01b03198316145b92915050565b6040805180820190915260608152600060208201526001546040516370a0823160e01b81526001600160a01b03858116600483015260009216906370a0823190602401602060405180830381865afa158015610659573d6000803e3d6000fd5b505050506040513d601f19601f8201168201806040525081019061067d919061366f565b6020808401829052909150600090829061069b90860135863561369e565b116106b4576106af6020850135853561369e565b6106b6565b815b9050806000036106c35750805b6106ce8435826136b1565b6001600160401b038111156106e5576106e5613187565b60405190808252806020026020018201604052801561071e57816020015b61070b61288d565b8152602001906001900390816107035790505b508352600084355b8281101561086557600154604051632f745c5960e01b81526001600160a01b038981166004830152602482018490526000921690632f745c5990604401602060405180830381865afa158015610780573d6000803e3d6000fd5b505050506040513d601f19601f820116820180604052508101906107a4919061366f565b6040805180820191829052600154631760945960e01b9092526044810183905291925081906001600160a01b031663176094596064830160c060405180830381865afa1580156107f8573d6000803e3d6000fd5b505050506040513d601f19601f8201168201806040525081019061081c9190613704565b8152602001829052865180518590811061083857610838613785565b6020026020010181905250828061084e9061379b565b93505050808061085d9061379b565b915050610726565b5050505092915050565b6000908152600080516020613deb833981519152602052604090206001015490565b61089a8261086f565b6108a381612343565b6108ad8383612350565b50505050565b6001600160a01b03811633146108dc5760405163334bd91960e11b815260040160405180910390fd5b6108e682826123f5565b505050565b6040805180820190915260608152600060208201526002546040516370a0823160e01b81526001600160a01b03858116600483015260009216906370a0823190602401602060405180830381865afa15801561094b573d6000803e3d6000fd5b505050506040513d601f19601f8201168201806040525081019061096f919061366f565b6020808401829052909150600090829061098d90860135863561369e565b116109a6576109a16020850135853561369e565b6109a8565b815b9050806000036109b55750805b6109c08435826136b1565b6001600160401b038111156109d7576109d7613187565b604051908082528060200260200182016040528015610a1057816020015b6109fd6128d5565b8152602001906001900390816109f55790505b508352600084355b8281101561086557600254604051632f745c5960e01b81526001600160a01b038981166004830152602482018490526000921690632f745c5990604401602060405180830381865afa158015610a72573d6000803e3d6000fd5b505050506040513d601f19601f82011682018060405250810190610a96919061366f565b600254604051631760945960e01b8152600481018390529192506000916001600160a01b03909116906317609459906024016101a060405180830381865afa158015610ae6573d6000803e3d6000fd5b505050506040513d601f19601f82011682018060405250810190610b0a919061380b565b90506000805b6003811015610b63578261012001518160038110610b3057610b30613785565b60200201516001600160801b031615610b515781610b4d8161379b565b9250505b80610b5b8161379b565b915050610b10565b50600254604051630cff840f60e41b8152600481018590526000916001600160a01b03169063cff840f09060240160c060405180830381865afa158015610bae573d6000803e3d6000fd5b505050506040513d601f19601f82011682018060405250810190610bd291906138e7565b5090506040518060800160405280848152602001836001600160401b03811115610bfe57610bfe613187565b604051908082528060200260200182016040528015610c3757816020015b610c2461288d565b815260200190600190039081610c1c5790505b508152602081018690526040018290528951805188908110610c5b57610c5b613785565b60200260200101819052506000805b6003811015610e38578461012001518160038110610c8a57610c8a613785565b60200201516001600160801b031615610e26576001548b5180516001600160a01b0390921691631760945991908b908110610cc757610cc7613785565b60200260200101516000015161012001518360038110610ce957610ce9613785565b60200201516040516001600160e01b031960e084901b1681526001600160801b03909116600482015260240160c060405180830381865afa158015610d32573d6000803e3d6000fd5b505050506040513d601f19601f82011682018060405250810190610d569190613704565b8b5180518a908110610d6a57610d6a613785565b6020026020010151602001518381518110610d8757610d87613785565b6020908102919091010151528a51805189908110610da757610da7613785565b60200260200101516000015161012001518160038110610dc957610dc9613785565b60200201516001600160801b03168b600001518981518110610ded57610ded613785565b6020026020010151602001518381518110610e0a57610e0a613785565b602090810291909101810151015281610e228161379b565b9250505b80610e308161379b565b915050610c6a565b5086610e438161379b565b97505050505050508080610e569061379b565b915050610a18565b610e66612908565b600080546040516332b8228360e11b81526001600160a01b03858116600483015290911690636570450690602401602060405180830381865afa158015610eb1573d6000803e3d6000fd5b505050506040513d601f19601f82011682018060405250810190610ed5919061366f565b9050610ee081611165565b9392505050565b610eef612471565b610ef882612518565b610f028282612523565b5050565b6000610f106125e5565b50600080516020613dcb83398151915290565b6000610f2e81612343565b50600680546001600160a01b0319166001600160a01b0392909216919091179055565b604080518082018252606081526000602082015290516370a0823160e01b81526001600160a01b0384811660048301528516906370a0823190602401602060405180830381865afa158015610faa573d6000803e3d6000fd5b505050506040513d601f19601f82011682018060405250810190610fce919061366f565b602080830182905260009190610fe890850135853561369e565b1161100157610ffc6020840135843561369e565b611007565b81602001515b905080600003611018575060208101515b6110238335826136b1565b6001600160401b0381111561103a5761103a613187565b604051908082528060200260200182016040528015611063578160200160208202803683370190505b508252600083355b8281101561112357604051632f745c5960e01b81526001600160a01b03878116600483015260248201839052881690632f745c5990604401602060405180830381865afa1580156110c0573d6000803e3d6000fd5b505050506040513d601f19601f820116820180604052508101906110e4919061366f565b84518051849081106110f8576110f8613785565b60209081029190910101528161110d8161379b565b925050808061111b9061379b565b91505061106b565b5050509392505050565b6000918252600080516020613deb833981519152602090815260408084206001600160a01b0393909316845291905290205460ff1690565b61116d612908565b600054604051630117a5b960e41b8152600481018490526001600160a01b039091169063117a5b90906024016101a060405180830381865afa1580156111b7573d6000803e3d6000fd5b505050506040513d601f19601f820116820180604052508101906111db91906139bc565b80825261014001511561126d57600354815160409081015190516376b7c3af60e01b81526001600160a01b03909216916376b7c3af916112219160040190815260200190565b61028060405180830381865afa15801561123f573d6000803e3d6000fd5b505050506040513d601f19601f820116820180604052508101906112639190613b74565b60408201526112ef565b60035481516040908101519051630219207560e61b81526001600160a01b03909216916386481d40916112a69160040190815260200190565b61022060405180830381865afa1580156112c4573d6000803e3d6000fd5b505050506040513d601f19601f820116820180604052508101906112e89190613bf5565b6040820151525b6000805b600381101561133d57825160600151816003811061131357611313613785565b60200201511561132b57816113278161379b565b9250505b806113358161379b565b9150506112f3565b506000816001600160401b0381111561135857611358613187565b60405190808252806020026020018201604052801561139157816020015b61137e6128d5565b8152602001906001900390816113765790505b50905060005b82811015611825576002548451606001516001600160a01b039091169063176094599083600381106113cb576113cb613785565b60200201516040518263ffffffff1660e01b81526004016113ee91815260200190565b6101a060405180830381865afa15801561140c573d6000803e3d6000fd5b505050506040513d601f19601f82011682018060405250810190611430919061380b565b82828151811061144257611442613785565b602090810291909101015152835160600151816003811061146557611465613785565b602002015182828151811061147c5761147c613785565b602002602001015160400181815250506000805b6003811015611500578383815181106114ab576114ab613785565b602002602001015160000151610120015181600381106114cd576114cd613785565b60200201516001600160801b0316156114ee57816114ea8161379b565b9250505b806114f88161379b565b915050611490565b50806001600160401b0381111561151957611519613187565b60405190808252806020026020018201604052801561155257816020015b61153f61288d565b8152602001906001900390816115375790505b5083838151811061156557611565613785565b6020026020010151602001819052506000805b600381101561175d5784848151811061159357611593613785565b602002602001015160000151610120015181600381106115b5576115b5613785565b60200201516001600160801b03161561174b5760015485516001600160a01b03909116906317609459908790879081106115f1576115f1613785565b6020026020010151600001516101200151836003811061161357611613613785565b60200201516040516001600160e01b031960e084901b1681526001600160801b03909116600482015260240160c060405180830381865afa15801561165c573d6000803e3d6000fd5b505050506040513d601f19601f820116820180604052508101906116809190613704565b85858151811061169257611692613785565b60200260200101516020015183815181106116af576116af613785565b6020026020010151600001819052508484815181106116d0576116d0613785565b602002602001015160000151610120015181600381106116f2576116f2613785565b60200201516001600160801b031685858151811061171257611712613785565b602002602001015160200151838151811061172f5761172f613785565b6020908102919091018101510152816117478161379b565b9250505b806117558161379b565b915050611578565b506002548651606001516001600160a01b039091169063cff840f090856003811061178a5761178a613785565b60200201516040518263ffffffff1660e01b81526004016117ad91815260200190565b60c060405180830381865afa1580156117ca573d6000803e3d6000fd5b505050506040513d601f19601f820116820180604052508101906117ee91906138e7565b5084848151811061180157611801613785565b6020026020010151606001819052505050808061181d9061379b565b915050611397565b50602083018190526040808401515161010001518451519151630c00007b60e41b81526001600160a01b0392831660048201526000929091169063c00007b09060240160c060405180830381865afa158015611885573d6000803e3d6000fd5b505050506040513d601f19601f820116820180604052508101906118a99190613c12565b90506040518060c001604052808260000151815260200182602001518152602001826040015181526020018260600151151581526020018260800151151581526020018260a0015115158152508460600181905250505050919050565b61190e612967565b600660009054906101000a90046001600160a01b03166001600160a01b03166320ca7c956040518163ffffffff1660e01b8152600401602060405180830381865afa158015611961573d6000803e3d6000fd5b505050506040513d601f19601f82011682018060405250810190611985919061366f565b8152600654604051637f1ebff760e11b81526001600160a01b038581166004830152600092169063fe3d7fee906024016040805180830381865afa1580156119d1573d6000803e3d6000fd5b505050506040513d601f19601f820116820180604052508101906119f59190613c61565b602080820151151560408086019190915282511515918501919091526006548151634616dc8d60e11b815291519293506001600160a01b031691638c2db91a916004808201926000929091908290030181865afa158015611a5a573d6000803e3d6000fd5b505050506040513d6000823e601f3d908101601f19168201604052611a829190810190613cbb565b60608301526000611a966201518085613d60565b9050600080611aa66006846136b1565b90505b611ab483600161369e565b81101561086557600654604051638ef411e560e01b81526001600160a01b038981166004830152602482018490526000928392911690638ef411e5906044016040805180830381865afa158015611b0f573d6000803e3d6000fd5b505050506040513d601f19601f82011682018060405250810190611b339190613d82565b91509150848303611b465760a087018190525b8187608001518560078110611b5d57611b5d613785565b9115156020909202015283611b718161379b565b94505050508080611b819061379b565b915050611aa9565b611bad60405180606001604052806060815260200160608152602001600081525090565b600054604051636d42c4d160e11b81526001600160a01b0384811660048301529091169063da8589a290602401602060405180830381865afa158015611bf7573d6000803e3d6000fd5b505050506040513d601f19601f82011682018060405250810190611c1b919061366f565b604080830191909152600354815163cc06c35960e01b815291516000926001600160a01b039092169163cc06c3599160048083019260209291908290030181865afa158015611c6e573d6000803e3d6000fd5b505050506040513d601f19601f82011682018060405250810190611c92919061366f565b90506000600360009054906101000a90046001600160a01b03166001600160a01b03166319c1adcc6040518163ffffffff1660e01b8152600401602060405180830381865afa158015611ce9573d6000803e3d6000fd5b505050506040513d601f19601f82011682018060405250810190611d0d919061366f565b9050816001600160401b03811115611d2757611d27613187565b604051908082528060200260200182016040528015611d6057816020015b611d4d61299a565b815260200190600190039081611d455790505b50835260005b82811015611f3a576003546000906001600160a01b03166386481d40611d8d84600161369e565b6040518263ffffffff1660e01b8152600401611dab91815260200190565b61022060405180830381865afa158015611dc9573d6000803e3d6000fd5b505050506040513d601f19601f82011682018060405250810190611ded9190613bf5565b610100810151604051630c00007b60e41b81526001600160a01b0389811660048301529293506000929091169063c00007b09060240160c060405180830381865afa158015611e40573d6000803e3d6000fd5b505050506040513d601f19601f82011682018060405250810190611e649190613c12565b905060006040518060c001604052808360000151815260200183602001518152602001836040015181526020018360600151151581526020018360800151151581526020018360a001511515815250905060006001600160a01b03168361010001516001600160a01b031614158015611ede57508160a001515b506040518060600160405280848152602001856001611efd919061369e565b81526020018290528751805186908110611f1957611f19613785565b60200260200101819052505050508080611f329061379b565b915050611d66565b50806001600160401b03811115611f5357611f53613187565b604051908082528060200260200182016040528015611f8c57816020015b611f796129f8565b815260200190600190039081611f715790505b50602084015260005b81811015612134576003546000906001600160a01b03166376b7c3af611fbc84600161369e565b6040518263ffffffff1660e01b8152600401611fda91815260200190565b61028060405180830381865afa158015611ff8573d6000803e3d6000fd5b505050506040513d601f19601f8201168201806040525081019061201c9190613b74565b80516101000151604051630c00007b60e41b81526001600160a01b0389811660048301529293506000929091169063c00007b09060240160c060405180830381865afa158015612070573d6000803e3d6000fd5b505050506040513d601f19601f820116820180604052508101906120949190613c12565b6040805160c0810182528251815260208084015181830152828401518284015260608085015115158184015260808086015115159084015260a08086015115159084015283519081019093528583529293509181016120f486600161369e565b8152602001828152508760200151858151811061211357612113613785565b6020026020010181905250505050808061212c9061379b565b915050611f95565b505050919050565b7ff0c57e16840df040f15088dc2f81fe391c3923bec73e23a9662efc9c229c6a008054600160401b810460ff1615906001600160401b03166000811580156121815750825b90506000826001600160401b0316600114801561219d5750303b155b9050811580156121ab575080155b156121c95760405163f92ee8a960e01b815260040160405180910390fd5b845467ffffffffffffffff1916600117855583156121f357845460ff60401b1916600160401b1785555b6121fb61262e565b61220361262e565b600080546001600160a01b03199081166001600160a01b038e81169190911783556001805483168e83161790556002805483168d83161790556003805483168c83161790556004805483168b83161790556005805490921690891617905561226b9033612350565b5083156122b257845460ff60401b19168555604051600181527fc7f505b2f371ae2175ee4913f4499e1f2633a7b5936321eed1cdaeb6115181d29060200160405180910390a15b5050505050505050505050565b60006122ca81612343565b50600180546001600160a01b039384166001600160a01b03199182161790915560048054929093169116179055565b6123028261086f565b61230b81612343565b6108ad83836123f5565b600061232081612343565b50600380546001600160a01b0319166001600160a01b0392909216919091179055565b61234d8133612636565b50565b6000600080516020613deb83398151915261236b848461112d565b6123eb576000848152602082815260408083206001600160a01b03871684529091529020805460ff191660011790556123a13390565b6001600160a01b0316836001600160a01b0316857f2f8788117e7eff1d82e926ec794901d17c78024a50270940304540a733656f0d60405160405180910390a460019150506105f3565b60009150506105f3565b6000600080516020613deb833981519152612410848461112d565b156123eb576000848152602082815260408083206001600160a01b0387168085529252808320805460ff1916905551339287917ff6391f5c32d9c69d2a47ea670b442974b53935d1edc7fd64eb21e047a839171b9190a460019150506105f3565b306001600160a01b037f00000000000000000000000000000000000000000000000000000000000000001614806124f857507f00000000000000000000000000000000000000000000000000000000000000006001600160a01b03166124ec600080516020613dcb833981519152546001600160a01b031690565b6001600160a01b031614155b156125165760405163703e46dd60e11b815260040160405180910390fd5b565b6000610f0281612343565b816001600160a01b03166352d1902d6040518163ffffffff1660e01b8152600401602060405180830381865afa92505050801561257d575060408051601f3d908101601f1916820190925261257a9181019061366f565b60015b6125aa57604051634c9c8ce360e01b81526001600160a01b03831660048201526024015b60405180910390fd5b600080516020613dcb83398151915281146125db57604051632a87526960e21b8152600481018290526024016125a1565b6108e6838361266f565b306001600160a01b037f000000000000000000000000000000000000000000000000000000000000000016146125165760405163703e46dd60e11b815260040160405180910390fd5b6125166126c5565b612640828261112d565b610f025760405163e2517d3f60e01b81526001600160a01b0382166004820152602481018390526044016125a1565b6126788261270e565b6040516001600160a01b038316907fbc7cd75a20ee27fd9adebab32041f755214dbc6bffa90cc0225b39da2e5c2d3b90600090a28051156126bd576108e68282612773565b610f026127e9565b7ff0c57e16840df040f15088dc2f81fe391c3923bec73e23a9662efc9c229c6a0054600160401b900460ff1661251657604051631afcd79f60e31b815260040160405180910390fd5b806001600160a01b03163b60000361274457604051634c9c8ce360e01b81526001600160a01b03821660048201526024016125a1565b600080516020613dcb83398151915280546001600160a01b0319166001600160a01b0392909216919091179055565b6060600080846001600160a01b0316846040516127909190613dae565b600060405180830381855af49150503d80600081146127cb576040519150601f19603f3d011682016040523d82523d6000602084013e6127d0565b606091505b50915091506127e0858383612808565b95945050505050565b34156125165760405163b398979f60e01b815260040160405180910390fd5b60608261281d5761281882612864565b610ee0565b815115801561283457506001600160a01b0384163b155b1561285d57604051639996b31560e01b81526001600160a01b03851660048201526024016125a1565b5092915050565b8051156128745780518082602001fd5b604051630a12f52160e11b815260040160405180910390fd5b60408051610100810182526000918101828152606082018390526080820183905260a0820183905260c0820183905260e08201929092529081905b8152602001600081525090565b60405180608001604052806128e8612a0b565b81526020016060815260200160008152602001612903612a6e565b905290565b604051806080016040528061291b612a8c565b81526020016060815260200161292f612b09565b81526040805160c08101825260008082526020828101829052928201819052606082018190526080820181905260a082015291015290565b6040518060c0016040528060008152602001600015158152602001600015158152602001606081526020016128c8612b37565b60405180606001604052806129ad612b55565b8152602001600081526020016129036040518060c001604052806000815260200160008152602001600081526020016000151581526020016000151581526020016000151581525090565b60405180606001604052806129ad612b09565b6040805161016081018252600080825260208201819052918101829052606081018290526080810182905260a0810182905260c0810182905260e081018290526101008101919091526101208101612a61612bad565b8152600060209091015290565b6040518060a001604052806005906020820280368337509192915050565b60405180610160016040528060006001600160a01b031681526020016000815260200160008152602001612abe612bad565b815260200160006001600160801b0316815260200160006001600160801b03168152602001600081526020016000815260200160008152602001600081526020016000151581525090565b6040518060800160405280612b1c612b55565b81526000602082018190526040820181905260609091015290565b6040518060e001604052806007906020820280368337509192915050565b604051806101200160405280612b69612a6e565b8152600060208201819052604082018190526060820152608001612b8b612a6e565b8152600060208201819052604082018190526060820181905260809091015290565b60405180606001604052806003906020820280368337509192915050565b600060208284031215612bdd57600080fd5b81356001600160e01b031981168114610ee057600080fd5b6001600160a01b038116811461234d57600080fd5b600060408284031215612c1c57600080fd5b50919050565b60008060608385031215612c3557600080fd5b8235612c4081612bf5565b9150612c4f8460208501612c0a565b90509250929050565b600081518084526020808501945080840160005b83811015612ce0578151805180516001600160801b031689528481015163ffffffff908116868b01526040808301518216908b01526060808301518216908b0152608080830151909116908a015260a09081015115159089015283015160c088015260e09096019590820190600101612c6c565b509495945050505050565b602081526000825160406020840152612d076060840182612c58565b9050602084015160408401528091505092915050565b600060208284031215612d2f57600080fd5b5035919050565b60008060408385031215612d4957600080fd5b823591506020830135612d5b81612bf5565b809150509250929050565b8060005b60038110156108ad5781516001600160801b0316845260209384019390910190600101612d6a565b8060005b60058110156108ad5781516001600160401b0316845260209384019390910190600101612d96565b600081518084526020808501808196508360051b8101915082860160005b85811015612eef57828403895281516102808151612e038782516001600160801b03169052565b8781015163ffffffff908116888a01526040808301518216818a01526060808401518316818b01526080808501518416908b015260a0808501518416908b015260c0808501518416908b015260e080850151909316928a0192909252610100808401516001600160801b0316908a015261012080840151919291612e89828c0182612d66565b50506101408301519250612ea26101808a018415159052565b898501519250836101a08a0152612ebb848a0184612c58565b918501516101c08a015290930151929150612edc90506101e0870183612d92565b9986019994505090840190600101612ddc565b5091979650505050505050565b602081526000825160406020840152612d076060840182612dbe565b600060208284031215612f2a57600080fd5b8135610ee081612bf5565b8060005b60038110156108ad578151845260209384019390910190600101612f39565b8060005b60058110156108ad57815163ffffffff16845260209384019390910190600101612f5c565b612f8c828251612f58565b602081015163ffffffff90811660a08401526040820151811660c084015260608201511660e08301526080810151610100612fc981850183612f58565b60a083015163ffffffff9081166101a086015260c0840151166101c085015260e08301516101e0850152909101516001600160a01b03166102009092019190915250565b613018828251612f81565b602081015163ffffffff90811661022084015260408201511661024083015260600151151561026090910152565b80518252602081015160208301526040810151604083015260608101511515606083015260808101511515608083015260a0810151151560a08301525050565b60208152600082516130a46020840182516001600160a01b03169052565b602081015160408401526040810151606084015260608101516130ca6080850182612f35565b5060808101516001600160801b03811660e08501525060a08101516101006130fc818601836001600160801b03169052565b60c08301516101208681019190915260e084015161014080880191909152918401516101608701528301516101808601529091015115156101a08401525060208301516105006101c0840152613156610520840182612dbe565b9050604084015161316b6101e085018261300d565b50606084015161317f610460850182613046565b509392505050565b634e487b7160e01b600052604160045260246000fd5b60405160c081016001600160401b03811182821017156131bf576131bf613187565b60405290565b60405161016081016001600160401b03811182821017156131bf576131bf613187565b60405161012081016001600160401b03811182821017156131bf576131bf613187565b604051606081016001600160401b03811182821017156131bf576131bf613187565b60405160a081016001600160401b03811182821017156131bf576131bf613187565b604051601f8201601f191681016001600160401b038111828210171561327757613277613187565b604052919050565b6000806040838503121561329257600080fd5b823561329d81612bf5565b91506020838101356001600160401b03808211156132ba57600080fd5b818601915086601f8301126132ce57600080fd5b8135818111156132e0576132e0613187565b6132f2601f8201601f1916850161324f565b9150808252878482850101111561330857600080fd5b80848401858401376000848284010152508093505050509250929050565b60008060006080848603121561333b57600080fd5b833561334681612bf5565b9250602084013561335681612bf5565b91506133658560408601612c0a565b90509250925092565b600081518084526020808501945080840160005b83811015612ce057815187529582019590820190600101613382565b602081526000825160406020840152612d07606084018261336e565b60005b838110156133d55781810151838201526020016133bd565b50506000910152565b60208152600082518060208401526133fd8160408501602087016133ba565b601f01601f19169190910160400192915050565b6000806040838503121561342457600080fd5b823561342f81612bf5565b946020939093013593505050565b600060208083528351818401528084015115156040840152604084015115156060840152606084015161018080608086015261347d6101a086018361336e565b9150608086015160a0860160005b60078110156134aa57825115158252918501919085019060010161348b565b50505060a08601518186015250809250505092915050565b600081518084526020808501945080840160005b83811015612ce05781516134eb88825161300d565b80840151610280890152604001516135076102a0890182613046565b506103609690960195908201906001016134d6565b6020808252825160608383015280516080840181905260009291820190839060a08601905b8083101561358a578351613556838251612f81565b8086015161022084015260400151613572610240840182613046565b50610300820191508484019350600183019250613541565b5092860151858403601f19016040870152926135a681856134c2565b9350505050604084015160608401528091505092915050565b60008060008060008060c087890312156135d857600080fd5b86356135e381612bf5565b955060208701356135f381612bf5565b9450604087013561360381612bf5565b9350606087013561361381612bf5565b9250608087013561362381612bf5565b915060a087013561363381612bf5565b809150509295509295509295565b6000806040838503121561365457600080fd5b823561365f81612bf5565b91506020830135612d5b81612bf5565b60006020828403121561368157600080fd5b5051919050565b634e487b7160e01b600052601160045260246000fd5b808201808211156105f3576105f3613688565b818103818111156105f3576105f3613688565b80516001600160801b03811681146136db57600080fd5b919050565b805163ffffffff811681146136db57600080fd5b805180151581146136db57600080fd5b600060c0828403121561371657600080fd5b61371e61319d565b613727836136c4565b8152613735602084016136e0565b6020820152613746604084016136e0565b6040820152613757606084016136e0565b6060820152613768608084016136e0565b608082015261377960a084016136f4565b60a08201529392505050565b634e487b7160e01b600052603260045260246000fd5b6000600182016137ad576137ad613688565b5060010190565b600082601f8301126137c557600080fd5b6137cd61320b565b8060608401858111156137df57600080fd5b845b81811015613800576137f2816136c4565b8452602093840193016137e1565b509095945050505050565b60006101a0828403121561381e57600080fd5b6138266131c5565b61382f836136c4565b815261383d602084016136e0565b602082015261384e604084016136e0565b604082015261385f606084016136e0565b6060820152613870608084016136e0565b608082015261388160a084016136e0565b60a082015261389260c084016136e0565b60c08201526138a360e084016136e0565b60e08201526101006138b68185016136c4565b908201526101206138c9858583016137b4565b908201526138da61018084016136f4565b6101408201529392505050565b60008060c083850312156138fa57600080fd5b83601f84011261390957600080fd5b61391161322d565b8060a085018681111561392357600080fd5b855b818110156139535780516001600160401b03811681146139455760008081fd5b845260209384019301613925565b50819450613960816136e0565b93505050509250929050565b80516136db81612bf5565b600082601f83011261398857600080fd5b61399061320b565b8060608401858111156139a257600080fd5b845b818110156138005780518452602093840193016139a4565b60006101a082840312156139cf57600080fd5b6139d76131c5565b6139e08361396c565b81526020830151602082015260408301516040820152613a038460608501613977565b6060820152613a1460c084016136c4565b6080820152613a2560e084016136c4565b60a08201526101008084015160c08301526101208085015160e0840152610140808601518385015261016086015182850152613a6461018087016136f4565b908401525090949350505050565b600082601f830112613a8357600080fd5b613a8b61322d565b8060a0840185811115613a9d57600080fd5b845b8181101561380057613ab0816136e0565b845260209384019301613a9f565b60006102208284031215613ad157600080fd5b613ad96131e8565b9050613ae58383613a72565b8152613af360a083016136e0565b6020820152613b0460c083016136e0565b6040820152613b1560e083016136e0565b6060820152610100613b2984828501613a72565b6080830152613b3b6101a084016136e0565b60a0830152613b4d6101c084016136e0565b60c08301526101e083015160e0830152613b6a610200840161396c565b9082015292915050565b60006102808284031215613b8757600080fd5b604051608081018181106001600160401b0382111715613ba957613ba9613187565b604052613bb68484613abe565b8152613bc561022084016136e0565b6020820152613bd761024084016136e0565b6040820152613be961026084016136f4565b60608201529392505050565b60006102208284031215613c0857600080fd5b610ee08383613abe565b600060c08284031215613c2457600080fd5b613c2c61319d565b825181526020830151602082015260408301516040820152613c50606084016136f4565b6060820152613768608084016136f4565b600060408284031215613c7357600080fd5b604051604081018181106001600160401b0382111715613c9557613c95613187565b604052613ca1836136f4565b8152613caf602084016136f4565b60208201529392505050565b60006020808385031215613cce57600080fd5b82516001600160401b0380821115613ce557600080fd5b818501915085601f830112613cf957600080fd5b815181811115613d0b57613d0b613187565b8060051b9150613d1c84830161324f565b8181529183018401918481019088841115613d3657600080fd5b938501935b83851015613d5457845182529385019390850190613d3b565b98975050505050505050565b600082613d7d57634e487b7160e01b600052601260045260246000fd5b500490565b60008060408385031215613d9557600080fd5b613d9e836136f4565b9150602083015190509250929050565b60008251613dc08184602087016133ba565b919091019291505056fe360894a13ba1a3210667c828492db98dca3e2076cc3735a920a3ca505d382bbc02dd7bc7dec4dceedda775e58dd541e08a116c6c53815c0bd028192f7b626800a2646970667358221220d50be6f857b9240876b5065d42c0f1237439f16a14ccbdfd19c8b74e2241116264736f6c63430008140033",
  "linkReferences": {},
  "deployedLinkReferences": {}
}