{
  "_format": "hh-sol-artifact-1",
  "contractName": "CheckIn",
  "sourceName": "contracts/CheckIn.sol",
  "abi": [
    {
      "inputs": [],
      "name": "AccessControlBadConfirmation",
      "type": "error"
    },
    {
      "inputs": [
        {
          "internalType": "address",
          "name": "account",
          "type": "address"
        },
        {
          "internalType": "bytes32",
          "name": "neededRole",
          "type": "bytes32"
        }
      ],
      "name": "AccessControlUnauthorizedAccount",
      "type": "error"
    },
    {
      "inputs": [
        {
          "internalType": "address",
          "name": "target",
          "type": "address"
        }
      ],
      "name": "AddressEmptyCode",
      "type": "error"
    },
    {
      "inputs": [],
      "name": "AlreadyCheckedIn",
      "type": "error"
    },
    {
      "inputs": [],
      "name": "AlreadyClaimed",
      "type": "error"
    },
    {
      "inputs": [],
      "name": "CanNotClaim",
      "type": "error"
    },
    {
      "inputs": [],
      "name": "CanNotTransfer",
      "type": "error"
    },
    {
      "inputs": [],
      "name": "EOAOnly",
      "type": "error"
    },
    {
      "inputs": [
        {
          "internalType": "address",
          "name": "implementation",
          "type": "address"
        }
      ],
      "name": "ERC1967InvalidImplementation",
      "type": "error"
    },
    {
      "inputs": [],
      "name": "ERC1967NonPayable",
      "type": "error"
    },
    {
      "inputs": [
        {
          "internalType": "address",
          "name": "spender",
          "type": "address"
        },
        {
          "internalType": "uint256",
          "name": "allowance",
          "type": "uint256"
        },
        {
          "internalType": "uint256",
          "name": "needed",
          "type": "uint256"
        }
      ],
      "name": "ERC20InsufficientAllowance",
      "type": "error"
    },
    {
      "inputs": [
        {
          "internalType": "address",
          "name": "sender",
          "type": "address"
        },
        {
          "internalType": "uint256",
          "name": "balance",
          "type": "uint256"
        },
        {
          "internalType": "uint256",
          "name": "needed",
          "type": "uint256"
        }
      ],
      "name": "ERC20InsufficientBalance",
      "type": "error"
    },
    {
      "inputs": [
        {
          "internalType": "address",
          "name": "approver",
          "type": "address"
        }
      ],
      "name": "ERC20InvalidApprover",
      "type": "error"
    },
    {
      "inputs": [
        {
          "internalType": "address",
          "name": "receiver",
          "type": "address"
        }
      ],
      "name": "ERC20InvalidReceiver",
      "type": "error"
    },
    {
      "inputs": [
        {
          "internalType": "address",
          "name": "sender",
          "type": "address"
        }
      ],
      "name": "ERC20InvalidSender",
      "type": "error"
    },
    {
      "inputs": [
        {
          "internalType": "address",
          "name": "spender",
          "type": "address"
        }
      ],
      "name": "ERC20InvalidSpender",
      "type": "error"
    },
    {
      "inputs": [],
      "name": "FailedInnerCall",
      "type": "error"
    },
    {
      "inputs": [],
      "name": "InvalidInitialization",
      "type": "error"
    },
    {
      "inputs": [],
      "name": "NotInitializing",
      "type": "error"
    },
    {
      "inputs": [],
      "name": "UUPSUnauthorizedCallContext",
      "type": "error"
    },
    {
      "inputs": [
        {
          "internalType": "bytes32",
          "name": "slot",
          "type": "bytes32"
        }
      ],
      "name": "UUPSUnsupportedProxiableUUID",
      "type": "error"
    },
    {
      "anonymous": false,
      "inputs": [
        {
          "indexed": true,
          "internalType": "address",
          "name": "owner",
          "type": "address"
        },
        {
          "indexed": true,
          "internalType": "address",
          "name": "spender",
          "type": "address"
        },
        {
          "indexed": false,
          "internalType": "uint256",
          "name": "value",
          "type": "uint256"
        }
      ],
      "name": "Approval",
      "type": "event"
    },
    {
      "anonymous": false,
      "inputs": [
        {
          "indexed": false,
          "internalType": "address",
          "name": "player",
          "type": "address"
        },
        {
          "indexed": false,
          "internalType": "uint256",
          "name": "consecutiveCheckedIn",
          "type": "uint256"
        }
      ],
      "name": "CheckedIn",
      "type": "event"
    },
    {
      "anonymous": false,
      "inputs": [
        {
          "indexed": false,
          "internalType": "address",
          "name": "player",
          "type": "address"
        }
      ],
      "name": "DailyWinClaimed",
      "type": "event"
    },
    {
      "anonymous": false,
      "inputs": [
        {
          "indexed": false,
          "internalType": "uint64",
          "name": "version",
          "type": "uint64"
        }
      ],
      "name": "Initialized",
      "type": "event"
    },
    {
      "anonymous": false,
      "inputs": [
        {
          "indexed": true,
          "internalType": "bytes32",
          "name": "role",
          "type": "bytes32"
        },
        {
          "indexed": true,
          "internalType": "bytes32",
          "name": "previousAdminRole",
          "type": "bytes32"
        },
        {
          "indexed": true,
          "internalType": "bytes32",
          "name": "newAdminRole",
          "type": "bytes32"
        }
      ],
      "name": "RoleAdminChanged",
      "type": "event"
    },
    {
      "anonymous": false,
      "inputs": [
        {
          "indexed": true,
          "internalType": "bytes32",
          "name": "role",
          "type": "bytes32"
        },
        {
          "indexed": true,
          "internalType": "address",
          "name": "account",
          "type": "address"
        },
        {
          "indexed": true,
          "internalType": "address",
          "name": "sender",
          "type": "address"
        }
      ],
      "name": "RoleGranted",
      "type": "event"
    },
    {
      "anonymous": false,
      "inputs": [
        {
          "indexed": true,
          "internalType": "bytes32",
          "name": "role",
          "type": "bytes32"
        },
        {
          "indexed": true,
          "internalType": "address",
          "name": "account",
          "type": "address"
        },
        {
          "indexed": true,
          "internalType": "address",
          "name": "sender",
          "type": "address"
        }
      ],
      "name": "RoleRevoked",
      "type": "event"
    },
    {
      "anonymous": false,
      "inputs": [
        {
          "indexed": true,
          "internalType": "address",
          "name": "from",
          "type": "address"
        },
        {
          "indexed": true,
          "internalType": "address",
          "name": "to",
          "type": "address"
        },
        {
          "indexed": false,
          "internalType": "uint256",
          "name": "value",
          "type": "uint256"
        }
      ],
      "name": "Transfer",
      "type": "event"
    },
    {
      "anonymous": false,
      "inputs": [
        {
          "indexed": true,
          "internalType": "address",
          "name": "implementation",
          "type": "address"
        }
      ],
      "name": "Upgraded",
      "type": "event"
    },
    {
      "inputs": [],
      "name": "DEFAULT_ADMIN_ROLE",
      "outputs": [
        {
          "internalType": "bytes32",
          "name": "",
          "type": "bytes32"
        }
      ],
      "stateMutability": "view",
      "type": "function"
    },
    {
      "inputs": [],
      "name": "MINTER_ROLE",
      "outputs": [
        {
          "internalType": "bytes32",
          "name": "",
          "type": "bytes32"
        }
      ],
      "stateMutability": "view",
      "type": "function"
    },
    {
      "inputs": [],
      "name": "UPGRADE_INTERFACE_VERSION",
      "outputs": [
        {
          "internalType": "string",
          "name": "",
          "type": "string"
        }
      ],
      "stateMutability": "view",
      "type": "function"
    },
    {
      "inputs": [
        {
          "internalType": "address",
          "name": "owner",
          "type": "address"
        },
        {
          "internalType": "address",
          "name": "spender",
          "type": "address"
        }
      ],
      "name": "allowance",
      "outputs": [
        {
          "internalType": "uint256",
          "name": "",
          "type": "uint256"
        }
      ],
      "stateMutability": "view",
      "type": "function"
    },
    {
      "inputs": [
        {
          "internalType": "address",
          "name": "spender",
          "type": "address"
        },
        {
          "internalType": "uint256",
          "name": "value",
          "type": "uint256"
        }
      ],
      "name": "approve",
      "outputs": [
        {
          "internalType": "bool",
          "name": "",
          "type": "bool"
        }
      ],
      "stateMutability": "nonpayable",
      "type": "function"
    },
    {
      "inputs": [
        {
          "internalType": "address",
          "name": "account",
          "type": "address"
        }
      ],
      "name": "balanceOf",
      "outputs": [
        {
          "internalType": "uint256",
          "name": "",
          "type": "uint256"
        }
      ],
      "stateMutability": "view",
      "type": "function"
    },
    {
      "inputs": [],
      "name": "checkIn",
      "outputs": [],
      "stateMutability": "nonpayable",
      "type": "function"
    },
    {
      "inputs": [],
      "name": "checkInRewards",
      "outputs": [
        {
          "internalType": "uint256[]",
          "name": "",
          "type": "uint256[]"
        }
      ],
      "stateMutability": "view",
      "type": "function"
    },
    {
      "inputs": [],
      "name": "claimDailyWin",
      "outputs": [],
      "stateMutability": "nonpayable",
      "type": "function"
    },
    {
      "inputs": [],
      "name": "decimals",
      "outputs": [
        {
          "internalType": "uint8",
          "name": "",
          "type": "uint8"
        }
      ],
      "stateMutability": "view",
      "type": "function"
    },
    {
      "inputs": [
        {
          "internalType": "address",
          "name": "account",
          "type": "address"
        },
        {
          "internalType": "uint256",
          "name": "ts",
          "type": "uint256"
        }
      ],
      "name": "getCheckedIn",
      "outputs": [
        {
          "internalType": "bool",
          "name": "checked",
          "type": "bool"
        },
        {
          "internalType": "uint256",
          "name": "nextRewardIndex",
          "type": "uint256"
        }
      ],
      "stateMutability": "view",
      "type": "function"
    },
    {
      "inputs": [
        {
          "internalType": "address",
          "name": "account",
          "type": "address"
        },
        {
          "internalType": "uint256",
          "name": "day",
          "type": "uint256"
        }
      ],
      "name": "getCheckedInByDays",
      "outputs": [
        {
          "internalType": "bool",
          "name": "checked",
          "type": "bool"
        },
        {
          "internalType": "uint256",
          "name": "nextRewardIndex",
          "type": "uint256"
        }
      ],
      "stateMutability": "view",
      "type": "function"
    },
    {
      "inputs": [
        {
          "internalType": "address",
          "name": "account",
          "type": "address"
        }
      ],
      "name": "getDailyWin",
      "outputs": [
        {
          "components": [
            {
              "internalType": "bool",
              "name": "claimed",
              "type": "bool"
            },
            {
              "internalType": "bool",
              "name": "canClaim",
              "type": "bool"
            }
          ],
          "internalType": "struct CheckIn.DailyWin",
          "name": "",
          "type": "tuple"
        }
      ],
      "stateMutability": "view",
      "type": "function"
    },
    {
      "inputs": [],
      "name": "getDailyWinReward",
      "outputs": [
        {
          "internalType": "uint256",
          "name": "",
          "type": "uint256"
        }
      ],
      "stateMutability": "view",
      "type": "function"
    },
    {
      "inputs": [
        {
          "internalType": "bytes32",
          "name": "role",
          "type": "bytes32"
        }
      ],
      "name": "getRoleAdmin",
      "outputs": [
        {
          "internalType": "bytes32",
          "name": "",
          "type": "bytes32"
        }
      ],
      "stateMutability": "view",
      "type": "function"
    },
    {
      "inputs": [
        {
          "internalType": "bytes32",
          "name": "role",
          "type": "bytes32"
        },
        {
          "internalType": "address",
          "name": "account",
          "type": "address"
        }
      ],
      "name": "grantRole",
      "outputs": [],
      "stateMutability": "nonpayable",
      "type": "function"
    },
    {
      "inputs": [
        {
          "internalType": "bytes32",
          "name": "role",
          "type": "bytes32"
        },
        {
          "internalType": "address",
          "name": "account",
          "type": "address"
        }
      ],
      "name": "hasRole",
      "outputs": [
        {
          "internalType": "bool",
          "name": "",
          "type": "bool"
        }
      ],
      "stateMutability": "view",
      "type": "function"
    },
    {
      "inputs": [],
      "name": "initialize",
      "outputs": [],
      "stateMutability": "nonpayable",
      "type": "function"
    },
    {
      "inputs": [],
      "name": "name",
      "outputs": [
        {
          "internalType": "string",
          "name": "",
          "type": "string"
        }
      ],
      "stateMutability": "view",
      "type": "function"
    },
    {
      "inputs": [],
      "name": "proxiableUUID",
      "outputs": [
        {
          "internalType": "bytes32",
          "name": "",
          "type": "bytes32"
        }
      ],
      "stateMutability": "view",
      "type": "function"
    },
    {
      "inputs": [
        {
          "internalType": "bytes32",
          "name": "role",
          "type": "bytes32"
        },
        {
          "internalType": "address",
          "name": "callerConfirmation",
          "type": "address"
        }
      ],
      "name": "renounceRole",
      "outputs": [],
      "stateMutability": "nonpayable",
      "type": "function"
    },
    {
      "inputs": [
        {
          "internalType": "bytes32",
          "name": "role",
          "type": "bytes32"
        },
        {
          "internalType": "address",
          "name": "account",
          "type": "address"
        }
      ],
      "name": "revokeRole",
      "outputs": [],
      "stateMutability": "nonpayable",
      "type": "function"
    },
    {
      "inputs": [
        {
          "internalType": "uint256[]",
          "name": "rewards",
          "type": "uint256[]"
        }
      ],
      "name": "setCheckInReward",
      "outputs": [],
      "stateMutability": "nonpayable",
      "type": "function"
    },
    {
      "inputs": [
        {
          "internalType": "address",
          "name": "player",
          "type": "address"
        }
      ],
      "name": "setDailyWin",
      "outputs": [],
      "stateMutability": "nonpayable",
      "type": "function"
    },
    {
      "inputs": [
        {
          "internalType": "uint256",
          "name": "reward",
          "type": "uint256"
        }
      ],
      "name": "setDailyWinReward",
      "outputs": [],
      "stateMutability": "nonpayable",
      "type": "function"
    },
    {
      "inputs": [
        {
          "internalType": "bytes4",
          "name": "interfaceId",
          "type": "bytes4"
        }
      ],
      "name": "supportsInterface",
      "outputs": [
        {
          "internalType": "bool",
          "name": "",
          "type": "bool"
        }
      ],
      "stateMutability": "view",
      "type": "function"
    },
    {
      "inputs": [],
      "name": "symbol",
      "outputs": [
        {
          "internalType": "string",
          "name": "",
          "type": "string"
        }
      ],
      "stateMutability": "view",
      "type": "function"
    },
    {
      "inputs": [],
      "name": "totalSupply",
      "outputs": [
        {
          "internalType": "uint256",
          "name": "",
          "type": "uint256"
        }
      ],
      "stateMutability": "view",
      "type": "function"
    },
    {
      "inputs": [
        {
          "internalType": "address",
          "name": "to",
          "type": "address"
        },
        {
          "internalType": "uint256",
          "name": "value",
          "type": "uint256"
        }
      ],
      "name": "transfer",
      "outputs": [
        {
          "internalType": "bool",
          "name": "",
          "type": "bool"
        }
      ],
      "stateMutability": "nonpayable",
      "type": "function"
    },
    {
      "inputs": [
        {
          "internalType": "address",
          "name": "from",
          "type": "address"
        },
        {
          "internalType": "address",
          "name": "to",
          "type": "address"
        },
        {
          "internalType": "uint256",
          "name": "value",
          "type": "uint256"
        }
      ],
      "name": "transferFrom",
      "outputs": [
        {
          "internalType": "bool",
          "name": "",
          "type": "bool"
        }
      ],
      "stateMutability": "nonpayable",
      "type": "function"
    },
    {
      "inputs": [
        {
          "internalType": "address",
          "name": "newImplementation",
          "type": "address"
        },
        {
          "internalType": "bytes",
          "name": "data",
          "type": "bytes"
        }
      ],
      "name": "upgradeToAndCall",
      "outputs": [],
      "stateMutability": "payable",
      "type": "function"
    }
  ],
  "bytecode": "0x60a06040523060805234801561001457600080fd5b506080516120c561003e600039600081816113480152818161137101526114b701526120c56000f3fe6080604052600436106101d85760003560e01c806371ee3ed411610102578063ad3cb1cc11610095578063d539139311610064578063d539139314610582578063d547741f146105b6578063dd62ed3e146105d6578063fe3d7fee146105f657600080fd5b8063ad3cb1cc146104fc578063c18100961461052d578063c7b4ddc814610542578063d3ca55e31461056257600080fd5b806391d14854116100d157806391d148541461049257806395d89b41146104b2578063a217fddf146104c7578063a9059cbb146104dc57600080fd5b806371ee3ed41461041b5780638129fc1c1461043b5780638c2db91a146104505780638ef411e51461047257600080fd5b8063248a9ca31161017a5780634820f3a3116101495780634820f3a3146103795780634f1ef286146103b057806352d1902d146103c357806370a08231146103d857600080fd5b8063248a9ca3146102fd5780632f2ff15d1461031d578063313ce5671461033d57806336568abe1461035957600080fd5b806318160ddd116101b657806318160ddd14610254578063183ff0851461029257806320ca7c95146102a957806323b872dd146102dd57600080fd5b806301ffc9a7146101dd57806306fdde0314610212578063095ea7b314610234575b600080fd5b3480156101e957600080fd5b506101fd6101f8366004611a85565b610635565b60405190151581526020015b60405180910390f35b34801561021e57600080fd5b5061022761066c565b6040516102099190611ad3565b34801561024057600080fd5b506101fd61024f366004611b22565b61072f565b34801561026057600080fd5b507f52c63247e1f47db19d5ce0460030c497f067ca4cebf71ba98eeadabe20bace02545b604051908152602001610209565b34801561029e57600080fd5b506102a7610747565b005b3480156102b557600080fd5b507f6913d2e5cef9d5bcd688e9adc3fb11106c0bbe3a49f45d25644a256b89247f0554610284565b3480156102e957600080fd5b506101fd6102f8366004611b4c565b6109a7565b34801561030957600080fd5b50610284610318366004611b88565b6109cd565b34801561032957600080fd5b506102a7610338366004611ba1565b6109ef565b34801561034957600080fd5b5060405160128152602001610209565b34801561036557600080fd5b506102a7610374366004611ba1565b610a11565b34801561038557600080fd5b50610399610394366004611b22565b610a49565b604080519215158352602083019190915201610209565b6102a76103be366004611c14565b610a72565b3480156103cf57600080fd5b50610284610a91565b3480156103e457600080fd5b506102846103f3366004611cba565b6001600160a01b03166000908152600080516020612010833981519152602052604090205490565b34801561042757600080fd5b506102a7610436366004611b88565b610aae565b34801561044757600080fd5b506102a7610ade565b34801561045c57600080fd5b50610465610c4e565b6040516102099190611cd5565b34801561047e57600080fd5b5061039961048d366004611b22565b610cb6565b34801561049e57600080fd5b506101fd6104ad366004611ba1565b610d8d565b3480156104be57600080fd5b50610227610dc5565b3480156104d357600080fd5b50610284600081565b3480156104e857600080fd5b506101fd6104f7366004611b22565b610e04565b34801561050857600080fd5b50610227604051806040016040528060058152602001640352e302e360dc1b81525081565b34801561053957600080fd5b506102a7610e12565b34801561054e57600080fd5b506102a761055d366004611cba565b610f1e565b34801561056e57600080fd5b506102a761057d366004611d19565b610fd1565b34801561058e57600080fd5b506102847f9f2df0fed2c77648de5860a4cc508cd0818c85b8b8a1ab4ceeef8d981c8956a681565b3480156105c257600080fd5b506102a76105d1366004611ba1565b61101e565b3480156105e257600080fd5b506102846105f1366004611dbf565b61103a565b34801561060257600080fd5b50610616610611366004611cba565b611084565b6040805182511515815260209283015115159281019290925201610209565b60006001600160e01b03198216637965db0b60e01b148061066657506301ffc9a760e01b6001600160e01b03198316145b92915050565b7f52c63247e1f47db19d5ce0460030c497f067ca4cebf71ba98eeadabe20bace038054606091600080516020612010833981519152916106ab90611de9565b80601f01602080910402602001604051908101604052809291908181526020018280546106d790611de9565b80156107245780601f106106f957610100808354040283529160200191610724565b820191906000526020600020905b81548152906001019060200180831161070757829003601f168201915b505050505091505090565b60003361073d818585611108565b5060019392505050565b3233146107675760405163d26e878f60e01b815260040160405180910390fd5b60008051602061207083398151915260006107856201518042611e4f565b6000818152600384016020908152604080832033845290915290205490915060ff16156107c557604051630c98289f60e41b815260040160405180910390fd5b600081815260038301602081815260408084203385529091528220805460ff191660019081179091559091906107fb9084611e63565b81526020808201929092526040908101600090812033825290925290205460ff16610827576001610844565b336000908152600180840160205260409091205461084491611e76565b33600090815260018085016020526040822092909255906003840190829061086c9085611e63565b81526020808201929092526040908101600090812033825290925290205460ff166108985760006108a9565b336000908152602084905260409020545b600484015433600090815260208690526040812054929350916108cd906001611e76565b6108d79190611e89565b90506003840160006108ea600186611e63565b81526020808201929092526040908101600090812033825290925290205460ff16610916576001610918565b805b336000818152602087905260409020919091556004850180546109579291908590811061094757610947611e9d565b9060005260206000200154611115565b336000818152600186016020908152604091829020548251938452908301527fdddb6e14f7f2101397a6526aab95e964de7f1f44ed06aa47a1c9a0e6b9924456910160405180910390a150505050565b6000336109b5858285611150565b6109c08585856111b0565b60019150505b9392505050565b6000908152600080516020612050833981519152602052604090206001015490565b6109f8826109cd565b610a018161120f565b610a0b838361121c565b50505050565b6001600160a01b0381163314610a3a5760405163334bd91960e11b815260040160405180910390fd5b610a4482826112c1565b505050565b60008080610a5a6201518085611e4f565b9050610a668582610cb6565b92509250509250929050565b610a7a61133d565b610a83826113e4565b610a8d82826113ef565b5050565b6000610a9b6114ac565b5060008051602061203083398151915290565b6000610ab98161120f565b507f6913d2e5cef9d5bcd688e9adc3fb11106c0bbe3a49f45d25644a256b89247f0555565b7ff0c57e16840df040f15088dc2f81fe391c3923bec73e23a9662efc9c229c6a008054600160401b810460ff16159067ffffffffffffffff16600081158015610b245750825b905060008267ffffffffffffffff166001148015610b415750303b155b905081158015610b4f575080155b15610b6d5760405163f92ee8a960e01b815260040160405180910390fd5b845467ffffffffffffffff191660011785558315610b9757845460ff60401b1916600160401b1785555b610b9f6114f5565b610ba76114f5565b610bf56040518060400160405280601181526020017010dc9e5c1d1bd49d5b589b19541bda5b9d607a1b8152506040518060400160405280600381526020016204352560ec1b8152506114fd565b610c0060003361121c565b508315610c4757845460ff60401b19168555604051600181527fc7f505b2f371ae2175ee4913f4499e1f2633a7b5936321eed1cdaeb6115181d29060200160405180910390a15b5050505050565b606060006000805160206120708339815191526004810180546040805160208084028201810190925282815293945083018282801561072457602002820191906000526020600020905b815481526020019060010190808311610c9857505050505091505090565b60008181527f6913d2e5cef9d5bcd688e9adc3fb11106c0bbe3a49f45d25644a256b89247f03602081815260408084206001600160a01b038716855290915282205460ff1691906000805160206120708339815191529082610d19600187611e63565b8152602080820192909252604090810160009081206001600160a01b038916825290925290205460ff16610d695782610d53576000610d56565b60015b610d61906000611eb3565b60ff16610d83565b6001600160a01b0385166000908152602082905260409020545b9150509250929050565b6000918252600080516020612050833981519152602090815260408084206001600160a01b0393909316845291905290205460ff1690565b7f52c63247e1f47db19d5ce0460030c497f067ca4cebf71ba98eeadabe20bace048054606091600080516020612010833981519152916106ab90611de9565b60003361073d8185856111b0565b6000805160206120708339815191526000610e306201518042611e4f565b6000818152600284016020908152604080832033845290915290205490915060ff1615610e7057604051630c8d9eab60e31b815260040160405180910390fd5b60008181526002830160209081526040808320338452909152902054610100900460ff16610eb1576040516333d805f160e01b815260040160405180910390fd5b60008181526002830160209081526040808320338085529252909120805460ff191660011790556005830154610ee79190611115565b6040513381527f1e485efac571aee6077740091b6b05d3f12d98132eb1546af65b6b99868782869060200160405180910390a15050565b7f9f2df0fed2c77648de5860a4cc508cd0818c85b8b8a1ab4ceeef8d981c8956a6610f488161120f565b6000805160206120708339815191526000610f666201518042611e4f565b600081815260028401602090815260408083206001600160a01b0389168452909152902054909150610100900460ff16610a0b57600081815260028301602090815260408083206001600160a01b03881684529091529020805461ff00191661010017905550505050565b6000610fdc8161120f565b815160008051602061207083398151915290610a0b907f6913d2e5cef9d5bcd688e9adc3fb11106c0bbe3a49f45d25644a256b89247f04906020860190611a25565b611027826109cd565b6110308161120f565b610a0b83836112c1565b6001600160a01b0391821660009081527f52c63247e1f47db19d5ce0460030c497f067ca4cebf71ba98eeadabe20bace016020908152604080832093909416825291909152205490565b60408051808201909152600080825260208201819052600080516020612070833981519152906110b76201518042611e4f565b60009081526002909201602090815260408084206001600160a01b0390961684529481529184902084518086019095525460ff80821615158652610100909104161515918401919091525090919050565b610a44838383600161150f565b6001600160a01b0382166111445760405163ec442f0560e01b8152600060048201526024015b60405180910390fd5b610a8d600083836115f6565b600061115c848461103a565b90506000198114610a0b57818110156111a157604051637dc7a0d960e11b81526001600160a01b0384166004820152602481018290526044810183905260640161113b565b610a0b8484848403600061150f565b6001600160a01b0383166111da57604051634b637e8f60e11b81526000600482015260240161113b565b6001600160a01b0382166112045760405163ec442f0560e01b81526000600482015260240161113b565b610a448383836115f6565b611219813361163f565b50565b60006000805160206120508339815191526112378484610d8d565b6112b7576000848152602082815260408083206001600160a01b03871684529091529020805460ff1916600117905561126d3390565b6001600160a01b0316836001600160a01b0316857f2f8788117e7eff1d82e926ec794901d17c78024a50270940304540a733656f0d60405160405180910390a46001915050610666565b6000915050610666565b60006000805160206120508339815191526112dc8484610d8d565b156112b7576000848152602082815260408083206001600160a01b0387168085529252808320805460ff1916905551339287917ff6391f5c32d9c69d2a47ea670b442974b53935d1edc7fd64eb21e047a839171b9190a46001915050610666565b306001600160a01b037f00000000000000000000000000000000000000000000000000000000000000001614806113c457507f00000000000000000000000000000000000000000000000000000000000000006001600160a01b03166113b8600080516020612030833981519152546001600160a01b031690565b6001600160a01b031614155b156113e25760405163703e46dd60e11b815260040160405180910390fd5b565b6000610a8d8161120f565b816001600160a01b03166352d1902d6040518163ffffffff1660e01b8152600401602060405180830381865afa925050508015611449575060408051601f3d908101601f1916820190925261144691810190611ecc565b60015b61147157604051634c9c8ce360e01b81526001600160a01b038316600482015260240161113b565b60008051602061203083398151915281146114a257604051632a87526960e21b81526004810182905260240161113b565b610a448383611678565b306001600160a01b037f000000000000000000000000000000000000000000000000000000000000000016146113e25760405163703e46dd60e11b815260040160405180910390fd5b6113e26116ce565b6115056116ce565b610a8d8282611717565b6000805160206120108339815191526001600160a01b0385166115485760405163e602df0560e01b81526000600482015260240161113b565b6001600160a01b03841661157257604051634a1406b160e11b81526000600482015260240161113b565b6001600160a01b03808616600090815260018301602090815260408083209388168352929052208390558115610c4757836001600160a01b0316856001600160a01b03167f8c5be1e5ebec7d5bd14f71427d1e84f3dd0314c0f7b2291e5b200ac8c7c3b925856040516115e791815260200190565b60405180910390a35050505050565b6001600160a01b0383161580159061161657506001600160a01b03821615155b1561163457604051631b5722f560e01b815260040160405180910390fd5b610a44838383611768565b6116498282610d8d565b610a8d5760405163e2517d3f60e01b81526001600160a01b03821660048201526024810183905260440161113b565b611681826118a6565b6040516001600160a01b038316907fbc7cd75a20ee27fd9adebab32041f755214dbc6bffa90cc0225b39da2e5c2d3b90600090a28051156116c657610a44828261190b565b610a8d611981565b7ff0c57e16840df040f15088dc2f81fe391c3923bec73e23a9662efc9c229c6a0054600160401b900460ff166113e257604051631afcd79f60e31b815260040160405180910390fd5b61171f6116ce565b6000805160206120108339815191527f52c63247e1f47db19d5ce0460030c497f067ca4cebf71ba98eeadabe20bace036117598482611f33565b5060048101610a0b8382611f33565b6000805160206120108339815191526001600160a01b0384166117a457818160020160008282546117999190611e76565b909155506118169050565b6001600160a01b038416600090815260208290526040902054828110156117f75760405163391434e360e21b81526001600160a01b0386166004820152602481018290526044810184905260640161113b565b6001600160a01b03851660009081526020839052604090209083900390555b6001600160a01b038316611834576002810180548390039055611853565b6001600160a01b03831660009081526020829052604090208054830190555b826001600160a01b0316846001600160a01b03167fddf252ad1be2c89b69c2b068fc378daa952ba7f163c4a11628f55a4df523b3ef8460405161189891815260200190565b60405180910390a350505050565b806001600160a01b03163b6000036118dc57604051634c9c8ce360e01b81526001600160a01b038216600482015260240161113b565b60008051602061203083398151915280546001600160a01b0319166001600160a01b0392909216919091179055565b6060600080846001600160a01b0316846040516119289190611ff3565b600060405180830381855af49150503d8060008114611963576040519150601f19603f3d011682016040523d82523d6000602084013e611968565b606091505b50915091506119788583836119a0565b95945050505050565b34156113e25760405163b398979f60e01b815260040160405180910390fd5b6060826119b5576119b0826119fc565b6109c6565b81511580156119cc57506001600160a01b0384163b155b156119f557604051639996b31560e01b81526001600160a01b038516600482015260240161113b565b50806109c6565b805115611a0c5780518082602001fd5b604051630a12f52160e11b815260040160405180910390fd5b828054828255906000526020600020908101928215611a60579160200282015b82811115611a60578251825591602001919060010190611a45565b50611a6c929150611a70565b5090565b5b80821115611a6c5760008155600101611a71565b600060208284031215611a9757600080fd5b81356001600160e01b0319811681146109c657600080fd5b60005b83811015611aca578181015183820152602001611ab2565b50506000910152565b6020815260008251806020840152611af2816040850160208701611aaf565b601f01601f19169190910160400192915050565b80356001600160a01b0381168114611b1d57600080fd5b919050565b60008060408385031215611b3557600080fd5b611b3e83611b06565b946020939093013593505050565b600080600060608486031215611b6157600080fd5b611b6a84611b06565b9250611b7860208501611b06565b9150604084013590509250925092565b600060208284031215611b9a57600080fd5b5035919050565b60008060408385031215611bb457600080fd5b82359150611bc460208401611b06565b90509250929050565b634e487b7160e01b600052604160045260246000fd5b604051601f8201601f1916810167ffffffffffffffff81118282101715611c0c57611c0c611bcd565b604052919050565b60008060408385031215611c2757600080fd5b611c3083611b06565b915060208084013567ffffffffffffffff80821115611c4e57600080fd5b818601915086601f830112611c6257600080fd5b813581811115611c7457611c74611bcd565b611c86601f8201601f19168501611be3565b91508082528784828501011115611c9c57600080fd5b80848401858401376000848284010152508093505050509250929050565b600060208284031215611ccc57600080fd5b6109c682611b06565b6020808252825182820181905260009190848201906040850190845b81811015611d0d57835183529284019291840191600101611cf1565b50909695505050505050565b60006020808385031215611d2c57600080fd5b823567ffffffffffffffff80821115611d4457600080fd5b818501915085601f830112611d5857600080fd5b813581811115611d6a57611d6a611bcd565b8060051b9150611d7b848301611be3565b8181529183018401918481019088841115611d9557600080fd5b938501935b83851015611db357843582529385019390850190611d9a565b98975050505050505050565b60008060408385031215611dd257600080fd5b611ddb83611b06565b9150611bc460208401611b06565b600181811c90821680611dfd57607f821691505b602082108103611e1d57634e487b7160e01b600052602260045260246000fd5b50919050565b634e487b7160e01b600052601260045260246000fd5b634e487b7160e01b600052601160045260246000fd5b600082611e5e57611e5e611e23565b500490565b8181038181111561066657610666611e39565b8082018082111561066657610666611e39565b600082611e9857611e98611e23565b500690565b634e487b7160e01b600052603260045260246000fd5b60ff818116838216019081111561066657610666611e39565b600060208284031215611ede57600080fd5b5051919050565b601f821115610a4457600081815260208120601f850160051c81016020861015611f0c5750805b601f850160051c820191505b81811015611f2b57828155600101611f18565b505050505050565b815167ffffffffffffffff811115611f4d57611f4d611bcd565b611f6181611f5b8454611de9565b84611ee5565b602080601f831160018114611f965760008415611f7e5750858301515b600019600386901b1c1916600185901b178555611f2b565b600085815260208120601f198616915b82811015611fc557888601518255948401946001909101908401611fa6565b5085821015611fe35787850151600019600388901b60f8161c191681555b5050505050600190811b01905550565b60008251612005818460208701611aaf565b919091019291505056fe52c63247e1f47db19d5ce0460030c497f067ca4cebf71ba98eeadabe20bace00360894a13ba1a3210667c828492db98dca3e2076cc3735a920a3ca505d382bbc02dd7bc7dec4dceedda775e58dd541e08a116c6c53815c0bd028192f7b6268006913d2e5cef9d5bcd688e9adc3fb11106c0bbe3a49f45d25644a256b89247f00a26469706673582212202f066b17e39de5908963e84b248951ba3ebb1dab1a40ce0745ec37f8371e277764736f6c63430008140033",
  "linkReferences": {},
  "deployedLinkReferences": {}
}