{
  "_format": "hh-sol-artifact-1",
  "contractName": "CREvent",
  "sourceName": "contracts/event/CREvent.sol",
  "abi": [
    {
      "inputs": [],
      "name": "AccessControlBadConfirmation",
      "type": "error"
    },
    {
      "inputs": [
        {
          "internalType": "address",
          "name": "account",
          "type": "address"
        },
        {
          "internalType": "bytes32",
          "name": "neededRole",
          "type": "bytes32"
        }
      ],
      "name": "AccessControlUnauthorizedAccount",
      "type": "error"
    },
    {
      "inputs": [
        {
          "internalType": "address",
          "name": "target",
          "type": "address"
        }
      ],
      "name": "AddressEmptyCode",
      "type": "error"
    },
    {
      "inputs": [
        {
          "internalType": "address",
          "name": "implementation",
          "type": "address"
        }
      ],
      "name": "ERC1967InvalidImplementation",
      "type": "error"
    },
    {
      "inputs": [],
      "name": "ERC1967NonPayable",
      "type": "error"
    },
    {
      "inputs": [],
      "name": "ERC721EnumerableForbiddenBatchMint",
      "type": "error"
    },
    {
      "inputs": [
        {
          "internalType": "address",
          "name": "sender",
          "type": "address"
        },
        {
          "internalType": "uint256",
          "name": "tokenId",
          "type": "uint256"
        },
        {
          "internalType": "address",
          "name": "owner",
          "type": "address"
        }
      ],
      "name": "ERC721IncorrectOwner",
      "type": "error"
    },
    {
      "inputs": [
        {
          "internalType": "address",
          "name": "operator",
          "type": "address"
        },
        {
          "internalType": "uint256",
          "name": "tokenId",
          "type": "uint256"
        }
      ],
      "name": "ERC721InsufficientApproval",
      "type": "error"
    },
    {
      "inputs": [
        {
          "internalType": "address",
          "name": "approver",
          "type": "address"
        }
      ],
      "name": "ERC721InvalidApprover",
      "type": "error"
    },
    {
      "inputs": [
        {
          "internalType": "address",
          "name": "operator",
          "type": "address"
        }
      ],
      "name": "ERC721InvalidOperator",
      "type": "error"
    },
    {
      "inputs": [
        {
          "internalType": "address",
          "name": "owner",
          "type": "address"
        }
      ],
      "name": "ERC721InvalidOwner",
      "type": "error"
    },
    {
      "inputs": [
        {
          "internalType": "address",
          "name": "receiver",
          "type": "address"
        }
      ],
      "name": "ERC721InvalidReceiver",
      "type": "error"
    },
    {
      "inputs": [
        {
          "internalType": "address",
          "name": "sender",
          "type": "address"
        }
      ],
      "name": "ERC721InvalidSender",
      "type": "error"
    },
    {
      "inputs": [
        {
          "internalType": "uint256",
          "name": "tokenId",
          "type": "uint256"
        }
      ],
      "name": "ERC721NonexistentToken",
      "type": "error"
    },
    {
      "inputs": [
        {
          "internalType": "address",
          "name": "owner",
          "type": "address"
        },
        {
          "internalType": "uint256",
          "name": "index",
          "type": "uint256"
        }
      ],
      "name": "ERC721OutOfBoundsIndex",
      "type": "error"
    },
    {
      "inputs": [],
      "name": "FailedInnerCall",
      "type": "error"
    },
    {
      "inputs": [],
      "name": "InvalidInitialization",
      "type": "error"
    },
    {
      "inputs": [],
      "name": "NotInitializing",
      "type": "error"
    },
    {
      "inputs": [],
      "name": "UUPSUnauthorizedCallContext",
      "type": "error"
    },
    {
      "inputs": [
        {
          "internalType": "bytes32",
          "name": "slot",
          "type": "bytes32"
        }
      ],
      "name": "UUPSUnsupportedProxiableUUID",
      "type": "error"
    },
    {
      "anonymous": false,
      "inputs": [
        {
          "indexed": true,
          "internalType": "address",
          "name": "owner",
          "type": "address"
        },
        {
          "indexed": true,
          "internalType": "address",
          "name": "approved",
          "type": "address"
        },
        {
          "indexed": true,
          "internalType": "uint256",
          "name": "tokenId",
          "type": "uint256"
        }
      ],
      "name": "Approval",
      "type": "event"
    },
    {
      "anonymous": false,
      "inputs": [
        {
          "indexed": true,
          "internalType": "address",
          "name": "owner",
          "type": "address"
        },
        {
          "indexed": true,
          "internalType": "address",
          "name": "operator",
          "type": "address"
        },
        {
          "indexed": false,
          "internalType": "bool",
          "name": "approved",
          "type": "bool"
        }
      ],
      "name": "ApprovalForAll",
      "type": "event"
    },
    {
      "anonymous": false,
      "inputs": [
        {
          "indexed": false,
          "internalType": "uint64",
          "name": "version",
          "type": "uint64"
        }
      ],
      "name": "Initialized",
      "type": "event"
    },
    {
      "anonymous": false,
      "inputs": [
        {
          "indexed": true,
          "internalType": "bytes32",
          "name": "role",
          "type": "bytes32"
        },
        {
          "indexed": true,
          "internalType": "bytes32",
          "name": "previousAdminRole",
          "type": "bytes32"
        },
        {
          "indexed": true,
          "internalType": "bytes32",
          "name": "newAdminRole",
          "type": "bytes32"
        }
      ],
      "name": "RoleAdminChanged",
      "type": "event"
    },
    {
      "anonymous": false,
      "inputs": [
        {
          "indexed": true,
          "internalType": "bytes32",
          "name": "role",
          "type": "bytes32"
        },
        {
          "indexed": true,
          "internalType": "address",
          "name": "account",
          "type": "address"
        },
        {
          "indexed": true,
          "internalType": "address",
          "name": "sender",
          "type": "address"
        }
      ],
      "name": "RoleGranted",
      "type": "event"
    },
    {
      "anonymous": false,
      "inputs": [
        {
          "indexed": true,
          "internalType": "bytes32",
          "name": "role",
          "type": "bytes32"
        },
        {
          "indexed": true,
          "internalType": "address",
          "name": "account",
          "type": "address"
        },
        {
          "indexed": true,
          "internalType": "address",
          "name": "sender",
          "type": "address"
        }
      ],
      "name": "RoleRevoked",
      "type": "event"
    },
    {
      "anonymous": false,
      "inputs": [
        {
          "indexed": true,
          "internalType": "address",
          "name": "from",
          "type": "address"
        },
        {
          "indexed": true,
          "internalType": "address",
          "name": "to",
          "type": "address"
        },
        {
          "indexed": true,
          "internalType": "uint256",
          "name": "tokenId",
          "type": "uint256"
        }
      ],
      "name": "Transfer",
      "type": "event"
    },
    {
      "anonymous": false,
      "inputs": [
        {
          "indexed": true,
          "internalType": "address",
          "name": "implementation",
          "type": "address"
        }
      ],
      "name": "Upgraded",
      "type": "event"
    },
    {
      "inputs": [],
      "name": "DEFAULT_ADMIN_ROLE",
      "outputs": [
        {
          "internalType": "bytes32",
          "name": "",
          "type": "bytes32"
        }
      ],
      "stateMutability": "view",
      "type": "function"
    },
    {
      "inputs": [],
      "name": "MINTER_ROLE",
      "outputs": [
        {
          "internalType": "bytes32",
          "name": "",
          "type": "bytes32"
        }
      ],
      "stateMutability": "view",
      "type": "function"
    },
    {
      "inputs": [],
      "name": "UPGRADE_INTERFACE_VERSION",
      "outputs": [
        {
          "internalType": "string",
          "name": "",
          "type": "string"
        }
      ],
      "stateMutability": "view",
      "type": "function"
    },
    {
      "inputs": [
        {
          "internalType": "address",
          "name": "to",
          "type": "address"
        },
        {
          "internalType": "uint256",
          "name": "tokenId",
          "type": "uint256"
        }
      ],
      "name": "approve",
      "outputs": [],
      "stateMutability": "nonpayable",
      "type": "function"
    },
    {
      "inputs": [
        {
          "internalType": "address",
          "name": "owner",
          "type": "address"
        }
      ],
      "name": "balanceOf",
      "outputs": [
        {
          "internalType": "uint256",
          "name": "",
          "type": "uint256"
        }
      ],
      "stateMutability": "view",
      "type": "function"
    },
    {
      "inputs": [
        {
          "internalType": "uint256",
          "name": "tokenId",
          "type": "uint256"
        }
      ],
      "name": "getApproved",
      "outputs": [
        {
          "internalType": "address",
          "name": "",
          "type": "address"
        }
      ],
      "stateMutability": "view",
      "type": "function"
    },
    {
      "inputs": [
        {
          "internalType": "bytes32",
          "name": "role",
          "type": "bytes32"
        }
      ],
      "name": "getRoleAdmin",
      "outputs": [
        {
          "internalType": "bytes32",
          "name": "",
          "type": "bytes32"
        }
      ],
      "stateMutability": "view",
      "type": "function"
    },
    {
      "inputs": [
        {
          "internalType": "bytes32",
          "name": "role",
          "type": "bytes32"
        },
        {
          "internalType": "address",
          "name": "account",
          "type": "address"
        }
      ],
      "name": "grantRole",
      "outputs": [],
      "stateMutability": "nonpayable",
      "type": "function"
    },
    {
      "inputs": [
        {
          "internalType": "bytes32",
          "name": "role",
          "type": "bytes32"
        },
        {
          "internalType": "address",
          "name": "account",
          "type": "address"
        }
      ],
      "name": "hasRole",
      "outputs": [
        {
          "internalType": "bool",
          "name": "",
          "type": "bool"
        }
      ],
      "stateMutability": "view",
      "type": "function"
    },
    {
      "inputs": [
        {
          "internalType": "contract ITrait",
          "name": "trait",
          "type": "address"
        },
        {
          "internalType": "string",
          "name": "name",
          "type": "string"
        },
        {
          "internalType": "string",
          "name": "symbol",
          "type": "string"
        }
      ],
      "name": "initialize",
      "outputs": [],
      "stateMutability": "nonpayable",
      "type": "function"
    },
    {
      "inputs": [
        {
          "internalType": "address",
          "name": "owner",
          "type": "address"
        },
        {
          "internalType": "address",
          "name": "operator",
          "type": "address"
        }
      ],
      "name": "isApprovedForAll",
      "outputs": [
        {
          "internalType": "bool",
          "name": "",
          "type": "bool"
        }
      ],
      "stateMutability": "view",
      "type": "function"
    },
    {
      "inputs": [
        {
          "internalType": "address",
          "name": "to",
          "type": "address"
        },
        {
          "components": [
            {
              "internalType": "uint256",
              "name": "gameId",
              "type": "uint256"
            },
            {
              "internalType": "uint256",
              "name": "damage",
              "type": "uint256"
            },
            {
              "internalType": "uint128",
              "name": "timeStart",
              "type": "uint128"
            },
            {
              "internalType": "uint128",
              "name": "time",
              "type": "uint128"
            },
            {
              "internalType": "uint256",
              "name": "move",
              "type": "uint256"
            },
            {
              "internalType": "address",
              "name": "player",
              "type": "address"
            },
            {
              "internalType": "uint256",
              "name": "levelId",
              "type": "uint256"
            }
          ],
          "internalType": "struct ICREvent.Metadata",
          "name": "data",
          "type": "tuple"
        }
      ],
      "name": "mint",
      "outputs": [],
      "stateMutability": "nonpayable",
      "type": "function"
    },
    {
      "inputs": [],
      "name": "name",
      "outputs": [
        {
          "internalType": "string",
          "name": "",
          "type": "string"
        }
      ],
      "stateMutability": "view",
      "type": "function"
    },
    {
      "inputs": [
        {
          "internalType": "uint256",
          "name": "tokenId",
          "type": "uint256"
        }
      ],
      "name": "ownerOf",
      "outputs": [
        {
          "internalType": "address",
          "name": "",
          "type": "address"
        }
      ],
      "stateMutability": "view",
      "type": "function"
    },
    {
      "inputs": [],
      "name": "proxiableUUID",
      "outputs": [
        {
          "internalType": "bytes32",
          "name": "",
          "type": "bytes32"
        }
      ],
      "stateMutability": "view",
      "type": "function"
    },
    {
      "inputs": [
        {
          "internalType": "bytes32",
          "name": "role",
          "type": "bytes32"
        },
        {
          "internalType": "address",
          "name": "callerConfirmation",
          "type": "address"
        }
      ],
      "name": "renounceRole",
      "outputs": [],
      "stateMutability": "nonpayable",
      "type": "function"
    },
    {
      "inputs": [
        {
          "internalType": "bytes32",
          "name": "role",
          "type": "bytes32"
        },
        {
          "internalType": "address",
          "name": "account",
          "type": "address"
        }
      ],
      "name": "revokeRole",
      "outputs": [],
      "stateMutability": "nonpayable",
      "type": "function"
    },
    {
      "inputs": [
        {
          "internalType": "address",
          "name": "from",
          "type": "address"
        },
        {
          "internalType": "address",
          "name": "to",
          "type": "address"
        },
        {
          "internalType": "uint256",
          "name": "tokenId",
          "type": "uint256"
        }
      ],
      "name": "safeTransferFrom",
      "outputs": [],
      "stateMutability": "nonpayable",
      "type": "function"
    },
    {
      "inputs": [
        {
          "internalType": "address",
          "name": "from",
          "type": "address"
        },
        {
          "internalType": "address",
          "name": "to",
          "type": "address"
        },
        {
          "internalType": "uint256",
          "name": "tokenId",
          "type": "uint256"
        },
        {
          "internalType": "bytes",
          "name": "data",
          "type": "bytes"
        }
      ],
      "name": "safeTransferFrom",
      "outputs": [],
      "stateMutability": "nonpayable",
      "type": "function"
    },
    {
      "inputs": [
        {
          "internalType": "address",
          "name": "operator",
          "type": "address"
        },
        {
          "internalType": "bool",
          "name": "approved",
          "type": "bool"
        }
      ],
      "name": "setApprovalForAll",
      "outputs": [],
      "stateMutability": "nonpayable",
      "type": "function"
    },
    {
      "inputs": [
        {
          "internalType": "bytes4",
          "name": "interfaceId",
          "type": "bytes4"
        }
      ],
      "name": "supportsInterface",
      "outputs": [
        {
          "internalType": "bool",
          "name": "",
          "type": "bool"
        }
      ],
      "stateMutability": "view",
      "type": "function"
    },
    {
      "inputs": [],
      "name": "symbol",
      "outputs": [
        {
          "internalType": "string",
          "name": "",
          "type": "string"
        }
      ],
      "stateMutability": "view",
      "type": "function"
    },
    {
      "inputs": [
        {
          "internalType": "uint256",
          "name": "index",
          "type": "uint256"
        }
      ],
      "name": "tokenByIndex",
      "outputs": [
        {
          "internalType": "uint256",
          "name": "",
          "type": "uint256"
        }
      ],
      "stateMutability": "view",
      "type": "function"
    },
    {
      "inputs": [
        {
          "internalType": "address",
          "name": "owner",
          "type": "address"
        },
        {
          "internalType": "uint256",
          "name": "index",
          "type": "uint256"
        }
      ],
      "name": "tokenOfOwnerByIndex",
      "outputs": [
        {
          "internalType": "uint256",
          "name": "",
          "type": "uint256"
        }
      ],
      "stateMutability": "view",
      "type": "function"
    },
    {
      "inputs": [
        {
          "internalType": "uint256",
          "name": "tokenId",
          "type": "uint256"
        }
      ],
      "name": "tokenURI",
      "outputs": [
        {
          "internalType": "string",
          "name": "",
          "type": "string"
        }
      ],
      "stateMutability": "view",
      "type": "function"
    },
    {
      "inputs": [],
      "name": "totalSupply",
      "outputs": [
        {
          "internalType": "uint256",
          "name": "",
          "type": "uint256"
        }
      ],
      "stateMutability": "view",
      "type": "function"
    },
    {
      "inputs": [
        {
          "internalType": "address",
          "name": "from",
          "type": "address"
        },
        {
          "internalType": "address",
          "name": "to",
          "type": "address"
        },
        {
          "internalType": "uint256",
          "name": "tokenId",
          "type": "uint256"
        }
      ],
      "name": "transferFrom",
      "outputs": [],
      "stateMutability": "nonpayable",
      "type": "function"
    },
    {
      "inputs": [
        {
          "internalType": "contract ITrait",
          "name": "trait",
          "type": "address"
        }
      ],
      "name": "updateURI",
      "outputs": [],
      "stateMutability": "nonpayable",
      "type": "function"
    },
    {
      "inputs": [
        {
          "internalType": "address",
          "name": "newImplementation",
          "type": "address"
        },
        {
          "internalType": "bytes",
          "name": "data",
          "type": "bytes"
        }
      ],
      "name": "upgradeToAndCall",
      "outputs": [],
      "stateMutability": "payable",
      "type": "function"
    }
  ],
  "bytecode": "0x60a06040523060805234801561001457600080fd5b5060805161253761003e600039600081816110a6015281816110cf015261123c01526125376000f3fe6080604052600436106101c25760003560e01c8063536ae7f1116100f7578063a22cb46511610095578063c87b56dd11610064578063c87b56dd14610507578063d539139314610527578063d547741f1461055b578063e985e9c51461057b57600080fd5b8063a22cb46514610476578063ad3cb1cc14610496578063b88d4fde146104c7578063bd62fd1f146104e757600080fd5b806390657147116100d1578063906571471461040c57806391d148541461042c57806395d89b411461044c578063a217fddf1461046157600080fd5b8063536ae7f1146103ac5780636352211e146103cc57806370a08231146103ec57600080fd5b80632f2ff15d1161016457806342842e0e1161013e57806342842e0e146103445780634f1ef286146103645780634f6ccce71461037757806352d1902d1461039757600080fd5b80632f2ff15d146102e45780632f745c591461030457806336568abe1461032457600080fd5b8063095ea7b3116101a0578063095ea7b31461025657806318160ddd1461027857806323b872dd146102a4578063248a9ca3146102c457600080fd5b806301ffc9a7146101c757806306fdde03146101fc578063081812fc1461021e575b600080fd5b3480156101d357600080fd5b506101e76101e2366004611cdf565b61059b565b60405190151581526020015b60405180910390f35b34801561020857600080fd5b506102116105e1565b6040516101f39190611d4c565b34801561022a57600080fd5b5061023e610239366004611d5f565b610685565b6040516001600160a01b0390911681526020016101f3565b34801561026257600080fd5b50610276610271366004611d8d565b61069a565b005b34801561028457600080fd5b506000805160206124c2833981519152545b6040519081526020016101f3565b3480156102b057600080fd5b506102766102bf366004611db9565b6106a9565b3480156102d057600080fd5b506102966102df366004611d5f565b610739565b3480156102f057600080fd5b506102766102ff366004611dfa565b61075b565b34801561031057600080fd5b5061029661031f366004611d8d565b610777565b34801561033057600080fd5b5061027661033f366004611dfa565b6107eb565b34801561035057600080fd5b5061027661035f366004611db9565b610823565b610276610372366004611eef565b61083e565b34801561038357600080fd5b50610296610392366004611d5f565b610859565b3480156103a357600080fd5b506102966108d1565b3480156103b857600080fd5b506102766103c7366004611f3f565b6108ee565b3480156103d857600080fd5b5061023e6103e7366004611d5f565b61098f565b3480156103f857600080fd5b50610296610407366004611f81565b61099a565b34801561041857600080fd5b50610276610427366004611f9e565b6109f6565b34801561043857600080fd5b506101e7610447366004611dfa565b610b54565b34801561045857600080fd5b50610211610b8c565b34801561046d57600080fd5b50610296600081565b34801561048257600080fd5b50610276610491366004612014565b610bcb565b3480156104a257600080fd5b50610211604051806040016040528060058152602001640352e302e360dc1b81525081565b3480156104d357600080fd5b506102766104e2366004612047565b610bd6565b3480156104f357600080fd5b50610276610502366004611f81565b610bed565b34801561051357600080fd5b50610211610522366004611d5f565b610c3a565b34801561053357600080fd5b506102967f9f2df0fed2c77648de5860a4cc508cd0818c85b8b8a1ab4ceeef8d981c8956a681565b34801561056757600080fd5b50610276610576366004611dfa565b610d5f565b34801561058757600080fd5b506101e76105963660046120b3565b610d7b565b60006001600160e01b03198216631e7c553160e21b14806105cc57506001600160e01b0319821663da8def7360e01b145b806105db57506105db82610dc8565b92915050565b6000805160206124628339815191528054606091908190610601906120e1565b80601f016020809104026020016040519081016040528092919081815260200182805461062d906120e1565b801561067a5780601f1061064f5761010080835404028352916020019161067a565b820191906000526020600020905b81548152906001019060200180831161065d57829003601f168201915b505050505091505090565b600061069082610ded565b506105db82610e25565b6106a5828233610e5f565b5050565b6001600160a01b0382166106d857604051633250574960e11b8152600060048201526024015b60405180910390fd5b60006106e5838333610e6c565b9050836001600160a01b0316816001600160a01b031614610733576040516364283d7b60e01b81526001600160a01b03808616600483015260248201849052821660448201526064016106cf565b50505050565b60009081526000805160206124e2833981519152602052604090206001015490565b61076482610739565b61076d81610f6d565b6107338383610f7a565b60006000805160206124428339815191526107918461099a565b83106107c25760405163295f44f760e21b81526001600160a01b0385166004820152602481018490526044016106cf565b6001600160a01b0384166000908152602091825260408082208583529092522054905092915050565b6001600160a01b03811633146108145760405163334bd91960e11b815260040160405180910390fd5b61081e828261101f565b505050565b61081e83838360405180602001604052806000815250610bd6565b61084661109b565b61084f82611142565b6106a58282611174565b60006000805160206124428339815191526108806000805160206124c28339815191525490565b83106108a95760405163295f44f760e21b815260006004820152602481018490526044016106cf565b8060020183815481106108be576108be61211b565b9060005260206000200154915050919050565b60006108db611231565b506000805160206124a283398151915290565b7f9f2df0fed2c77648de5860a4cc508cd0818c85b8b8a1ab4ceeef8d981c8956a661091881610f6d565b7fba3279df87ff2c78c2cba734e511a2660735569419f16f515214c3316646aa01805460008051602061248283398151915291600091829061095990612147565b9182905550905061096a858261127a565b6000818152600283016020526040902084906109868282612179565b50505050505050565b60006105db82610ded565b60006000805160206124628339815191526001600160a01b0383166109d5576040516322718ad960e21b8152600060048201526024016106cf565b6001600160a01b039092166000908152600390920160205250604090205490565b7ff0c57e16840df040f15088dc2f81fe391c3923bec73e23a9662efc9c229c6a008054600160401b810460ff16159067ffffffffffffffff16600081158015610a3c5750825b905060008267ffffffffffffffff166001148015610a595750303b155b905081158015610a67575080155b15610a855760405163f92ee8a960e01b815260040160405180910390fd5b845467ffffffffffffffff191660011785558315610aaf57845460ff60401b1916600160401b1785555b600080516020612482833981519152610ac66112df565b610ace6112df565b610ad888886112e7565b610ae3600033610f7a565b506001815560030180546001600160a01b0319166001600160a01b038a161790558315610b4a57845460ff60401b19168555604051600181527fc7f505b2f371ae2175ee4913f4499e1f2633a7b5936321eed1cdaeb6115181d29060200160405180910390a15b5050505050505050565b60009182526000805160206124e2833981519152602090815260408084206001600160a01b0393909316845291905290205460ff1690565b7f80bb2b638cc20bc4d0a60d66940f3ab4a00c1d7b313497ca82fb0b4ab0079301805460609160008051602061246283398151915291610601906120e1565b6106a53383836112f9565b610be18484846106a9565b610733848484846113aa565b6000610bf881610f6d565b507fba3279df87ff2c78c2cba734e511a2660735569419f16f515214c3316646aa0380546001600160a01b0319166001600160a01b0392909216919091179055565b7fba3279df87ff2c78c2cba734e511a2660735569419f16f515214c3316646aa035460008281527fba3279df87ff2c78c2cba734e511a2660735569419f16f515214c3316646aa026020526040908190209051636d6e6dff60e11b81526004808201859052825460248301526001830154604483015260028301546001600160801b038116606484015260801c6084830152600383015460a48301528201546001600160a01b0390811660c483015260059092015460e482015260609260008051602061248283398151915292169063dadcdbfe9061010401600060405180830381865afa158015610d30573d6000803e3d6000fd5b505050506040513d6000823e601f3d908101601f19168201604052610d58919081019061220d565b9392505050565b610d6882610739565b610d7181610f6d565b610733838361101f565b6001600160a01b0391821660009081527f80bb2b638cc20bc4d0a60d66940f3ab4a00c1d7b313497ca82fb0b4ab00793056020908152604080832093909416825291909152205460ff1690565b60006001600160e01b03198216637965db0b60e01b14806105db57506105db826114d3565b600080610df9836114f8565b90506001600160a01b0381166105db57604051637e27328960e01b8152600481018490526024016106cf565b60009081527f80bb2b638cc20bc4d0a60d66940f3ab4a00c1d7b313497ca82fb0b4ab007930460205260409020546001600160a01b031690565b61081e8383836001611532565b600080610e7a858585611648565b90506001600160a01b038116610f0357610efe846000805160206124c2833981519152805460008381527f645e039705490088daad89bae25049a34f4a9072d398537b1ab2425f24cbed0360205260408120829055600182018355919091527fa42f15e5d656f8155fd7419d740a6073999f19cd6e061449ce4a257150545bf20155565b610f26565b846001600160a01b0316816001600160a01b031614610f2657610f268185611752565b6001600160a01b038516610f4257610f3d846117f6565b610f65565b846001600160a01b0316816001600160a01b031614610f6557610f6585856118cd565b949350505050565b610f778133611928565b50565b60006000805160206124e2833981519152610f958484610b54565b611015576000848152602082815260408083206001600160a01b03871684529091529020805460ff19166001179055610fcb3390565b6001600160a01b0316836001600160a01b0316857f2f8788117e7eff1d82e926ec794901d17c78024a50270940304540a733656f0d60405160405180910390a460019150506105db565b60009150506105db565b60006000805160206124e283398151915261103a8484610b54565b15611015576000848152602082815260408083206001600160a01b0387168085529252808320805460ff1916905551339287917ff6391f5c32d9c69d2a47ea670b442974b53935d1edc7fd64eb21e047a839171b9190a460019150506105db565b306001600160a01b037f000000000000000000000000000000000000000000000000000000000000000016148061112257507f00000000000000000000000000000000000000000000000000000000000000006001600160a01b03166111166000805160206124a2833981519152546001600160a01b031690565b6001600160a01b031614155b156111405760405163703e46dd60e11b815260040160405180910390fd5b565b600061114d81610f6d565b600080516020612482833981519152805481600061116a83612147565b9190505550505050565b816001600160a01b03166352d1902d6040518163ffffffff1660e01b8152600401602060405180830381865afa9250505080156111ce575060408051601f3d908101601f191682019092526111cb9181019061227b565b60015b6111f657604051634c9c8ce360e01b81526001600160a01b03831660048201526024016106cf565b6000805160206124a2833981519152811461122757604051632a87526960e21b8152600481018290526024016106cf565b61081e8383611961565b306001600160a01b037f000000000000000000000000000000000000000000000000000000000000000016146111405760405163703e46dd60e11b815260040160405180910390fd5b6001600160a01b0382166112a457604051633250574960e11b8152600060048201526024016106cf565b60006112b283836000610e6c565b90506001600160a01b0381161561081e576040516339e3563760e11b8152600060048201526024016106cf565b6111406119b7565b6112ef6119b7565b6106a58282611a00565b6000805160206124628339815191526001600160a01b03831661133a57604051630b61174360e31b81526001600160a01b03841660048201526024016106cf565b6001600160a01b038481166000818152600584016020908152604080832094881680845294825291829020805460ff191687151590811790915591519182527f17307eab39ab6107e8899845ad3d59bd9653f200f220920489ca2b5937696c31910160405180910390a350505050565b6001600160a01b0383163b1561073357604051630a85bd0160e11b81526001600160a01b0384169063150b7a02906113ec903390889087908790600401612294565b6020604051808303816000875af1925050508015611427575060408051601f3d908101601f19168201909252611424918101906122d1565b60015b611490573d808015611455576040519150601f19603f3d011682016040523d82523d6000602084013e61145a565b606091505b50805160000361148857604051633250574960e11b81526001600160a01b03851660048201526024016106cf565b805181602001fd5b6001600160e01b03198116630a85bd0160e11b146114cc57604051633250574960e11b81526001600160a01b03851660048201526024016106cf565b5050505050565b60006001600160e01b0319821663780e9d6360e01b14806105db57506105db82611a31565b60009081527f80bb2b638cc20bc4d0a60d66940f3ab4a00c1d7b313497ca82fb0b4ab007930260205260409020546001600160a01b031690565b600080516020612462833981519152818061155557506001600160a01b03831615155b1561161757600061156585610ded565b90506001600160a01b038416158015906115915750836001600160a01b0316816001600160a01b031614155b80156115a457506115a28185610d7b565b155b156115cd5760405163a9fbf51f60e01b81526001600160a01b03851660048201526024016106cf565b82156116155784866001600160a01b0316826001600160a01b03167f8c5be1e5ebec7d5bd14f71427d1e84f3dd0314c0f7b2291e5b200ac8c7c3b92560405160405180910390a45b505b600093845260040160205250506040902080546001600160a01b0319166001600160a01b0392909216919091179055565b600060008051602061246283398151915281611663856114f8565b90506001600160a01b0384161561167f5761167f818587611a81565b6001600160a01b038116156116bf5761169c600086600080611532565b6001600160a01b0381166000908152600383016020526040902080546000190190555b6001600160a01b038616156116f0576001600160a01b03861660009081526003830160205260409020805460010190555b600085815260028301602052604080822080546001600160a01b0319166001600160a01b038a811691821790925591518893918516917fddf252ad1be2c89b69c2b068fc378daa952ba7f163c4a11628f55a4df523b3ef91a495945050505050565b600080516020612442833981519152600061176c8461099a565b60008481526001840160205260409020549091508082146117c1576001600160a01b03851660009081526020848152604080832085845282528083205484845281842081905583526001860190915290208190555b50600092835260018201602090815260408085208590556001600160a01b039095168452918252838320908352905290812055565b6000805160206124c28339815191525460008051602061244283398151915290600090611825906001906122ee565b60008481526003840160205260408120546002850180549394509092849081106118515761185161211b565b90600052602060002001549050808460020183815481106118745761187461211b565b6000918252602080832090910192909255828152600386019091526040808220849055868252812055600284018054806118b0576118b0612301565b600190038181906000526020600020016000905590555050505050565b600080516020612442833981519152600060016118e98561099a565b6118f391906122ee565b6001600160a01b0390941660009081526020838152604080832087845282528083208690559482526001909301909252502055565b6119328282610b54565b6106a55760405163e2517d3f60e01b81526001600160a01b0382166004820152602481018390526044016106cf565b61196a82611ae5565b6040516001600160a01b038316907fbc7cd75a20ee27fd9adebab32041f755214dbc6bffa90cc0225b39da2e5c2d3b90600090a28051156119af5761081e8282611b4a565b6106a5611bc0565b7ff0c57e16840df040f15088dc2f81fe391c3923bec73e23a9662efc9c229c6a0054600160401b900460ff1661114057604051631afcd79f60e31b815260040160405180910390fd5b611a086119b7565b60008051602061246283398151915280611a228482612365565b50600181016107338382612365565b60006001600160e01b031982166380ac58cd60e01b1480611a6257506001600160e01b03198216635b5e139f60e01b145b806105db57506301ffc9a760e01b6001600160e01b03198316146105db565b611a8c838383611bdf565b61081e576001600160a01b038316611aba57604051637e27328960e01b8152600481018290526024016106cf565b60405163177e802f60e01b81526001600160a01b0383166004820152602481018290526044016106cf565b806001600160a01b03163b600003611b1b57604051634c9c8ce360e01b81526001600160a01b03821660048201526024016106cf565b6000805160206124a283398151915280546001600160a01b0319166001600160a01b0392909216919091179055565b6060600080846001600160a01b031684604051611b679190612425565b600060405180830381855af49150503d8060008114611ba2576040519150601f19603f3d011682016040523d82523d6000602084013e611ba7565b606091505b5091509150611bb7858383611c44565b95945050505050565b34156111405760405163b398979f60e01b815260040160405180910390fd5b60006001600160a01b03831615801590610f655750826001600160a01b0316846001600160a01b03161480611c195750611c198484610d7b565b80610f655750826001600160a01b0316611c3283610e25565b6001600160a01b031614949350505050565b606082611c5957611c5482611ca0565b610d58565b8151158015611c7057506001600160a01b0384163b155b15611c9957604051639996b31560e01b81526001600160a01b03851660048201526024016106cf565b5080610d58565b805115611cb05780518082602001fd5b604051630a12f52160e11b815260040160405180910390fd5b6001600160e01b031981168114610f7757600080fd5b600060208284031215611cf157600080fd5b8135610d5881611cc9565b60005b83811015611d17578181015183820152602001611cff565b50506000910152565b60008151808452611d38816020860160208601611cfc565b601f01601f19169290920160200192915050565b602081526000610d586020830184611d20565b600060208284031215611d7157600080fd5b5035919050565b6001600160a01b0381168114610f7757600080fd5b60008060408385031215611da057600080fd5b8235611dab81611d78565b946020939093013593505050565b600080600060608486031215611dce57600080fd5b8335611dd981611d78565b92506020840135611de981611d78565b929592945050506040919091013590565b60008060408385031215611e0d57600080fd5b823591506020830135611e1f81611d78565b809150509250929050565b634e487b7160e01b600052604160045260246000fd5b604051601f8201601f1916810167ffffffffffffffff81118282101715611e6957611e69611e2a565b604052919050565b600067ffffffffffffffff821115611e8b57611e8b611e2a565b50601f01601f191660200190565b600082601f830112611eaa57600080fd5b8135611ebd611eb882611e71565b611e40565b818152846020838601011115611ed257600080fd5b816020850160208301376000918101602001919091529392505050565b60008060408385031215611f0257600080fd5b8235611f0d81611d78565b9150602083013567ffffffffffffffff811115611f2957600080fd5b611f3585828601611e99565b9150509250929050565b600080828403610100811215611f5457600080fd5b8335611f5f81611d78565b925060e0601f1982011215611f7357600080fd5b506020830190509250929050565b600060208284031215611f9357600080fd5b8135610d5881611d78565b600080600060608486031215611fb357600080fd5b8335611fbe81611d78565b9250602084013567ffffffffffffffff80821115611fdb57600080fd5b611fe787838801611e99565b93506040860135915080821115611ffd57600080fd5b5061200a86828701611e99565b9150509250925092565b6000806040838503121561202757600080fd5b823561203281611d78565b915060208301358015158114611e1f57600080fd5b6000806000806080858703121561205d57600080fd5b843561206881611d78565b9350602085013561207881611d78565b925060408501359150606085013567ffffffffffffffff81111561209b57600080fd5b6120a787828801611e99565b91505092959194509250565b600080604083850312156120c657600080fd5b82356120d181611d78565b91506020830135611e1f81611d78565b600181811c908216806120f557607f821691505b60208210810361211557634e487b7160e01b600052602260045260246000fd5b50919050565b634e487b7160e01b600052603260045260246000fd5b634e487b7160e01b600052601160045260246000fd5b60006001820161215957612159612131565b5060010190565b600081356001600160801b03811681146105db57600080fd5b81358155602082013560018201556001600160801b0361219b60408401612160565b166fffffffffffffffffffffffffffffffff196121ba60608501612160565b60801b168117600283015550608082013560038201556004810160a08301356121e281611d78565b81546001600160a01b0319166001600160a01b039190911617905560c0919091013560059190910155565b60006020828403121561221f57600080fd5b815167ffffffffffffffff81111561223657600080fd5b8201601f8101841361224757600080fd5b8051612255611eb882611e71565b81815285602083850101111561226a57600080fd5b611bb7826020830160208601611cfc565b60006020828403121561228d57600080fd5b5051919050565b6001600160a01b03858116825284166020820152604081018390526080606082018190526000906122c790830184611d20565b9695505050505050565b6000602082840312156122e357600080fd5b8151610d5881611cc9565b818103818111156105db576105db612131565b634e487b7160e01b600052603160045260246000fd5b601f82111561081e57600081815260208120601f850160051c8101602086101561233e5750805b601f850160051c820191505b8181101561235d5782815560010161234a565b505050505050565b815167ffffffffffffffff81111561237f5761237f611e2a565b6123938161238d84546120e1565b84612317565b602080601f8311600181146123c857600084156123b05750858301515b600019600386901b1c1916600185901b17855561235d565b600085815260208120601f198616915b828110156123f7578886015182559484019460019091019084016123d8565b50858210156124155787850151600019600388901b60f8161c191681555b5050505050600190811b01905550565b60008251612437818460208701611cfc565b919091019291505056fe645e039705490088daad89bae25049a34f4a9072d398537b1ab2425f24cbed0080bb2b638cc20bc4d0a60d66940f3ab4a00c1d7b313497ca82fb0b4ab0079300ba3279df87ff2c78c2cba734e511a2660735569419f16f515214c3316646aa00360894a13ba1a3210667c828492db98dca3e2076cc3735a920a3ca505d382bbc645e039705490088daad89bae25049a34f4a9072d398537b1ab2425f24cbed0202dd7bc7dec4dceedda775e58dd541e08a116c6c53815c0bd028192f7b626800a2646970667358221220657120715608f0d9ec0a9cf61fde2bc6af0799ed8fae2401299a4045ec2792d864736f6c63430008140033",
  "linkReferences": {},
  "deployedLinkReferences": {}
}