{
  "_format": "hh-sol-artifact-1",
  "contractName": "CRFarm",
  "sourceName": "contracts/farm/CRFarm.sol",
  "abi": [
    {
      "inputs": [],
      "name": "AccessControlBadConfirmation",
      "type": "error"
    },
    {
      "inputs": [
        {
          "internalType": "address",
          "name": "account",
          "type": "address"
        },
        {
          "internalType": "bytes32",
          "name": "neededRole",
          "type": "bytes32"
        }
      ],
      "name": "AccessControlUnauthorizedAccount",
      "type": "error"
    },
    {
      "inputs": [
        {
          "internalType": "address",
          "name": "target",
          "type": "address"
        }
      ],
      "name": "AddressEmptyCode",
      "type": "error"
    },
    {
      "inputs": [
        {
          "internalType": "address",
          "name": "sender",
          "type": "address"
        }
      ],
      "name": "AtLeastOneOperatorRole",
      "type": "error"
    },
    {
      "inputs": [
        {
          "internalType": "address",
          "name": "implementation",
          "type": "address"
        }
      ],
      "name": "ERC1967InvalidImplementation",
      "type": "error"
    },
    {
      "inputs": [],
      "name": "ERC1967NonPayable",
      "type": "error"
    },
    {
      "inputs": [],
      "name": "FailedInnerCall",
      "type": "error"
    },
    {
      "inputs": [],
      "name": "InvalidInitialization",
      "type": "error"
    },
    {
      "inputs": [
        {
          "internalType": "address",
          "name": "sender",
          "type": "address"
        }
      ],
      "name": "NoRewardToClaim",
      "type": "error"
    },
    {
      "inputs": [],
      "name": "NotInitializing",
      "type": "error"
    },
    {
      "inputs": [],
      "name": "ReentrancyGuardReentrantCall",
      "type": "error"
    },
    {
      "inputs": [
        {
          "internalType": "address",
          "name": "token",
          "type": "address"
        },
        {
          "internalType": "address",
          "name": "from",
          "type": "address"
        },
        {
          "internalType": "uint256",
          "name": "amount",
          "type": "uint256"
        }
      ],
      "name": "TransferERC20TokenFailed",
      "type": "error"
    },
    {
      "inputs": [
        {
          "internalType": "uint256",
          "name": "amount",
          "type": "uint256"
        }
      ],
      "name": "TransferNativeTokenFailed",
      "type": "error"
    },
    {
      "inputs": [],
      "name": "UUPSUnauthorizedCallContext",
      "type": "error"
    },
    {
      "inputs": [
        {
          "internalType": "bytes32",
          "name": "slot",
          "type": "bytes32"
        }
      ],
      "name": "UUPSUnsupportedProxiableUUID",
      "type": "error"
    },
    {
      "anonymous": false,
      "inputs": [
        {
          "indexed": false,
          "internalType": "uint64",
          "name": "version",
          "type": "uint64"
        }
      ],
      "name": "Initialized",
      "type": "event"
    },
    {
      "anonymous": false,
      "inputs": [
        {
          "indexed": false,
          "internalType": "address",
          "name": "player",
          "type": "address"
        },
        {
          "indexed": false,
          "internalType": "uint256",
          "name": "season",
          "type": "uint256"
        },
        {
          "indexed": false,
          "internalType": "uint256",
          "name": "amount",
          "type": "uint256"
        }
      ],
      "name": "RewardClaimed",
      "type": "event"
    },
    {
      "anonymous": false,
      "inputs": [
        {
          "indexed": true,
          "internalType": "bytes32",
          "name": "role",
          "type": "bytes32"
        },
        {
          "indexed": true,
          "internalType": "bytes32",
          "name": "previousAdminRole",
          "type": "bytes32"
        },
        {
          "indexed": true,
          "internalType": "bytes32",
          "name": "newAdminRole",
          "type": "bytes32"
        }
      ],
      "name": "RoleAdminChanged",
      "type": "event"
    },
    {
      "anonymous": false,
      "inputs": [
        {
          "indexed": true,
          "internalType": "bytes32",
          "name": "role",
          "type": "bytes32"
        },
        {
          "indexed": true,
          "internalType": "address",
          "name": "account",
          "type": "address"
        },
        {
          "indexed": true,
          "internalType": "address",
          "name": "sender",
          "type": "address"
        }
      ],
      "name": "RoleGranted",
      "type": "event"
    },
    {
      "anonymous": false,
      "inputs": [
        {
          "indexed": true,
          "internalType": "bytes32",
          "name": "role",
          "type": "bytes32"
        },
        {
          "indexed": true,
          "internalType": "address",
          "name": "account",
          "type": "address"
        },
        {
          "indexed": true,
          "internalType": "address",
          "name": "sender",
          "type": "address"
        }
      ],
      "name": "RoleRevoked",
      "type": "event"
    },
    {
      "anonymous": false,
      "inputs": [
        {
          "indexed": true,
          "internalType": "address",
          "name": "implementation",
          "type": "address"
        }
      ],
      "name": "Upgraded",
      "type": "event"
    },
    {
      "inputs": [],
      "name": "DEFAULT_ADMIN_ROLE",
      "outputs": [
        {
          "internalType": "bytes32",
          "name": "",
          "type": "bytes32"
        }
      ],
      "stateMutability": "view",
      "type": "function"
    },
    {
      "inputs": [],
      "name": "OPERATOR_ROLE",
      "outputs": [
        {
          "internalType": "bytes32",
          "name": "",
          "type": "bytes32"
        }
      ],
      "stateMutability": "view",
      "type": "function"
    },
    {
      "inputs": [],
      "name": "UPGRADE_INTERFACE_VERSION",
      "outputs": [
        {
          "internalType": "string",
          "name": "",
          "type": "string"
        }
      ],
      "stateMutability": "view",
      "type": "function"
    },
    {
      "inputs": [
        {
          "internalType": "uint256",
          "name": "season",
          "type": "uint256"
        },
        {
          "internalType": "uint256",
          "name": "amount",
          "type": "uint256"
        }
      ],
      "name": "addSeasonalReward",
      "outputs": [],
      "stateMutability": "payable",
      "type": "function"
    },
    {
      "inputs": [
        {
          "internalType": "uint256",
          "name": "season",
          "type": "uint256"
        }
      ],
      "name": "claim",
      "outputs": [],
      "stateMutability": "nonpayable",
      "type": "function"
    },
    {
      "inputs": [],
      "name": "currentSeason",
      "outputs": [
        {
          "internalType": "uint256",
          "name": "",
          "type": "uint256"
        }
      ],
      "stateMutability": "view",
      "type": "function"
    },
    {
      "inputs": [
        {
          "internalType": "address",
          "name": "account",
          "type": "address"
        },
        {
          "internalType": "uint256",
          "name": "currentDamage",
          "type": "uint256"
        }
      ],
      "name": "deposit",
      "outputs": [],
      "stateMutability": "nonpayable",
      "type": "function"
    },
    {
      "inputs": [
        {
          "internalType": "bytes32",
          "name": "role",
          "type": "bytes32"
        }
      ],
      "name": "getRoleAdmin",
      "outputs": [
        {
          "internalType": "bytes32",
          "name": "",
          "type": "bytes32"
        }
      ],
      "stateMutability": "view",
      "type": "function"
    },
    {
      "inputs": [
        {
          "internalType": "bytes32",
          "name": "role",
          "type": "bytes32"
        },
        {
          "internalType": "address",
          "name": "account",
          "type": "address"
        }
      ],
      "name": "grantRole",
      "outputs": [],
      "stateMutability": "nonpayable",
      "type": "function"
    },
    {
      "inputs": [
        {
          "internalType": "bytes32",
          "name": "role",
          "type": "bytes32"
        },
        {
          "internalType": "address",
          "name": "account",
          "type": "address"
        }
      ],
      "name": "hasRole",
      "outputs": [
        {
          "internalType": "bool",
          "name": "",
          "type": "bool"
        }
      ],
      "stateMutability": "view",
      "type": "function"
    },
    {
      "inputs": [],
      "name": "initialize",
      "outputs": [],
      "stateMutability": "nonpayable",
      "type": "function"
    },
    {
      "inputs": [
        {
          "internalType": "uint256",
          "name": "season",
          "type": "uint256"
        },
        {
          "internalType": "address",
          "name": "account",
          "type": "address"
        }
      ],
      "name": "pendingReward",
      "outputs": [
        {
          "internalType": "uint256",
          "name": "",
          "type": "uint256"
        }
      ],
      "stateMutability": "view",
      "type": "function"
    },
    {
      "inputs": [],
      "name": "proxiableUUID",
      "outputs": [
        {
          "internalType": "bytes32",
          "name": "",
          "type": "bytes32"
        }
      ],
      "stateMutability": "view",
      "type": "function"
    },
    {
      "inputs": [
        {
          "internalType": "bytes32",
          "name": "role",
          "type": "bytes32"
        },
        {
          "internalType": "address",
          "name": "callerConfirmation",
          "type": "address"
        }
      ],
      "name": "renounceRole",
      "outputs": [],
      "stateMutability": "nonpayable",
      "type": "function"
    },
    {
      "inputs": [
        {
          "internalType": "bytes32",
          "name": "role",
          "type": "bytes32"
        },
        {
          "internalType": "address",
          "name": "account",
          "type": "address"
        }
      ],
      "name": "revokeRole",
      "outputs": [],
      "stateMutability": "nonpayable",
      "type": "function"
    },
    {
      "inputs": [
        {
          "internalType": "contract ICryptoRumble",
          "name": "cr",
          "type": "address"
        }
      ],
      "name": "setCR",
      "outputs": [],
      "stateMutability": "nonpayable",
      "type": "function"
    },
    {
      "inputs": [
        {
          "internalType": "contract ISeasonHelper",
          "name": "helper",
          "type": "address"
        }
      ],
      "name": "setSeasonHelper",
      "outputs": [],
      "stateMutability": "nonpayable",
      "type": "function"
    },
    {
      "inputs": [
        {
          "internalType": "bytes4",
          "name": "interfaceId",
          "type": "bytes4"
        }
      ],
      "name": "supportsInterface",
      "outputs": [
        {
          "internalType": "bool",
          "name": "",
          "type": "bool"
        }
      ],
      "stateMutability": "view",
      "type": "function"
    },
    {
      "inputs": [],
      "name": "updateCurrentSeasonReward",
      "outputs": [],
      "stateMutability": "nonpayable",
      "type": "function"
    },
    {
      "inputs": [
        {
          "internalType": "uint256",
          "name": "rewardFee",
          "type": "uint256"
        },
        {
          "internalType": "uint256",
          "name": "reservedFee",
          "type": "uint256"
        }
      ],
      "name": "updateRewardPool",
      "outputs": [],
      "stateMutability": "payable",
      "type": "function"
    },
    {
      "inputs": [
        {
          "internalType": "address",
          "name": "newImplementation",
          "type": "address"
        },
        {
          "internalType": "bytes",
          "name": "data",
          "type": "bytes"
        }
      ],
      "name": "upgradeToAndCall",
      "outputs": [],
      "stateMutability": "payable",
      "type": "function"
    },
    {
      "stateMutability": "payable",
      "type": "receive"
    }
  ],
  "bytecode": "0x60a06040523060805234801561001457600080fd5b50608051611e4961003e600039600081816115c7015281816115f001526117890152611e496000f3fe60806040526004361061012e5760003560e01c8063886bfc8f116100ab578063ad3cb1cc1161006f578063ad3cb1cc146102f9578063bcb3962114610337578063cb5053ed1461034c578063d547741f1461036c578063dfaff1b81461038c578063f5b541a61461039f57600080fd5b8063886bfc8f1461026f57806391d148541461028f57806393a985d1146102af57806398969e82146102c4578063a217fddf146102e457600080fd5b806347b8c367116100f257806347b8c367146101ff57806347e7ef24146102125780634f1ef2861461023257806352d1902d146102455780638129fc1c1461025a57600080fd5b806301ffc9a71461013a578063248a9ca31461016f5780632f2ff15d1461019d57806336568abe146101bf578063379607f5146101df57600080fd5b3661013557005b600080fd5b34801561014657600080fd5b5061015a610155366004611a29565b6103c1565b60405190151581526020015b60405180910390f35b34801561017b57600080fd5b5061018f61018a366004611a53565b6103f8565b604051908152602001610166565b3480156101a957600080fd5b506101bd6101b8366004611a81565b61041a565b005b3480156101cb57600080fd5b506101bd6101da366004611a81565b61043c565b3480156101eb57600080fd5b506101bd6101fa366004611a53565b610474565b6101bd61020d366004611ab1565b6108bb565b34801561021e57600080fd5b506101bd61022d366004611ad3565b610a00565b6101bd610240366004611b15565b610b57565b34801561025157600080fd5b5061018f610b72565b34801561026657600080fd5b506101bd610b8f565b34801561027b57600080fd5b506101bd61028a366004611bd9565b610cc4565b34801561029b57600080fd5b5061015a6102aa366004611a81565b610d3d565b3480156102bb57600080fd5b506101bd610d75565b3480156102d057600080fd5b5061018f6102df366004611a81565b610dc2565b3480156102f057600080fd5b5061018f600081565b34801561030557600080fd5b5061032a604051806040016040528060058152602001640352e302e360dc1b81525081565b6040516101669190611c1a565b34801561034357600080fd5b5061018f61105a565b34801561035857600080fd5b506101bd610367366004611bd9565b6110e1565b34801561037857600080fd5b506101bd610387366004611a81565b61115a565b6101bd61039a366004611ab1565b611176565b3480156103ab57600080fd5b5061018f600080516020611dd483398151915281565b60006001600160e01b03198216637965db0b60e01b14806103f257506301ffc9a760e01b6001600160e01b03198316145b92915050565b6000908152600080516020611df4833981519152602052604090206001015490565b610423826103f8565b61042c8161122e565b6104368383611238565b50505050565b6001600160a01b03811633146104655760405163334bd91960e11b815260040160405180910390fd5b61046f82826112dd565b505050565b61047c611359565b6000600080516020611d948339815191526002810154604051631c93ee0f60e11b8152600481018590529192506001600160a01b031690633927dc1e90602401602060405180830381865afa1580156104d9573d6000803e3d6000fd5b505050506040513d601f19601f820116820180604052508101906104fd9190611c4d565b6105225760405162461bcd60e51b815260040161051990611c6f565b60405180910390fd5b61052b826113a3565b6000828152600682016020908152604080832060078501835281842033855290925282206001810154600383015482549394929364e8d4a510009161056f91611ca5565b6105799190611cbc565b6105839190611cde565b905064e8d4a510008360030154836000015461059f9190611ca5565b6105a99190611cbc565b600183015560008190036105d257604051633aa295af60e21b8152336004820152602401610519565b600184015460408051632b08d61960e21b815290516000926001600160a01b03169163ac2358649160048083019260209291908290030181865afa15801561061e573d6000803e3d6000fd5b505050506040513d601f19601f820116820180604052508101906106429190611cf1565b6001600160a01b0316146107eb57600184015460408051632b08d61960e21b815290516000926001600160a01b03169163ac2358649160048083019260209291908290030181865afa15801561069c573d6000803e3d6000fd5b505050506040513d601f19601f820116820180604052508101906106c09190611cf1565b60405163a9059cbb60e01b8152336004820152602481018490526001600160a01b03919091169063a9059cbb906044016020604051808303816000875af115801561070f573d6000803e3d6000fd5b505050506040513d601f19601f820116820180604052508101906107339190611c4d565b9050806107e5578460010160009054906101000a90046001600160a01b03166001600160a01b031663ac2358646040518163ffffffff1660e01b8152600401602060405180830381865afa15801561078f573d6000803e3d6000fd5b505050506040513d601f19601f820116820180604052508101906107b39190611cf1565b60405163663d231160e01b81526001600160a01b03909116600482015230602482015260448101839052606401610519565b5061081a565b604051339082156108fc029083906000818181858888f19350505050158015610818573d6000803e3d6000fd5b505b6000858152600885016020908152604080832033845290915281208054839290610845908490611d0e565b909155505060408051338152602081018790529081018290527ff01da32686223933d8a18a391060918c7f11a3648639edd87ae013e2e27317439060600160405180910390a1505050506108b860017f9b779b17422d0df92223018b32b4d1fa46e071723d6817e2486d003becc55f0055565b50565b6108c6600033610d3d565b1580156108e857506108e6600080516020611dd483398151915233610d3d565b155b1561091457335b604051638dd2f3ad60e01b81526001600160a01b039091166004820152602401610519565b6000600080516020611d948339815191526002810154604051631c93ee0f60e11b8152600481018690529192506001600160a01b031690633927dc1e90602401602060405180830381865afa158015610971573d6000803e3d6000fd5b505050506040513d601f19601f820116820180604052508101906109959190611c4d565b6109b15760405162461bcd60e51b815260040161051990611c6f565b6000838152600382016020526040812080548492906109d1908490611d0e565b90915550506000838152600482016020526040812080548492906109f6908490611d0e565b9091555050505050565b610a0b600033610d3d565b158015610a2d5750610a2b600080516020611dd483398151915233610d3d565b155b15610a3857336108ef565b600080516020611d948339815191526000610a5161105a565b9050610a5c816113a3565b600081815260098301602090815260408083206001600160a01b0388168452909152902054808411610a8f575050505050565b600082815260068401602090815260408083206007870183528184206001600160a01b038a16808652908452828520878652600989018552838620918652935290832087905591610ae08488611cde565b905080826000016000828254610af69190611d0e565b9091555050600383015464e8d4a5100090610b119083611ca5565b610b1b9190611cbc565b826001016000828254610b2e9190611d0e565b9091555050825481908490600090610b47908490611d0e565b90915550505050505050505b5050565b610b5f6115bc565b610b6882611663565b610b5382826116c1565b6000610b7c61177e565b50600080516020611db483398151915290565b7ff0c57e16840df040f15088dc2f81fe391c3923bec73e23a9662efc9c229c6a008054600160401b810460ff16159067ffffffffffffffff16600081158015610bd55750825b905060008267ffffffffffffffff166001148015610bf25750303b155b905081158015610c00575080155b15610c1e5760405163f92ee8a960e01b815260040160405180910390fd5b845467ffffffffffffffff191660011785558315610c4857845460ff60401b1916600160401b1785555b600080516020611d94833981519152610c5f6117c7565b610c676117c7565b610c72600033611238565b50600190558315610cbd57845460ff60401b19168555604051600181527fc7f505b2f371ae2175ee4913f4499e1f2633a7b5936321eed1cdaeb6115181d29060200160405180910390a15b5050505050565b610ccf600033610d3d565b158015610cf15750610cef600080516020611dd483398151915233610d3d565b155b15610cfc57336108ef565b7f4b6e4487b7d7b2dc41d6bd43fd4867f6d68d713cd26fe3046eb3fbf34fec270280546001600160a01b0319166001600160a01b0392909216919091179055565b6000918252600080516020611df4833981519152602090815260408084206001600160a01b0393909316845291905290205460ff1690565b610d80600033610d3d565b158015610da25750610da0600080516020611dd483398151915233610d3d565b155b15610dad57336108ef565b6000610db761105a565b90506108b8816113a3565b600080600080516020611d948339815191526002810154604051631c93ee0f60e11b8152600481018790529192506001600160a01b031690633927dc1e90602401602060405180830381865afa158015610e20573d6000803e3d6000fd5b505050506040513d601f19601f82011682018060405250810190610e449190611c4d565b610e605760405162461bcd60e51b815260040161051990611c6f565b600084815260068201602090815260408083206007850183528184206001600160a01b038816855290925290912080541580610e9b57508154155b15610eac57600093505050506103f2565b6002830154604051631d83614f60e31b81526004810188905260009182916001600160a01b039091169063ec1b0a78906024016040805180830381865afa158015610efb573d6000803e3d6000fd5b505050506040513d601f19601f82011682018060405250810190610f1f9190611d21565b90925090506000610f308284611d0e565b4211610f3c5742610f46565b610f468284611d0e565b600186015460008b815260038901602052604081205492935091610f6a9190611cde565b905060008660020154600014610f8e576002870154610f899084611cde565b610f98565b610f988584611cde565b905060008760020154600014610fc6576002880154610fb78688611d0e565b610fc19190611cde565b610fc8565b845b905060008115610fea5781610fdd8486611ca5565b610fe79190611cbc565b90505b8854600090610ffe8364e8d4a51000611ca5565b6110089190611cbc565b8a600301546110179190611d0e565b9050886001015464e8d4a51000828b600001546110349190611ca5565b61103e9190611cbc565b6110489190611cde565b9e9d5050505050505050505050505050565b600080600080516020611d948339815191526002810154604051638371b1c560e01b81524260048201529192506001600160a01b031690638371b1c590602401602060405180830381865afa1580156110b7573d6000803e3d6000fd5b505050506040513d601f19601f820116820180604052508101906110db9190611d45565b91505090565b6110ec600033610d3d565b15801561110e575061110c600080516020611dd483398151915233610d3d565b155b1561111957336108ef565b7f4b6e4487b7d7b2dc41d6bd43fd4867f6d68d713cd26fe3046eb3fbf34fec270180546001600160a01b0319166001600160a01b0392909216919091179055565b611163826103f8565b61116c8161122e565b61043683836112dd565b611181600033610d3d565b1580156111a357506111a1600080516020611dd483398151915233610d3d565b155b156111ae57336108ef565b600080516020611d9483398151915260006111c761105a565b90508382600301600083815260200190815260200160002060008282546111ee9190611d0e565b90915550839050600383016000611206846001611d0e565b815260200190815260200160002060008282546112239190611d0e565b909155505050505050565b6108b881336117cf565b6000600080516020611df48339815191526112538484610d3d565b6112d3576000848152602082815260408083206001600160a01b03871684529091529020805460ff191660011790556112893390565b6001600160a01b0316836001600160a01b0316857f2f8788117e7eff1d82e926ec794901d17c78024a50270940304540a733656f0d60405160405180910390a460019150506103f2565b60009150506103f2565b6000600080516020611df48339815191526112f88484610d3d565b156112d3576000848152602082815260408083206001600160a01b0387168085529252808320805460ff1916905551339287917ff6391f5c32d9c69d2a47ea670b442974b53935d1edc7fd64eb21e047a839171b9190a460019150506103f2565b7f9b779b17422d0df92223018b32b4d1fa46e071723d6817e2486d003becc55f0080546001190161139d57604051633ee5aeb560e01b815260040160405180910390fd5b60029055565b60008181527f4b6e4487b7d7b2dc41d6bd43fd4867f6d68d713cd26fe3046eb3fbf34fec2706602052604090206002810154600080516020611d94833981519152919042116113f157505050565b6002820154604051631d83614f60e31b81526004810185905260009182916001600160a01b039091169063ec1b0a78906024016040805180830381865afa158015611440573d6000803e3d6000fd5b505050506040513d601f19601f820116820180604052508101906114649190611d21565b909250905060006114758284611d0e565b4211611481574261148b565b61148b8284611d0e565b84549091506000036114a65760029093019290925550505050565b6001840154600087815260038701602052604081205490916114c791611cde565b9050600085600201546000146114eb5760028601546114e69084611cde565b6114f5565b6114f58584611cde565b9050600086600201546000146115235760028701546115148688611d0e565b61151e9190611cde565b611525565b845b90508060000361153a57505050505050505050565b6000816115478486611ca5565b6115519190611cbc565b9050848860020181905550808860010160008282546115709190611d0e565b90915550508754156115b057875461158d8264e8d4a51000611ca5565b6115979190611cbc565b8860030160008282546115aa9190611d0e565b90915550505b50505050505050505050565b306001600160a01b037f000000000000000000000000000000000000000000000000000000000000000016148061164357507f00000000000000000000000000000000000000000000000000000000000000006001600160a01b0316611637600080516020611db4833981519152546001600160a01b031690565b6001600160a01b031614155b156116615760405163703e46dd60e11b815260040160405180910390fd5b565b61166e600033610d3d565b158015611690575061168e600080516020611dd483398151915233610d3d565b155b1561169b57336108ef565b600080516020611d9483398151915280548160006116b883611d5e565b91905055505050565b816001600160a01b03166352d1902d6040518163ffffffff1660e01b8152600401602060405180830381865afa92505050801561171b575060408051601f3d908101601f1916820190925261171891810190611d45565b60015b61174357604051634c9c8ce360e01b81526001600160a01b0383166004820152602401610519565b600080516020611db4833981519152811461177457604051632a87526960e21b815260048101829052602401610519565b61046f8383611808565b306001600160a01b037f000000000000000000000000000000000000000000000000000000000000000016146116615760405163703e46dd60e11b815260040160405180910390fd5b61166161185e565b6117d98282610d3d565b610b535760405163e2517d3f60e01b81526001600160a01b038216600482015260248101839052604401610519565b611811826118a7565b6040516001600160a01b038316907fbc7cd75a20ee27fd9adebab32041f755214dbc6bffa90cc0225b39da2e5c2d3b90600090a28051156118565761046f828261190c565b610b53611982565b7ff0c57e16840df040f15088dc2f81fe391c3923bec73e23a9662efc9c229c6a0054600160401b900460ff1661166157604051631afcd79f60e31b815260040160405180910390fd5b806001600160a01b03163b6000036118dd57604051634c9c8ce360e01b81526001600160a01b0382166004820152602401610519565b600080516020611db483398151915280546001600160a01b0319166001600160a01b0392909216919091179055565b6060600080846001600160a01b0316846040516119299190611d77565b600060405180830381855af49150503d8060008114611964576040519150601f19603f3d011682016040523d82523d6000602084013e611969565b606091505b50915091506119798583836119a1565b95945050505050565b34156116615760405163b398979f60e01b815260040160405180910390fd5b6060826119b6576119b182611a00565b6119f9565b81511580156119cd57506001600160a01b0384163b155b156119f657604051639996b31560e01b81526001600160a01b0385166004820152602401610519565b50805b9392505050565b805115611a105780518082602001fd5b604051630a12f52160e11b815260040160405180910390fd5b600060208284031215611a3b57600080fd5b81356001600160e01b0319811681146119f957600080fd5b600060208284031215611a6557600080fd5b5035919050565b6001600160a01b03811681146108b857600080fd5b60008060408385031215611a9457600080fd5b823591506020830135611aa681611a6c565b809150509250929050565b60008060408385031215611ac457600080fd5b50508035926020909101359150565b60008060408385031215611ae657600080fd5b8235611af181611a6c565b946020939093013593505050565b634e487b7160e01b600052604160045260246000fd5b60008060408385031215611b2857600080fd5b8235611b3381611a6c565b9150602083013567ffffffffffffffff80821115611b5057600080fd5b818501915085601f830112611b6457600080fd5b813581811115611b7657611b76611aff565b604051601f8201601f19908116603f01168101908382118183101715611b9e57611b9e611aff565b81604052828152886020848701011115611bb757600080fd5b8260208601602083013760006020848301015280955050505050509250929050565b600060208284031215611beb57600080fd5b81356119f981611a6c565b60005b83811015611c11578181015183820152602001611bf9565b50506000910152565b6020815260008251806020840152611c39816040850160208701611bf6565b601f01601f19169190910160400192915050565b600060208284031215611c5f57600080fd5b815180151581146119f957600080fd5b60208082526006908201526518589cd95b9d60d21b604082015260600190565b634e487b7160e01b600052601160045260246000fd5b80820281158282048414176103f2576103f2611c8f565b600082611cd957634e487b7160e01b600052601260045260246000fd5b500490565b818103818111156103f2576103f2611c8f565b600060208284031215611d0357600080fd5b81516119f981611a6c565b808201808211156103f2576103f2611c8f565b60008060408385031215611d3457600080fd5b505080516020909101519092909150565b600060208284031215611d5757600080fd5b5051919050565b600060018201611d7057611d70611c8f565b5060010190565b60008251611d89818460208701611bf6565b919091019291505056fe4b6e4487b7d7b2dc41d6bd43fd4867f6d68d713cd26fe3046eb3fbf34fec2700360894a13ba1a3210667c828492db98dca3e2076cc3735a920a3ca505d382bbc97667070c54ef182b0f5858b034beac1b6f3089aa2d3188bb1e8929f4fa9b92902dd7bc7dec4dceedda775e58dd541e08a116c6c53815c0bd028192f7b626800a2646970667358221220f2118b7cd484943743d766311bab3a390cba1bb01d5a234dccded05dd158f6c864736f6c63430008140033",
  "linkReferences": {},
  "deployedLinkReferences": {}
}