{
  "_format": "hh-sol-artifact-1",
  "contractName": "CryptoRumble",
  "sourceName": "contracts/CryptoRumble.sol",
  "abi": [
    {
      "inputs": [],
      "name": "AccessControlBadConfirmation",
      "type": "error"
    },
    {
      "inputs": [
        {
          "internalType": "address",
          "name": "account",
          "type": "address"
        },
        {
          "internalType": "bytes32",
          "name": "neededRole",
          "type": "bytes32"
        }
      ],
      "name": "AccessControlUnauthorizedAccount",
      "type": "error"
    },
    {
      "inputs": [
        {
          "internalType": "address",
          "name": "target",
          "type": "address"
        }
      ],
      "name": "AddressEmptyCode",
      "type": "error"
    },
    {
      "inputs": [
        {
          "internalType": "address",
          "name": "sender",
          "type": "address"
        }
      ],
      "name": "AtLeastOneOperatorRole",
      "type": "error"
    },
    {
      "inputs": [
        {
          "internalType": "uint256",
          "name": "board",
          "type": "uint256"
        },
        {
          "internalType": "uint256",
          "name": "expect",
          "type": "uint256"
        }
      ],
      "name": "BoardChanged",
      "type": "error"
    },
    {
      "inputs": [
        {
          "internalType": "address",
          "name": "origin",
          "type": "address"
        },
        {
          "internalType": "address",
          "name": "sender",
          "type": "address"
        }
      ],
      "name": "ContractDisallowed",
      "type": "error"
    },
    {
      "inputs": [
        {
          "internalType": "address",
          "name": "implementation",
          "type": "address"
        }
      ],
      "name": "ERC1967InvalidImplementation",
      "type": "error"
    },
    {
      "inputs": [],
      "name": "ERC1967NonPayable",
      "type": "error"
    },
    {
      "inputs": [],
      "name": "FailedInnerCall",
      "type": "error"
    },
    {
      "inputs": [
        {
          "internalType": "address",
          "name": "sender",
          "type": "address"
        }
      ],
      "name": "GameNotInProgress",
      "type": "error"
    },
    {
      "inputs": [
        {
          "internalType": "uint256",
          "name": "id",
          "type": "uint256"
        }
      ],
      "name": "HeroLocked",
      "type": "error"
    },
    {
      "inputs": [],
      "name": "InvalidInitialization",
      "type": "error"
    },
    {
      "inputs": [
        {
          "internalType": "uint256",
          "name": "level",
          "type": "uint256"
        }
      ],
      "name": "InvalidLevel",
      "type": "error"
    },
    {
      "inputs": [
        {
          "internalType": "address",
          "name": "from",
          "type": "address"
        },
        {
          "internalType": "uint256",
          "name": "id",
          "type": "uint256"
        }
      ],
      "name": "InvalidOwner",
      "type": "error"
    },
    {
      "inputs": [],
      "name": "InvalidProof",
      "type": "error"
    },
    {
      "inputs": [
        {
          "internalType": "address",
          "name": "sender",
          "type": "address"
        }
      ],
      "name": "NoRewardToClaim",
      "type": "error"
    },
    {
      "inputs": [
        {
          "internalType": "uint256",
          "name": "nonce",
          "type": "uint256"
        },
        {
          "internalType": "uint256",
          "name": "expect",
          "type": "uint256"
        }
      ],
      "name": "NonceChanged",
      "type": "error"
    },
    {
      "inputs": [
        {
          "internalType": "uint256",
          "name": "extra",
          "type": "uint256"
        }
      ],
      "name": "NotEnoughFee",
      "type": "error"
    },
    {
      "inputs": [],
      "name": "NotInitializing",
      "type": "error"
    },
    {
      "inputs": [],
      "name": "ReentrancyGuardReentrantCall",
      "type": "error"
    },
    {
      "inputs": [
        {
          "internalType": "uint256",
          "name": "count",
          "type": "uint256"
        }
      ],
      "name": "TooManyHeroes",
      "type": "error"
    },
    {
      "inputs": [
        {
          "internalType": "uint256",
          "name": "count",
          "type": "uint256"
        }
      ],
      "name": "TooManyProof",
      "type": "error"
    },
    {
      "inputs": [
        {
          "internalType": "uint256",
          "name": "steps",
          "type": "uint256"
        }
      ],
      "name": "TooManySteps",
      "type": "error"
    },
    {
      "inputs": [
        {
          "internalType": "address",
          "name": "from",
          "type": "address"
        },
        {
          "internalType": "uint256",
          "name": "amount",
          "type": "uint256"
        }
      ],
      "name": "TransferGPFailed",
      "type": "error"
    },
    {
      "inputs": [
        {
          "internalType": "uint256",
          "name": "amount",
          "type": "uint256"
        }
      ],
      "name": "TransferNativeTokenFailed",
      "type": "error"
    },
    {
      "inputs": [],
      "name": "UUPSUnauthorizedCallContext",
      "type": "error"
    },
    {
      "inputs": [
        {
          "internalType": "bytes32",
          "name": "slot",
          "type": "bytes32"
        }
      ],
      "name": "UUPSUnsupportedProxiableUUID",
      "type": "error"
    },
    {
      "anonymous": false,
      "inputs": [
        {
          "indexed": false,
          "internalType": "address",
          "name": "player",
          "type": "address"
        },
        {
          "indexed": false,
          "internalType": "uint256",
          "name": "gameId",
          "type": "uint256"
        },
        {
          "indexed": false,
          "internalType": "uint256",
          "name": "damage",
          "type": "uint256"
        },
        {
          "indexed": false,
          "internalType": "uint256",
          "name": "level",
          "type": "uint256"
        }
      ],
      "name": "DamageMade",
      "type": "event"
    },
    {
      "anonymous": false,
      "inputs": [
        {
          "indexed": false,
          "internalType": "uint256",
          "name": "gameId",
          "type": "uint256"
        },
        {
          "indexed": false,
          "internalType": "uint256",
          "name": "timeStart",
          "type": "uint256"
        },
        {
          "indexed": false,
          "internalType": "uint256",
          "name": "time",
          "type": "uint256"
        },
        {
          "indexed": false,
          "internalType": "uint256",
          "name": "level",
          "type": "uint256"
        },
        {
          "indexed": false,
          "internalType": "bool",
          "name": "finished",
          "type": "bool"
        },
        {
          "indexed": false,
          "internalType": "bool",
          "name": "specialLevel",
          "type": "bool"
        }
      ],
      "name": "GameOver",
      "type": "event"
    },
    {
      "anonymous": false,
      "inputs": [
        {
          "indexed": false,
          "internalType": "uint64",
          "name": "version",
          "type": "uint64"
        }
      ],
      "name": "Initialized",
      "type": "event"
    },
    {
      "anonymous": false,
      "inputs": [
        {
          "indexed": false,
          "internalType": "address",
          "name": "player",
          "type": "address"
        },
        {
          "indexed": false,
          "internalType": "uint256",
          "name": "level",
          "type": "uint256"
        },
        {
          "indexed": false,
          "internalType": "uint256[3]",
          "name": "hero",
          "type": "uint256[3]"
        },
        {
          "indexed": false,
          "internalType": "uint256",
          "name": "gameId",
          "type": "uint256"
        },
        {
          "indexed": false,
          "internalType": "bool",
          "name": "specialLevel",
          "type": "bool"
        }
      ],
      "name": "NewGame",
      "type": "event"
    },
    {
      "anonymous": false,
      "inputs": [
        {
          "indexed": true,
          "internalType": "bytes32",
          "name": "role",
          "type": "bytes32"
        },
        {
          "indexed": true,
          "internalType": "bytes32",
          "name": "previousAdminRole",
          "type": "bytes32"
        },
        {
          "indexed": true,
          "internalType": "bytes32",
          "name": "newAdminRole",
          "type": "bytes32"
        }
      ],
      "name": "RoleAdminChanged",
      "type": "event"
    },
    {
      "anonymous": false,
      "inputs": [
        {
          "indexed": true,
          "internalType": "bytes32",
          "name": "role",
          "type": "bytes32"
        },
        {
          "indexed": true,
          "internalType": "address",
          "name": "account",
          "type": "address"
        },
        {
          "indexed": true,
          "internalType": "address",
          "name": "sender",
          "type": "address"
        }
      ],
      "name": "RoleGranted",
      "type": "event"
    },
    {
      "anonymous": false,
      "inputs": [
        {
          "indexed": true,
          "internalType": "bytes32",
          "name": "role",
          "type": "bytes32"
        },
        {
          "indexed": true,
          "internalType": "address",
          "name": "account",
          "type": "address"
        },
        {
          "indexed": true,
          "internalType": "address",
          "name": "sender",
          "type": "address"
        }
      ],
      "name": "RoleRevoked",
      "type": "event"
    },
    {
      "anonymous": false,
      "inputs": [
        {
          "indexed": false,
          "internalType": "address",
          "name": "player",
          "type": "address"
        },
        {
          "indexed": false,
          "internalType": "uint256",
          "name": "gameId",
          "type": "uint256"
        },
        {
          "indexed": false,
          "internalType": "uint256",
          "name": "damage",
          "type": "uint256"
        },
        {
          "indexed": false,
          "internalType": "uint256",
          "name": "level",
          "type": "uint256"
        },
        {
          "indexed": false,
          "internalType": "uint256",
          "name": "season",
          "type": "uint256"
        }
      ],
      "name": "SeasonDamageMade",
      "type": "event"
    },
    {
      "anonymous": false,
      "inputs": [
        {
          "indexed": true,
          "internalType": "address",
          "name": "implementation",
          "type": "address"
        }
      ],
      "name": "Upgraded",
      "type": "event"
    },
    {
      "inputs": [],
      "name": "DEFAULT_ADMIN_ROLE",
      "outputs": [
        {
          "internalType": "bytes32",
          "name": "",
          "type": "bytes32"
        }
      ],
      "stateMutability": "view",
      "type": "function"
    },
    {
      "inputs": [],
      "name": "OPERATOR_ROLE",
      "outputs": [
        {
          "internalType": "bytes32",
          "name": "",
          "type": "bytes32"
        }
      ],
      "stateMutability": "view",
      "type": "function"
    },
    {
      "inputs": [],
      "name": "UPGRADE_INTERFACE_VERSION",
      "outputs": [
        {
          "internalType": "string",
          "name": "",
          "type": "string"
        }
      ],
      "stateMutability": "view",
      "type": "function"
    },
    {
      "inputs": [
        {
          "internalType": "uint256",
          "name": "levelId",
          "type": "uint256"
        }
      ],
      "name": "canClaimReward",
      "outputs": [
        {
          "internalType": "uint256",
          "name": "",
          "type": "uint256"
        },
        {
          "internalType": "uint256",
          "name": "",
          "type": "uint256"
        }
      ],
      "stateMutability": "view",
      "type": "function"
    },
    {
      "inputs": [
        {
          "internalType": "uint256",
          "name": "levelId",
          "type": "uint256"
        },
        {
          "internalType": "bool",
          "name": "isSpecial",
          "type": "bool"
        }
      ],
      "name": "claimReward",
      "outputs": [],
      "stateMutability": "nonpayable",
      "type": "function"
    },
    {
      "inputs": [
        {
          "internalType": "address",
          "name": "player",
          "type": "address"
        }
      ],
      "name": "currentGame",
      "outputs": [
        {
          "internalType": "uint256",
          "name": "",
          "type": "uint256"
        }
      ],
      "stateMutability": "view",
      "type": "function"
    },
    {
      "inputs": [
        {
          "internalType": "uint256",
          "name": "gameId",
          "type": "uint256"
        }
      ],
      "name": "games",
      "outputs": [
        {
          "components": [
            {
              "internalType": "address",
              "name": "player",
              "type": "address"
            },
            {
              "internalType": "uint256",
              "name": "gameId",
              "type": "uint256"
            },
            {
              "internalType": "uint256",
              "name": "levelId",
              "type": "uint256"
            },
            {
              "internalType": "uint256[3]",
              "name": "heroId",
              "type": "uint256[3]"
            },
            {
              "internalType": "uint128",
              "name": "timeStart",
              "type": "uint128"
            },
            {
              "internalType": "uint128",
              "name": "timeEnd",
              "type": "uint128"
            },
            {
              "internalType": "uint256",
              "name": "nonce",
              "type": "uint256"
            },
            {
              "internalType": "uint256",
              "name": "board",
              "type": "uint256"
            },
            {
              "internalType": "uint256",
              "name": "damageMade",
              "type": "uint256"
            },
            {
              "internalType": "uint256",
              "name": "moveMade",
              "type": "uint256"
            },
            {
              "internalType": "bool",
              "name": "specialLevel",
              "type": "bool"
            }
          ],
          "internalType": "struct ICryptoRumble.Game",
          "name": "",
          "type": "tuple"
        }
      ],
      "stateMutability": "view",
      "type": "function"
    },
    {
      "inputs": [],
      "name": "getEntranceFee",
      "outputs": [
        {
          "internalType": "uint256",
          "name": "",
          "type": "uint256"
        }
      ],
      "stateMutability": "view",
      "type": "function"
    },
    {
      "inputs": [],
      "name": "getEntranceToken",
      "outputs": [
        {
          "internalType": "address",
          "name": "",
          "type": "address"
        }
      ],
      "stateMutability": "view",
      "type": "function"
    },
    {
      "inputs": [],
      "name": "getExtraFee",
      "outputs": [
        {
          "internalType": "uint256",
          "name": "",
          "type": "uint256"
        }
      ],
      "stateMutability": "view",
      "type": "function"
    },
    {
      "inputs": [],
      "name": "getMaxProofUpload",
      "outputs": [
        {
          "internalType": "uint256",
          "name": "",
          "type": "uint256"
        }
      ],
      "stateMutability": "view",
      "type": "function"
    },
    {
      "inputs": [],
      "name": "getPlatformFeePercent",
      "outputs": [
        {
          "internalType": "uint256",
          "name": "",
          "type": "uint256"
        }
      ],
      "stateMutability": "view",
      "type": "function"
    },
    {
      "inputs": [],
      "name": "getReservedFeePercent",
      "outputs": [
        {
          "internalType": "uint256",
          "name": "",
          "type": "uint256"
        }
      ],
      "stateMutability": "view",
      "type": "function"
    },
    {
      "inputs": [
        {
          "internalType": "bytes32",
          "name": "role",
          "type": "bytes32"
        }
      ],
      "name": "getRoleAdmin",
      "outputs": [
        {
          "internalType": "bytes32",
          "name": "",
          "type": "bytes32"
        }
      ],
      "stateMutability": "view",
      "type": "function"
    },
    {
      "inputs": [
        {
          "internalType": "bytes32",
          "name": "role",
          "type": "bytes32"
        },
        {
          "internalType": "address",
          "name": "account",
          "type": "address"
        }
      ],
      "name": "grantRole",
      "outputs": [],
      "stateMutability": "nonpayable",
      "type": "function"
    },
    {
      "inputs": [
        {
          "internalType": "bytes32",
          "name": "role",
          "type": "bytes32"
        },
        {
          "internalType": "address",
          "name": "account",
          "type": "address"
        }
      ],
      "name": "hasRole",
      "outputs": [
        {
          "internalType": "bool",
          "name": "",
          "type": "bool"
        }
      ],
      "stateMutability": "view",
      "type": "function"
    },
    {
      "inputs": [
        {
          "internalType": "contract IVerifier",
          "name": "vrfr",
          "type": "address"
        },
        {
          "internalType": "contract IERC20",
          "name": "gp",
          "type": "address"
        },
        {
          "internalType": "contract Hero",
          "name": "h",
          "type": "address"
        },
        {
          "internalType": "contract Equipment",
          "name": "e",
          "type": "address"
        },
        {
          "internalType": "contract Level",
          "name": "lv",
          "type": "address"
        }
      ],
      "name": "initialize",
      "outputs": [],
      "stateMutability": "nonpayable",
      "type": "function"
    },
    {
      "inputs": [
        {
          "internalType": "uint256",
          "name": "levelNo",
          "type": "uint256"
        },
        {
          "internalType": "uint256[]",
          "name": "heroId",
          "type": "uint256[]"
        },
        {
          "internalType": "bool",
          "name": "specialLevel",
          "type": "bool"
        }
      ],
      "name": "newGame",
      "outputs": [],
      "stateMutability": "payable",
      "type": "function"
    },
    {
      "inputs": [
        {
          "internalType": "address",
          "name": "player",
          "type": "address"
        }
      ],
      "name": "progress",
      "outputs": [
        {
          "internalType": "uint256",
          "name": "",
          "type": "uint256"
        }
      ],
      "stateMutability": "view",
      "type": "function"
    },
    {
      "inputs": [],
      "name": "proxiableUUID",
      "outputs": [
        {
          "internalType": "bytes32",
          "name": "",
          "type": "bytes32"
        }
      ],
      "stateMutability": "view",
      "type": "function"
    },
    {
      "inputs": [],
      "name": "quitGame",
      "outputs": [],
      "stateMutability": "nonpayable",
      "type": "function"
    },
    {
      "inputs": [
        {
          "internalType": "bytes32",
          "name": "role",
          "type": "bytes32"
        },
        {
          "internalType": "address",
          "name": "callerConfirmation",
          "type": "address"
        }
      ],
      "name": "renounceRole",
      "outputs": [],
      "stateMutability": "nonpayable",
      "type": "function"
    },
    {
      "inputs": [
        {
          "internalType": "bytes32",
          "name": "role",
          "type": "bytes32"
        },
        {
          "internalType": "address",
          "name": "account",
          "type": "address"
        }
      ],
      "name": "revokeRole",
      "outputs": [],
      "stateMutability": "nonpayable",
      "type": "function"
    },
    {
      "inputs": [
        {
          "internalType": "contract CheckIn",
          "name": "checkIn",
          "type": "address"
        }
      ],
      "name": "setCheckIn",
      "outputs": [],
      "stateMutability": "nonpayable",
      "type": "function"
    },
    {
      "inputs": [
        {
          "internalType": "uint256",
          "name": "entranceFee",
          "type": "uint256"
        }
      ],
      "name": "setEntranceFee",
      "outputs": [],
      "stateMutability": "nonpayable",
      "type": "function"
    },
    {
      "inputs": [
        {
          "internalType": "contract IERC20",
          "name": "entranceToken",
          "type": "address"
        }
      ],
      "name": "setEntranceToken",
      "outputs": [],
      "stateMutability": "nonpayable",
      "type": "function"
    },
    {
      "inputs": [
        {
          "internalType": "uint256",
          "name": "extraFee",
          "type": "uint256"
        }
      ],
      "name": "setExtraFee",
      "outputs": [],
      "stateMutability": "nonpayable",
      "type": "function"
    },
    {
      "inputs": [
        {
          "internalType": "contract ICRFarm",
          "name": "farm",
          "type": "address"
        }
      ],
      "name": "setFarm",
      "outputs": [],
      "stateMutability": "nonpayable",
      "type": "function"
    },
    {
      "inputs": [
        {
          "internalType": "uint256",
          "name": "max",
          "type": "uint256"
        }
      ],
      "name": "setMaxProofUpload",
      "outputs": [],
      "stateMutability": "nonpayable",
      "type": "function"
    },
    {
      "inputs": [
        {
          "internalType": "uint256",
          "name": "platformFeePercent",
          "type": "uint256"
        }
      ],
      "name": "setPlatformFeePercent",
      "outputs": [],
      "stateMutability": "nonpayable",
      "type": "function"
    },
    {
      "inputs": [
        {
          "internalType": "uint256",
          "name": "reservedFeePercent",
          "type": "uint256"
        }
      ],
      "name": "setReservedFeePercent",
      "outputs": [],
      "stateMutability": "nonpayable",
      "type": "function"
    },
    {
      "inputs": [
        {
          "internalType": "contract IVerifier",
          "name": "verifier",
          "type": "address"
        }
      ],
      "name": "setVerifier",
      "outputs": [],
      "stateMutability": "nonpayable",
      "type": "function"
    },
    {
      "inputs": [
        {
          "internalType": "bytes4",
          "name": "interfaceId",
          "type": "bytes4"
        }
      ],
      "name": "supportsInterface",
      "outputs": [
        {
          "internalType": "bool",
          "name": "",
          "type": "bool"
        }
      ],
      "stateMutability": "view",
      "type": "function"
    },
    {
      "inputs": [
        {
          "internalType": "address",
          "name": "newImplementation",
          "type": "address"
        },
        {
          "internalType": "bytes",
          "name": "data",
          "type": "bytes"
        }
      ],
      "name": "upgradeToAndCall",
      "outputs": [],
      "stateMutability": "payable",
      "type": "function"
    },
    {
      "inputs": [
        {
          "components": [
            {
              "internalType": "uint256[2]",
              "name": "_pA",
              "type": "uint256[2]"
            },
            {
              "internalType": "uint256[2][2]",
              "name": "_pB",
              "type": "uint256[2][2]"
            },
            {
              "internalType": "uint256[2]",
              "name": "_pC",
              "type": "uint256[2]"
            },
            {
              "internalType": "uint256[13]",
              "name": "_pubSignals",
              "type": "uint256[13]"
            }
          ],
          "internalType": "struct ICryptoRumble.VerifyData[]",
          "name": "data",
          "type": "tuple[]"
        },
        {
          "internalType": "bool",
          "name": "gameOver",
          "type": "bool"
        }
      ],
      "name": "uploadScores",
      "outputs": [],
      "stateMutability": "nonpayable",
      "type": "function"
    }
  ],
  "bytecode": "0x60a06040523060805234801561001457600080fd5b50608051614a1b61003e6000396000818161364c01528181613675015261380a0152614a1b6000f3fe6080604052600436106102045760003560e01c80637239f08911610118578063ca291b13116100a0578063d547741f1161006f578063d547741f146105d4578063da8589a2146105f4578063dc1018fd14610614578063f5b541a614610629578063fe56f5a01461064b57600080fd5b8063ca291b131461053f578063cab230d214610574578063ccc83ab514610594578063d4f26c51146105b457600080fd5b8063ac235864116100e7578063ac2358641461047f578063ad3cb1cc146104ac578063ae3e8402146104ea578063b4a605121461050a578063bd42e3641461051f57600080fd5b80637239f0891461040a5780637f26f7651461042a57806391d148541461044a578063a217fddf1461046a57600080fd5b806336568abe1161019b5780634f1ef2861161016a5780634f1ef2861461038257806352d1902d146103955780635437988d146103aa57806365704506146103ca57806370318d1e146103ea57600080fd5b806336568abe1461031857806337a9d79c14610338578063454420181461034d5780634c9c3f851461036d57600080fd5b80631459457a116101d75780631459457a146102a357806322cf6813146102c3578063248a9ca3146102d85780632f2ff15d146102f857600080fd5b806301ffc9a71461020957806309bc33a71461023e5780630ded494714610261578063117a5b9014610276575b600080fd5b34801561021557600080fd5b50610229610224366004613c5a565b61066b565b60405190151581526020015b60405180910390f35b34801561024a57600080fd5b506102536106a2565b604051908152602001610235565b61027461026f366004613c92565b6106b7565b005b34801561028257600080fd5b50610296610291366004613d23565b611015565b6040516102359190613d5f565b3480156102af57600080fd5b506102746102be366004613e1e565b611102565b3480156102cf57600080fd5b5061025361129f565b3480156102e457600080fd5b506102536102f3366004613d23565b6112b4565b34801561030457600080fd5b50610274610313366004613e8f565b6112d6565b34801561032457600080fd5b50610274610333366004613e8f565b6112f2565b34801561034457600080fd5b5061025361132a565b34801561035957600080fd5b50610274610368366004613ebf565b61133f565b34801561037957600080fd5b506102536122c0565b61027461039036600461401a565b6122d5565b3480156103a157600080fd5b506102536122f4565b3480156103b657600080fd5b506102746103c53660046140c1565b612311565b3480156103d657600080fd5b506102536103e53660046140c1565b612399565b3480156103f657600080fd5b50610274610405366004613d23565b6123c6565b34801561041657600080fd5b50610274610425366004613d23565b612412565b34801561043657600080fd5b506102746104453660046140c1565b61245e565b34801561045657600080fd5b50610229610465366004613e8f565b6124c5565b34801561047657600080fd5b50610253600081565b34801561048b57600080fd5b506104946124fd565b6040516001600160a01b039091168152602001610235565b3480156104b857600080fd5b506104dd604051806040016040528060058152602001640352e302e360dc1b81525081565b6040516102359190614102565b3480156104f657600080fd5b506102746105053660046140c1565b61251b565b34801561051657600080fd5b50610274612582565b34801561052b57600080fd5b5061027461053a366004614135565b612719565b34801561054b57600080fd5b5061055f61055a366004613d23565b612742565b60408051928352602083019190915201610235565b34801561058057600080fd5b5061027461058f366004613d23565b61278b565b3480156105a057600080fd5b506102746105af366004613d23565b6127d7565b3480156105c057600080fd5b506102746105cf3660046140c1565b612823565b3480156105e057600080fd5b506102746105ef366004613e8f565b61288a565b34801561060057600080fd5b5061025361060f3660046140c1565b6128a6565b34801561062057600080fd5b506102536128d3565b34801561063557600080fd5b5061025360008051602061498683398151915281565b34801561065757600080fd5b50610274610666366004613d23565b6128e8565b60006001600160e01b03198216637965db0b60e01b148061069c57506301ffc9a760e01b6001600160e01b03198316145b92915050565b6000806106ad612934565b6011015492915050565b6106bf612958565b60006106c9612934565b905060038311156106f55760405163e2caddf760e01b8152600481018490526024015b60405180910390fd5b60005b83811015610814578484828181106107125761071261415a565b905060200201356000031561080257600782015433906001600160a01b0316636352211e8787858181106107485761074861415a565b905060200201356040518263ffffffff1660e01b815260040161076d91815260200190565b602060405180830381865afa15801561078a573d6000803e3d6000fd5b505050506040513d601f19601f820116820180604052508101906107ae9190614180565b6001600160a01b03161461080257338585838181106107cf576107cf61415a565b604051636a16d40f60e01b81526001600160a01b03909416600485015260200291909101356024830152506044016106ec565b8061080c816141b3565b9150506106f8565b5061081d612990565b6108278286612a2b565b61082f613ac8565b610837613b20565b83156108e65760098301546040516376b7c3af60e01b8152600481018990526001600160a01b03909116906376b7c3af9060240161028060405180830381865afa158015610889573d6000803e3d6000fd5b505050506040513d601f19601f820116820180604052508101906108ad91906142ed565b9050806020015163ffffffff166000036108dd57604051639cb3af6760e01b8152600481018890526024016106ec565b80519150610a1b565b336000908152600484016020526040902054610903906001614353565b87118061098757508260090160009054906101000a90046001600160a01b03166001600160a01b031663cc06c3596040518163ffffffff1660e01b8152600401602060405180830381865afa158015610960573d6000803e3d6000fd5b505050506040513d601f19601f820116820180604052508101906109849190614366565b87115b156109a857604051639cb3af6760e01b8152600481018890526024016106ec565b6009830154604051630219207560e61b8152600481018990526001600160a01b03909116906386481d409060240161022060405180830381865afa1580156109f4573d6000803e3d6000fd5b505050506040513d601f19601f82011682018060405250810190610a18919061437f565b91505b33600090815260028401602052604090205415610b9257336000908152600284016020908152604080832054835260038601909152812060060180546001600160801b03166001600160401b034216600160801b021790555b33600090815260028501602090815260408220549091526003858101909152811015610b90573360009081526002850160209081526040808320548352600387810190925290912081019082908110610acf57610acf61415a565b015415610b7e576007840154336000908152600286016020908152604080832054835260038089019092529091206001600160a01b03909216916377405071919081019084908110610b2357610b2361415a565b01546040516001600160e01b031960e084901b168152600481019190915260006024820152604401600060405180830381600087803b158015610b6557600080fd5b505af1158015610b79573d6000803e3d6000fd5b505050505b80610b88816141b3565b915050610a74565b505b600783015460a083015160405163385997c960e01b815233600482015263ffffffff90911660248201526001600160a01b039091169063385997c990604401600060405180830381600087803b158015610beb57600080fd5b505af1158015610bff573d6000803e3d6000fd5b5050505060005b85811015610d6b5760078401546001600160a01b031663f6aacfb1888884818110610c3357610c3361415a565b905060200201356040518263ffffffff1660e01b8152600401610c5891815260200190565b602060405180830381865afa158015610c75573d6000803e3d6000fd5b505050506040513d601f19601f82011682018060405250810190610c99919061439c565b15610cd357868682818110610cb057610cb061415a565b90506020020135604051635e62fe9760e11b81526004016106ec91815260200190565b60078401546001600160a01b03166377405071888884818110610cf857610cf861415a565b6040516001600160e01b031960e086901b1681526020909102929092013560048301525060016024820152604401600060405180830381600087803b158015610d4057600080fd5b505af1158015610d54573d6000803e3d6000fd5b505050508080610d63906141b3565b915050610c06565b5060007f30644e72e131a029b85045b68181585d2833e84879b9709143e1f593f000000142610d9b6001436143b9565b4089896000818110610daf57610daf61415a565b9050602002013587600101546001610dc79190614353565b6040805160208101959095528401929092526060830152608082015260a0016040516020818303038152906040528051906020012060001c610e0991906143e2565b9050610e13613b4e565b338152600185018054600090610e28906141b3565b9182905550602082015260005b87811015610e8357888882818110610e4f57610e4f61415a565b9050602002013582606001518260038110610e6c57610e6c61415a565b602002015280610e7b816141b3565b915050610e35565b50426001600160801b03166080820152600060a0820181905260408083018b815260c0840185905260e0878101519085015288151561014085015260208085018051855260038a810190925292909320845181546001600160a01b0319166001600160a01b039091161781559151600183015551600282015560608301518392610f109183820191613bcb565b50608082015160a08301516001600160801b03908116600160801b02911617600682015560c0820151600782015560e082015160088201556101008201516009820155610120820151600a82015561014090910151600b909101805491151560ff199092169190911790556020810151600286016000610f8d3390565b6001600160a01b031681526020810191909152604001600020557f92567325f88a828ec3e4a90ee74821c30a78def17b8eda010fa2c1342238afdc338a83606001518460200151856101400151604051610feb9594939291906143f6565b60405180910390a1505050505061100f60016000805160206149c683398151915255565b50505050565b61101d613b4e565b6000611027612934565b60008481526003828101602090815260409283902083516101608101855281546001600160a01b03168152600182015492810192909252600281015482850152835160608082019586905295965091949093908501928481019182845b81548152602001906001019080831161108457505050918352505060068201546001600160801b038082166020840152600160801b9091041660408201526007820154606082015260088201546080820152600982015460a0820152600a82015460c0820152600b9091015460ff16151560e0909101529392505050565b7ff0c57e16840df040f15088dc2f81fe391c3923bec73e23a9662efc9c229c6a008054600160401b810460ff1615906001600160401b03166000811580156111475750825b90506000826001600160401b031660011480156111635750303b155b905081158015611171575080155b1561118f5760405163f92ee8a960e01b815260040160405180910390fd5b845467ffffffffffffffff1916600117855583156111b957845460ff60401b1916600160401b1785555b60006111c3612934565b90506111cd612e89565b6111d5612e89565b6006810180546001600160a01b03199081166001600160a01b038e811691909117909255600a8301805482168d841617905560078301805482168c841617905560088301805482168b8416179055600983018054909116918916919091179055611240600033612e93565b50600181556002600590910155831561129357845460ff60401b19168555604051600181527fc7f505b2f371ae2175ee4913f4499e1f2633a7b5936321eed1cdaeb6115181d29060200160405180910390a15b50505050505050505050565b6000806112aa612934565b6014015492915050565b60009081526000805160206149a6833981519152602052604090206001015490565b6112df826112b4565b6112e881612f3f565b61100f8383612e93565b6001600160a01b038116331461131b5760405163334bd91960e11b815260040160405180910390fd5b6113258282612f49565b505050565b600080611335612934565b600b015492915050565b611347612958565b6000611351612934565b336000908152600282016020526040812054919250036113865760405163068a22c160e21b81523360048201526024016106ec565b3360009081526002828101602090815260408084205484526003808601835281852082516101608101845281546001600160a01b031681526001820154948101949094529384015483830152815160608082019384905293949385019290918481019182845b8154815260200190600101908083116113ec57505050918352505060068201546001600160801b038082166020840152600160801b9091041660408201526007820154606082015260088201546080820152600982015460a0820152600a82015460c0820152600b9091015460ff16151560e090910152905061146d613b20565b816101400151156114fa57600983015460408084015190516376b7c3af60e01b81526001600160a01b03909216916376b7c3af916114b19160040190815260200190565b61028060405180830381865afa1580156114cf573d6000803e3d6000fd5b505050506040513d601f19601f820116820180604052508101906114f391906142ed565b9050611578565b60098301546040808401519051630219207560e61b81526001600160a01b03909216916386481d40916115339160040190815260200190565b61022060405180830381865afa158015611551573d6000803e3d6000fd5b505050506040513d601f19601f82011682018060405250810190611575919061437f565b81525b60e082015160c08301516000805b8881101561187c57828a8a838181106115a1576115a161415a565b90506102a00201610100016005600d81106115be576115be61415a565b602002013514611621578989828181106115da576115da61415a565b90506102a00201610100016005600d81106115f7576115f761415a565b602002013583604051632d950cd360e21b81526004016106ec929190918252602082015260400190565b838a8a838181106116345761163461415a565b90506102a00201610100016009600d81106116515761165161415a565b6020020135146116b45789898281811061166d5761166d61415a565b90506102a00201610100016009600d811061168a5761168a61415a565b60200201358460405163f1561fab60e01b81526004016106ec929190918252602082015260400190565b60068701546000906001600160a01b031663f143a75e8c8c858181106116dc576116dc61415a565b90506102a002016000018d8d868181106116f8576116f861415a565b90506102a002016040018e8e878181106117145761171461415a565b90506102a0020160c0018f8f888181106117305761173061415a565b90506102a00201610100016040518563ffffffff1660e01b815260040161175a9493929190614450565b602060405180830381865afa158015611777573d6000803e3d6000fd5b505050506040513d601f19601f8201168201806040525081019061179b919061439c565b9050806117bb576040516309bde33960e01b815260040160405180910390fd5b8a8a838181106117cd576117cd61415a565b90506102a00201610100016006600d81106117ea576117ea61415a565b602002013593508a8a838181106118035761180361415a565b90506102a0020161010001600a600d81106118205761182061415a565b602002013594508a8a838181106118395761183961415a565b90506102a0020161010001600b600d81106118565761185661415a565b6020020135836118669190614353565b9250508080611874906141b3565b915050611586565b50600061188c82600b6005612fc5565b90508815611be85760008a8a6118a36001826143b9565b8181106118b2576118b261415a565b90506102a002018036038101906118c9919061454f565b905060008b8b60008181106118e0576118e061415a565b90506102a00201610100016007600d81106118fd576118fd61415a565b602002013582606001516008600d81106119195761191961415a565b602002015161192891906143b9565b8751602001516101208a015191925063ffffffff1690611951906001600160801b038416614353565b111561197b57604051630b7a92bb60e11b81526001600160801b03821660048201526024016106ec565b806001600160801b031688610120018181516119979190614353565b90525060e0880186905260c088018590526000805b6003811015611bc457896060015181600381106119cb576119cb61415a565b602002015115611bb25760078b015460608b015160009182916001600160a01b039091169063cff840f0908560038110611a0757611a0761415a565b60200201516040518263ffffffff1660e01b8152600401611a2a91815260200190565b60c060405180830381865afa158015611a47573d6000803e3d6000fd5b505050506040513d601f19601f82011682018060405250810190611a6b91906145ed565b915091506000611a83828d600001516060015161309e565b905060005b6005811015611bad578c5151600090620f4240908360058110611aad57611aad61415a565b602002015163ffffffff168463ffffffff16878560058110611ad157611ad161415a565b60200201518d8681518110611ae857611ae861415a565b60200260200101516064611afc9190614672565b63ffffffff16611b0c919061469a565b611b16919061469a565b611b20919061469a565b611b2a91906146bd565b6001600160401b031690508d60000151608001518260058110611b4f57611b4f61415a565b602002015163ffffffff16811115611b9a578d51608001518260058110611b7857611b7861415a565b6020020151611b8d9063ffffffff16826146e3565b611b979088614703565b96505b5080611ba5816141b3565b915050611a88565b505050505b80611bbc816141b3565b9150506119ac565b50806001600160401b03168961010001818151611be19190614353565b9052505050505b84600001516020015163ffffffff168661012001511480611c065750875b80611c38575084600001516040015163ffffffff1686610100015110158015611c385750845160c0015163ffffffff16155b156121d057426001600160801b031660a08701523360009081526002888101602090815260408084205484526003808c018352938190208a5181546001600160a01b0319166001600160a01b03909116178155918a015160018301558901519181019190915560608801518892611cb29183820191613bcb565b50608082015160a08301516001600160801b03908116600160801b02911617600682015560c0820151600782015560e082015160088201556101008201516009820155610120820151600a82015561014090910151600b909101805491151560ff1990921691909117905560005b6003811015611de65786606001518160038110611d3f57611d3f61415a565b602002015115611dd457600788015460608801516001600160a01b03909116906377405071908360038110611d7657611d7661415a565b60200201516040516001600160e01b031960e084901b168152600481019190915260006024820152604401600060405180830381600087803b158015611dbb57600080fd5b505af1158015611dcf573d6000803e3d6000fd5b505050505b80611dde816141b3565b915050611d20565b5084600001516040015163ffffffff1686610100015110611f2857336000908152600488016020526040908190205490870151118015611e295750856101400151155b15611e475760408087015133600090815260048a0160205291909120555b85610140015115611e7c57602080870151336000908152600d8a0183526040808220818b015183529093529190912055611ea2565b602080870151336000908152600c8a0183526040808220818b0151835290935291909120555b611eb5866040015187610140015161310b565b600e8701546001600160a01b031615611f2857600e8701546040516318f69bb960e31b81523360048201526001600160a01b039091169063c7b4ddc890602401600060405180830381600087803b158015611f0f57600080fd5b505af1158015611f23573d6000803e3d6000fd5b505050505b3360009081526002880160209081526040822091909155860151608087015160a08801517f8c4288fe252ef17ac3a83e47e514151fea975ab79d2a49fed31a51fcc7396596929190611f7b908290614723565b6040808b01518a518201516101008d01516101408e015184519788526001600160801b0396871660208901529590941692860192909252606085015263ffffffff1611156080830152151560a082015260c00160405180910390a18561014001518015612022575084604001518560200151611ff79190614743565b63ffffffff1615806120225750846040015185602001516120189190614743565b63ffffffff164211155b156121cb57600f8701546040805163bcb3962160e01b815290516000926001600160a01b03169163bcb396219160048083019260209291908290030181865afa158015612073573d6000803e3d6000fd5b505050506040513d601f19601f820116820180604052508101906120979190614366565b9050856060015180156120a957508015155b1561217657600f8801546101008801516040516311f9fbc960e21b815233600482015260248101919091526001600160a01b03909116906347e7ef2490604401600060405180830381600087803b15801561210357600080fd5b505af1158015612117573d6000803e3d6000fd5b5050506020808901516101008a01516040808c01518151338152948501939093528301526060820152608081018390527f66938bea7e63c69efe7e5b363e8beaca11d97ccdfc280721650ac6b321f2024f915060a00160405180910390a15b6020808801516101008901516040808b015181513381529485019390935283015260608201527f121edd2b279eef0ca3576f7a86219dfe28de6239105c6de5eac265f92911a8cd9060800160405180910390a1505b6122a2565b3360009081526002888101602090815260408084205484526003808c018352938190208a5181546001600160a01b0319166001600160a01b03909116178155918a0151600183015589015191810191909155606088015188926122369183820191613bcb565b50608082015160a08301516001600160801b03908116600160801b02911617600682015560c0820151600782015560e082015160088201556101008201516009820155610120820151600a82015561014090910151600b909101805491151560ff199092169190911790555b5050505050505061132560016000805160206149c683398151915255565b6000806122cb612934565b6013015492915050565b6122dd613641565b6122e6826136e6565b6122f08282613742565b5050565b60006122fe6137ff565b5060008051602061496683398151915290565b61231c6000336124c5565b15801561233e575061233c600080516020614986833981519152336124c5565b155b1561236a57335b604051638dd2f3ad60e01b81526001600160a01b0390911660048201526024016106ec565b6000612374612934565b60060180546001600160a01b0319166001600160a01b03939093169290921790915550565b6000806123a4612934565b6001600160a01b03909316600090815260029093016020525050604090205490565b6123d16000336124c5565b1580156123f357506123f1600080516020614986833981519152336124c5565b155b156123fe5733612345565b6000612408612934565b600b019190915550565b61241d6000336124c5565b15801561243f575061243d600080516020614986833981519152336124c5565b155b1561244a5733612345565b6000612454612934565b6005019190915550565b6124696000336124c5565b15801561248b5750612489600080516020614986833981519152336124c5565b155b156124965733612345565b60006124a0612934565b600e0180546001600160a01b0319166001600160a01b03939093169290921790915550565b60009182526000805160206149a6833981519152602090815260408084206001600160a01b0393909316845291905290205460ff1690565b600080612508612934565b601001546001600160a01b031692915050565b6125266000336124c5565b1580156125485750612546600080516020614986833981519152336124c5565b155b156125535733612345565b600061255d612934565b60100180546001600160a01b0319166001600160a01b03939093169290921790915550565b600061258c612934565b336000908152600282016020526040812054919250036125c15760405163068a22c160e21b81523360048201526024016106ec565b336000908152600282016020908152604080832054835260038401909152812060060180546001600160801b03166001600160401b034216600160801b021790555b60038110156127025733600090815260028301602090815260408083205483526003858101909252909120810190829081106126415761264161415a565b0154156126f0576007820154336000908152600284016020908152604080832054835260038087019092529091206001600160a01b039092169163774050719190810190849081106126955761269561415a565b01546040516001600160e01b031960e084901b168152600481019190915260006024820152604401600060405180830381600087803b1580156126d757600080fd5b505af11580156126eb573d6000803e3d6000fd5b505050505b806126fa816141b3565b915050612603565b503360009081526002919091016020526040812055565b612721612958565b61272b828261310b565b6122f060016000805160206149c683398151915255565b600080600061274f612934565b336000818152600c830160209081526040808320898452825280832054938352600d909401815283822097825296909652942054939492505050565b6127966000336124c5565b1580156127b857506127b6600080516020614986833981519152336124c5565b155b156127c35733612345565b60006127cd612934565b6013019190915550565b6127e26000336124c5565b1580156128045750612802600080516020614986833981519152336124c5565b155b1561280f5733612345565b6000612819612934565b6014019190915550565b61282e6000336124c5565b158015612850575061284e600080516020614986833981519152336124c5565b155b1561285b5733612345565b6000612865612934565b600f0180546001600160a01b0319166001600160a01b03939093169290921790915550565b612893826112b4565b61289c81612f3f565b61100f8383612f49565b6000806128b1612934565b6001600160a01b03909316600090815260049093016020525050604090205490565b6000806128de612934565b6005015492915050565b6128f36000336124c5565b1580156129155750612913600080516020614986833981519152336124c5565b155b156129205733612345565b600061292a612934565b6011019190915550565b7fb14866e7f5face1ef8ab0f93fd2a15c76fe176c01b980d8f4bcf5cccc401a80090565b6000805160206149c683398151915280546001190161298a57604051633ee5aeb560e01b815260040160405180910390fd5b60029055565b600061299a612934565b60108101549091506001600160a01b0316156129e05780600b01543410156129dd5780600b0154604051632b2d105360e21b81526004016106ec91815260200190565b50565b806011015481600b01546129f49190614353565b3410156129dd57806011015481600b0154612a0f9190614353565b604051632b2d105360e21b81526004016106ec91815260200190565b6000612a35612934565b60118101549091501561132557600061271082601301548360110154612a5b9190614760565b612a659190614777565b9050600061271083601401548460110154612a809190614760565b612a8a9190614777565b9050612a9582613848565b60108301546001600160a01b031615612b5d57601083015460118401546040516323b872dd60e01b815233600482015230602482015260448101919091526000916001600160a01b0316906323b872dd906064016020604051808303816000875af1158015612b08573d6000803e3d6000fd5b505050506040513d601f19601f82011682018060405250810190612b2c919061439c565b905080612b5b5760118401546040516378ac2b4760e11b815233600482015260248101919091526044016106ec565b505b8415612e825760098301546040516376b7c3af60e01b8152600481018690526000916001600160a01b0316906376b7c3af9060240161028060405180830381865afa158015612bb0573d6000803e3d6000fd5b505050506040513d601f19601f82011682018060405250810190612bd491906142ed565b606001519050808015612c5e575083600f0160009054906101000a90046001600160a01b03166001600160a01b031663bcb396216040518163ffffffff1660e01b8152600401602060405180830381865afa158015612c37573d6000803e3d6000fd5b505050506040513d601f19601f82011682018060405250810190612c5b9190614366565b15155b15612e805783600f0160009054906101000a90046001600160a01b03166001600160a01b03166393a985d16040518163ffffffff1660e01b8152600401600060405180830381600087803b158015612cb557600080fd5b505af1158015612cc9573d6000803e3d6000fd5b505050506000838560110154612cdf91906143b9565b60108601549091506001600160a01b031615612df757601085015460405163a9059cbb60e01b8152306004820152602481018390526001600160a01b039091169063a9059cbb906044016020604051808303816000875af1158015612d48573d6000803e3d6000fd5b505050506040513d601f19601f82011682018060405250810190612d6c919061439c565b50600f8501546001600160a01b031663dfaff1b8612d8a8587614353565b8760110154612d9991906143b9565b856040518363ffffffff1660e01b8152600401612dc0929190918252602082015260400190565b600060405180830381600087803b158015612dda57600080fd5b505af1158015612dee573d6000803e3d6000fd5b50505050612e7e565b600f8501546001600160a01b031663dfaff1b882612e158688614353565b8860110154612e2491906143b9565b866040518463ffffffff1660e01b8152600401612e4b929190918252602082015260400190565b6000604051808303818588803b158015612e6457600080fd5b505af1158015612e78573d6000803e3d6000fd5b50505050505b505b505b5050505050565b612e91613871565b565b60006000805160206149a6833981519152612eae84846124c5565b612f2e576000848152602082815260408083206001600160a01b03871684529091529020805460ff19166001179055612ee43390565b6001600160a01b0316836001600160a01b0316857f2f8788117e7eff1d82e926ec794901d17c78024a50270940304540a733656f0d60405160405180910390a4600191505061069c565b600091505061069c565b5092915050565b6129dd81336138ba565b60006000805160206149a6833981519152612f6484846124c5565b15612f2e576000848152602082815260408083206001600160a01b0387168085529252808320805460ff1916905551339287917ff6391f5c32d9c69d2a47ea670b442974b53935d1edc7fd64eb21e047a839171b9190a4600191505061069c565b606060008260ff166001600160401b03811115612fe457612fe4613f45565b60405190808252806020026020018201604052801561300d578160200160208202803683370190505b50905060ff83165b6001811061309357600161302a86600261486f565b61303491906143b9565b86166001600160801b03168261304b6001846143b9565b8151811061305b5761305b61415a565b63ffffffff909216602092830291909101909101526001600160801b0390951660ff85161c948061308b8161487e565b915050613015565b5090505b9392505050565b600063ffffffff821660036130b4856001614743565b6130be9190614895565b63ffffffff16036130d15750603261069c565b63ffffffff831660036130e5846001614743565b6130ef9190614895565b63ffffffff16036131025750609661069c565b50606492915050565b6000613115612934565b9050600082156131465750336000908152600d82016020908152604080832086845290915281208054919055613169565b50336000908152600c820160209081526040808320868452909152812080549190555b8060000361318c57604051633aa295af60e21b81523360048201526024016106ec565b600081815260038381016020908152604080842081516101608101835281546001600160a01b0316815260018201549381019390935260028101548383015281516060808201938490529394919385019290918481019182845b8154815260200190600101908083116131e657505050918352505060068201546001600160801b038082166020840152600160801b9091041660408201526007820154606082015260088201546080820152600982015460a0820152600a82015460c0820152600b9091015460ff16151560e0909101529050613267613ac8565b84156132e55760098401546040516376b7c3af60e01b8152600481018890526001600160a01b03909116906376b7c3af9060240161028060405180830381865afa1580156132b9573d6000803e3d6000fd5b505050506040513d601f19601f820116820180604052508101906132dd91906142ed565b519050613358565b6009840154604051630219207560e61b8152600481018890526001600160a01b03909116906386481d409060240161022060405180830381865afa158015613331573d6000803e3d6000fd5b505050506040513d601f19601f82011682018060405250810190613355919061437f565b90505b6101008101516001600160a01b031661337357505050505050565b610100810151604051630c00007b60e41b81523360048201526000906001600160a01b0383169063c00007b09060240160c060405180830381865afa1580156133c0573d6000803e3d6000fd5b505050506040513d601f19601f820116820180604052508101906133e491906148b8565b8051909150156134bf5760005b60038110156134bd57846060015181600381106134105761341061415a565b6020020151156134ab57600787015460608601516001600160a01b0390911690631debbe2f9083600381106134475761344761415a565b6020020151845160405160e084901b6001600160e01b0319168152600481019290925263ffffffff166024820152604401600060405180830381600087803b15801561349257600080fd5b505af11580156134a6573d6000803e3d6000fd5b505050505b806134b5816141b3565b9150506133f1565b505b60208101511561354857600a860154602082015160405163a9059cbb60e01b815233600482015260248101919091526001600160a01b039091169063a9059cbb906044016020604051808303816000875af1158015613522573d6000803e3d6000fd5b505050506040513d601f19601f82011682018060405250810190613546919061439c565b505b6040810151156135c757604080820151905160009133918381818185875af1925050503d8060008114613597576040519150601f19603f3d011682016040523d82523d6000602084013e61359c565b606091505b50509050806135c557816040015160405162201ea160e31b81526004016106ec91815260200190565b505b8060600151806135d8575080608001515b806135e457508060a001515b156136375760208401516040516310b3879160e11b815233600482015260248101919091526001600160a01b038316906321670f2290604401600060405180830381600087803b158015612e6457600080fd5b5050505050505050565b306001600160a01b037f00000000000000000000000000000000000000000000000000000000000000001614806136c857507f00000000000000000000000000000000000000000000000000000000000000006001600160a01b03166136bc600080516020614966833981519152546001600160a01b031690565b6001600160a01b031614155b15612e915760405163703e46dd60e11b815260040160405180910390fd5b6136f16000336124c5565b1580156137135750613711600080516020614986833981519152336124c5565b155b1561371e5733612345565b6000613728612934565b8054909150816000613739836141b3565b91905055505050565b816001600160a01b03166352d1902d6040518163ffffffff1660e01b8152600401602060405180830381865afa92505050801561379c575060408051601f3d908101601f1916820190925261379991810190614366565b60015b6137c457604051634c9c8ce360e01b81526001600160a01b03831660048201526024016106ec565b60008051602061496683398151915281146137f557604051632a87526960e21b8152600481018290526024016106ec565b61132583836138f3565b306001600160a01b037f00000000000000000000000000000000000000000000000000000000000000001614612e915760405163703e46dd60e11b815260040160405180910390fd5b6000613852612934565b9050818160120160008282546138689190614353565b90915550505050565b7ff0c57e16840df040f15088dc2f81fe391c3923bec73e23a9662efc9c229c6a0054600160401b900460ff16612e9157604051631afcd79f60e31b815260040160405180910390fd5b6138c482826124c5565b6122f05760405163e2517d3f60e01b81526001600160a01b0382166004820152602481018390526044016106ec565b6138fc82613949565b6040516001600160a01b038316907fbc7cd75a20ee27fd9adebab32041f755214dbc6bffa90cc0225b39da2e5c2d3b90600090a28051156139415761132582826139ae565b6122f0613a24565b806001600160a01b03163b60000361397f57604051634c9c8ce360e01b81526001600160a01b03821660048201526024016106ec565b60008051602061496683398151915280546001600160a01b0319166001600160a01b0392909216919091179055565b6060600080846001600160a01b0316846040516139cb9190614949565b600060405180830381855af49150503d8060008114613a06576040519150601f19603f3d011682016040523d82523d6000602084013e613a0b565b606091505b5091509150613a1b858383613a43565b95945050505050565b3415612e915760405163b398979f60e01b815260040160405180910390fd5b606082613a5857613a5382613a9f565b613097565b8151158015613a6f57506001600160a01b0384163b155b15613a9857604051639996b31560e01b81526001600160a01b03851660048201526024016106ec565b5080613097565b805115613aaf5780518082602001fd5b604051630a12f52160e11b815260040160405180910390fd5b604051806101200160405280613adc613c09565b8152600060208201819052604082018190526060820152608001613afe613c09565b8152600060208201819052604082018190526060820181905260809091015290565b6040518060800160405280613b33613ac8565b81526000602082018190526040820181905260609091015290565b60405180610160016040528060006001600160a01b031681526020016000815260200160008152602001613b80613c27565b815260200160006001600160801b0316815260200160006001600160801b03168152602001600081526020016000815260200160008152602001600081526020016000151581525090565b8260038101928215613bf9579160200282015b82811115613bf9578251825591602001919060010190613bde565b50613c05929150613c45565b5090565b6040518060a001604052806005906020820280368337509192915050565b60405180606001604052806003906020820280368337509192915050565b5b80821115613c055760008155600101613c46565b600060208284031215613c6c57600080fd5b81356001600160e01b03198116811461309757600080fd5b80151581146129dd57600080fd5b60008060008060608587031215613ca857600080fd5b8435935060208501356001600160401b0380821115613cc657600080fd5b818701915087601f830112613cda57600080fd5b813581811115613ce957600080fd5b8860208260051b8501011115613cfe57600080fd5b6020830195508094505050506040850135613d1881613c84565b939692955090935050565b600060208284031215613d3557600080fd5b5035919050565b8060005b600381101561100f578151845260209384019390910190600101613d40565b81516001600160a01b031681526101a0810160208301516020830152604083015160408301526060830151613d976060840182613d3c565b5060808301516001600160801b03811660c08401525060a08301516001600160801b03811660e08401525060c08301516101008381019190915260e084015161012080850191909152908401516101408085019190915290840151610160840152830151801515610180840152612f38565b6001600160a01b03811681146129dd57600080fd5b600080600080600060a08688031215613e3657600080fd5b8535613e4181613e09565b94506020860135613e5181613e09565b93506040860135613e6181613e09565b92506060860135613e7181613e09565b91506080860135613e8181613e09565b809150509295509295909350565b60008060408385031215613ea257600080fd5b823591506020830135613eb481613e09565b809150509250929050565b600080600060408486031215613ed457600080fd5b83356001600160401b0380821115613eeb57600080fd5b818601915086601f830112613eff57600080fd5b813581811115613f0e57600080fd5b8760206102a083028501011115613f2457600080fd5b60209283019550935050840135613f3a81613c84565b809150509250925092565b634e487b7160e01b600052604160045260246000fd5b60405161012081016001600160401b0381118282101715613f7e57613f7e613f45565b60405290565b604051608081016001600160401b0381118282101715613f7e57613f7e613f45565b60405160a081016001600160401b0381118282101715613f7e57613f7e613f45565b604080519081016001600160401b0381118282101715613f7e57613f7e613f45565b604051601f8201601f191681016001600160401b038111828210171561401257614012613f45565b604052919050565b6000806040838503121561402d57600080fd5b823561403881613e09565b91506020838101356001600160401b038082111561405557600080fd5b818601915086601f83011261406957600080fd5b81358181111561407b5761407b613f45565b61408d601f8201601f19168501613fea565b915080825287848285010111156140a357600080fd5b80848401858401376000848284010152508093505050509250929050565b6000602082840312156140d357600080fd5b813561309781613e09565b60005b838110156140f95781810151838201526020016140e1565b50506000910152565b60208152600082518060208401526141218160408501602087016140de565b601f01601f19169190910160400192915050565b6000806040838503121561414857600080fd5b823591506020830135613eb481613c84565b634e487b7160e01b600052603260045260246000fd5b805161417b81613e09565b919050565b60006020828403121561419257600080fd5b815161309781613e09565b634e487b7160e01b600052601160045260246000fd5b6000600182016141c5576141c561419d565b5060010190565b805163ffffffff8116811461417b57600080fd5b600082601f8301126141f157600080fd5b6141f9613fa6565b8060a084018581111561420b57600080fd5b845b8181101561422c5761421e816141cc565b84526020938401930161420d565b509095945050505050565b6000610220828403121561424a57600080fd5b614252613f5b565b905061425e83836141e0565b815261426c60a083016141cc565b602082015261427d60c083016141cc565b604082015261428e60e083016141cc565b60608201526101006142a2848285016141e0565b60808301526142b46101a084016141cc565b60a08301526142c66101c084016141cc565b60c08301526101e083015160e08301526142e36102008401614170565b9082015292915050565b6000610280828403121561430057600080fd5b614308613f84565b6143128484614237565b815261432161022084016141cc565b602082015261433361024084016141cc565b604082015261026083015161434781613c84565b60608201529392505050565b8082018082111561069c5761069c61419d565b60006020828403121561437857600080fd5b5051919050565b6000610220828403121561439257600080fd5b6130978383614237565b6000602082840312156143ae57600080fd5b815161309781613c84565b8181038181111561069c5761069c61419d565b634e487b7160e01b600052601260045260246000fd5b6000826143f1576143f16143cc565b500690565b6001600160a01b0386168152602080820186905260e0820190604083018660005b600381101561443457815183529183019190830190600101614417565b505050508360a083015282151560c08301529695505050505050565b6102a081016040808784378083018660005b600281101561447f57838284379183019190830190600101614462565b505050808560c0850137506101a08361010084013795945050505050565b600082601f8301126144ae57600080fd5b6144b6613fc8565b8060408401858111156144c857600080fd5b845b8181101561422c5780358452602093840193016144ca565b600082601f8301126144f357600080fd5b6040516101a08082018281106001600160401b038211171561451757614517613f45565b6040528301818582111561452a57600080fd5b845b8281101561454457803582526020918201910161452c565b509195945050505050565b60006102a0828403121561456257600080fd5b61456a613f84565b614574848461449d565b8152604084605f85011261458757600080fd5b61458f613fc8565b8060c08601878111156145a157600080fd5b8387015b818110156145c6576145b7898261449d565b845260209093019284016145a5565b508160208601526145d7888261449d565b84860152505050506143478461010085016144e2565b60008060c0838503121561460057600080fd5b83601f84011261460f57600080fd5b614617613fa6565b8060a085018681111561462957600080fd5b855b818110156146595780516001600160401b038116811461464b5760008081fd5b84526020938401930161462b565b50819450614666816141cc565b93505050509250929050565b63ffffffff8181168382160280821691908281146146925761469261419d565b505092915050565b6001600160401b038181168382160280821691908281146146925761469261419d565b60006001600160401b03808416806146d7576146d76143cc565b92169190910492915050565b6001600160401b03828116828216039080821115612f3857612f3861419d565b6001600160401b03818116838216019080821115612f3857612f3861419d565b6001600160801b03828116828216039080821115612f3857612f3861419d565b63ffffffff818116838216019080821115612f3857612f3861419d565b808202811582820484141761069c5761069c61419d565b600082614786576147866143cc565b500490565b600181815b808511156147c65781600019048211156147ac576147ac61419d565b808516156147b957918102915b93841c9390800290614790565b509250929050565b6000826147dd5750600161069c565b816147ea5750600061069c565b8160018114614800576002811461480a57614826565b600191505061069c565b60ff84111561481b5761481b61419d565b50506001821b61069c565b5060208310610133831016604e8410600b8410161715614849575081810a61069c565b614853838361478b565b80600019048211156148675761486761419d565b029392505050565b600061309760ff8416836147ce565b60008161488d5761488d61419d565b506000190190565b600063ffffffff808416806148ac576148ac6143cc565b92169190910692915050565b600060c082840312156148ca57600080fd5b60405160c081018181106001600160401b03821117156148ec576148ec613f45565b8060405250825181526020830151602082015260408301516040820152606083015161491781613c84565b6060820152608083015161492a81613c84565b608082015260a083015161493d81613c84565b60a08201529392505050565b6000825161495b8184602087016140de565b919091019291505056fe360894a13ba1a3210667c828492db98dca3e2076cc3735a920a3ca505d382bbc97667070c54ef182b0f5858b034beac1b6f3089aa2d3188bb1e8929f4fa9b92902dd7bc7dec4dceedda775e58dd541e08a116c6c53815c0bd028192f7b6268009b779b17422d0df92223018b32b4d1fa46e071723d6817e2486d003becc55f00a26469706673582212206da66d1f60f86f32f557ab33c5727d272427caef28cebe666d6cfd58d247f94b64736f6c63430008140033",
  "linkReferences": {},
  "deployedLinkReferences": {}
}