{
  "_format": "hh-sol-artifact-1",
  "contractName": "EquipmentEdition1",
  "sourceName": "contracts/equipments/EquipmentEdition1.sol",
  "abi": [
    {
      "inputs": [],
      "name": "AccessControlBadConfirmation",
      "type": "error"
    },
    {
      "inputs": [
        {
          "internalType": "address",
          "name": "account",
          "type": "address"
        },
        {
          "internalType": "bytes32",
          "name": "neededRole",
          "type": "bytes32"
        }
      ],
      "name": "AccessControlUnauthorizedAccount",
      "type": "error"
    },
    {
      "inputs": [
        {
          "internalType": "address",
          "name": "target",
          "type": "address"
        }
      ],
      "name": "AddressEmptyCode",
      "type": "error"
    },
    {
      "inputs": [
        {
          "internalType": "uint256",
          "name": "id",
          "type": "uint256"
        }
      ],
      "name": "AlreadyUnboxed",
      "type": "error"
    },
    {
      "inputs": [
        {
          "internalType": "address",
          "name": "sender",
          "type": "address"
        },
        {
          "internalType": "address",
          "name": "origin",
          "type": "address"
        }
      ],
      "name": "EOAOnly",
      "type": "error"
    },
    {
      "inputs": [
        {
          "internalType": "address",
          "name": "implementation",
          "type": "address"
        }
      ],
      "name": "ERC1967InvalidImplementation",
      "type": "error"
    },
    {
      "inputs": [],
      "name": "ERC1967NonPayable",
      "type": "error"
    },
    {
      "inputs": [
        {
          "internalType": "uint256",
          "name": "id",
          "type": "uint256"
        },
        {
          "internalType": "uint256",
          "name": "edition",
          "type": "uint256"
        }
      ],
      "name": "EditionMismatched",
      "type": "error"
    },
    {
      "inputs": [],
      "name": "FailedInnerCall",
      "type": "error"
    },
    {
      "inputs": [],
      "name": "InvalidInitialization",
      "type": "error"
    },
    {
      "inputs": [
        {
          "internalType": "address",
          "name": "from",
          "type": "address"
        },
        {
          "internalType": "uint256",
          "name": "id",
          "type": "uint256"
        }
      ],
      "name": "InvalidOwner",
      "type": "error"
    },
    {
      "inputs": [
        {
          "internalType": "uint256",
          "name": "prob",
          "type": "uint256"
        }
      ],
      "name": "InvalidProb",
      "type": "error"
    },
    {
      "inputs": [],
      "name": "NotInitializing",
      "type": "error"
    },
    {
      "inputs": [],
      "name": "ReentrancyGuardReentrantCall",
      "type": "error"
    },
    {
      "inputs": [],
      "name": "UUPSUnauthorizedCallContext",
      "type": "error"
    },
    {
      "inputs": [
        {
          "internalType": "bytes32",
          "name": "slot",
          "type": "bytes32"
        }
      ],
      "name": "UUPSUnsupportedProxiableUUID",
      "type": "error"
    },
    {
      "anonymous": false,
      "inputs": [
        {
          "indexed": false,
          "internalType": "uint64",
          "name": "version",
          "type": "uint64"
        }
      ],
      "name": "Initialized",
      "type": "event"
    },
    {
      "anonymous": false,
      "inputs": [
        {
          "indexed": true,
          "internalType": "bytes32",
          "name": "role",
          "type": "bytes32"
        },
        {
          "indexed": true,
          "internalType": "bytes32",
          "name": "previousAdminRole",
          "type": "bytes32"
        },
        {
          "indexed": true,
          "internalType": "bytes32",
          "name": "newAdminRole",
          "type": "bytes32"
        }
      ],
      "name": "RoleAdminChanged",
      "type": "event"
    },
    {
      "anonymous": false,
      "inputs": [
        {
          "indexed": true,
          "internalType": "bytes32",
          "name": "role",
          "type": "bytes32"
        },
        {
          "indexed": true,
          "internalType": "address",
          "name": "account",
          "type": "address"
        },
        {
          "indexed": true,
          "internalType": "address",
          "name": "sender",
          "type": "address"
        }
      ],
      "name": "RoleGranted",
      "type": "event"
    },
    {
      "anonymous": false,
      "inputs": [
        {
          "indexed": true,
          "internalType": "bytes32",
          "name": "role",
          "type": "bytes32"
        },
        {
          "indexed": true,
          "internalType": "address",
          "name": "account",
          "type": "address"
        },
        {
          "indexed": true,
          "internalType": "address",
          "name": "sender",
          "type": "address"
        }
      ],
      "name": "RoleRevoked",
      "type": "event"
    },
    {
      "anonymous": false,
      "inputs": [
        {
          "indexed": true,
          "internalType": "address",
          "name": "implementation",
          "type": "address"
        }
      ],
      "name": "Upgraded",
      "type": "event"
    },
    {
      "inputs": [],
      "name": "DEFAULT_ADMIN_ROLE",
      "outputs": [
        {
          "internalType": "bytes32",
          "name": "",
          "type": "bytes32"
        }
      ],
      "stateMutability": "view",
      "type": "function"
    },
    {
      "inputs": [],
      "name": "PRECISION",
      "outputs": [
        {
          "internalType": "uint256",
          "name": "",
          "type": "uint256"
        }
      ],
      "stateMutability": "view",
      "type": "function"
    },
    {
      "inputs": [],
      "name": "UPGRADE_INTERFACE_VERSION",
      "outputs": [
        {
          "internalType": "string",
          "name": "",
          "type": "string"
        }
      ],
      "stateMutability": "view",
      "type": "function"
    },
    {
      "inputs": [],
      "name": "getEdition",
      "outputs": [
        {
          "internalType": "uint256",
          "name": "",
          "type": "uint256"
        }
      ],
      "stateMutability": "pure",
      "type": "function"
    },
    {
      "inputs": [],
      "name": "getMintFee",
      "outputs": [
        {
          "internalType": "uint256",
          "name": "",
          "type": "uint256"
        }
      ],
      "stateMutability": "view",
      "type": "function"
    },
    {
      "inputs": [
        {
          "internalType": "bytes32",
          "name": "role",
          "type": "bytes32"
        }
      ],
      "name": "getRoleAdmin",
      "outputs": [
        {
          "internalType": "bytes32",
          "name": "",
          "type": "bytes32"
        }
      ],
      "stateMutability": "view",
      "type": "function"
    },
    {
      "inputs": [
        {
          "internalType": "bytes32",
          "name": "role",
          "type": "bytes32"
        },
        {
          "internalType": "address",
          "name": "account",
          "type": "address"
        }
      ],
      "name": "grantRole",
      "outputs": [],
      "stateMutability": "nonpayable",
      "type": "function"
    },
    {
      "inputs": [
        {
          "internalType": "bytes32",
          "name": "role",
          "type": "bytes32"
        },
        {
          "internalType": "address",
          "name": "account",
          "type": "address"
        }
      ],
      "name": "hasRole",
      "outputs": [
        {
          "internalType": "bool",
          "name": "",
          "type": "bool"
        }
      ],
      "stateMutability": "view",
      "type": "function"
    },
    {
      "inputs": [
        {
          "internalType": "contract Equipment",
          "name": "equipment",
          "type": "address"
        }
      ],
      "name": "initialize",
      "outputs": [],
      "stateMutability": "nonpayable",
      "type": "function"
    },
    {
      "inputs": [
        {
          "internalType": "uint256",
          "name": "count",
          "type": "uint256"
        }
      ],
      "name": "mint",
      "outputs": [],
      "stateMutability": "payable",
      "type": "function"
    },
    {
      "inputs": [],
      "name": "proxiableUUID",
      "outputs": [
        {
          "internalType": "bytes32",
          "name": "",
          "type": "bytes32"
        }
      ],
      "stateMutability": "view",
      "type": "function"
    },
    {
      "inputs": [
        {
          "internalType": "bytes32",
          "name": "role",
          "type": "bytes32"
        },
        {
          "internalType": "address",
          "name": "callerConfirmation",
          "type": "address"
        }
      ],
      "name": "renounceRole",
      "outputs": [],
      "stateMutability": "nonpayable",
      "type": "function"
    },
    {
      "inputs": [
        {
          "internalType": "bytes32",
          "name": "role",
          "type": "bytes32"
        },
        {
          "internalType": "address",
          "name": "account",
          "type": "address"
        }
      ],
      "name": "revokeRole",
      "outputs": [],
      "stateMutability": "nonpayable",
      "type": "function"
    },
    {
      "inputs": [
        {
          "internalType": "uint256",
          "name": "fee",
          "type": "uint256"
        }
      ],
      "name": "setMintFee",
      "outputs": [],
      "stateMutability": "nonpayable",
      "type": "function"
    },
    {
      "inputs": [
        {
          "internalType": "bytes4",
          "name": "interfaceId",
          "type": "bytes4"
        }
      ],
      "name": "supportsInterface",
      "outputs": [
        {
          "internalType": "bool",
          "name": "",
          "type": "bool"
        }
      ],
      "stateMutability": "view",
      "type": "function"
    },
    {
      "inputs": [
        {
          "internalType": "uint256[]",
          "name": "ids",
          "type": "uint256[]"
        }
      ],
      "name": "unbox",
      "outputs": [],
      "stateMutability": "nonpayable",
      "type": "function"
    },
    {
      "inputs": [
        {
          "internalType": "address",
          "name": "newImplementation",
          "type": "address"
        },
        {
          "internalType": "bytes",
          "name": "data",
          "type": "bytes"
        }
      ],
      "name": "upgradeToAndCall",
      "outputs": [],
      "stateMutability": "payable",
      "type": "function"
    }
  ],
  "bytecode": "0x60a06040523060805234801561001457600080fd5b5060805161198761003e60003960008181610bc801528181610bf10152610d5e01526119876000f3fe6080604052600436106100fd5760003560e01c806388ac828411610095578063aaf5eb6811610064578063aaf5eb681461027f578063ad3cb1cc14610295578063c4d66de8146102d3578063d547741f146102f3578063eddd0d9c1461031357600080fd5b806388ac82841461022357806391d1485414610237578063a0712d6814610257578063a217fddf1461026a57600080fd5b806336568abe116100d157806336568abe146101a75780634f1ef286146101c757806352d1902d146101da5780637a5caab3146101ef57600080fd5b80626767c91461010257806301ffc9a714610124578063248a9ca3146101595780632f2ff15d14610187575b600080fd5b34801561010e57600080fd5b5061012261011d366004611316565b610333565b005b34801561013057600080fd5b5061014461013f36600461138a565b6103d4565b60405190151581526020015b60405180910390f35b34801561016557600080fd5b506101796101743660046113b4565b61040b565b604051908152602001610150565b34801561019357600080fd5b506101226101a23660046113e2565b61042d565b3480156101b357600080fd5b506101226101c23660046113e2565b61044f565b6101226101d5366004611480565b610487565b3480156101e657600080fd5b506101796104a2565b3480156101fb57600080fd5b507f2ae6b32e8f75b70e7335cf2d8f6d6cbd4a1a0b3478440035aa4d471e8d7ddf0154610179565b34801561022f57600080fd5b506001610179565b34801561024357600080fd5b506101446102523660046113e2565b6104bf565b6101226102653660046113b4565b6104f7565b34801561027657600080fd5b50610179600081565b34801561028b57600080fd5b5061017961271081565b3480156102a157600080fd5b506102c6604051806040016040528060058152602001640352e302e360dc1b81525081565b604051610150919061154b565b3480156102df57600080fd5b506101226102ee36600461157e565b6106a3565b3480156102ff57600080fd5b5061012261030e3660046113e2565b6107b1565b34801561031f57600080fd5b5061012261032e3660046113b4565b6107cd565b61033b6107fd565b3233146103685760405163a9b62e0560e01b81523360048201523260248201526044015b60405180910390fd5b60005b818110156103a6576103948383838181106103885761038861159b565b90506020020135610847565b8061039e816115c7565b91505061036b565b506103d060017f9b779b17422d0df92223018b32b4d1fa46e071723d6817e2486d003becc55f0055565b5050565b60006001600160e01b03198216637965db0b60e01b148061040557506301ffc9a760e01b6001600160e01b03198316145b92915050565b6000908152600080516020611912833981519152602052604090206001015490565b6104368261040b565b61043f81610a8b565b6104498383610a95565b50505050565b6001600160a01b03811633146104785760405163334bd91960e11b815260040160405180910390fd5b6104828282610b41565b505050565b61048f610bbd565b61049882610c64565b6103d08282610c96565b60006104ac610d53565b506000805160206118f283398151915290565b6000918252600080516020611912833981519152602090815260408084206001600160a01b0393909316845291905290205460ff1690565b6104ff6107fd565b6000805160206119328339815191526000826001600160401b0381111561052857610528611412565b60405190808252806020026020018201604052801561058857816020015b6040805160c08101825260008082526020808301829052928201819052606082018190526080820181905260a082015282526000199092019101816105465790505b50905060005b838110156105fe576040805160c08101825260008082526020820181905260019282018390526060820181905291850154608082015260a081019190915282518390839081106105e0576105e061159b565b602002602001018190525080806105f6906115c7565b91505061058e565b5060028201546001600160a01b031663940df3a634338487876001015461062591906115e0565b6040518563ffffffff1660e01b81526004016106439392919061164a565b6000604051808303818588803b15801561065c57600080fd5b505af1158015610670573d6000803e3d6000fd5b505050505050506106a060017f9b779b17422d0df92223018b32b4d1fa46e071723d6817e2486d003becc55f0055565b50565b7ff0c57e16840df040f15088dc2f81fe391c3923bec73e23a9662efc9c229c6a008054600160401b810460ff1615906001600160401b03166000811580156106e85750825b90506000826001600160401b031660011480156107045750303b155b905081158015610712575080155b156107305760405163f92ee8a960e01b815260040160405180910390fd5b845467ffffffffffffffff19166001178555831561075a57845460ff60401b1916600160401b1785555b61076386610d9c565b83156107a957845460ff60401b19168555604051600181527fc7f505b2f371ae2175ee4913f4499e1f2633a7b5936321eed1cdaeb6115181d29060200160405180910390a15b505050505050565b6107ba8261040b565b6107c381610a8b565b6104498383610b41565b60006107d881610a8b565b507f2ae6b32e8f75b70e7335cf2d8f6d6cbd4a1a0b3478440035aa4d471e8d7ddf0155565b7f9b779b17422d0df92223018b32b4d1fa46e071723d6817e2486d003becc55f0080546001190161084157604051633ee5aeb560e01b815260040160405180910390fd5b60029055565b600060008051602061193283398151915290503360028201546040516331a9108f60e11b8152600481018590526001600160a01b039283169290911690636352211e90602401602060405180830381865afa1580156108aa573d6000803e3d6000fd5b505050506040513d601f19601f820116820180604052508101906108ce91906116b3565b6001600160a01b0316146108fe57604051636a16d40f60e01b81523360048201526024810183905260440161035f565b6002810154604051631760945960e01b8152600481018490526000916001600160a01b03169063176094599060240160c060405180830381865afa15801561094a573d6000803e3d6000fd5b505050506040513d601f19601f8201168201806040525081019061096e91906116e9565b90508060a00151156109965760405163202601db60e11b81526004810184905260240161035f565b606081015163ffffffff166001146109cb576040516332d2d2a960e11b8152600481018490526001602482015260440161035f565b60008060006109d986610df6565b60028801546040805160c0810182526001600160801b038616815263ffffffff8086166020830152600182840181905290851660608301526000608083015260a08201529051636bfe718d60e01b81529497509295509093506001600160a01b031691636bfe718d91610a51918a919060040161177f565b600060405180830381600087803b158015610a6b57600080fd5b505af1158015610a7f573d6000803e3d6000fd5b50505050505050505050565b6106a08133610f99565b6000600080516020611912833981519152610ab084846104bf565b610b30576000848152602082815260408083206001600160a01b03871684529091529020805460ff19166001179055610ae63390565b6001600160a01b0316836001600160a01b0316857f2f8788117e7eff1d82e926ec794901d17c78024a50270940304540a733656f0d60405160405180910390a46001915050610405565b6000915050610405565b5092915050565b6000600080516020611912833981519152610b5c84846104bf565b15610b30576000848152602082815260408083206001600160a01b0387168085529252808320805460ff1916905551339287917ff6391f5c32d9c69d2a47ea670b442974b53935d1edc7fd64eb21e047a839171b9190a46001915050610405565b306001600160a01b037f0000000000000000000000000000000000000000000000000000000000000000161480610c4457507f00000000000000000000000000000000000000000000000000000000000000006001600160a01b0316610c386000805160206118f2833981519152546001600160a01b031690565b6001600160a01b031614155b15610c625760405163703e46dd60e11b815260040160405180910390fd5b565b6000610c6f81610a8b565b6000805160206119328339815191528054816000610c8c836115c7565b9190505550505050565b816001600160a01b03166352d1902d6040518163ffffffff1660e01b8152600401602060405180830381865afa925050508015610cf0575060408051601f3d908101601f19168201909252610ced91810190611793565b60015b610d1857604051634c9c8ce360e01b81526001600160a01b038316600482015260240161035f565b6000805160206118f28339815191528114610d4957604051632a87526960e21b81526004810182905260240161035f565b6104828383610fd2565b306001600160a01b037f00000000000000000000000000000000000000000000000000000000000000001614610c625760405163703e46dd60e11b815260040160405180910390fd5b610da4611028565b600080516020611932833981519152610dbb611071565b610dc3611071565b610dce600033610a95565b506001815560020180546001600160a01b0319166001600160a01b0392909216919091179055565b6000808080423386610e096001436117ac565b40604051602001610e45949392919093845260609290921b6bffffffffffffffffffffffff191660208401526034830152605482015260740190565b6040516020818303038152906040528051906020012060001c9050610e686112f8565b6000805b6005811015610eee57610e8d610e84612710866117d5565b60656082611079565b838260058110610e9f57610e9f61159b565b6001600160401b039092166020929092020152600e9390931c92828160058110610ecb57610ecb61159b565b6020020151610eda90836117e9565b915080610ee6816115c7565b915050610e6c565b50610efa6003846117d5565b935060029290921c91610f0e600582611809565b60408051808201909152607281526078602082015290915060005b6002811015610f8257818160028110610f4457610f4461159b565b60200201516001600160401b0316836001600160401b03161115610f7057610f6d60018861182f565b96505b80610f7a816115c7565b915050610f29565b50610f8c8361111a565b9650505050509193909250565b610fa382826104bf565b6103d05760405163e2517d3f60e01b81526001600160a01b03821660048201526024810183905260440161035f565b610fdb82611179565b6040516001600160a01b038316907fbc7cd75a20ee27fd9adebab32041f755214dbc6bffa90cc0225b39da2e5c2d3b90600090a28051156110205761048282826111de565b6103d0611254565b7ff0c57e16840df040f15088dc2f81fe391c3923bec73e23a9662efc9c229c6a0054600160401b900460ff16610c6257604051631afcd79f60e31b815260040160405180910390fd5b610c62611028565b60006127108410158061108c5750818310155b156110ad57604051630836f30d60e21b81526004810185905260240161035f565b60006110b984846117ac565b905060635b6110c881806115e0565b8610156110e157806110d98161184c565b9150506110be565b846064836110f08460636117ac565b6110fa91906115e0565b6111049190611863565b61110e9190611877565b925050505b9392505050565b6000805b6005811015611173578281600581106111395761113961159b565b60200201516001600160401b031661115583630200000061188a565b61115f91906118b5565b91508061116b816115c7565b91505061111e565b50919050565b806001600160a01b03163b6000036111af57604051634c9c8ce360e01b81526001600160a01b038216600482015260240161035f565b6000805160206118f283398151915280546001600160a01b0319166001600160a01b0392909216919091179055565b6060600080846001600160a01b0316846040516111fb91906118d5565b600060405180830381855af49150503d8060008114611236576040519150601f19603f3d011682016040523d82523d6000602084013e61123b565b606091505b509150915061124b858383611273565b95945050505050565b3415610c625760405163b398979f60e01b815260040160405180910390fd5b60608261128857611283826112cf565b611113565b815115801561129f57506001600160a01b0384163b155b156112c857604051639996b31560e01b81526001600160a01b038516600482015260240161035f565b5080611113565b8051156112df5780518082602001fd5b604051630a12f52160e11b815260040160405180910390fd5b6040518060a001604052806005906020820280368337509192915050565b6000806020838503121561132957600080fd5b82356001600160401b038082111561134057600080fd5b818501915085601f83011261135457600080fd5b81358181111561136357600080fd5b8660208260051b850101111561137857600080fd5b60209290920196919550909350505050565b60006020828403121561139c57600080fd5b81356001600160e01b03198116811461111357600080fd5b6000602082840312156113c657600080fd5b5035919050565b6001600160a01b03811681146106a057600080fd5b600080604083850312156113f557600080fd5b823591506020830135611407816113cd565b809150509250929050565b634e487b7160e01b600052604160045260246000fd5b60405160c081016001600160401b038111828210171561144a5761144a611412565b60405290565b604051601f8201601f191681016001600160401b038111828210171561147857611478611412565b604052919050565b6000806040838503121561149357600080fd5b823561149e816113cd565b91506020838101356001600160401b03808211156114bb57600080fd5b818601915086601f8301126114cf57600080fd5b8135818111156114e1576114e1611412565b6114f3601f8201601f19168501611450565b9150808252878482850101111561150957600080fd5b80848401858401376000848284010152508093505050509250929050565b60005b8381101561154257818101518382015260200161152a565b50506000910152565b602081526000825180602084015261156a816040850160208701611527565b601f01601f19169190910160400192915050565b60006020828403121561159057600080fd5b8135611113816113cd565b634e487b7160e01b600052603260045260246000fd5b634e487b7160e01b600052601160045260246000fd5b6000600182016115d9576115d96115b1565b5060010190565b8082028115828204841417610405576104056115b1565b6001600160801b038151168252602081015163ffffffff808216602085015280604084015116604085015280606084015116606085015250506080810151608083015260a0810151151560a08301525050565b6001600160a01b038416815260606020808301829052845191830182905260009185820191906080850190845b8181101561169d5761168a8386516115f7565b9383019360c09290920191600101611677565b5050809350505050826040830152949350505050565b6000602082840312156116c557600080fd5b8151611113816113cd565b805163ffffffff811681146116e457600080fd5b919050565b600060c082840312156116fb57600080fd5b611703611428565b82516001600160801b038116811461171a57600080fd5b8152611728602084016116d0565b6020820152611739604084016116d0565b604082015261174a606084016116d0565b606082015261175b608084016116d0565b608082015260a0830151801515811461177357600080fd5b60a08201529392505050565b82815260e0810161111360208301846115f7565b6000602082840312156117a557600080fd5b5051919050565b81810381811115610405576104056115b1565b634e487b7160e01b600052601260045260246000fd5b6000826117e4576117e46117bf565b500690565b6001600160401b03818116838216019080821115610b3a57610b3a6115b1565b60006001600160401b0380841680611823576118236117bf565b92169190910492915050565b63ffffffff818116838216019080821115610b3a57610b3a6115b1565b60008161185b5761185b6115b1565b506000190190565b600082611872576118726117bf565b500490565b80820180821115610405576104056115b1565b6001600160801b038181168382160280821691908281146118ad576118ad6115b1565b505092915050565b6001600160801b03818116838216019080821115610b3a57610b3a6115b1565b600082516118e7818460208701611527565b919091019291505056fe360894a13ba1a3210667c828492db98dca3e2076cc3735a920a3ca505d382bbc02dd7bc7dec4dceedda775e58dd541e08a116c6c53815c0bd028192f7b6268002ae6b32e8f75b70e7335cf2d8f6d6cbd4a1a0b3478440035aa4d471e8d7ddf00a2646970667358221220dad613d54f7dd514de58bbec874f78cc4773b410f3d6541575e98fc46118157b64736f6c63430008140033",
  "linkReferences": {},
  "deployedLinkReferences": {}
}