{
  "_format": "hh-sol-artifact-1",
  "contractName": "Equipment",
  "sourceName": "contracts/equipments/Equipment.sol",
  "abi": [
    {
      "inputs": [],
      "name": "AccessControlBadConfirmation",
      "type": "error"
    },
    {
      "inputs": [
        {
          "internalType": "address",
          "name": "account",
          "type": "address"
        },
        {
          "internalType": "bytes32",
          "name": "neededRole",
          "type": "bytes32"
        }
      ],
      "name": "AccessControlUnauthorizedAccount",
      "type": "error"
    },
    {
      "inputs": [
        {
          "internalType": "address",
          "name": "target",
          "type": "address"
        }
      ],
      "name": "AddressEmptyCode",
      "type": "error"
    },
    {
      "inputs": [
        {
          "internalType": "uint256",
          "name": "id",
          "type": "uint256"
        }
      ],
      "name": "AlreadyUnboxed",
      "type": "error"
    },
    {
      "inputs": [],
      "name": "AtLeastMintOne",
      "type": "error"
    },
    {
      "inputs": [
        {
          "internalType": "address",
          "name": "sender",
          "type": "address"
        },
        {
          "internalType": "address",
          "name": "origin",
          "type": "address"
        }
      ],
      "name": "EOAOnly",
      "type": "error"
    },
    {
      "inputs": [
        {
          "internalType": "address",
          "name": "implementation",
          "type": "address"
        }
      ],
      "name": "ERC1967InvalidImplementation",
      "type": "error"
    },
    {
      "inputs": [],
      "name": "ERC1967NonPayable",
      "type": "error"
    },
    {
      "inputs": [],
      "name": "ERC721EnumerableForbiddenBatchMint",
      "type": "error"
    },
    {
      "inputs": [
        {
          "internalType": "address",
          "name": "sender",
          "type": "address"
        },
        {
          "internalType": "uint256",
          "name": "tokenId",
          "type": "uint256"
        },
        {
          "internalType": "address",
          "name": "owner",
          "type": "address"
        }
      ],
      "name": "ERC721IncorrectOwner",
      "type": "error"
    },
    {
      "inputs": [
        {
          "internalType": "address",
          "name": "operator",
          "type": "address"
        },
        {
          "internalType": "uint256",
          "name": "tokenId",
          "type": "uint256"
        }
      ],
      "name": "ERC721InsufficientApproval",
      "type": "error"
    },
    {
      "inputs": [
        {
          "internalType": "address",
          "name": "approver",
          "type": "address"
        }
      ],
      "name": "ERC721InvalidApprover",
      "type": "error"
    },
    {
      "inputs": [
        {
          "internalType": "address",
          "name": "operator",
          "type": "address"
        }
      ],
      "name": "ERC721InvalidOperator",
      "type": "error"
    },
    {
      "inputs": [
        {
          "internalType": "address",
          "name": "owner",
          "type": "address"
        }
      ],
      "name": "ERC721InvalidOwner",
      "type": "error"
    },
    {
      "inputs": [
        {
          "internalType": "address",
          "name": "receiver",
          "type": "address"
        }
      ],
      "name": "ERC721InvalidReceiver",
      "type": "error"
    },
    {
      "inputs": [
        {
          "internalType": "address",
          "name": "sender",
          "type": "address"
        }
      ],
      "name": "ERC721InvalidSender",
      "type": "error"
    },
    {
      "inputs": [
        {
          "internalType": "uint256",
          "name": "tokenId",
          "type": "uint256"
        }
      ],
      "name": "ERC721NonexistentToken",
      "type": "error"
    },
    {
      "inputs": [
        {
          "internalType": "address",
          "name": "owner",
          "type": "address"
        },
        {
          "internalType": "uint256",
          "name": "index",
          "type": "uint256"
        }
      ],
      "name": "ERC721OutOfBoundsIndex",
      "type": "error"
    },
    {
      "inputs": [
        {
          "internalType": "uint256",
          "name": "id",
          "type": "uint256"
        },
        {
          "internalType": "uint256",
          "name": "edition",
          "type": "uint256"
        }
      ],
      "name": "EditionMismatched",
      "type": "error"
    },
    {
      "inputs": [
        {
          "internalType": "uint256",
          "name": "id",
          "type": "uint256"
        }
      ],
      "name": "EquipmentLocked",
      "type": "error"
    },
    {
      "inputs": [
        {
          "internalType": "uint256",
          "name": "id",
          "type": "uint256"
        }
      ],
      "name": "EquipmentNotRevealed",
      "type": "error"
    },
    {
      "inputs": [],
      "name": "FailedInnerCall",
      "type": "error"
    },
    {
      "inputs": [
        {
          "internalType": "uint256",
          "name": "id",
          "type": "uint256"
        },
        {
          "internalType": "uint256",
          "name": "kind",
          "type": "uint256"
        }
      ],
      "name": "InvalidEquipmentKind",
      "type": "error"
    },
    {
      "inputs": [],
      "name": "InvalidInitialization",
      "type": "error"
    },
    {
      "inputs": [
        {
          "internalType": "address",
          "name": "from",
          "type": "address"
        },
        {
          "internalType": "uint256",
          "name": "id",
          "type": "uint256"
        }
      ],
      "name": "InvalidOwner",
      "type": "error"
    },
    {
      "inputs": [
        {
          "internalType": "uint256",
          "name": "exp",
          "type": "uint256"
        },
        {
          "internalType": "uint256",
          "name": "fee",
          "type": "uint256"
        }
      ],
      "name": "NotEnoughFee",
      "type": "error"
    },
    {
      "inputs": [],
      "name": "NotInitializing",
      "type": "error"
    },
    {
      "inputs": [
        {
          "internalType": "uint256",
          "name": "id",
          "type": "uint256"
        },
        {
          "internalType": "uint256",
          "name": "lv",
          "type": "uint256"
        }
      ],
      "name": "ReachedMaxLevel",
      "type": "error"
    },
    {
      "inputs": [],
      "name": "ReentrancyGuardReentrantCall",
      "type": "error"
    },
    {
      "inputs": [
        {
          "internalType": "address",
          "name": "from",
          "type": "address"
        },
        {
          "internalType": "uint256",
          "name": "amount",
          "type": "uint256"
        }
      ],
      "name": "TransferGPFailed",
      "type": "error"
    },
    {
      "inputs": [],
      "name": "UUPSUnauthorizedCallContext",
      "type": "error"
    },
    {
      "inputs": [
        {
          "internalType": "bytes32",
          "name": "slot",
          "type": "bytes32"
        }
      ],
      "name": "UUPSUnsupportedProxiableUUID",
      "type": "error"
    },
    {
      "inputs": [
        {
          "internalType": "address",
          "name": "token",
          "type": "address"
        },
        {
          "internalType": "uint256",
          "name": "amount",
          "type": "uint256"
        }
      ],
      "name": "WithdrawFailed",
      "type": "error"
    },
    {
      "anonymous": false,
      "inputs": [
        {
          "indexed": true,
          "internalType": "address",
          "name": "owner",
          "type": "address"
        },
        {
          "indexed": true,
          "internalType": "address",
          "name": "approved",
          "type": "address"
        },
        {
          "indexed": true,
          "internalType": "uint256",
          "name": "tokenId",
          "type": "uint256"
        }
      ],
      "name": "Approval",
      "type": "event"
    },
    {
      "anonymous": false,
      "inputs": [
        {
          "indexed": true,
          "internalType": "address",
          "name": "owner",
          "type": "address"
        },
        {
          "indexed": true,
          "internalType": "address",
          "name": "operator",
          "type": "address"
        },
        {
          "indexed": false,
          "internalType": "bool",
          "name": "approved",
          "type": "bool"
        }
      ],
      "name": "ApprovalForAll",
      "type": "event"
    },
    {
      "anonymous": false,
      "inputs": [
        {
          "indexed": false,
          "internalType": "uint64",
          "name": "version",
          "type": "uint64"
        }
      ],
      "name": "Initialized",
      "type": "event"
    },
    {
      "anonymous": false,
      "inputs": [
        {
          "indexed": true,
          "internalType": "bytes32",
          "name": "role",
          "type": "bytes32"
        },
        {
          "indexed": true,
          "internalType": "bytes32",
          "name": "previousAdminRole",
          "type": "bytes32"
        },
        {
          "indexed": true,
          "internalType": "bytes32",
          "name": "newAdminRole",
          "type": "bytes32"
        }
      ],
      "name": "RoleAdminChanged",
      "type": "event"
    },
    {
      "anonymous": false,
      "inputs": [
        {
          "indexed": true,
          "internalType": "bytes32",
          "name": "role",
          "type": "bytes32"
        },
        {
          "indexed": true,
          "internalType": "address",
          "name": "account",
          "type": "address"
        },
        {
          "indexed": true,
          "internalType": "address",
          "name": "sender",
          "type": "address"
        }
      ],
      "name": "RoleGranted",
      "type": "event"
    },
    {
      "anonymous": false,
      "inputs": [
        {
          "indexed": true,
          "internalType": "bytes32",
          "name": "role",
          "type": "bytes32"
        },
        {
          "indexed": true,
          "internalType": "address",
          "name": "account",
          "type": "address"
        },
        {
          "indexed": true,
          "internalType": "address",
          "name": "sender",
          "type": "address"
        }
      ],
      "name": "RoleRevoked",
      "type": "event"
    },
    {
      "anonymous": false,
      "inputs": [
        {
          "indexed": true,
          "internalType": "address",
          "name": "from",
          "type": "address"
        },
        {
          "indexed": true,
          "internalType": "address",
          "name": "to",
          "type": "address"
        },
        {
          "indexed": true,
          "internalType": "uint256",
          "name": "tokenId",
          "type": "uint256"
        }
      ],
      "name": "Transfer",
      "type": "event"
    },
    {
      "anonymous": false,
      "inputs": [
        {
          "indexed": false,
          "internalType": "uint256",
          "name": "id",
          "type": "uint256"
        }
      ],
      "name": "Unbox",
      "type": "event"
    },
    {
      "anonymous": false,
      "inputs": [
        {
          "indexed": true,
          "internalType": "address",
          "name": "implementation",
          "type": "address"
        }
      ],
      "name": "Upgraded",
      "type": "event"
    },
    {
      "inputs": [],
      "name": "DEFAULT_ADMIN_ROLE",
      "outputs": [
        {
          "internalType": "bytes32",
          "name": "",
          "type": "bytes32"
        }
      ],
      "stateMutability": "view",
      "type": "function"
    },
    {
      "inputs": [],
      "name": "HERO_ROLE",
      "outputs": [
        {
          "internalType": "bytes32",
          "name": "",
          "type": "bytes32"
        }
      ],
      "stateMutability": "view",
      "type": "function"
    },
    {
      "inputs": [],
      "name": "MINTER_ROLE",
      "outputs": [
        {
          "internalType": "bytes32",
          "name": "",
          "type": "bytes32"
        }
      ],
      "stateMutability": "view",
      "type": "function"
    },
    {
      "inputs": [],
      "name": "UPGRADE_INTERFACE_VERSION",
      "outputs": [
        {
          "internalType": "string",
          "name": "",
          "type": "string"
        }
      ],
      "stateMutability": "view",
      "type": "function"
    },
    {
      "inputs": [
        {
          "internalType": "address",
          "name": "to",
          "type": "address"
        },
        {
          "internalType": "uint256",
          "name": "tokenId",
          "type": "uint256"
        }
      ],
      "name": "approve",
      "outputs": [],
      "stateMutability": "nonpayable",
      "type": "function"
    },
    {
      "inputs": [
        {
          "internalType": "address",
          "name": "owner",
          "type": "address"
        }
      ],
      "name": "balanceOf",
      "outputs": [
        {
          "internalType": "uint256",
          "name": "",
          "type": "uint256"
        }
      ],
      "stateMutability": "view",
      "type": "function"
    },
    {
      "inputs": [
        {
          "internalType": "uint256",
          "name": "tokenId",
          "type": "uint256"
        }
      ],
      "name": "getApproved",
      "outputs": [
        {
          "internalType": "address",
          "name": "",
          "type": "address"
        }
      ],
      "stateMutability": "view",
      "type": "function"
    },
    {
      "inputs": [
        {
          "internalType": "uint256",
          "name": "id",
          "type": "uint256"
        }
      ],
      "name": "getAttack",
      "outputs": [
        {
          "internalType": "uint64[5]",
          "name": "atk",
          "type": "uint64[5]"
        }
      ],
      "stateMutability": "view",
      "type": "function"
    },
    {
      "inputs": [],
      "name": "getGP",
      "outputs": [
        {
          "internalType": "address",
          "name": "",
          "type": "address"
        }
      ],
      "stateMutability": "view",
      "type": "function"
    },
    {
      "inputs": [
        {
          "internalType": "bytes32",
          "name": "role",
          "type": "bytes32"
        }
      ],
      "name": "getRoleAdmin",
      "outputs": [
        {
          "internalType": "bytes32",
          "name": "",
          "type": "bytes32"
        }
      ],
      "stateMutability": "view",
      "type": "function"
    },
    {
      "inputs": [
        {
          "internalType": "uint256",
          "name": "id",
          "type": "uint256"
        }
      ],
      "name": "getStat",
      "outputs": [
        {
          "components": [
            {
              "internalType": "uint128",
              "name": "attack",
              "type": "uint128"
            },
            {
              "internalType": "uint32",
              "name": "quality",
              "type": "uint32"
            },
            {
              "internalType": "uint32",
              "name": "locked",
              "type": "uint32"
            },
            {
              "internalType": "uint32",
              "name": "edition",
              "type": "uint32"
            },
            {
              "internalType": "uint32",
              "name": "kind",
              "type": "uint32"
            },
            {
              "internalType": "bool",
              "name": "revealed",
              "type": "bool"
            }
          ],
          "internalType": "struct IEquipment.Stats",
          "name": "",
          "type": "tuple"
        }
      ],
      "stateMutability": "view",
      "type": "function"
    },
    {
      "inputs": [
        {
          "internalType": "bytes32",
          "name": "role",
          "type": "bytes32"
        },
        {
          "internalType": "address",
          "name": "account",
          "type": "address"
        }
      ],
      "name": "grantRole",
      "outputs": [],
      "stateMutability": "nonpayable",
      "type": "function"
    },
    {
      "inputs": [
        {
          "internalType": "bytes32",
          "name": "role",
          "type": "bytes32"
        },
        {
          "internalType": "address",
          "name": "account",
          "type": "address"
        }
      ],
      "name": "hasRole",
      "outputs": [
        {
          "internalType": "bool",
          "name": "",
          "type": "bool"
        }
      ],
      "stateMutability": "view",
      "type": "function"
    },
    {
      "inputs": [
        {
          "internalType": "contract IERC20",
          "name": "gp_",
          "type": "address"
        }
      ],
      "name": "initialize",
      "outputs": [],
      "stateMutability": "nonpayable",
      "type": "function"
    },
    {
      "inputs": [
        {
          "internalType": "address",
          "name": "owner",
          "type": "address"
        },
        {
          "internalType": "address",
          "name": "operator",
          "type": "address"
        }
      ],
      "name": "isApprovedForAll",
      "outputs": [
        {
          "internalType": "bool",
          "name": "",
          "type": "bool"
        }
      ],
      "stateMutability": "view",
      "type": "function"
    },
    {
      "inputs": [
        {
          "internalType": "uint256",
          "name": "tokenId",
          "type": "uint256"
        }
      ],
      "name": "isLocked",
      "outputs": [
        {
          "internalType": "bool",
          "name": "",
          "type": "bool"
        }
      ],
      "stateMutability": "view",
      "type": "function"
    },
    {
      "inputs": [
        {
          "internalType": "address",
          "name": "to",
          "type": "address"
        },
        {
          "components": [
            {
              "internalType": "uint128",
              "name": "atk",
              "type": "uint128"
            },
            {
              "internalType": "uint32",
              "name": "quality",
              "type": "uint32"
            },
            {
              "internalType": "uint32",
              "name": "edition",
              "type": "uint32"
            },
            {
              "internalType": "uint32",
              "name": "kind",
              "type": "uint32"
            },
            {
              "internalType": "uint256",
              "name": "mintFee",
              "type": "uint256"
            },
            {
              "internalType": "bool",
              "name": "revealed",
              "type": "bool"
            }
          ],
          "internalType": "struct IEquipment.MintParam",
          "name": "param",
          "type": "tuple"
        }
      ],
      "name": "mintAuthorized",
      "outputs": [],
      "stateMutability": "payable",
      "type": "function"
    },
    {
      "inputs": [
        {
          "internalType": "address",
          "name": "to",
          "type": "address"
        },
        {
          "components": [
            {
              "internalType": "uint128",
              "name": "atk",
              "type": "uint128"
            },
            {
              "internalType": "uint32",
              "name": "quality",
              "type": "uint32"
            },
            {
              "internalType": "uint32",
              "name": "edition",
              "type": "uint32"
            },
            {
              "internalType": "uint32",
              "name": "kind",
              "type": "uint32"
            },
            {
              "internalType": "uint256",
              "name": "mintFee",
              "type": "uint256"
            },
            {
              "internalType": "bool",
              "name": "revealed",
              "type": "bool"
            }
          ],
          "internalType": "struct IEquipment.MintParam[]",
          "name": "params",
          "type": "tuple[]"
        },
        {
          "internalType": "uint256",
          "name": "totalFee",
          "type": "uint256"
        }
      ],
      "name": "mintManyAuthorized",
      "outputs": [],
      "stateMutability": "payable",
      "type": "function"
    },
    {
      "inputs": [],
      "name": "name",
      "outputs": [
        {
          "internalType": "string",
          "name": "",
          "type": "string"
        }
      ],
      "stateMutability": "view",
      "type": "function"
    },
    {
      "inputs": [
        {
          "internalType": "uint256",
          "name": "tokenId",
          "type": "uint256"
        }
      ],
      "name": "ownerOf",
      "outputs": [
        {
          "internalType": "address",
          "name": "",
          "type": "address"
        }
      ],
      "stateMutability": "view",
      "type": "function"
    },
    {
      "inputs": [],
      "name": "proxiableUUID",
      "outputs": [
        {
          "internalType": "bytes32",
          "name": "",
          "type": "bytes32"
        }
      ],
      "stateMutability": "view",
      "type": "function"
    },
    {
      "inputs": [
        {
          "internalType": "bytes32",
          "name": "role",
          "type": "bytes32"
        },
        {
          "internalType": "address",
          "name": "callerConfirmation",
          "type": "address"
        }
      ],
      "name": "renounceRole",
      "outputs": [],
      "stateMutability": "nonpayable",
      "type": "function"
    },
    {
      "inputs": [
        {
          "internalType": "bytes32",
          "name": "role",
          "type": "bytes32"
        },
        {
          "internalType": "address",
          "name": "account",
          "type": "address"
        }
      ],
      "name": "revokeRole",
      "outputs": [],
      "stateMutability": "nonpayable",
      "type": "function"
    },
    {
      "inputs": [
        {
          "internalType": "address",
          "name": "from",
          "type": "address"
        },
        {
          "internalType": "address",
          "name": "to",
          "type": "address"
        },
        {
          "internalType": "uint256",
          "name": "tokenId",
          "type": "uint256"
        }
      ],
      "name": "safeTransferFrom",
      "outputs": [],
      "stateMutability": "nonpayable",
      "type": "function"
    },
    {
      "inputs": [
        {
          "internalType": "address",
          "name": "from",
          "type": "address"
        },
        {
          "internalType": "address",
          "name": "to",
          "type": "address"
        },
        {
          "internalType": "uint256",
          "name": "tokenId",
          "type": "uint256"
        },
        {
          "internalType": "bytes",
          "name": "data",
          "type": "bytes"
        }
      ],
      "name": "safeTransferFrom",
      "outputs": [],
      "stateMutability": "nonpayable",
      "type": "function"
    },
    {
      "inputs": [
        {
          "internalType": "address",
          "name": "operator",
          "type": "address"
        },
        {
          "internalType": "bool",
          "name": "approved",
          "type": "bool"
        }
      ],
      "name": "setApprovalForAll",
      "outputs": [],
      "stateMutability": "nonpayable",
      "type": "function"
    },
    {
      "inputs": [
        {
          "internalType": "string",
          "name": "baseURI_",
          "type": "string"
        }
      ],
      "name": "setBaseURI",
      "outputs": [],
      "stateMutability": "nonpayable",
      "type": "function"
    },
    {
      "inputs": [
        {
          "internalType": "contract IERC20",
          "name": "gp",
          "type": "address"
        }
      ],
      "name": "setGP",
      "outputs": [],
      "stateMutability": "nonpayable",
      "type": "function"
    },
    {
      "inputs": [
        {
          "internalType": "uint256",
          "name": "id",
          "type": "uint256"
        },
        {
          "internalType": "uint32",
          "name": "lock",
          "type": "uint32"
        }
      ],
      "name": "setLock",
      "outputs": [],
      "stateMutability": "nonpayable",
      "type": "function"
    },
    {
      "inputs": [
        {
          "internalType": "bytes4",
          "name": "interfaceId",
          "type": "bytes4"
        }
      ],
      "name": "supportsInterface",
      "outputs": [
        {
          "internalType": "bool",
          "name": "",
          "type": "bool"
        }
      ],
      "stateMutability": "view",
      "type": "function"
    },
    {
      "inputs": [],
      "name": "symbol",
      "outputs": [
        {
          "internalType": "string",
          "name": "",
          "type": "string"
        }
      ],
      "stateMutability": "view",
      "type": "function"
    },
    {
      "inputs": [
        {
          "internalType": "uint256",
          "name": "index",
          "type": "uint256"
        }
      ],
      "name": "tokenByIndex",
      "outputs": [
        {
          "internalType": "uint256",
          "name": "",
          "type": "uint256"
        }
      ],
      "stateMutability": "view",
      "type": "function"
    },
    {
      "inputs": [
        {
          "internalType": "address",
          "name": "owner",
          "type": "address"
        },
        {
          "internalType": "uint256",
          "name": "index",
          "type": "uint256"
        }
      ],
      "name": "tokenOfOwnerByIndex",
      "outputs": [
        {
          "internalType": "uint256",
          "name": "",
          "type": "uint256"
        }
      ],
      "stateMutability": "view",
      "type": "function"
    },
    {
      "inputs": [
        {
          "internalType": "uint256",
          "name": "tokenId",
          "type": "uint256"
        }
      ],
      "name": "tokenURI",
      "outputs": [
        {
          "internalType": "string",
          "name": "",
          "type": "string"
        }
      ],
      "stateMutability": "view",
      "type": "function"
    },
    {
      "inputs": [],
      "name": "totalSupply",
      "outputs": [
        {
          "internalType": "uint256",
          "name": "",
          "type": "uint256"
        }
      ],
      "stateMutability": "view",
      "type": "function"
    },
    {
      "inputs": [
        {
          "internalType": "address",
          "name": "from",
          "type": "address"
        },
        {
          "internalType": "address",
          "name": "to",
          "type": "address"
        },
        {
          "internalType": "uint256",
          "name": "tokenId",
          "type": "uint256"
        }
      ],
      "name": "transferFrom",
      "outputs": [],
      "stateMutability": "nonpayable",
      "type": "function"
    },
    {
      "inputs": [
        {
          "internalType": "uint256",
          "name": "tokenId",
          "type": "uint256"
        },
        {
          "components": [
            {
              "internalType": "uint128",
              "name": "atk",
              "type": "uint128"
            },
            {
              "internalType": "uint32",
              "name": "quality",
              "type": "uint32"
            },
            {
              "internalType": "uint32",
              "name": "edition",
              "type": "uint32"
            },
            {
              "internalType": "uint32",
              "name": "kind",
              "type": "uint32"
            },
            {
              "internalType": "uint256",
              "name": "mintFee",
              "type": "uint256"
            },
            {
              "internalType": "bool",
              "name": "revealed",
              "type": "bool"
            }
          ],
          "internalType": "struct IEquipment.MintParam",
          "name": "param",
          "type": "tuple"
        }
      ],
      "name": "unbox",
      "outputs": [],
      "stateMutability": "nonpayable",
      "type": "function"
    },
    {
      "inputs": [
        {
          "internalType": "address",
          "name": "newImplementation",
          "type": "address"
        },
        {
          "internalType": "bytes",
          "name": "data",
          "type": "bytes"
        }
      ],
      "name": "upgradeToAndCall",
      "outputs": [],
      "stateMutability": "payable",
      "type": "function"
    },
    {
      "inputs": [
        {
          "internalType": "address",
          "name": "to",
          "type": "address"
        },
        {
          "internalType": "uint256",
          "name": "amount",
          "type": "uint256"
        }
      ],
      "name": "withdraw",
      "outputs": [],
      "stateMutability": "nonpayable",
      "type": "function"
    },
    {
      "inputs": [
        {
          "internalType": "address",
          "name": "to",
          "type": "address"
        },
        {
          "internalType": "uint256",
          "name": "amount",
          "type": "uint256"
        }
      ],
      "name": "withdrawNative",
      "outputs": [],
      "stateMutability": "nonpayable",
      "type": "function"
    }
  ],
  "bytecode": "0x60a06040523060805234801561001457600080fd5b506080516132df61003e600039600081816116f901528181611722015261188f01526132df6000f3fe60806040526004361061023b5760003560e01c806370a082311161012e578063c4d66de8116100ab578063d547741f1161006f578063d547741f14610817578063e985e9c514610837578063edc8491714610857578063f3fef3a31461086a578063f6aacfb11461088a57600080fd5b8063c4d66de81461074b578063c87b56dd1461076b578063cff840f01461078b578063d0c059a6146107b8578063d5391393146107f557600080fd5b8063a217fddf116100f2578063a217fddf146106a5578063a22cb465146106ba578063a586ac2f146106da578063ad3cb1cc146106fa578063b88d4fde1461072b57600080fd5b806370a082311461061d578063774050711461063d57806391d148541461065d578063940df3a61461067d57806395d89b411461069057600080fd5b80632f745c59116101bc57806352d1902d1161018057806352d1902d1461057457806355f804b3146105895780636352211e146105a95780636aa29b37146105c95780636bfe718d146105fd57600080fd5b80632f745c59146104e157806336568abe1461050157806342842e0e146105215780634f1ef286146105415780634f6ccce71461055457600080fd5b80631760945911610203578063176094591461031157806318160ddd1461045557806323b872dd14610481578063248a9ca3146104a15780632f2ff15d146104c157600080fd5b806301ffc9a71461024057806306fdde031461027557806307b18bde14610297578063081812fc146102b9578063095ea7b3146102f1575b600080fd5b34801561024c57600080fd5b5061026061025b366004612942565b6108d3565b60405190151581526020015b60405180910390f35b34801561028157600080fd5b5061028a610919565b60405161026c91906129af565b3480156102a357600080fd5b506102b76102b23660046129d7565b6109bd565b005b3480156102c557600080fd5b506102d96102d4366004612a03565b610a51565b6040516001600160a01b03909116815260200161026c565b3480156102fd57600080fd5b506102b761030c3660046129d7565b610a66565b34801561031d57600080fd5b506103ee61032c366004612a03565b6040805160c081018252600080825260208201819052918101829052606081018290526080810182905260a08101829052906000805160206131aa83398151915260009384526003016020908152604093849020845160c08101865281546001600160801b038116825263ffffffff600160801b8204811694830194909452600160a01b8104841696820196909652600160c01b860483166060820152600160e01b90950490911660808501526001015460ff16151560a08401525090919050565b60405161026c9190600060c0820190506001600160801b038351168252602083015163ffffffff8082166020850152806040860151166040850152806060860151166060850152806080860151166080850152505060a0830151151560a083015292915050565b34801561046157600080fd5b5060008051602061326a833981519152545b60405190815260200161026c565b34801561048d57600080fd5b506102b761049c366004612a1c565b610a75565b3480156104ad57600080fd5b506104736104bc366004612a03565b610afa565b3480156104cd57600080fd5b506102b76104dc366004612a5d565b610b1c565b3480156104ed57600080fd5b506104736104fc3660046129d7565b610b38565b34801561050d57600080fd5b506102b761051c366004612a5d565b610bac565b34801561052d57600080fd5b506102b761053c366004612a1c565b610be4565b6102b761054f366004612b4a565b610bff565b34801561056057600080fd5b5061047361056f366004612a03565b610c1a565b34801561058057600080fd5b50610473610c92565b34801561059557600080fd5b506102b76105a4366004612b99565b610caf565b3480156105b557600080fd5b506102d96105c4366004612a03565b610cf4565b3480156105d557600080fd5b506104737f12c838af8f04f106e72225feccdd47dd1954e2cf89f0a5ced59fd072515f7adb81565b34801561060957600080fd5b506102b7610618366004612cb3565b610cff565b34801561062957600080fd5b50610473610638366004612ce0565b610e5f565b34801561064957600080fd5b506102b7610658366004612cfd565b610ebb565b34801561066957600080fd5b50610260610678366004612a5d565b610f6c565b6102b761068b366004612d20565b610fa4565b34801561069c57600080fd5b5061028a611036565b3480156106b157600080fd5b50610473600081565b3480156106c657600080fd5b506102b76106d5366004612dec565b611075565b3480156106e657600080fd5b506102b76106f5366004612ce0565b611080565b34801561070657600080fd5b5061028a604051806040016040528060058152602001640352e302e360dc1b81525081565b34801561073757600080fd5b506102b7610746366004612e1a565b6110cd565b34801561075757600080fd5b506102b7610766366004612ce0565b6110e4565b34801561077757600080fd5b5061028a610786366004612a03565b611287565b34801561079757600080fd5b506107ab6107a6366004612a03565b6112ef565b60405161026c9190612e85565b3480156107c457600080fd5b507f45109665e7d289656c1a7520b24dac6d5516e9fb504e0d278146d8a897b5bf02546001600160a01b03166102d9565b34801561080157600080fd5b5061047360008051602061324a83398151915281565b34801561082357600080fd5b506102b7610832366004612a5d565b611335565b34801561084357600080fd5b50610260610852366004612ebf565b611351565b6102b7610865366004612eed565b61139e565b34801561087657600080fd5b506102b76108853660046129d7565b6113d8565b34801561089657600080fd5b506102606108a5366004612a03565b60009081526000805160206131ca8339815191526020526040902054600160a01b900463ffffffff16151590565b60006001600160e01b03198216631e7c553160e21b148061090457506001600160e01b0319821663da8def7360e01b145b806109135750610913826114ab565b92915050565b60008051602061320a833981519152805460609190819061093990612f1a565b80601f016020809104026020016040519081016040528092919081815260200182805461096590612f1a565b80156109b25780601f10610987576101008083540402835291602001916109b2565b820191906000526020600020905b81548152906001019060200180831161099557829003601f168201915b505050505091505090565b60006109c8816114d0565b6000836001600160a01b03168360405160006040518083038185875af1925050503d8060008114610a15576040519150601f19603f3d011682016040523d82523d6000602084013e610a1a565b606091505b5050905080610a4b576040516351134c8960e11b815260006004820152602481018490526044015b60405180910390fd5b50505050565b6000610a5c826114dd565b5061091382611515565b610a7182823361154f565b5050565b6001600160a01b038216610a9f57604051633250574960e11b815260006004820152602401610a42565b6000610aac83833361155c565b9050836001600160a01b0316816001600160a01b031614610a4b576040516364283d7b60e01b81526001600160a01b0380861660048301526024820184905282166044820152606401610a42565b600090815260008051602061328a833981519152602052604090206001015490565b610b2582610afa565b610b2e816114d0565b610a4b83836115cd565b60006000805160206131ea833981519152610b5284610e5f565b8310610b835760405163295f44f760e21b81526001600160a01b038516600482015260248101849052604401610a42565b6001600160a01b0384166000908152602091825260408082208583529092522054905092915050565b6001600160a01b0381163314610bd55760405163334bd91960e11b815260040160405180910390fd5b610bdf8282611672565b505050565b610bdf838383604051806020016040528060008152506110cd565b610c076116ee565b610c1082611795565b610a7182826117c7565b60006000805160206131ea833981519152610c4160008051602061326a8339815191525490565b8310610c6a5760405163295f44f760e21b81526000600482015260248101849052604401610a42565b806002018381548110610c7f57610c7f612f4e565b9060005260206000200154915050919050565b6000610c9c611884565b5060008051602061322a83398151915290565b6000610cba816114d0565b6000805160206131aa8339815191527f45109665e7d289656c1a7520b24dac6d5516e9fb504e0d278146d8a897b5bf04610a4b8482612faa565b6000610913826114dd565b60008051602061324a833981519152610d17816114d0565b60006000805160206131aa8339815191526040805160c08101825285516001600160801b03908116825260208088015163ffffffff90811682850190815260008587018181528b880151841660608089019182528d015185166080890190815260a0808f01511515908a019081528f855260038c01909752928990209751885494519251915193518616600160e01b026001600160e01b03948716600160c01b0263ffffffff60c01b19938816600160a01b029390931667ffffffffffffffff60a01b1994909716600160801b026001600160a01b031990961691909816179390931716929092171716919091178255516001909101805491151560ff19909216919091179055519091507f2b08a50015c0e2259392f0cc72b8f0ff882eb40e6a634766d34ba50472abdaae90610e519086815260200190565b60405180910390a150505050565b600060008051602061320a8339815191526001600160a01b038316610e9a576040516322718ad960e21b815260006004820152602401610a42565b6001600160a01b039092166000908152600390920160205250604090205490565b7f12c838af8f04f106e72225feccdd47dd1954e2cf89f0a5ced59fd072515f7adb610ee5816114d0565b60008381526000805160206131ca83398151915260205260409020600101546000805160206131aa8339815191529060ff16610f37576040516396c35b5760e01b815260048101859052602401610a42565b6000938452600301602052506040909120805463ffffffff909216600160a01b0263ffffffff60a01b19909216919091179055565b600091825260008051602061328a833981519152602090815260408084206001600160a01b0393909316845291905290205460ff1690565b60008051602061324a833981519152610fbc816114d0565b8251600003610fde57604051631984e14360e01b815260040160405180910390fd5b8115610fee57610fee84836118cd565b60005b835181101561102f5761101d8585838151811061101057611010612f4e565b60200260200101516119df565b806110278161307f565b915050610ff1565b5050505050565b7f80bb2b638cc20bc4d0a60d66940f3ab4a00c1d7b313497ca82fb0b4ab0079301805460609160008051602061320a8339815191529161093990612f1a565b610a71338383611b74565b600061108b816114d0565b507f45109665e7d289656c1a7520b24dac6d5516e9fb504e0d278146d8a897b5bf0280546001600160a01b0319166001600160a01b0392909216919091179055565b6110d8848484610a75565b610a4b84848484611c25565b7ff0c57e16840df040f15088dc2f81fe391c3923bec73e23a9662efc9c229c6a008054600160401b810460ff1615906001600160401b03166000811580156111295750825b90506000826001600160401b031660011480156111455750303b155b905081158015611153575080155b156111715760405163f92ee8a960e01b815260040160405180910390fd5b845467ffffffffffffffff19166001178555831561119b57845460ff60401b1916600160401b1785555b6000805160206131aa8339815191526111b2611d47565b6111ba611d47565b61120c6040518060400160405280601581526020017410dc9e5c1d1bd49d5b589b19515c5d5a5c1b595b9d605a1b8152506040518060400160405280600381526020016243524560e81b815250611d4f565b6112176000336115cd565b506002810180546001600160a01b0319166001600160a01b03891617905560019055831561127f57845460ff60401b19168555604051600181527fc7f505b2f371ae2175ee4913f4499e1f2633a7b5936321eed1cdaeb6115181d29060200160405180910390a15b505050505050565b6060611292826114dd565b50600061129d611d61565b905060008151116112bd57604051806020016040528060008152506112e8565b806112c784611da0565b6040516020016112d8929190613098565b6040516020818303038152906040525b9392505050565b6112f761290e565b60008281526000805160206131ca83398151915260205260409020546000805160206131aa833981519152906112e8906001600160801b0316611e32565b61133e82610afa565b611347816114d0565b610a4b8383611672565b6001600160a01b0391821660009081527f80bb2b638cc20bc4d0a60d66940f3ab4a00c1d7b313497ca82fb0b4ab00793056020908152604080832093909416825291909152205460ff1690565b60008051602061324a8339815191526113b6816114d0565b6080820151156113ce576113ce8383608001516118cd565b610bdf83836119df565b60006113e3816114d0565b60006000805160206131aa833981519152600281015460405163a9059cbb60e01b81526001600160a01b038781166004830152602482018790529293506000929091169063a9059cbb906044016020604051808303816000875af115801561144f573d6000803e3d6000fd5b505050506040513d601f19601f8201168201806040525081019061147391906130c7565b90508061102f5760028201546040516351134c8960e11b81526001600160a01b03909116600482015260248101859052604401610a42565b60006001600160e01b03198216637965db0b60e01b1480610913575061091382611ea9565b6114da8133611ece565b50565b6000806114e983611f07565b90506001600160a01b03811661091357604051637e27328960e01b815260048101849052602401610a42565b60009081527f80bb2b638cc20bc4d0a60d66940f3ab4a00c1d7b313497ca82fb0b4ab007930460205260409020546001600160a01b031690565b610bdf8383836001611f41565b60008281526000805160206131ca833981519152602052604081205483906000805160206131aa83398151915290600160a01b900463ffffffff16156115b857604051630b5b856f60e31b815260048101839052602401610a42565b6115c3868686612057565b9695505050505050565b600060008051602061328a8339815191526115e88484610f6c565b611668576000848152602082815260408083206001600160a01b03871684529091529020805460ff1916600117905561161e3390565b6001600160a01b0316836001600160a01b0316857f2f8788117e7eff1d82e926ec794901d17c78024a50270940304540a733656f0d60405160405180910390a46001915050610913565b6000915050610913565b600060008051602061328a83398151915261168d8484610f6c565b15611668576000848152602082815260408083206001600160a01b0387168085529252808320805460ff1916905551339287917ff6391f5c32d9c69d2a47ea670b442974b53935d1edc7fd64eb21e047a839171b9190a46001915050610913565b306001600160a01b037f000000000000000000000000000000000000000000000000000000000000000016148061177557507f00000000000000000000000000000000000000000000000000000000000000006001600160a01b031661176960008051602061322a833981519152546001600160a01b031690565b6001600160a01b031614155b156117935760405163703e46dd60e11b815260040160405180910390fd5b565b60006117a0816114d0565b6000805160206131aa83398151915280548160006117bd8361307f565b9190505550505050565b816001600160a01b03166352d1902d6040518163ffffffff1660e01b8152600401602060405180830381865afa925050508015611821575060408051601f3d908101601f1916820190925261181e918101906130e4565b60015b61184957604051634c9c8ce360e01b81526001600160a01b0383166004820152602401610a42565b60008051602061322a833981519152811461187a57604051632a87526960e21b815260048101829052602401610a42565b610bdf8383612158565b306001600160a01b037f000000000000000000000000000000000000000000000000000000000000000016146117935760405163703e46dd60e11b815260040160405180910390fd5b7f45109665e7d289656c1a7520b24dac6d5516e9fb504e0d278146d8a897b5bf02546000805160206131aa833981519152906001600160a01b0316156119b65760028101546040516323b872dd60e01b81526001600160a01b0385811660048301523060248301526044820185905260009216906323b872dd906064016020604051808303816000875af1158015611969573d6000803e3d6000fd5b505050506040513d601f19601f8201168201806040525081019061198d91906130c7565b905080610a4b576040516378ac2b4760e11b815233600482015260248101849052604401610a42565b81341015610bdf57604051622ce40560e31b815234600482015260248101839052604401610a42565b7f45109665e7d289656c1a7520b24dac6d5516e9fb504e0d278146d8a897b5bf0180546000805160206131aa833981519152916000918290611a209061307f565b91829055509050611a3184826121ae565b8260a00151611a76576040928301516000918252600390920160205291909120805463ffffffff909216600160c01b0263ffffffff60c01b1990921691909117905550565b6040805160c08101825284516001600160801b03908116825260208087015163ffffffff90811682850190815260008587018181528a880151841660608089019182528c015185166080890190815260a09c8d015115159c89019c8d529983526003909a01909452959095209351845495519251975196518216600160e01b026001600160e01b03978316600160c01b0263ffffffff60c01b19998416600160a01b029990991667ffffffffffffffff60a01b1994909316600160801b026001600160a01b03199097169190941617949094171692909217939093179190911617815590516001909101805491151560ff1990921691909117905550565b60008051602061320a8339815191526001600160a01b038316611bb557604051630b61174360e31b81526001600160a01b0384166004820152602401610a42565b6001600160a01b038481166000818152600584016020908152604080832094881680845294825291829020805460ff191687151590811790915591519182527f17307eab39ab6107e8899845ad3d59bd9653f200f220920489ca2b5937696c31910160405180910390a350505050565b6001600160a01b0383163b15610a4b57604051630a85bd0160e11b81526001600160a01b0384169063150b7a0290611c679033908890879087906004016130fd565b6020604051808303816000875af1925050508015611ca2575060408051601f3d908101601f19168201909252611c9f91810190613130565b60015b611d0b573d808015611cd0576040519150601f19603f3d011682016040523d82523d6000602084013e611cd5565b606091505b508051600003611d0357604051633250574960e11b81526001600160a01b0385166004820152602401610a42565b805181602001fd5b6001600160e01b03198116630a85bd0160e11b1461102f57604051633250574960e11b81526001600160a01b0385166004820152602401610a42565b6117936121c8565b611d576121c8565b610a718282612211565b7f45109665e7d289656c1a7520b24dac6d5516e9fb504e0d278146d8a897b5bf0480546060916000805160206131aa8339815191529161093990612f1a565b60606000611dad83612242565b60010190506000816001600160401b03811115611dcc57611dcc612a8d565b6040519080825280601f01601f191660200182016040528015611df6576020820181803683370190505b5090508181016020015b600019016f181899199a1a9b1b9c1cb0b131b232b360811b600a86061a8153600a8504945084611e0057509392505050565b611e3a61290e565b60055b60018110611ea3576301ffffff831682611e5860018461314d565b60058110611e6857611e68612f4e565b6001600160401b03929092166020909202015260199290921c6c7fffffffffffffffffffffffff169180611e9b81613160565b915050611e3d565b50919050565b60006001600160e01b0319821663780e9d6360e01b148061091357506109138261231a565b611ed88282610f6c565b610a715760405163e2517d3f60e01b81526001600160a01b038216600482015260248101839052604401610a42565b60009081527f80bb2b638cc20bc4d0a60d66940f3ab4a00c1d7b313497ca82fb0b4ab007930260205260409020546001600160a01b031690565b60008051602061320a8339815191528180611f6457506001600160a01b03831615155b15612026576000611f74856114dd565b90506001600160a01b03841615801590611fa05750836001600160a01b0316816001600160a01b031614155b8015611fb35750611fb18185611351565b155b15611fdc5760405163a9fbf51f60e01b81526001600160a01b0385166004820152602401610a42565b82156120245784866001600160a01b0316826001600160a01b03167f8c5be1e5ebec7d5bd14f71427d1e84f3dd0314c0f7b2291e5b200ac8c7c3b92560405160405180910390a45b505b600093845260040160205250506040902080546001600160a01b0319166001600160a01b0392909216919091179055565b60008061206585858561236a565b90506001600160a01b0381166120ee576120e98460008051602061326a833981519152805460008381527f645e039705490088daad89bae25049a34f4a9072d398537b1ab2425f24cbed0360205260408120829055600182018355919091527fa42f15e5d656f8155fd7419d740a6073999f19cd6e061449ce4a257150545bf20155565b612111565b846001600160a01b0316816001600160a01b031614612111576121118185612474565b6001600160a01b03851661212d5761212884612518565b612150565b846001600160a01b0316816001600160a01b0316146121505761215085856125ef565b949350505050565b6121618261264a565b6040516001600160a01b038316907fbc7cd75a20ee27fd9adebab32041f755214dbc6bffa90cc0225b39da2e5c2d3b90600090a28051156121a657610bdf82826126af565b610a71612725565b610a71828260405180602001604052806000815250612744565b7ff0c57e16840df040f15088dc2f81fe391c3923bec73e23a9662efc9c229c6a0054600160401b900460ff1661179357604051631afcd79f60e31b815260040160405180910390fd5b6122196121c8565b60008051602061320a833981519152806122338482612faa565b5060018101610a4b8382612faa565b60008072184f03e93ff9f4daa797ed6e38ed64bf6a1f0160401b83106122815772184f03e93ff9f4daa797ed6e38ed64bf6a1f0160401b830492506040015b6d04ee2d6d415b85acef810000000083106122ad576d04ee2d6d415b85acef8100000000830492506020015b662386f26fc1000083106122cb57662386f26fc10000830492506010015b6305f5e10083106122e3576305f5e100830492506008015b61271083106122f757612710830492506004015b60648310612309576064830492506002015b600a83106109135760010192915050565b60006001600160e01b031982166380ac58cd60e01b148061234b57506001600160e01b03198216635b5e139f60e01b145b8061091357506301ffc9a760e01b6001600160e01b0319831614610913565b600060008051602061320a8339815191528161238585611f07565b90506001600160a01b038416156123a1576123a181858761275b565b6001600160a01b038116156123e1576123be600086600080611f41565b6001600160a01b0381166000908152600383016020526040902080546000190190555b6001600160a01b03861615612412576001600160a01b03861660009081526003830160205260409020805460010190555b600085815260028301602052604080822080546001600160a01b0319166001600160a01b038a811691821790925591518893918516917fddf252ad1be2c89b69c2b068fc378daa952ba7f163c4a11628f55a4df523b3ef91a495945050505050565b6000805160206131ea833981519152600061248e84610e5f565b60008481526001840160205260409020549091508082146124e3576001600160a01b03851660009081526020848152604080832085845282528083205484845281842081905583526001860190915290208190555b50600092835260018201602090815260408085208590556001600160a01b039095168452918252838320908352905290812055565b60008051602061326a833981519152546000805160206131ea833981519152906000906125479060019061314d565b600084815260038401602052604081205460028501805493945090928490811061257357612573612f4e565b906000526020600020015490508084600201838154811061259657612596612f4e565b6000918252602080832090910192909255828152600386019091526040808220849055868252812055600284018054806125d2576125d2613177565b600190038181906000526020600020016000905590555050505050565b6000805160206131ea8339815191526000600161260b85610e5f565b612615919061314d565b6001600160a01b0390941660009081526020838152604080832087845282528083208690559482526001909301909252502055565b806001600160a01b03163b60000361268057604051634c9c8ce360e01b81526001600160a01b0382166004820152602401610a42565b60008051602061322a83398151915280546001600160a01b0319166001600160a01b0392909216919091179055565b6060600080846001600160a01b0316846040516126cc919061318d565b600060405180830381855af49150503d8060008114612707576040519150601f19603f3d011682016040523d82523d6000602084013e61270c565b606091505b509150915061271c8583836127bf565b95945050505050565b34156117935760405163b398979f60e01b815260040160405180910390fd5b61274e838361281b565b610bdf6000848484611c25565b612766838383612880565b610bdf576001600160a01b03831661279457604051637e27328960e01b815260048101829052602401610a42565b60405163177e802f60e01b81526001600160a01b038316600482015260248101829052604401610a42565b6060826127d4576127cf826128e5565b6112e8565b81511580156127eb57506001600160a01b0384163b155b1561281457604051639996b31560e01b81526001600160a01b0385166004820152602401610a42565b50806112e8565b6001600160a01b03821661284557604051633250574960e11b815260006004820152602401610a42565b60006128538383600061155c565b90506001600160a01b03811615610bdf576040516339e3563760e11b815260006004820152602401610a42565b60006001600160a01b038316158015906121505750826001600160a01b0316846001600160a01b031614806128ba57506128ba8484611351565b806121505750826001600160a01b03166128d383611515565b6001600160a01b031614949350505050565b8051156128f55780518082602001fd5b604051630a12f52160e11b815260040160405180910390fd5b6040518060a001604052806005906020820280368337509192915050565b6001600160e01b0319811681146114da57600080fd5b60006020828403121561295457600080fd5b81356112e88161292c565b60005b8381101561297a578181015183820152602001612962565b50506000910152565b6000815180845261299b81602086016020860161295f565b601f01601f19169290920160200192915050565b6020815260006112e86020830184612983565b6001600160a01b03811681146114da57600080fd5b600080604083850312156129ea57600080fd5b82356129f5816129c2565b946020939093013593505050565b600060208284031215612a1557600080fd5b5035919050565b600080600060608486031215612a3157600080fd5b8335612a3c816129c2565b92506020840135612a4c816129c2565b929592945050506040919091013590565b60008060408385031215612a7057600080fd5b823591506020830135612a82816129c2565b809150509250929050565b634e487b7160e01b600052604160045260246000fd5b604051601f8201601f191681016001600160401b0381118282101715612acb57612acb612a8d565b604052919050565b60006001600160401b03831115612aec57612aec612a8d565b612aff601f8401601f1916602001612aa3565b9050828152838383011115612b1357600080fd5b828260208301376000602084830101529392505050565b600082601f830112612b3b57600080fd5b6112e883833560208501612ad3565b60008060408385031215612b5d57600080fd5b8235612b68816129c2565b915060208301356001600160401b03811115612b8357600080fd5b612b8f85828601612b2a565b9150509250929050565b600060208284031215612bab57600080fd5b81356001600160401b03811115612bc157600080fd5b8201601f81018413612bd257600080fd5b61215084823560208401612ad3565b803563ffffffff81168114612bf557600080fd5b919050565b80151581146114da57600080fd5b600060c08284031215612c1a57600080fd5b60405160c081018181106001600160401b0382111715612c3c57612c3c612a8d565b60405290508082356001600160801b0381168114612c5957600080fd5b8152612c6760208401612be1565b6020820152612c7860408401612be1565b6040820152612c8960608401612be1565b60608201526080830135608082015260a0830135612ca681612bfa565b60a0919091015292915050565b60008060e08385031215612cc657600080fd5b82359150612cd78460208501612c08565b90509250929050565b600060208284031215612cf257600080fd5b81356112e8816129c2565b60008060408385031215612d1057600080fd5b82359150612cd760208401612be1565b600080600060608486031215612d3557600080fd5b8335612d40816129c2565b92506020848101356001600160401b0380821115612d5d57600080fd5b818701915087601f830112612d7157600080fd5b813581811115612d8357612d83612a8d565b612d91848260051b01612aa3565b818152848101925060c091820284018501918a831115612db057600080fd5b938501935b82851015612dd657612dc78b86612c08565b84529384019392850192612db5565b5096999698505050506040949094013593505050565b60008060408385031215612dff57600080fd5b8235612e0a816129c2565b91506020830135612a8281612bfa565b60008060008060808587031215612e3057600080fd5b8435612e3b816129c2565b93506020850135612e4b816129c2565b92506040850135915060608501356001600160401b03811115612e6d57600080fd5b612e7987828801612b2a565b91505092959194509250565b60a08101818360005b6005811015612eb65781516001600160401b0316835260209283019290910190600101612e8e565b50505092915050565b60008060408385031215612ed257600080fd5b8235612edd816129c2565b91506020830135612a82816129c2565b60008060e08385031215612f0057600080fd5b8235612f0b816129c2565b9150612cd78460208501612c08565b600181811c90821680612f2e57607f821691505b602082108103611ea357634e487b7160e01b600052602260045260246000fd5b634e487b7160e01b600052603260045260246000fd5b601f821115610bdf57600081815260208120601f850160051c81016020861015612f8b5750805b601f850160051c820191505b8181101561127f57828155600101612f97565b81516001600160401b03811115612fc357612fc3612a8d565b612fd781612fd18454612f1a565b84612f64565b602080601f83116001811461300c5760008415612ff45750858301515b600019600386901b1c1916600185901b17855561127f565b600085815260208120601f198616915b8281101561303b5788860151825594840194600190910190840161301c565b50858210156130595787850151600019600388901b60f8161c191681555b5050505050600190811b01905550565b634e487b7160e01b600052601160045260246000fd5b60006001820161309157613091613069565b5060010190565b600083516130aa81846020880161295f565b8351908301906130be81836020880161295f565b01949350505050565b6000602082840312156130d957600080fd5b81516112e881612bfa565b6000602082840312156130f657600080fd5b5051919050565b6001600160a01b03858116825284166020820152604081018390526080606082018190526000906115c390830184612983565b60006020828403121561314257600080fd5b81516112e88161292c565b8181038181111561091357610913613069565b60008161316f5761316f613069565b506000190190565b634e487b7160e01b600052603160045260246000fd5b6000825161319f81846020870161295f565b919091019291505056fe45109665e7d289656c1a7520b24dac6d5516e9fb504e0d278146d8a897b5bf0045109665e7d289656c1a7520b24dac6d5516e9fb504e0d278146d8a897b5bf03645e039705490088daad89bae25049a34f4a9072d398537b1ab2425f24cbed0080bb2b638cc20bc4d0a60d66940f3ab4a00c1d7b313497ca82fb0b4ab0079300360894a13ba1a3210667c828492db98dca3e2076cc3735a920a3ca505d382bbc9f2df0fed2c77648de5860a4cc508cd0818c85b8b8a1ab4ceeef8d981c8956a6645e039705490088daad89bae25049a34f4a9072d398537b1ab2425f24cbed0202dd7bc7dec4dceedda775e58dd541e08a116c6c53815c0bd028192f7b626800a264697066735822122041aad541c29831535c96e7e655857abcf299a1d6bf18063a85a1f18d2098af7164736f6c63430008140033",
  "linkReferences": {},
  "deployedLinkReferences": {}
}