{
  "_format": "hh-sol-artifact-1",
  "contractName": "HeroEdition1",
  "sourceName": "contracts/heroes/HeroEdition1.sol",
  "abi": [
    {
      "inputs": [],
      "name": "AccessControlBadConfirmation",
      "type": "error"
    },
    {
      "inputs": [
        {
          "internalType": "address",
          "name": "account",
          "type": "address"
        },
        {
          "internalType": "bytes32",
          "name": "neededRole",
          "type": "bytes32"
        }
      ],
      "name": "AccessControlUnauthorizedAccount",
      "type": "error"
    },
    {
      "inputs": [
        {
          "internalType": "address",
          "name": "target",
          "type": "address"
        }
      ],
      "name": "AddressEmptyCode",
      "type": "error"
    },
    {
      "inputs": [
        {
          "internalType": "address",
          "name": "sender",
          "type": "address"
        }
      ],
      "name": "AlreadyMinted",
      "type": "error"
    },
    {
      "inputs": [
        {
          "internalType": "uint256",
          "name": "id",
          "type": "uint256"
        }
      ],
      "name": "AlreadyUnboxed",
      "type": "error"
    },
    {
      "inputs": [
        {
          "internalType": "address",
          "name": "sender",
          "type": "address"
        },
        {
          "internalType": "address",
          "name": "origin",
          "type": "address"
        }
      ],
      "name": "EOAOnly",
      "type": "error"
    },
    {
      "inputs": [
        {
          "internalType": "address",
          "name": "implementation",
          "type": "address"
        }
      ],
      "name": "ERC1967InvalidImplementation",
      "type": "error"
    },
    {
      "inputs": [],
      "name": "ERC1967NonPayable",
      "type": "error"
    },
    {
      "inputs": [
        {
          "internalType": "uint256",
          "name": "id",
          "type": "uint256"
        },
        {
          "internalType": "uint256",
          "name": "edition",
          "type": "uint256"
        }
      ],
      "name": "EditionMismatched",
      "type": "error"
    },
    {
      "inputs": [],
      "name": "FailedInnerCall",
      "type": "error"
    },
    {
      "inputs": [
        {
          "internalType": "uint256",
          "name": "amount",
          "type": "uint256"
        },
        {
          "internalType": "uint256",
          "name": "expect",
          "type": "uint256"
        }
      ],
      "name": "InsufficientDonation",
      "type": "error"
    },
    {
      "inputs": [],
      "name": "InvalidInitialization",
      "type": "error"
    },
    {
      "inputs": [
        {
          "internalType": "address",
          "name": "from",
          "type": "address"
        },
        {
          "internalType": "uint256",
          "name": "id",
          "type": "uint256"
        }
      ],
      "name": "InvalidOwner",
      "type": "error"
    },
    {
      "inputs": [
        {
          "internalType": "uint256",
          "name": "prob",
          "type": "uint256"
        }
      ],
      "name": "InvalidProb",
      "type": "error"
    },
    {
      "inputs": [],
      "name": "NotInitializing",
      "type": "error"
    },
    {
      "inputs": [],
      "name": "ReentrancyGuardReentrantCall",
      "type": "error"
    },
    {
      "inputs": [],
      "name": "UUPSUnauthorizedCallContext",
      "type": "error"
    },
    {
      "inputs": [
        {
          "internalType": "bytes32",
          "name": "slot",
          "type": "bytes32"
        }
      ],
      "name": "UUPSUnsupportedProxiableUUID",
      "type": "error"
    },
    {
      "anonymous": false,
      "inputs": [
        {
          "indexed": false,
          "internalType": "uint64",
          "name": "version",
          "type": "uint64"
        }
      ],
      "name": "Initialized",
      "type": "event"
    },
    {
      "anonymous": false,
      "inputs": [
        {
          "indexed": true,
          "internalType": "bytes32",
          "name": "role",
          "type": "bytes32"
        },
        {
          "indexed": true,
          "internalType": "bytes32",
          "name": "previousAdminRole",
          "type": "bytes32"
        },
        {
          "indexed": true,
          "internalType": "bytes32",
          "name": "newAdminRole",
          "type": "bytes32"
        }
      ],
      "name": "RoleAdminChanged",
      "type": "event"
    },
    {
      "anonymous": false,
      "inputs": [
        {
          "indexed": true,
          "internalType": "bytes32",
          "name": "role",
          "type": "bytes32"
        },
        {
          "indexed": true,
          "internalType": "address",
          "name": "account",
          "type": "address"
        },
        {
          "indexed": true,
          "internalType": "address",
          "name": "sender",
          "type": "address"
        }
      ],
      "name": "RoleGranted",
      "type": "event"
    },
    {
      "anonymous": false,
      "inputs": [
        {
          "indexed": true,
          "internalType": "bytes32",
          "name": "role",
          "type": "bytes32"
        },
        {
          "indexed": true,
          "internalType": "address",
          "name": "account",
          "type": "address"
        },
        {
          "indexed": true,
          "internalType": "address",
          "name": "sender",
          "type": "address"
        }
      ],
      "name": "RoleRevoked",
      "type": "event"
    },
    {
      "anonymous": false,
      "inputs": [
        {
          "indexed": true,
          "internalType": "address",
          "name": "implementation",
          "type": "address"
        }
      ],
      "name": "Upgraded",
      "type": "event"
    },
    {
      "inputs": [],
      "name": "COMMON_ATK",
      "outputs": [
        {
          "internalType": "uint128",
          "name": "",
          "type": "uint128"
        }
      ],
      "stateMutability": "view",
      "type": "function"
    },
    {
      "inputs": [],
      "name": "COMMON_GROTH",
      "outputs": [
        {
          "internalType": "uint128",
          "name": "",
          "type": "uint128"
        }
      ],
      "stateMutability": "view",
      "type": "function"
    },
    {
      "inputs": [],
      "name": "DEFAULT_ADMIN_ROLE",
      "outputs": [
        {
          "internalType": "bytes32",
          "name": "",
          "type": "bytes32"
        }
      ],
      "stateMutability": "view",
      "type": "function"
    },
    {
      "inputs": [],
      "name": "EPIC_GROTH",
      "outputs": [
        {
          "internalType": "uint128",
          "name": "",
          "type": "uint128"
        }
      ],
      "stateMutability": "view",
      "type": "function"
    },
    {
      "inputs": [],
      "name": "PRECISION",
      "outputs": [
        {
          "internalType": "uint256",
          "name": "",
          "type": "uint256"
        }
      ],
      "stateMutability": "view",
      "type": "function"
    },
    {
      "inputs": [],
      "name": "RARE_GROTH",
      "outputs": [
        {
          "internalType": "uint128",
          "name": "",
          "type": "uint128"
        }
      ],
      "stateMutability": "view",
      "type": "function"
    },
    {
      "inputs": [],
      "name": "UNCOMMON_GROTH",
      "outputs": [
        {
          "internalType": "uint128",
          "name": "",
          "type": "uint128"
        }
      ],
      "stateMutability": "view",
      "type": "function"
    },
    {
      "inputs": [],
      "name": "UPGRADE_INTERFACE_VERSION",
      "outputs": [
        {
          "internalType": "string",
          "name": "",
          "type": "string"
        }
      ],
      "stateMutability": "view",
      "type": "function"
    },
    {
      "inputs": [],
      "name": "freeMint",
      "outputs": [],
      "stateMutability": "payable",
      "type": "function"
    },
    {
      "inputs": [
        {
          "internalType": "address",
          "name": "player",
          "type": "address"
        }
      ],
      "name": "freeMinted",
      "outputs": [
        {
          "internalType": "bool",
          "name": "",
          "type": "bool"
        }
      ],
      "stateMutability": "view",
      "type": "function"
    },
    {
      "inputs": [],
      "name": "getEdition",
      "outputs": [
        {
          "internalType": "uint256",
          "name": "",
          "type": "uint256"
        }
      ],
      "stateMutability": "pure",
      "type": "function"
    },
    {
      "inputs": [],
      "name": "getFee",
      "outputs": [
        {
          "internalType": "uint256",
          "name": "",
          "type": "uint256"
        },
        {
          "internalType": "uint256",
          "name": "",
          "type": "uint256"
        }
      ],
      "stateMutability": "view",
      "type": "function"
    },
    {
      "inputs": [
        {
          "internalType": "bytes32",
          "name": "role",
          "type": "bytes32"
        }
      ],
      "name": "getRoleAdmin",
      "outputs": [
        {
          "internalType": "bytes32",
          "name": "",
          "type": "bytes32"
        }
      ],
      "stateMutability": "view",
      "type": "function"
    },
    {
      "inputs": [
        {
          "internalType": "bytes32",
          "name": "role",
          "type": "bytes32"
        },
        {
          "internalType": "address",
          "name": "account",
          "type": "address"
        }
      ],
      "name": "grantRole",
      "outputs": [],
      "stateMutability": "nonpayable",
      "type": "function"
    },
    {
      "inputs": [
        {
          "internalType": "bytes32",
          "name": "role",
          "type": "bytes32"
        },
        {
          "internalType": "address",
          "name": "account",
          "type": "address"
        }
      ],
      "name": "hasRole",
      "outputs": [
        {
          "internalType": "bool",
          "name": "",
          "type": "bool"
        }
      ],
      "stateMutability": "view",
      "type": "function"
    },
    {
      "inputs": [
        {
          "internalType": "contract Hero",
          "name": "hero",
          "type": "address"
        }
      ],
      "name": "initialize",
      "outputs": [],
      "stateMutability": "nonpayable",
      "type": "function"
    },
    {
      "inputs": [
        {
          "internalType": "uint256",
          "name": "count",
          "type": "uint256"
        }
      ],
      "name": "mint",
      "outputs": [],
      "stateMutability": "payable",
      "type": "function"
    },
    {
      "inputs": [],
      "name": "proxiableUUID",
      "outputs": [
        {
          "internalType": "bytes32",
          "name": "",
          "type": "bytes32"
        }
      ],
      "stateMutability": "view",
      "type": "function"
    },
    {
      "inputs": [
        {
          "internalType": "bytes32",
          "name": "role",
          "type": "bytes32"
        },
        {
          "internalType": "address",
          "name": "callerConfirmation",
          "type": "address"
        }
      ],
      "name": "renounceRole",
      "outputs": [],
      "stateMutability": "nonpayable",
      "type": "function"
    },
    {
      "inputs": [
        {
          "internalType": "bytes32",
          "name": "role",
          "type": "bytes32"
        },
        {
          "internalType": "address",
          "name": "account",
          "type": "address"
        }
      ],
      "name": "revokeRole",
      "outputs": [],
      "stateMutability": "nonpayable",
      "type": "function"
    },
    {
      "inputs": [
        {
          "internalType": "uint256",
          "name": "mintFee",
          "type": "uint256"
        },
        {
          "internalType": "uint256",
          "name": "extraFee",
          "type": "uint256"
        }
      ],
      "name": "setFee",
      "outputs": [],
      "stateMutability": "nonpayable",
      "type": "function"
    },
    {
      "inputs": [
        {
          "internalType": "uint16",
          "name": "_heroTypes",
          "type": "uint16"
        }
      ],
      "name": "setHeroTypes",
      "outputs": [],
      "stateMutability": "nonpayable",
      "type": "function"
    },
    {
      "inputs": [
        {
          "internalType": "bytes4",
          "name": "interfaceId",
          "type": "bytes4"
        }
      ],
      "name": "supportsInterface",
      "outputs": [
        {
          "internalType": "bool",
          "name": "",
          "type": "bool"
        }
      ],
      "stateMutability": "view",
      "type": "function"
    },
    {
      "inputs": [
        {
          "internalType": "uint256[]",
          "name": "ids",
          "type": "uint256[]"
        }
      ],
      "name": "unbox",
      "outputs": [],
      "stateMutability": "nonpayable",
      "type": "function"
    },
    {
      "inputs": [
        {
          "internalType": "address",
          "name": "newImplementation",
          "type": "address"
        },
        {
          "internalType": "bytes",
          "name": "data",
          "type": "bytes"
        }
      ],
      "name": "upgradeToAndCall",
      "outputs": [],
      "stateMutability": "payable",
      "type": "function"
    }
  ],
  "bytecode": "0x60a06040523060805234801561001457600080fd5b5060805161208161003e60003960008181610c9101528181610cba0152610e1401526120816000f3fe6080604052600436106101655760003560e01c806375b8647f116100d1578063a217fddf1161008a578063c4d66de811610064578063c4d66de814610413578063ced72f8714610433578063d22cebe514610499578063d547741f146104bb57600080fd5b8063a217fddf146103aa578063aaf5eb68146103bf578063ad3cb1cc146103d557600080fd5b806375b8647f1461032157806388ac8284146103435780638ca30d8d1461032157806391d148541461035757806394cd0a0614610377578063a0712d681461039757600080fd5b8063479095dc11610123578063479095dc146102755780634f1ef286146102af57806352d1902d146102c257806352f7c988146102d75780635b70ea9f146102f75780636a949d0e146102ff57600080fd5b80626767c91461016a57806301ffc9a71461018c578063248a9ca3146101c15780632f2ff15d146101ef57806336568abe1461020f578063389fcf061461022f575b600080fd5b34801561017657600080fd5b5061018a610185366004611871565b6104db565b005b34801561019857600080fd5b506101ac6101a73660046118e5565b610541565b60405190151581526020015b60405180910390f35b3480156101cd57600080fd5b506101e16101dc36600461190f565b610578565b6040519081526020016101b8565b3480156101fb57600080fd5b5061018a61020a36600461193d565b61059a565b34801561021b57600080fd5b5061018a61022a36600461193d565b6105bc565b34801561023b57600080fd5b506101ac61024a36600461196d565b6001600160a01b03166000908152600080516020611fcc833981519152602052604090205460ff1690565b34801561028157600080fd5b506102976d07800003c00001e00000f000007881565b6040516001600160801b0390911681526020016101b8565b61018a6102bd3660046119f9565b6105f4565b3480156102ce57600080fd5b506101e161060f565b3480156102e357600080fd5b5061018a6102f2366004611aa0565b61062c565b61018a610681565b34801561030b57600080fd5b506102976d03200001900000c800006400003281565b34801561032d57600080fd5b506102976d06400003200001900000c800006481565b34801561034f57600080fd5b5060016101e1565b34801561036357600080fd5b506101ac61037236600461193d565b610903565b34801561038357600080fd5b5061018a610392366004611ac2565b61093b565b61018a6103a536600461190f565b610989565b3480156103b657600080fd5b506101e1600081565b3480156103cb57600080fd5b506101e161271081565b3480156103e157600080fd5b50610406604051806040016040528060058152602001640352e302e360dc1b81525081565b6040516101b89190611b0a565b34801561041f57600080fd5b5061018a61042e36600461196d565b6109b4565b34801561043f57600080fd5b507f10bf0d56dc90d5345826c76e83680f29103443142d20e8f475ff1faf797b8c01547f10bf0d56dc90d5345826c76e83680f29103443142d20e8f475ff1faf797b8c0254604080519283526020830191909152016101b8565b3480156104a557600080fd5b506102976d06e00003700001b80000dc00006e81565b3480156104c757600080fd5b5061018a6104d636600461193d565b610ac2565b6104e3610ade565b32331461051c57335b60405163a9b62e0560e01b81526001600160a01b0390911660048201523260248201526044015b60405180910390fd5b6105268282610b16565b61053d600160008051602061202c83398151915255565b5050565b60006001600160e01b03198216637965db0b60e01b148061057257506301ffc9a760e01b6001600160e01b03198316145b92915050565b600090815260008051602061200c833981519152602052604090206001015490565b6105a382610578565b6105ac81610b54565b6105b68383610b5e565b50505050565b6001600160a01b03811633146105e55760405163334bd91960e11b815260040160405180910390fd5b6105ef8282610c0a565b505050565b6105fc610c86565b61060582610d2b565b61053d8282610d4c565b6000610619610e09565b50600080516020611fec83398151915290565b600061063781610b54565b507f10bf0d56dc90d5345826c76e83680f29103443142d20e8f475ff1faf797b8c01919091557f10bf0d56dc90d5345826c76e83680f29103443142d20e8f475ff1faf797b8c0255565b610689610ade565b32331461069657336104ec565b336000908152600080516020611fcc833981519152602081905260409091205460ff16156106d95760405163449e62bb60e11b8152336004820152602401610513565b806002015434101561070d576002810154604051633ccbfd3b60e11b81523460048201526024810191909152604401610513565b336000818152602083905260408120805460ff191660019081179091559091906107379043611b53565b60405160609290921b6bffffffffffffffffffffffff191660208301524060348201524260548201526074016040516020818303038152906040528051906020012060001c9050610786611853565b60005b60058110156107e8576107aa6107a161271085611b7c565b60006014610e52565b8282600581106107bc576107bc611b90565b6001600160401b039092166020929092020152600e9290921c91806107e081611ba6565b915050610789565b5060038301546001600160a01b031663b1704165343360405180610100016040528061081387610ef3565b61082b906d06400003200001900000c8000064611bbf565b6001600160801b031681526020016d03200001900000c80000640000326001600160801b03168152602001600063ffffffff168152602001600063ffffffff168152602001600563ffffffff168152602001600163ffffffff16815260200160008152602001600115158152506040518463ffffffff1660e01b81526004016108b5929190611c4c565b6000604051808303818588803b1580156108ce57600080fd5b505af11580156108e2573d6000803e3d6000fd5b5050505050505050610901600160008051602061202c83398151915255565b565b600091825260008051602061200c833981519152602090815260408084206001600160a01b0393909316845291905290205460ff1690565b600061094681610b54565b507f10bf0d56dc90d5345826c76e83680f29103443142d20e8f475ff1faf797b8c03805461ffff92909216600160a01b0261ffff60a01b19909216919091179055565b610991610ade565b61099a81610f52565b6109b1600160008051602061202c83398151915255565b50565b7ff0c57e16840df040f15088dc2f81fe391c3923bec73e23a9662efc9c229c6a008054600160401b810460ff1615906001600160401b03166000811580156109f95750825b90506000826001600160401b03166001148015610a155750303b155b905081158015610a23575080155b15610a415760405163f92ee8a960e01b815260040160405180910390fd5b845467ffffffffffffffff191660011785558315610a6b57845460ff60401b1916600160401b1785555b610a74866110eb565b8315610aba57845460ff60401b19168555604051600181527fc7f505b2f371ae2175ee4913f4499e1f2633a7b5936321eed1cdaeb6115181d29060200160405180910390a15b505050505050565b610acb82610578565b610ad481610b54565b6105b68383610c0a565b60008051602061202c833981519152805460011901610b1057604051633ee5aeb560e01b815260040160405180910390fd5b60029055565b60005b818110156105ef57610b42838383818110610b3657610b36611b90565b90506020020135611149565b80610b4c81611ba6565b915050610b19565b6109b181336113bb565b600060008051602061200c833981519152610b798484610903565b610bf9576000848152602082815260408083206001600160a01b03871684529091529020805460ff19166001179055610baf3390565b6001600160a01b0316836001600160a01b0316857f2f8788117e7eff1d82e926ec794901d17c78024a50270940304540a733656f0d60405160405180910390a46001915050610572565b6000915050610572565b5092915050565b600060008051602061200c833981519152610c258484610903565b15610bf9576000848152602082815260408083206001600160a01b0387168085529252808320805460ff1916905551339287917ff6391f5c32d9c69d2a47ea670b442974b53935d1edc7fd64eb21e047a839171b9190a46001915050610572565b306001600160a01b037f0000000000000000000000000000000000000000000000000000000000000000161480610d0d57507f00000000000000000000000000000000000000000000000000000000000000006001600160a01b0316610d01600080516020611fec833981519152546001600160a01b031690565b6001600160a01b031614155b156109015760405163703e46dd60e11b815260040160405180910390fd5b6000610d3681610b54565b6000600080516020611fcc8339815191526105b6565b816001600160a01b03166352d1902d6040518163ffffffff1660e01b8152600401602060405180830381865afa925050508015610da6575060408051601f3d908101601f19168201909252610da391810190611c6a565b60015b610dce57604051634c9c8ce360e01b81526001600160a01b0383166004820152602401610513565b600080516020611fec8339815191528114610dff57604051632a87526960e21b815260048101829052602401610513565b6105ef83836113f4565b306001600160a01b037f000000000000000000000000000000000000000000000000000000000000000016146109015760405163703e46dd60e11b815260040160405180910390fd5b600061271084101580610e655750818310155b15610e8657604051630836f30d60e21b815260048101859052602401610513565b6000610e928484611b53565b905060635b610ea18180611c83565b861015610eba5780610eb281611c9a565b915050610e97565b84606483610ec9846063611b53565b610ed39190611c83565b610edd9190611cb1565b610ee79190611cc5565b925050505b9392505050565b6000805b6005811015610f4c57828160058110610f1257610f12611b90565b60200201516001600160401b0316610f2e836302000000611cd8565b610f389190611bbf565b915080610f4481611ba6565b915050610ef7565b50919050565b600080516020611fcc8339815191526000826001600160401b03811115610f7b57610f7b61198a565b604051908082528060200260200182016040528015610fea57816020015b604080516101008101825260008082526020808301829052928201819052606082018190526080820181905260a0820181905260c0820181905260e08201528252600019909201910181610f995790505b50905060005b8381101561106f57604080516101008101825260008082526020820181905291810182905261dead606082015260056080820152600160a0820181905285015460c082015260e0810191909152825183908390811061105157611051611b90565b6020026020010181905250808061106790611ba6565b915050610ff0565b5060038201546001600160a01b031663c24f7f763433848787600101546110969190611c83565b6040518563ffffffff1660e01b81526004016110b493929190611d03565b6000604051808303818588803b1580156110cd57600080fd5b505af11580156110e1573d6000803e3d6000fd5b5050505050505050565b6110f361144a565b600080516020611fcc83398151915261110a611493565b611112611493565b61111d600033610b5e565b5060030180546001600160a01b03929092166001600160b01b031990921691909117600960a01b179055565b6000600080516020611fcc83398151915290503360038201546040516331a9108f60e11b8152600481018590526001600160a01b039283169290911690636352211e90602401602060405180830381865afa1580156111ac573d6000803e3d6000fd5b505050506040513d601f19601f820116820180604052508101906111d09190611d6d565b6001600160a01b03161461120057604051636a16d40f60e01b815233600482015260248101839052604401610513565b6003810154604051631760945960e01b8152600481018490526000916001600160a01b0316906317609459906024016101a060405180830381865afa15801561124d573d6000803e3d6000fd5b505050506040513d601f19601f820116820180604052508101906112719190611e3e565b90508061014001511561129a5760405163202601db60e11b815260048101849052602401610513565b60e081015163ffffffff166001146112cf576040516332d2d2a960e11b81526004810184905260016024820152604401610513565b6000806000806112de8761149b565b9350935093509350846040015163ffffffff1661dead14611300575060408401515b600386015460408051610100810182526001600160801b0380881682528616602082015263ffffffff808616828401528416606082015260056080820152600160a08201819052600060c083015260e082015290516359a9a04160e11b81526001600160a01b039092169163b353408291611380918b9190600401611f1a565b600060405180830381600087803b15801561139a57600080fd5b505af11580156113ae573d6000803e3d6000fd5b5050505050505050505050565b6113c58282610903565b61053d5760405163e2517d3f60e01b81526001600160a01b038216600482015260248101839052604401610513565b6113fd82611675565b6040516001600160a01b038316907fbc7cd75a20ee27fd9adebab32041f755214dbc6bffa90cc0225b39da2e5c2d3b90600090a2805115611442576105ef82826116da565b61053d611750565b7ff0c57e16840df040f15088dc2f81fe391c3923bec73e23a9662efc9c229c6a0054600160401b900460ff1661090157604051631afcd79f60e31b815260040160405180910390fd5b61090161144a565b6000808080600080516020611fcc833981519152816114b98761176f565b60038301549091506114d690600160a01b900461ffff1682611b7c565b925060021c6114e3611853565b6000805b6005811015611569576115086114ff61271086611b7c565b607860dc610e52565b83826005811061151a5761151a611b90565b6001600160401b039092166020929092020152600e9390931c9282816005811061154657611546611b90565b60200201516115559083611f2f565b91508061156181611ba6565b9150506114e7565b50611575600582611f4f565b6040805180820190915260a1815260b360208201526001975090915060005b60028110156115ed578181600281106115af576115af611b90565b60200201516001600160401b0316836001600160401b031611156115db576115d8600189611f75565b97505b806115e581611ba6565b915050611594565b506115f783610ef3565b604080516060810182526d03200001900000c800006400003281526d06e00003700001b80000dc00006e60208201526d07800003c00001e00000f0000078918101919091529099508061164b60018a611f92565b63ffffffff166003811061166157611661611b90565b602002015198505050505050509193509193565b806001600160a01b03163b6000036116ab57604051634c9c8ce360e01b81526001600160a01b0382166004820152602401610513565b600080516020611fec83398151915280546001600160a01b0319166001600160a01b0392909216919091179055565b6060600080846001600160a01b0316846040516116f79190611faf565b600060405180830381855af49150503d8060008114611732576040519150601f19603f3d011682016040523d82523d6000602084013e611737565b606091505b50915091506117478583836117ce565b95945050505050565b34156109015760405163b398979f60e01b815260040160405180910390fd5b60003361177d600143611b53565b60405160609290921b6bffffffffffffffffffffffff191660208301524060348201526054810183905242607482015260940160408051601f19818403018152919052805160209091012092915050565b6060826117e3576117de8261182a565b610eec565b81511580156117fa57506001600160a01b0384163b155b1561182357604051639996b31560e01b81526001600160a01b0385166004820152602401610513565b5080610eec565b80511561183a5780518082602001fd5b604051630a12f52160e11b815260040160405180910390fd5b6040518060a001604052806005906020820280368337509192915050565b6000806020838503121561188457600080fd5b82356001600160401b038082111561189b57600080fd5b818501915085601f8301126118af57600080fd5b8135818111156118be57600080fd5b8660208260051b85010111156118d357600080fd5b60209290920196919550909350505050565b6000602082840312156118f757600080fd5b81356001600160e01b031981168114610eec57600080fd5b60006020828403121561192157600080fd5b5035919050565b6001600160a01b03811681146109b157600080fd5b6000806040838503121561195057600080fd5b82359150602083013561196281611928565b809150509250929050565b60006020828403121561197f57600080fd5b8135610eec81611928565b634e487b7160e01b600052604160045260246000fd5b60405161016081016001600160401b03811182821017156119c3576119c361198a565b60405290565b604051601f8201601f191681016001600160401b03811182821017156119f1576119f161198a565b604052919050565b60008060408385031215611a0c57600080fd5b8235611a1781611928565b91506020838101356001600160401b0380821115611a3457600080fd5b818601915086601f830112611a4857600080fd5b813581811115611a5a57611a5a61198a565b611a6c601f8201601f191685016119c9565b91508082528784828501011115611a8257600080fd5b80848401858401376000848284010152508093505050509250929050565b60008060408385031215611ab357600080fd5b50508035926020909101359150565b600060208284031215611ad457600080fd5b813561ffff81168114610eec57600080fd5b60005b83811015611b01578181015183820152602001611ae9565b50506000910152565b6020815260008251806020840152611b29816040850160208701611ae6565b601f01601f19169190910160400192915050565b634e487b7160e01b600052601160045260246000fd5b8181038181111561057257610572611b3d565b634e487b7160e01b600052601260045260246000fd5b600082611b8b57611b8b611b66565b500690565b634e487b7160e01b600052603260045260246000fd5b600060018201611bb857611bb8611b3d565b5060010190565b6001600160801b03818116838216019080821115610c0357610c03611b3d565b6001600160801b0380825116835280602083015116602084015250604081015163ffffffff80821660408501528060608401511660608501528060808401511660808501528060a08401511660a0850152505060c081015160c083015260e0810151151560e08301525050565b6001600160a01b03831681526101208101610eec6020830184611bdf565b600060208284031215611c7c57600080fd5b5051919050565b808202811582820484141761057257610572611b3d565b600081611ca957611ca9611b3d565b506000190190565b600082611cc057611cc0611b66565b500490565b8082018082111561057257610572611b3d565b6001600160801b03818116838216028082169190828114611cfb57611cfb611b3d565b505092915050565b6001600160a01b038416815260606020808301829052845191830182905260009185820191906080850190845b81811015611d5757611d43838651611bdf565b938301936101009290920191600101611d30565b5050809350505050826040830152949350505050565b600060208284031215611d7f57600080fd5b8151610eec81611928565b80516001600160801b0381168114611da157600080fd5b919050565b805163ffffffff81168114611da157600080fd5b600082601f830112611dcb57600080fd5b604051606081018181106001600160401b0382111715611ded57611ded61198a565b604052806060840185811115611e0257600080fd5b845b81811015611e2357611e1581611d8a565b835260209283019201611e04565b509195945050505050565b80518015158114611da157600080fd5b60006101a08284031215611e5157600080fd5b611e596119a0565b611e6283611d8a565b8152611e7060208401611da6565b6020820152611e8160408401611da6565b6040820152611e9260608401611da6565b6060820152611ea360808401611da6565b6080820152611eb460a08401611da6565b60a0820152611ec560c08401611da6565b60c0820152611ed660e08401611da6565b60e0820152610100611ee9818501611d8a565b90820152610120611efc85858301611dba565b90820152611f0d6101808401611e2e565b6101408201529392505050565b8281526101208101610eec6020830184611bdf565b6001600160401b03818116838216019080821115610c0357610c03611b3d565b60006001600160401b0380841680611f6957611f69611b66565b92169190910492915050565b63ffffffff818116838216019080821115610c0357610c03611b3d565b63ffffffff828116828216039080821115610c0357610c03611b3d565b60008251611fc1818460208701611ae6565b919091019291505056fe10bf0d56dc90d5345826c76e83680f29103443142d20e8f475ff1faf797b8c00360894a13ba1a3210667c828492db98dca3e2076cc3735a920a3ca505d382bbc02dd7bc7dec4dceedda775e58dd541e08a116c6c53815c0bd028192f7b6268009b779b17422d0df92223018b32b4d1fa46e071723d6817e2486d003becc55f00a2646970667358221220a8cdb0a7869e2ffcc4d88b3ab7a7c28feb55c853f6f2887599a8419982103e2664736f6c63430008140033",
  "linkReferences": {},
  "deployedLinkReferences": {}
}