{
  "_format": "hh-sol-artifact-1",
  "contractName": "HeroEdition2",
  "sourceName": "contracts/heroes/HeroEdition2.sol",
  "abi": [
    {
      "inputs": [],
      "name": "AccessControlBadConfirmation",
      "type": "error"
    },
    {
      "inputs": [
        {
          "internalType": "address",
          "name": "account",
          "type": "address"
        },
        {
          "internalType": "bytes32",
          "name": "neededRole",
          "type": "bytes32"
        }
      ],
      "name": "AccessControlUnauthorizedAccount",
      "type": "error"
    },
    {
      "inputs": [
        {
          "internalType": "address",
          "name": "target",
          "type": "address"
        }
      ],
      "name": "AddressEmptyCode",
      "type": "error"
    },
    {
      "inputs": [
        {
          "internalType": "uint256",
          "name": "id",
          "type": "uint256"
        }
      ],
      "name": "AlreadyUnboxed",
      "type": "error"
    },
    {
      "inputs": [
        {
          "internalType": "address",
          "name": "sender",
          "type": "address"
        },
        {
          "internalType": "address",
          "name": "origin",
          "type": "address"
        }
      ],
      "name": "EOAOnly",
      "type": "error"
    },
    {
      "inputs": [
        {
          "internalType": "address",
          "name": "implementation",
          "type": "address"
        }
      ],
      "name": "ERC1967InvalidImplementation",
      "type": "error"
    },
    {
      "inputs": [],
      "name": "ERC1967NonPayable",
      "type": "error"
    },
    {
      "inputs": [
        {
          "internalType": "uint256",
          "name": "id",
          "type": "uint256"
        },
        {
          "internalType": "uint256",
          "name": "edition",
          "type": "uint256"
        }
      ],
      "name": "EditionMismatched",
      "type": "error"
    },
    {
      "inputs": [],
      "name": "FailedInnerCall",
      "type": "error"
    },
    {
      "inputs": [],
      "name": "InSufficientStake",
      "type": "error"
    },
    {
      "inputs": [],
      "name": "InvalidInitialization",
      "type": "error"
    },
    {
      "inputs": [
        {
          "internalType": "address",
          "name": "from",
          "type": "address"
        },
        {
          "internalType": "uint256",
          "name": "id",
          "type": "uint256"
        }
      ],
      "name": "InvalidOwner",
      "type": "error"
    },
    {
      "inputs": [
        {
          "internalType": "uint256",
          "name": "prob",
          "type": "uint256"
        }
      ],
      "name": "InvalidProb",
      "type": "error"
    },
    {
      "inputs": [],
      "name": "MaxMintExceeded",
      "type": "error"
    },
    {
      "inputs": [],
      "name": "MaxMintExceededPerStaker",
      "type": "error"
    },
    {
      "inputs": [],
      "name": "NoMint",
      "type": "error"
    },
    {
      "inputs": [],
      "name": "NotInitializing",
      "type": "error"
    },
    {
      "inputs": [],
      "name": "ReentrancyGuardReentrantCall",
      "type": "error"
    },
    {
      "inputs": [],
      "name": "RevealTimeNotReached",
      "type": "error"
    },
    {
      "inputs": [
        {
          "internalType": "address",
          "name": "stakeToken",
          "type": "address"
        }
      ],
      "name": "StakeTokenNotAllowed",
      "type": "error"
    },
    {
      "inputs": [],
      "name": "StakerMintNotAllowed",
      "type": "error"
    },
    {
      "inputs": [],
      "name": "UUPSUnauthorizedCallContext",
      "type": "error"
    },
    {
      "inputs": [
        {
          "internalType": "bytes32",
          "name": "slot",
          "type": "bytes32"
        }
      ],
      "name": "UUPSUnsupportedProxiableUUID",
      "type": "error"
    },
    {
      "anonymous": false,
      "inputs": [
        {
          "indexed": false,
          "internalType": "uint64",
          "name": "version",
          "type": "uint64"
        }
      ],
      "name": "Initialized",
      "type": "event"
    },
    {
      "anonymous": false,
      "inputs": [
        {
          "indexed": true,
          "internalType": "bytes32",
          "name": "role",
          "type": "bytes32"
        },
        {
          "indexed": true,
          "internalType": "bytes32",
          "name": "previousAdminRole",
          "type": "bytes32"
        },
        {
          "indexed": true,
          "internalType": "bytes32",
          "name": "newAdminRole",
          "type": "bytes32"
        }
      ],
      "name": "RoleAdminChanged",
      "type": "event"
    },
    {
      "anonymous": false,
      "inputs": [
        {
          "indexed": true,
          "internalType": "bytes32",
          "name": "role",
          "type": "bytes32"
        },
        {
          "indexed": true,
          "internalType": "address",
          "name": "account",
          "type": "address"
        },
        {
          "indexed": true,
          "internalType": "address",
          "name": "sender",
          "type": "address"
        }
      ],
      "name": "RoleGranted",
      "type": "event"
    },
    {
      "anonymous": false,
      "inputs": [
        {
          "indexed": true,
          "internalType": "bytes32",
          "name": "role",
          "type": "bytes32"
        },
        {
          "indexed": true,
          "internalType": "address",
          "name": "account",
          "type": "address"
        },
        {
          "indexed": true,
          "internalType": "address",
          "name": "sender",
          "type": "address"
        }
      ],
      "name": "RoleRevoked",
      "type": "event"
    },
    {
      "anonymous": false,
      "inputs": [
        {
          "indexed": true,
          "internalType": "address",
          "name": "staker",
          "type": "address"
        },
        {
          "indexed": false,
          "internalType": "uint256",
          "name": "mintAmt",
          "type": "uint256"
        }
      ],
      "name": "StakerMint",
      "type": "event"
    },
    {
      "anonymous": false,
      "inputs": [
        {
          "indexed": true,
          "internalType": "address",
          "name": "staker",
          "type": "address"
        },
        {
          "indexed": false,
          "internalType": "uint256[]",
          "name": "ids",
          "type": "uint256[]"
        }
      ],
      "name": "StakerUnbox",
      "type": "event"
    },
    {
      "anonymous": false,
      "inputs": [
        {
          "indexed": true,
          "internalType": "address",
          "name": "implementation",
          "type": "address"
        }
      ],
      "name": "Upgraded",
      "type": "event"
    },
    {
      "inputs": [],
      "name": "COMMON_ATK",
      "outputs": [
        {
          "internalType": "uint128",
          "name": "",
          "type": "uint128"
        }
      ],
      "stateMutability": "view",
      "type": "function"
    },
    {
      "inputs": [],
      "name": "COMMON_GROTH",
      "outputs": [
        {
          "internalType": "uint128",
          "name": "",
          "type": "uint128"
        }
      ],
      "stateMutability": "view",
      "type": "function"
    },
    {
      "inputs": [],
      "name": "DEFAULT_ADMIN_ROLE",
      "outputs": [
        {
          "internalType": "bytes32",
          "name": "",
          "type": "bytes32"
        }
      ],
      "stateMutability": "view",
      "type": "function"
    },
    {
      "inputs": [],
      "name": "EPIC_GROTH",
      "outputs": [
        {
          "internalType": "uint128",
          "name": "",
          "type": "uint128"
        }
      ],
      "stateMutability": "view",
      "type": "function"
    },
    {
      "inputs": [],
      "name": "PRECISION",
      "outputs": [
        {
          "internalType": "uint256",
          "name": "",
          "type": "uint256"
        }
      ],
      "stateMutability": "view",
      "type": "function"
    },
    {
      "inputs": [],
      "name": "RARE_GROTH",
      "outputs": [
        {
          "internalType": "uint128",
          "name": "",
          "type": "uint128"
        }
      ],
      "stateMutability": "view",
      "type": "function"
    },
    {
      "inputs": [],
      "name": "UNCOMMON_GROTH",
      "outputs": [
        {
          "internalType": "uint128",
          "name": "",
          "type": "uint128"
        }
      ],
      "stateMutability": "view",
      "type": "function"
    },
    {
      "inputs": [],
      "name": "UPGRADE_INTERFACE_VERSION",
      "outputs": [
        {
          "internalType": "string",
          "name": "",
          "type": "string"
        }
      ],
      "stateMutability": "view",
      "type": "function"
    },
    {
      "inputs": [
        {
          "internalType": "address[]",
          "name": "_tokens",
          "type": "address[]"
        }
      ],
      "name": "addStakingTokens",
      "outputs": [],
      "stateMutability": "nonpayable",
      "type": "function"
    },
    {
      "inputs": [],
      "name": "freeMint",
      "outputs": [],
      "stateMutability": "payable",
      "type": "function"
    },
    {
      "inputs": [
        {
          "internalType": "address",
          "name": "player",
          "type": "address"
        }
      ],
      "name": "freeMinted",
      "outputs": [
        {
          "internalType": "bool",
          "name": "",
          "type": "bool"
        }
      ],
      "stateMutability": "view",
      "type": "function"
    },
    {
      "inputs": [],
      "name": "getEdition",
      "outputs": [
        {
          "internalType": "uint256",
          "name": "",
          "type": "uint256"
        }
      ],
      "stateMutability": "pure",
      "type": "function"
    },
    {
      "inputs": [],
      "name": "getFee",
      "outputs": [
        {
          "internalType": "uint256",
          "name": "",
          "type": "uint256"
        },
        {
          "internalType": "uint256",
          "name": "",
          "type": "uint256"
        }
      ],
      "stateMutability": "view",
      "type": "function"
    },
    {
      "inputs": [],
      "name": "getMaxStakersMint",
      "outputs": [
        {
          "internalType": "uint256",
          "name": "",
          "type": "uint256"
        }
      ],
      "stateMutability": "view",
      "type": "function"
    },
    {
      "inputs": [],
      "name": "getMinStake",
      "outputs": [
        {
          "internalType": "uint256",
          "name": "",
          "type": "uint256"
        }
      ],
      "stateMutability": "view",
      "type": "function"
    },
    {
      "inputs": [
        {
          "internalType": "address",
          "name": "_stakeToken",
          "type": "address"
        },
        {
          "internalType": "address",
          "name": "_staker",
          "type": "address"
        }
      ],
      "name": "getMintAmount",
      "outputs": [
        {
          "internalType": "uint256",
          "name": "",
          "type": "uint256"
        },
        {
          "internalType": "enum HeroEdition2.MintAmountError",
          "name": "",
          "type": "uint8"
        }
      ],
      "stateMutability": "view",
      "type": "function"
    },
    {
      "inputs": [],
      "name": "getRevealTime",
      "outputs": [
        {
          "internalType": "uint32",
          "name": "",
          "type": "uint32"
        }
      ],
      "stateMutability": "view",
      "type": "function"
    },
    {
      "inputs": [
        {
          "internalType": "bytes32",
          "name": "role",
          "type": "bytes32"
        }
      ],
      "name": "getRoleAdmin",
      "outputs": [
        {
          "internalType": "bytes32",
          "name": "",
          "type": "bytes32"
        }
      ],
      "stateMutability": "view",
      "type": "function"
    },
    {
      "inputs": [],
      "name": "getStaker",
      "outputs": [
        {
          "internalType": "address",
          "name": "",
          "type": "address"
        }
      ],
      "stateMutability": "view",
      "type": "function"
    },
    {
      "inputs": [
        {
          "internalType": "address",
          "name": "_staker",
          "type": "address"
        }
      ],
      "name": "getStakerMinted",
      "outputs": [
        {
          "internalType": "uint256",
          "name": "",
          "type": "uint256"
        }
      ],
      "stateMutability": "view",
      "type": "function"
    },
    {
      "inputs": [],
      "name": "getTotalMinted",
      "outputs": [
        {
          "internalType": "uint16",
          "name": "",
          "type": "uint16"
        }
      ],
      "stateMutability": "view",
      "type": "function"
    },
    {
      "inputs": [
        {
          "internalType": "bytes32",
          "name": "role",
          "type": "bytes32"
        },
        {
          "internalType": "address",
          "name": "account",
          "type": "address"
        }
      ],
      "name": "grantRole",
      "outputs": [],
      "stateMutability": "nonpayable",
      "type": "function"
    },
    {
      "inputs": [
        {
          "internalType": "bytes32",
          "name": "role",
          "type": "bytes32"
        },
        {
          "internalType": "address",
          "name": "account",
          "type": "address"
        }
      ],
      "name": "hasRole",
      "outputs": [
        {
          "internalType": "bool",
          "name": "",
          "type": "bool"
        }
      ],
      "stateMutability": "view",
      "type": "function"
    },
    {
      "inputs": [
        {
          "internalType": "contract Hero",
          "name": "hero",
          "type": "address"
        }
      ],
      "name": "initialize",
      "outputs": [],
      "stateMutability": "nonpayable",
      "type": "function"
    },
    {
      "inputs": [
        {
          "internalType": "contract Hero",
          "name": "hero",
          "type": "address"
        },
        {
          "internalType": "address",
          "name": "_staker",
          "type": "address"
        },
        {
          "internalType": "uint32",
          "name": "_revealTime",
          "type": "uint32"
        },
        {
          "internalType": "uint16",
          "name": "_heroTypes",
          "type": "uint16"
        },
        {
          "internalType": "uint16",
          "name": "_maxMintPerStaker",
          "type": "uint16"
        },
        {
          "internalType": "address[]",
          "name": "_allowedStakeTokens",
          "type": "address[]"
        }
      ],
      "name": "initialize2",
      "outputs": [],
      "stateMutability": "nonpayable",
      "type": "function"
    },
    {
      "inputs": [
        {
          "internalType": "address",
          "name": "_stakeToken",
          "type": "address"
        }
      ],
      "name": "mint",
      "outputs": [],
      "stateMutability": "payable",
      "type": "function"
    },
    {
      "inputs": [
        {
          "internalType": "uint256",
          "name": "count",
          "type": "uint256"
        }
      ],
      "name": "mint",
      "outputs": [],
      "stateMutability": "payable",
      "type": "function"
    },
    {
      "inputs": [],
      "name": "proxiableUUID",
      "outputs": [
        {
          "internalType": "bytes32",
          "name": "",
          "type": "bytes32"
        }
      ],
      "stateMutability": "view",
      "type": "function"
    },
    {
      "inputs": [
        {
          "internalType": "address[]",
          "name": "_tokens",
          "type": "address[]"
        }
      ],
      "name": "removeStakingTokens",
      "outputs": [],
      "stateMutability": "nonpayable",
      "type": "function"
    },
    {
      "inputs": [
        {
          "internalType": "bytes32",
          "name": "role",
          "type": "bytes32"
        },
        {
          "internalType": "address",
          "name": "callerConfirmation",
          "type": "address"
        }
      ],
      "name": "renounceRole",
      "outputs": [],
      "stateMutability": "nonpayable",
      "type": "function"
    },
    {
      "inputs": [
        {
          "internalType": "bytes32",
          "name": "role",
          "type": "bytes32"
        },
        {
          "internalType": "address",
          "name": "account",
          "type": "address"
        }
      ],
      "name": "revokeRole",
      "outputs": [],
      "stateMutability": "nonpayable",
      "type": "function"
    },
    {
      "inputs": [
        {
          "internalType": "uint256",
          "name": "mintFee",
          "type": "uint256"
        },
        {
          "internalType": "uint256",
          "name": "extraFee",
          "type": "uint256"
        }
      ],
      "name": "setFee",
      "outputs": [],
      "stateMutability": "nonpayable",
      "type": "function"
    },
    {
      "inputs": [
        {
          "internalType": "uint16",
          "name": "_heroTypes",
          "type": "uint16"
        }
      ],
      "name": "setHeroTypes",
      "outputs": [],
      "stateMutability": "nonpayable",
      "type": "function"
    },
    {
      "inputs": [
        {
          "internalType": "uint16",
          "name": "_maxMintPerStaker",
          "type": "uint16"
        }
      ],
      "name": "setMaxMintPerStaker",
      "outputs": [],
      "stateMutability": "nonpayable",
      "type": "function"
    },
    {
      "inputs": [
        {
          "internalType": "uint256",
          "name": "_minStake",
          "type": "uint256"
        }
      ],
      "name": "setMinStake",
      "outputs": [],
      "stateMutability": "nonpayable",
      "type": "function"
    },
    {
      "inputs": [
        {
          "internalType": "uint32",
          "name": "_revealTime",
          "type": "uint32"
        }
      ],
      "name": "setRevealTime",
      "outputs": [],
      "stateMutability": "nonpayable",
      "type": "function"
    },
    {
      "inputs": [
        {
          "internalType": "address",
          "name": "_staker",
          "type": "address"
        }
      ],
      "name": "setStaker",
      "outputs": [],
      "stateMutability": "nonpayable",
      "type": "function"
    },
    {
      "inputs": [
        {
          "internalType": "bool",
          "name": "_isAllowed",
          "type": "bool"
        }
      ],
      "name": "setStakingMintAllowed",
      "outputs": [],
      "stateMutability": "nonpayable",
      "type": "function"
    },
    {
      "inputs": [
        {
          "internalType": "bytes4",
          "name": "interfaceId",
          "type": "bytes4"
        }
      ],
      "name": "supportsInterface",
      "outputs": [
        {
          "internalType": "bool",
          "name": "",
          "type": "bool"
        }
      ],
      "stateMutability": "view",
      "type": "function"
    },
    {
      "inputs": [
        {
          "internalType": "uint256[]",
          "name": "ids",
          "type": "uint256[]"
        }
      ],
      "name": "unbox",
      "outputs": [],
      "stateMutability": "nonpayable",
      "type": "function"
    },
    {
      "inputs": [
        {
          "internalType": "address",
          "name": "newImplementation",
          "type": "address"
        },
        {
          "internalType": "bytes",
          "name": "data",
          "type": "bytes"
        }
      ],
      "name": "upgradeToAndCall",
      "outputs": [],
      "stateMutability": "payable",
      "type": "function"
    }
  ],
  "bytecode": "0x60a06040523060805234801561001457600080fd5b50608051612dc961003e600039600081816117040152818161172d01526118870152612dc96000f3fe6080604052600436106102455760003560e01c80636a949d0e11610139578063a29a43bb116100b6578063d22cebe51161007a578063d22cebe514610703578063d547741f14610725578063e136b80a14610745578063ea61e4aa14610765578063f4d1765914610785578063fc5611b7146107a557600080fd5b8063a29a43bb14610609578063aaf5eb6814610629578063ad3cb1cc1461063f578063c4d66de81461067d578063ced72f871461069d57600080fd5b80638ca30d8d116100fd5780638ca30d8d1461054b57806391d14854146105a157806394cd0a06146105c1578063a0712d68146105e1578063a217fddf146105f457600080fd5b80636a949d0e146104fc57806372b45a551461051e57806375b8647f1461054b57806388ac82841461056d5780638c80fd901461058157600080fd5b8063479095dc116101c757806352f7c9881161018b57806352f7c9881461048c57806356a3b5fa146104ac5780635923e9dc146104c15780635b70ea9f146104e15780636a627842146104e957600080fd5b8063479095dc146103e75780634b566bc6146104215780634e5bcd46146104365780634f1ef2861461046457806352d1902d1461047757600080fd5b8063248a9ca31161020e578063248a9ca3146103135780632f2ff15d1461034157806336568abe14610361578063389fcf061461038157806342133fdb146103c757600080fd5b80626767c91461024a57806301ffc9a71461026c5780630ca1c5c9146102a1578063157b0448146102c95780631e3be77b146102f3575b600080fd5b34801561025657600080fd5b5061026a61026536600461242b565b6107c5565b005b34801561027857600080fd5b5061028c61028736600461246c565b61089b565b60405190151581526020015b60405180910390f35b3480156102ad57600080fd5b506102b66108d2565b60405161ffff9091168152602001610298565b3480156102d557600080fd5b506102de6108f3565b60405163ffffffff9091168152602001610298565b3480156102ff57600080fd5b5061026a61030e36600461242b565b61090e565b34801561031f57600080fd5b5061033361032e366004612496565b6109a0565b604051908152602001610298565b34801561034d57600080fd5b5061026a61035c3660046124c4565b6109c2565b34801561036d57600080fd5b5061026a61037c3660046124c4565b6109e4565b34801561038d57600080fd5b5061028c61039c3660046124f4565b6001600160a01b03166000908152600080516020612d14833981519152602052604090205460ff1690565b3480156103d357600080fd5b506103336103e23660046124f4565b610a1c565b3480156103f357600080fd5b506104096d07800003c00001e00000f000007881565b6040516001600160801b039091168152602001610298565b34801561042d57600080fd5b50610333610a49565b34801561044257600080fd5b50610456610451366004612511565b610a5e565b604051610298929190612555565b61026a6104723660046125f6565b610cf2565b34801561048357600080fd5b50610333610d0d565b34801561049857600080fd5b5061026a6104a736600461269d565b610d2a565b3480156104b857600080fd5b50610333610d7f565b3480156104cd57600080fd5b5061026a6104dc3660046126d6565b610d94565b61026a610dd2565b61026a6104f73660046124f4565b610df3565b34801561050857600080fd5b506104096d03200001900000c800006400003281565b34801561052a57600080fd5b50610533610f2b565b6040516001600160a01b039091168152602001610298565b34801561055757600080fd5b506104096d06400003200001900000c800006481565b34801561057957600080fd5b506002610333565b34801561058d57600080fd5b5061026a61059c366004612496565b610f46565b3480156105ad57600080fd5b5061028c6105bc3660046124c4565b610f66565b3480156105cd57600080fd5b5061026a6105dc3660046126d6565b610f9e565b61026a6105ef366004612496565b610fec565b34801561060057600080fd5b50610333600081565b34801561061557600080fd5b5061026a6106243660046124f4565b61100b565b34801561063557600080fd5b5061033361271081565b34801561064b57600080fd5b50610670604051806040016040528060058152602001640352e302e360dc1b81525081565b6040516102989190612715565b34801561068957600080fd5b5061026a6106983660046124f4565b611043565b3480156106a957600080fd5b507f10bf0d56dc90d5345826c76e83680f29103443142d20e8f475ff1faf797b8c01547f10bf0d56dc90d5345826c76e83680f29103443142d20e8f475ff1faf797b8c025460408051928352602083019190915201610298565b34801561070f57600080fd5b506104096d06e00003700001b80000dc00006e81565b34801561073157600080fd5b5061026a6107403660046124c4565b611151565b34801561075157600080fd5b5061026a61076036600461242b565b61116d565b34801561077157600080fd5b5061026a61078036600461275a565b6111f8565b34801561079157600080fd5b5061026a6107a03660046127f6565b61147b565b3480156107b157600080fd5b5061026a6107c0366004612821565b6114b0565b6107cd6114e7565b3233146107fa5760405163a9b62e0560e01b81523360048201523260248201526044015b60405180910390fd5b600061080461151f565b600381015490915063ffffffff164210156108325760405163189d1d1560e01b815260040160405180910390fd5b61083c8383611543565b336001600160a01b03167fefd58bc2da3d45d032423f61c03f4cc18e0c1a659dafb8ecb86329e90bbaceb9848460405161087792919061283e565b60405180910390a2506108976001600080516020612d7483398151915255565b5050565b60006001600160e01b03198216637965db0b60e01b14806108cc57506301ffc9a760e01b6001600160e01b03198316145b92915050565b6000806108dd61151f565b60030154640100000000900461ffff1692915050565b6000806108fe61151f565b6003015463ffffffff1692915050565b600061091981611581565b600061092361151f565b905060005b8381101561099957600082600201600087878581811061094a5761094a612877565b905060200201602081019061095f91906124f4565b6001600160a01b031681526020810191909152604001600020805460ff191691151591909117905580610991816128a3565b915050610928565b5050505050565b6000908152600080516020612d54833981519152602052604090206001015490565b6109cb826109a0565b6109d481611581565b6109de838361158b565b50505050565b6001600160a01b0381163314610a0d5760405163334bd91960e11b815260040160405180910390fd5b610a178282611637565b505050565b600080610a2761151f565b6001600160a01b03909316600090815260019093016020525050604090205490565b600080610a5461151f565b6005015492915050565b6000806000610a6b61151f565b6001600160a01b038616600090815260028201602052604081205491925060ff90911615159003610aa457600060019250925050610ceb565b6003810154600160301b900461ffff1615801590610aec575060038101546001600160a01b0385166000908152600183016020526040902054600160301b90910461ffff1611155b15610aff57600060029250925050610ceb565b60058101546003820154640100000000900461ffff1610610b2857600060039250925050610ceb565b8054604051630f208beb60e01b81526001600160a01b03868116600483015287811660248301526000921690630f208beb906044016040805180830381865afa158015610b79573d6000803e3d6000fd5b505050506040513d601f19601f82011682018060405250810190610b9d91906128bc565b9150508160040154811015610bbb5760006004935093505050610ceb565b60048201546001600160a01b03861660009081526001840160205260408120549091610be9918491906116b3565b6003840154909150600160301b900461ffff1615801590610c3f575060038301546001600160a01b0387166000908152600185016020526040902054600160301b90910461ffff1690610c3d9083906128e0565b115b15610c80576001600160a01b03861660009081526001840160205260409020546003840154610c799190600160301b900461ffff166128f3565b9050610cca565b60058301546003840154610ca1908390640100000000900461ffff166128e0565b1115610cca5760038301546005840154610cc791640100000000900461ffff16906128f3565b90505b80600003610ce2576000600594509450505050610ceb565b93506000925050505b9250929050565b610cfa6116f9565b610d038261179e565b61089782826117bf565b6000610d1761187c565b50600080516020612d3483398151915290565b6000610d3581611581565b507f10bf0d56dc90d5345826c76e83680f29103443142d20e8f475ff1faf797b8c01919091557f10bf0d56dc90d5345826c76e83680f29103443142d20e8f475ff1faf797b8c0255565b600080610d8a61151f565b6004015492915050565b6000610d9f81611581565b6000610da961151f565b600301805461ffff909416600160301b0267ffff00000000000019909416939093179092555050565b610dda6114e7565b610df16001600080516020612d7483398151915255565b565b610dfb6114e7565b6000610e0561151f565b6003810154909150600160401b900460ff16610e34576040516370bdd3a360e11b815260040160405180910390fd5b600080610e418433610a5e565b91509150610e4f81856118c5565b610e58826119ca565b6000610e6261151f565b336000908152600182016020526040812080549293508592909190610e889084906128e0565b9091555050600381018054849190600490610eb0908490640100000000900461ffff16612906565b92506101000a81548161ffff021916908361ffff160217905550336001600160a01b03167fe974ced8b9bb376d9c4cda72f5bff9c8b2f27f9d94c5fcdb980e9de4922bd36d84604051610f0591815260200190565b60405180910390a250505050610f286001600080516020612d7483398151915255565b50565b600080610f3661151f565b546001600160a01b031692915050565b6000610f5181611581565b6000610f5b61151f565b600401929092555050565b6000918252600080516020612d54833981519152602090815260408084206001600160a01b0393909316845291905290205460ff1690565b6000610fa981611581565b507f10bf0d56dc90d5345826c76e83680f29103443142d20e8f475ff1faf797b8c03805461ffff92909216600160a01b0261ffff60a01b19909216919091179055565b610ff46114e7565b610f286001600080516020612d7483398151915255565b600061101681611581565b600061102061151f565b80546001600160a01b0319166001600160a01b0394909416939093179092555050565b7ff0c57e16840df040f15088dc2f81fe391c3923bec73e23a9662efc9c229c6a008054600160401b810460ff1615906001600160401b03166000811580156110885750825b90506000826001600160401b031660011480156110a45750303b155b9050811580156110b2575080155b156110d05760405163f92ee8a960e01b815260040160405180910390fd5b845467ffffffffffffffff1916600117855583156110fa57845460ff60401b1916600160401b1785555b61110386611b63565b831561114957845460ff60401b19168555604051600181527fc7f505b2f371ae2175ee4913f4499e1f2633a7b5936321eed1cdaeb6115181d29060200160405180910390a15b505050505050565b61115a826109a0565b61116381611581565b6109de8383611637565b600061117881611581565b600061118261151f565b905060005b838110156109995760018260020160008787858181106111a9576111a9612877565b90506020020160208101906111be91906124f4565b6001600160a01b031681526020810191909152604001600020805460ff1916911515919091179055806111f0816128a3565b915050611187565b7ff0c57e16840df040f15088dc2f81fe391c3923bec73e23a9662efc9c229c6a008054600160401b810460ff1615906001600160401b031660008115801561123d5750825b90506000826001600160401b031660011480156112595750303b155b905081158015611267575080155b156112855760405163f92ee8a960e01b815260040160405180910390fd5b845467ffffffffffffffff1916600117855583156112af57845460ff60401b1916600160401b1785555b7f10bf0d56dc90d5345826c76e83680f29103443142d20e8f475ff1faf797b8c03805461ffff60a01b1916600160a01b61ffff8c1602179055600080516020612d14833981519152600061130161151f565b90508c8160000160006101000a8154816001600160a01b0302191690836001600160a01b031602179055508b8160030160006101000a81548163ffffffff021916908363ffffffff160217905550898160030160066101000a81548161ffff021916908361ffff1602179055506706f05b59d3b200008160040181905550612710816005018190555060018160030160086101000a81548160ff02191690831515021790555060005b8881101561141b5760018260020160008c8c858181106113cc576113cc612877565b90506020020160208101906113e191906124f4565b6001600160a01b031681526020810191909152604001600020805460ff191691151591909117905580611413816128a3565b9150506113aa565b506114258e611043565b5050831561146d57845460ff60401b19168555604051600181527fc7f505b2f371ae2175ee4913f4499e1f2633a7b5936321eed1cdaeb6115181d29060200160405180910390a15b505050505050505050505050565b600061148681611581565b600061149061151f565b600301805463ffffffff191663ffffffff94909416939093179092555050565b60006114bb81611581565b60006114c561151f565b6003018054931515600160401b0260ff60401b19909416939093179092555050565b600080516020612d7483398151915280546001190161151957604051633ee5aeb560e01b815260040160405180910390fd5b60029055565b7f77a11cf4bf54c0570579e2adc30f3fd746d7c9ac45d816687b724355cd594b0090565b60005b81811015610a175761156f83838381811061156357611563612877565b90506020020135611bc1565b80611579816128a3565b915050611546565b610f288133611e33565b6000600080516020612d548339815191526115a68484610f66565b611626576000848152602082815260408083206001600160a01b03871684529091529020805460ff191660011790556115dc3390565b6001600160a01b0316836001600160a01b0316857f2f8788117e7eff1d82e926ec794901d17c78024a50270940304540a733656f0d60405160405180910390a460019150506108cc565b60009150506108cc565b5092915050565b6000600080516020612d548339815191526116528484610f66565b15611626576000848152602082815260408083206001600160a01b0387168085529252808320805460ff1916905551339287917ff6391f5c32d9c69d2a47ea670b442974b53935d1edc7fd64eb21e047a839171b9190a460019150506108cc565b6000826000036116c5575060016116f2565b60006116d18486612937565b90508083106116e45760009150506116f2565b6116ee83826128f3565b9150505b9392505050565b306001600160a01b037f000000000000000000000000000000000000000000000000000000000000000016148061178057507f00000000000000000000000000000000000000000000000000000000000000006001600160a01b0316611774600080516020612d34833981519152546001600160a01b031690565b6001600160a01b031614155b15610df15760405163703e46dd60e11b815260040160405180910390fd5b60006117a981611581565b6000600080516020612d148339815191526109de565b816001600160a01b03166352d1902d6040518163ffffffff1660e01b8152600401602060405180830381865afa925050508015611819575060408051601f3d908101601f191682019092526118169181019061294b565b60015b61184157604051634c9c8ce360e01b81526001600160a01b03831660048201526024016107f1565b600080516020612d34833981519152811461187257604051632a87526960e21b8152600481018290526024016107f1565b610a178383611e6c565b306001600160a01b037f00000000000000000000000000000000000000000000000000000000000000001614610df15760405163703e46dd60e11b815260040160405180910390fd5b60018260058111156118d9576118d961253f565b0361190257604051637f9b67dd60e01b81526001600160a01b03821660048201526024016107f1565b60028260058111156119165761191661253f565b0361193457604051630c061f7760e31b815260040160405180910390fd5b60038260058111156119485761194861253f565b0361196657604051633ce95f8560e11b815260040160405180910390fd5b600482600581111561197a5761197a61253f565b0361199857604051634b0b7a8960e01b815260040160405180910390fd5b60058260058111156119ac576119ac61253f565b036108975760405163d77a58af60e01b815260040160405180910390fd5b600080516020612d148339815191526000826001600160401b038111156119f3576119f3612587565b604051908082528060200260200182016040528015611a6257816020015b604080516101008101825260008082526020808301829052928201819052606082018190526080820181905260a0820181905260c0820181905260e08201528252600019909201910181611a115790505b50905060005b83811015611ae757604080516101008101825260008082526020820181905291810182905261dead606082015260056080820152600160a0820181905285015460c082015260e08101919091528251839083908110611ac957611ac9612877565b60200260200101819052508080611adf906128a3565b915050611a68565b5060038201546001600160a01b031663c24f7f76343384878760010154611b0e9190612964565b6040518563ffffffff1660e01b8152600401611b2c939291906129e8565b6000604051808303818588803b158015611b4557600080fd5b505af1158015611b59573d6000803e3d6000fd5b5050505050505050565b611b6b611ec2565b600080516020612d14833981519152611b82611f0b565b611b8a611f0b565b611b9560003361158b565b5060030180546001600160a01b03929092166001600160b01b031990921691909117600960a01b179055565b6000600080516020612d1483398151915290503360038201546040516331a9108f60e11b8152600481018590526001600160a01b039283169290911690636352211e90602401602060405180830381865afa158015611c24573d6000803e3d6000fd5b505050506040513d601f19601f82011682018060405250810190611c489190612a52565b6001600160a01b031614611c7857604051636a16d40f60e01b8152336004820152602481018390526044016107f1565b6003810154604051631760945960e01b8152600481018490526000916001600160a01b0316906317609459906024016101a060405180830381865afa158015611cc5573d6000803e3d6000fd5b505050506040513d601f19601f82011682018060405250810190611ce99190612b10565b905080610140015115611d125760405163202601db60e11b8152600481018490526024016107f1565b60e081015163ffffffff16600114611d47576040516332d2d2a960e11b815260048101849052600160248201526044016107f1565b600080600080611d5687611f13565b9350935093509350846040015163ffffffff1661dead14611d78575060408401515b600386015460408051610100810182526001600160801b0380881682528616602082015263ffffffff808616828401528416606082015260056080820152600160a08201819052600060c083015260e082015290516359a9a04160e11b81526001600160a01b039092169163b353408291611df8918b9190600401612bec565b600060405180830381600087803b158015611e1257600080fd5b505af1158015611e26573d6000803e3d6000fd5b5050505050505050505050565b611e3d8282610f66565b6108975760405163e2517d3f60e01b81526001600160a01b0382166004820152602481018390526044016107f1565b611e75826120ed565b6040516001600160a01b038316907fbc7cd75a20ee27fd9adebab32041f755214dbc6bffa90cc0225b39da2e5c2d3b90600090a2805115611eba57610a178282612152565b6108976121c8565b7ff0c57e16840df040f15088dc2f81fe391c3923bec73e23a9662efc9c229c6a0054600160401b900460ff16610df157604051631afcd79f60e31b815260040160405180910390fd5b610df1611ec2565b6000808080600080516020612d1483398151915281611f31876121e7565b6003830154909150611f4e90600160a01b900461ffff1682612c01565b925060021c611f5b6123c9565b6000805b6005811015611fe157611f80611f7761271086612c01565b607860dc612246565b838260058110611f9257611f92612877565b6001600160401b039092166020929092020152600e9390931c92828160058110611fbe57611fbe612877565b6020020151611fcd9083612c15565b915080611fd9816128a3565b915050611f5f565b50611fed600582612c35565b6040805180820190915260a1815260b360208201526001975090915060005b60028110156120655781816002811061202757612027612877565b60200201516001600160401b0316836001600160401b0316111561205357612050600189612c5b565b97505b8061205d816128a3565b91505061200c565b5061206f836122e5565b604080516060810182526d03200001900000c800006400003281526d06e00003700001b80000dc00006e60208201526d07800003c00001e00000f000007891810191909152909950806120c360018a612c78565b63ffffffff16600381106120d9576120d9612877565b602002015198505050505050509193509193565b806001600160a01b03163b60000361212357604051634c9c8ce360e01b81526001600160a01b03821660048201526024016107f1565b600080516020612d3483398151915280546001600160a01b0319166001600160a01b0392909216919091179055565b6060600080846001600160a01b03168460405161216f9190612c95565b600060405180830381855af49150503d80600081146121aa576040519150601f19603f3d011682016040523d82523d6000602084013e6121af565b606091505b50915091506121bf858383612344565b95945050505050565b3415610df15760405163b398979f60e01b815260040160405180910390fd5b6000336121f56001436128f3565b60405160609290921b6bffffffffffffffffffffffff191660208301524060348201526054810183905242607482015260940160408051601f19818403018152919052805160209091012092915050565b6000612710841015806122595750818310155b1561227a57604051630836f30d60e21b8152600481018590526024016107f1565b600061228684846128f3565b905060635b6122958180612964565b8610156122ae57806122a681612cb1565b91505061228b565b846064836122bd8460636128f3565b6122c79190612964565b6122d19190612937565b6122db91906128e0565b9695505050505050565b6000805b600581101561233e5782816005811061230457612304612877565b60200201516001600160401b0316612320836302000000612cc8565b61232a9190612cf3565b915080612336816128a3565b9150506122e9565b50919050565b60608261235957612354826123a0565b6116f2565b815115801561237057506001600160a01b0384163b155b1561239957604051639996b31560e01b81526001600160a01b03851660048201526024016107f1565b50806116f2565b8051156123b05780518082602001fd5b604051630a12f52160e11b815260040160405180910390fd5b6040518060a001604052806005906020820280368337509192915050565b60008083601f8401126123f957600080fd5b5081356001600160401b0381111561241057600080fd5b6020830191508360208260051b8501011115610ceb57600080fd5b6000806020838503121561243e57600080fd5b82356001600160401b0381111561245457600080fd5b612460858286016123e7565b90969095509350505050565b60006020828403121561247e57600080fd5b81356001600160e01b0319811681146116f257600080fd5b6000602082840312156124a857600080fd5b5035919050565b6001600160a01b0381168114610f2857600080fd5b600080604083850312156124d757600080fd5b8235915060208301356124e9816124af565b809150509250929050565b60006020828403121561250657600080fd5b81356116f2816124af565b6000806040838503121561252457600080fd5b823561252f816124af565b915060208301356124e9816124af565b634e487b7160e01b600052602160045260246000fd5b828152604081016006831061257a57634e487b7160e01b600052602160045260246000fd5b8260208301529392505050565b634e487b7160e01b600052604160045260246000fd5b60405161016081016001600160401b03811182821017156125c0576125c0612587565b60405290565b604051601f8201601f191681016001600160401b03811182821017156125ee576125ee612587565b604052919050565b6000806040838503121561260957600080fd5b8235612614816124af565b91506020838101356001600160401b038082111561263157600080fd5b818601915086601f83011261264557600080fd5b81358181111561265757612657612587565b612669601f8201601f191685016125c6565b9150808252878482850101111561267f57600080fd5b80848401858401376000848284010152508093505050509250929050565b600080604083850312156126b057600080fd5b50508035926020909101359150565b803561ffff811681146126d157600080fd5b919050565b6000602082840312156126e857600080fd5b6116f2826126bf565b60005b8381101561270c5781810151838201526020016126f4565b50506000910152565b60208152600082518060208401526127348160408501602087016126f1565b601f01601f19169190910160400192915050565b63ffffffff81168114610f2857600080fd5b600080600080600080600060c0888a03121561277557600080fd5b8735612780816124af565b96506020880135612790816124af565b955060408801356127a081612748565b94506127ae606089016126bf565b93506127bc608089016126bf565b925060a08801356001600160401b038111156127d757600080fd5b6127e38a828b016123e7565b989b979a50959850939692959293505050565b60006020828403121561280857600080fd5b81356116f281612748565b8015158114610f2857600080fd5b60006020828403121561283357600080fd5b81356116f281612813565b6020808252810182905260006001600160fb1b0383111561285e57600080fd5b8260051b80856040850137919091016040019392505050565b634e487b7160e01b600052603260045260246000fd5b634e487b7160e01b600052601160045260246000fd5b6000600182016128b5576128b561288d565b5060010190565b600080604083850312156128cf57600080fd5b505080516020909101519092909150565b808201808211156108cc576108cc61288d565b818103818111156108cc576108cc61288d565b61ffff8181168382160190808211156116305761163061288d565b634e487b7160e01b600052601260045260246000fd5b60008261294657612946612921565b500490565b60006020828403121561295d57600080fd5b5051919050565b80820281158282048414176108cc576108cc61288d565b6001600160801b0380825116835280602083015116602084015250604081015163ffffffff80821660408501528060608401511660608501528060808401511660808501528060a08401511660a0850152505060c081015160c083015260e0810151151560e08301525050565b6001600160a01b038416815260606020808301829052845191830182905260009185820191906080850190845b81811015612a3c57612a2883865161297b565b938301936101009290920191600101612a15565b5050809350505050826040830152949350505050565b600060208284031215612a6457600080fd5b81516116f2816124af565b80516001600160801b03811681146126d157600080fd5b80516126d181612748565b600082601f830112612aa257600080fd5b604051606081018181106001600160401b0382111715612ac457612ac4612587565b604052806060840185811115612ad957600080fd5b845b81811015612afa57612aec81612a6f565b835260209283019201612adb565b509195945050505050565b80516126d181612813565b60006101a08284031215612b2357600080fd5b612b2b61259d565b612b3483612a6f565b8152612b4260208401612a86565b6020820152612b5360408401612a86565b6040820152612b6460608401612a86565b6060820152612b7560808401612a86565b6080820152612b8660a08401612a86565b60a0820152612b9760c08401612a86565b60c0820152612ba860e08401612a86565b60e0820152610100612bbb818501612a6f565b90820152610120612bce85858301612a91565b90820152612bdf6101808401612b05565b6101408201529392505050565b82815261012081016116f2602083018461297b565b600082612c1057612c10612921565b500690565b6001600160401b038181168382160190808211156116305761163061288d565b60006001600160401b0380841680612c4f57612c4f612921565b92169190910492915050565b63ffffffff8181168382160190808211156116305761163061288d565b63ffffffff8281168282160390808211156116305761163061288d565b60008251612ca78184602087016126f1565b9190910192915050565b600081612cc057612cc061288d565b506000190190565b6001600160801b03818116838216028082169190828114612ceb57612ceb61288d565b505092915050565b6001600160801b038181168382160190808211156116305761163061288d56fe10bf0d56dc90d5345826c76e83680f29103443142d20e8f475ff1faf797b8c00360894a13ba1a3210667c828492db98dca3e2076cc3735a920a3ca505d382bbc02dd7bc7dec4dceedda775e58dd541e08a116c6c53815c0bd028192f7b6268009b779b17422d0df92223018b32b4d1fa46e071723d6817e2486d003becc55f00a264697066735822122072bd9e5bf844733acac49a41005b6d032cb9b475ef5ba360b0de31f5a501711964736f6c63430008140033",
  "linkReferences": {},
  "deployedLinkReferences": {}
}