{
  "_format": "hh-sol-artifact-1",
  "contractName": "Level",
  "sourceName": "contracts/Level.sol",
  "abi": [
    {
      "inputs": [],
      "name": "AccessControlBadConfirmation",
      "type": "error"
    },
    {
      "inputs": [
        {
          "internalType": "address",
          "name": "account",
          "type": "address"
        },
        {
          "internalType": "bytes32",
          "name": "neededRole",
          "type": "bytes32"
        }
      ],
      "name": "AccessControlUnauthorizedAccount",
      "type": "error"
    },
    {
      "inputs": [
        {
          "internalType": "address",
          "name": "target",
          "type": "address"
        }
      ],
      "name": "AddressEmptyCode",
      "type": "error"
    },
    {
      "inputs": [
        {
          "internalType": "address",
          "name": "sender",
          "type": "address"
        }
      ],
      "name": "AtLeastOneOperatorRole",
      "type": "error"
    },
    {
      "inputs": [
        {
          "internalType": "address",
          "name": "implementation",
          "type": "address"
        }
      ],
      "name": "ERC1967InvalidImplementation",
      "type": "error"
    },
    {
      "inputs": [],
      "name": "ERC1967NonPayable",
      "type": "error"
    },
    {
      "inputs": [],
      "name": "FailedInnerCall",
      "type": "error"
    },
    {
      "inputs": [],
      "name": "InvalidInitialization",
      "type": "error"
    },
    {
      "inputs": [],
      "name": "NotInitializing",
      "type": "error"
    },
    {
      "inputs": [],
      "name": "UUPSUnauthorizedCallContext",
      "type": "error"
    },
    {
      "inputs": [
        {
          "internalType": "bytes32",
          "name": "slot",
          "type": "bytes32"
        }
      ],
      "name": "UUPSUnsupportedProxiableUUID",
      "type": "error"
    },
    {
      "anonymous": false,
      "inputs": [
        {
          "indexed": false,
          "internalType": "uint64",
          "name": "version",
          "type": "uint64"
        }
      ],
      "name": "Initialized",
      "type": "event"
    },
    {
      "anonymous": false,
      "inputs": [
        {
          "indexed": true,
          "internalType": "bytes32",
          "name": "role",
          "type": "bytes32"
        },
        {
          "indexed": true,
          "internalType": "bytes32",
          "name": "previousAdminRole",
          "type": "bytes32"
        },
        {
          "indexed": true,
          "internalType": "bytes32",
          "name": "newAdminRole",
          "type": "bytes32"
        }
      ],
      "name": "RoleAdminChanged",
      "type": "event"
    },
    {
      "anonymous": false,
      "inputs": [
        {
          "indexed": true,
          "internalType": "bytes32",
          "name": "role",
          "type": "bytes32"
        },
        {
          "indexed": true,
          "internalType": "address",
          "name": "account",
          "type": "address"
        },
        {
          "indexed": true,
          "internalType": "address",
          "name": "sender",
          "type": "address"
        }
      ],
      "name": "RoleGranted",
      "type": "event"
    },
    {
      "anonymous": false,
      "inputs": [
        {
          "indexed": true,
          "internalType": "bytes32",
          "name": "role",
          "type": "bytes32"
        },
        {
          "indexed": true,
          "internalType": "address",
          "name": "account",
          "type": "address"
        },
        {
          "indexed": true,
          "internalType": "address",
          "name": "sender",
          "type": "address"
        }
      ],
      "name": "RoleRevoked",
      "type": "event"
    },
    {
      "anonymous": false,
      "inputs": [
        {
          "indexed": true,
          "internalType": "address",
          "name": "implementation",
          "type": "address"
        }
      ],
      "name": "Upgraded",
      "type": "event"
    },
    {
      "inputs": [],
      "name": "DEFAULT_ADMIN_ROLE",
      "outputs": [
        {
          "internalType": "bytes32",
          "name": "",
          "type": "bytes32"
        }
      ],
      "stateMutability": "view",
      "type": "function"
    },
    {
      "inputs": [],
      "name": "OPERATOR_ROLE",
      "outputs": [
        {
          "internalType": "bytes32",
          "name": "",
          "type": "bytes32"
        }
      ],
      "stateMutability": "view",
      "type": "function"
    },
    {
      "inputs": [],
      "name": "UPGRADE_INTERFACE_VERSION",
      "outputs": [
        {
          "internalType": "string",
          "name": "",
          "type": "string"
        }
      ],
      "stateMutability": "view",
      "type": "function"
    },
    {
      "inputs": [
        {
          "components": [
            {
              "internalType": "uint32[5]",
              "name": "resistanceRatio",
              "type": "uint32[5]"
            },
            {
              "internalType": "uint32",
              "name": "moves",
              "type": "uint32"
            },
            {
              "internalType": "uint32",
              "name": "hp",
              "type": "uint32"
            },
            {
              "internalType": "uint32",
              "name": "class",
              "type": "uint32"
            },
            {
              "internalType": "uint32[5]",
              "name": "resistanceAbsolute",
              "type": "uint32[5]"
            },
            {
              "internalType": "uint32",
              "name": "vitCost",
              "type": "uint32"
            },
            {
              "internalType": "uint32",
              "name": "invulnerable",
              "type": "uint32"
            },
            {
              "internalType": "uint256",
              "name": "board",
              "type": "uint256"
            },
            {
              "internalType": "address",
              "name": "reward",
              "type": "address"
            }
          ],
          "internalType": "struct ILevel.Info",
          "name": "lv",
          "type": "tuple"
        }
      ],
      "name": "addLevel",
      "outputs": [],
      "stateMutability": "nonpayable",
      "type": "function"
    },
    {
      "inputs": [
        {
          "components": [
            {
              "components": [
                {
                  "internalType": "uint32[5]",
                  "name": "resistanceRatio",
                  "type": "uint32[5]"
                },
                {
                  "internalType": "uint32",
                  "name": "moves",
                  "type": "uint32"
                },
                {
                  "internalType": "uint32",
                  "name": "hp",
                  "type": "uint32"
                },
                {
                  "internalType": "uint32",
                  "name": "class",
                  "type": "uint32"
                },
                {
                  "internalType": "uint32[5]",
                  "name": "resistanceAbsolute",
                  "type": "uint32[5]"
                },
                {
                  "internalType": "uint32",
                  "name": "vitCost",
                  "type": "uint32"
                },
                {
                  "internalType": "uint32",
                  "name": "invulnerable",
                  "type": "uint32"
                },
                {
                  "internalType": "uint256",
                  "name": "board",
                  "type": "uint256"
                },
                {
                  "internalType": "address",
                  "name": "reward",
                  "type": "address"
                }
              ],
              "internalType": "struct ILevel.Info",
              "name": "info",
              "type": "tuple"
            },
            {
              "internalType": "uint32",
              "name": "timeStart",
              "type": "uint32"
            },
            {
              "internalType": "uint32",
              "name": "timeLength",
              "type": "uint32"
            },
            {
              "internalType": "bool",
              "name": "farmReward",
              "type": "bool"
            }
          ],
          "internalType": "struct ILevel.Special",
          "name": "lv",
          "type": "tuple"
        }
      ],
      "name": "addSpecialLevel",
      "outputs": [],
      "stateMutability": "nonpayable",
      "type": "function"
    },
    {
      "inputs": [
        {
          "internalType": "uint256",
          "name": "level",
          "type": "uint256"
        }
      ],
      "name": "getLevel",
      "outputs": [
        {
          "components": [
            {
              "internalType": "uint32[5]",
              "name": "resistanceRatio",
              "type": "uint32[5]"
            },
            {
              "internalType": "uint32",
              "name": "moves",
              "type": "uint32"
            },
            {
              "internalType": "uint32",
              "name": "hp",
              "type": "uint32"
            },
            {
              "internalType": "uint32",
              "name": "class",
              "type": "uint32"
            },
            {
              "internalType": "uint32[5]",
              "name": "resistanceAbsolute",
              "type": "uint32[5]"
            },
            {
              "internalType": "uint32",
              "name": "vitCost",
              "type": "uint32"
            },
            {
              "internalType": "uint32",
              "name": "invulnerable",
              "type": "uint32"
            },
            {
              "internalType": "uint256",
              "name": "board",
              "type": "uint256"
            },
            {
              "internalType": "address",
              "name": "reward",
              "type": "address"
            }
          ],
          "internalType": "struct ILevel.Info",
          "name": "",
          "type": "tuple"
        }
      ],
      "stateMutability": "view",
      "type": "function"
    },
    {
      "inputs": [
        {
          "internalType": "bytes32",
          "name": "role",
          "type": "bytes32"
        }
      ],
      "name": "getRoleAdmin",
      "outputs": [
        {
          "internalType": "bytes32",
          "name": "",
          "type": "bytes32"
        }
      ],
      "stateMutability": "view",
      "type": "function"
    },
    {
      "inputs": [
        {
          "internalType": "uint256",
          "name": "level",
          "type": "uint256"
        }
      ],
      "name": "getSpecialLevel",
      "outputs": [
        {
          "components": [
            {
              "components": [
                {
                  "internalType": "uint32[5]",
                  "name": "resistanceRatio",
                  "type": "uint32[5]"
                },
                {
                  "internalType": "uint32",
                  "name": "moves",
                  "type": "uint32"
                },
                {
                  "internalType": "uint32",
                  "name": "hp",
                  "type": "uint32"
                },
                {
                  "internalType": "uint32",
                  "name": "class",
                  "type": "uint32"
                },
                {
                  "internalType": "uint32[5]",
                  "name": "resistanceAbsolute",
                  "type": "uint32[5]"
                },
                {
                  "internalType": "uint32",
                  "name": "vitCost",
                  "type": "uint32"
                },
                {
                  "internalType": "uint32",
                  "name": "invulnerable",
                  "type": "uint32"
                },
                {
                  "internalType": "uint256",
                  "name": "board",
                  "type": "uint256"
                },
                {
                  "internalType": "address",
                  "name": "reward",
                  "type": "address"
                }
              ],
              "internalType": "struct ILevel.Info",
              "name": "info",
              "type": "tuple"
            },
            {
              "internalType": "uint32",
              "name": "timeStart",
              "type": "uint32"
            },
            {
              "internalType": "uint32",
              "name": "timeLength",
              "type": "uint32"
            },
            {
              "internalType": "bool",
              "name": "farmReward",
              "type": "bool"
            }
          ],
          "internalType": "struct ILevel.Special",
          "name": "",
          "type": "tuple"
        }
      ],
      "stateMutability": "view",
      "type": "function"
    },
    {
      "inputs": [
        {
          "internalType": "bytes32",
          "name": "role",
          "type": "bytes32"
        },
        {
          "internalType": "address",
          "name": "account",
          "type": "address"
        }
      ],
      "name": "grantRole",
      "outputs": [],
      "stateMutability": "nonpayable",
      "type": "function"
    },
    {
      "inputs": [
        {
          "internalType": "bytes32",
          "name": "role",
          "type": "bytes32"
        },
        {
          "internalType": "address",
          "name": "account",
          "type": "address"
        }
      ],
      "name": "hasRole",
      "outputs": [
        {
          "internalType": "bool",
          "name": "",
          "type": "bool"
        }
      ],
      "stateMutability": "view",
      "type": "function"
    },
    {
      "inputs": [],
      "name": "initialize",
      "outputs": [],
      "stateMutability": "nonpayable",
      "type": "function"
    },
    {
      "inputs": [
        {
          "internalType": "uint256",
          "name": "level",
          "type": "uint256"
        }
      ],
      "name": "isLevelValid",
      "outputs": [
        {
          "internalType": "bool",
          "name": "",
          "type": "bool"
        }
      ],
      "stateMutability": "view",
      "type": "function"
    },
    {
      "inputs": [],
      "name": "maxLevel",
      "outputs": [
        {
          "internalType": "uint256",
          "name": "",
          "type": "uint256"
        }
      ],
      "stateMutability": "view",
      "type": "function"
    },
    {
      "inputs": [],
      "name": "maxSpecialLevel",
      "outputs": [
        {
          "internalType": "uint256",
          "name": "",
          "type": "uint256"
        }
      ],
      "stateMutability": "view",
      "type": "function"
    },
    {
      "inputs": [],
      "name": "proxiableUUID",
      "outputs": [
        {
          "internalType": "bytes32",
          "name": "",
          "type": "bytes32"
        }
      ],
      "stateMutability": "view",
      "type": "function"
    },
    {
      "inputs": [
        {
          "internalType": "bytes32",
          "name": "role",
          "type": "bytes32"
        },
        {
          "internalType": "address",
          "name": "callerConfirmation",
          "type": "address"
        }
      ],
      "name": "renounceRole",
      "outputs": [],
      "stateMutability": "nonpayable",
      "type": "function"
    },
    {
      "inputs": [
        {
          "internalType": "bytes32",
          "name": "role",
          "type": "bytes32"
        },
        {
          "internalType": "address",
          "name": "account",
          "type": "address"
        }
      ],
      "name": "revokeRole",
      "outputs": [],
      "stateMutability": "nonpayable",
      "type": "function"
    },
    {
      "inputs": [
        {
          "internalType": "uint256",
          "name": "level",
          "type": "uint256"
        },
        {
          "components": [
            {
              "internalType": "uint32[5]",
              "name": "resistanceRatio",
              "type": "uint32[5]"
            },
            {
              "internalType": "uint32",
              "name": "moves",
              "type": "uint32"
            },
            {
              "internalType": "uint32",
              "name": "hp",
              "type": "uint32"
            },
            {
              "internalType": "uint32",
              "name": "class",
              "type": "uint32"
            },
            {
              "internalType": "uint32[5]",
              "name": "resistanceAbsolute",
              "type": "uint32[5]"
            },
            {
              "internalType": "uint32",
              "name": "vitCost",
              "type": "uint32"
            },
            {
              "internalType": "uint32",
              "name": "invulnerable",
              "type": "uint32"
            },
            {
              "internalType": "uint256",
              "name": "board",
              "type": "uint256"
            },
            {
              "internalType": "address",
              "name": "reward",
              "type": "address"
            }
          ],
          "internalType": "struct ILevel.Info",
          "name": "lv",
          "type": "tuple"
        }
      ],
      "name": "setLevel",
      "outputs": [],
      "stateMutability": "nonpayable",
      "type": "function"
    },
    {
      "inputs": [
        {
          "internalType": "uint256",
          "name": "level",
          "type": "uint256"
        },
        {
          "components": [
            {
              "components": [
                {
                  "internalType": "uint32[5]",
                  "name": "resistanceRatio",
                  "type": "uint32[5]"
                },
                {
                  "internalType": "uint32",
                  "name": "moves",
                  "type": "uint32"
                },
                {
                  "internalType": "uint32",
                  "name": "hp",
                  "type": "uint32"
                },
                {
                  "internalType": "uint32",
                  "name": "class",
                  "type": "uint32"
                },
                {
                  "internalType": "uint32[5]",
                  "name": "resistanceAbsolute",
                  "type": "uint32[5]"
                },
                {
                  "internalType": "uint32",
                  "name": "vitCost",
                  "type": "uint32"
                },
                {
                  "internalType": "uint32",
                  "name": "invulnerable",
                  "type": "uint32"
                },
                {
                  "internalType": "uint256",
                  "name": "board",
                  "type": "uint256"
                },
                {
                  "internalType": "address",
                  "name": "reward",
                  "type": "address"
                }
              ],
              "internalType": "struct ILevel.Info",
              "name": "info",
              "type": "tuple"
            },
            {
              "internalType": "uint32",
              "name": "timeStart",
              "type": "uint32"
            },
            {
              "internalType": "uint32",
              "name": "timeLength",
              "type": "uint32"
            },
            {
              "internalType": "bool",
              "name": "farmReward",
              "type": "bool"
            }
          ],
          "internalType": "struct ILevel.Special",
          "name": "lv",
          "type": "tuple"
        }
      ],
      "name": "setSpecialLevel",
      "outputs": [],
      "stateMutability": "nonpayable",
      "type": "function"
    },
    {
      "inputs": [
        {
          "internalType": "bytes4",
          "name": "interfaceId",
          "type": "bytes4"
        }
      ],
      "name": "supportsInterface",
      "outputs": [
        {
          "internalType": "bool",
          "name": "",
          "type": "bool"
        }
      ],
      "stateMutability": "view",
      "type": "function"
    },
    {
      "inputs": [
        {
          "internalType": "uint256",
          "name": "level",
          "type": "uint256"
        },
        {
          "internalType": "bool",
          "name": "farmReward",
          "type": "bool"
        }
      ],
      "name": "updateSpecialFarmReward",
      "outputs": [],
      "stateMutability": "nonpayable",
      "type": "function"
    },
    {
      "inputs": [
        {
          "internalType": "address",
          "name": "newImplementation",
          "type": "address"
        },
        {
          "internalType": "bytes",
          "name": "data",
          "type": "bytes"
        }
      ],
      "name": "upgradeToAndCall",
      "outputs": [],
      "stateMutability": "payable",
      "type": "function"
    }
  ],
  "bytecode": "0x60a06040523060805234801561001457600080fd5b50608051611ce361003e600039600081816110240152818161104d01526111db0152611ce36000f3fe6080604052600436106101355760003560e01c806386481d40116100ab578063c93d512f1161006f578063c93d512f14610379578063cc06c35914610399578063cd9ca7b4146103bb578063d547741f146103db578063f5b541a6146103fb578063fccddf9d1461041d57600080fd5b806386481d40146102b957806391d14854146102e657806394e00e3814610306578063a217fddf14610326578063ad3cb1cc1461033b57600080fd5b806336568abe116100fd57806336568abe1461020f57806348576fc41461022f5780634f1ef2861461024f57806352d1902d1461026257806376b7c3af146102775780638129fc1c146102a457600080fd5b806301ffc9a71461013a57806309816e201461016f57806319c1adcc14610191578063248a9ca3146101cf5780632f2ff15d146101ef575b600080fd5b34801561014657600080fd5b5061015a61015536600461151f565b61043d565b60405190151581526020015b60405180910390f35b34801561017b57600080fd5b5061018f61018a366004611562565b610474565b005b34801561019d57600080fd5b507f22d92fcab92f8b7bd38070857ff2e905223aa3eaf2335ccc1f0a32fdc5ef1101545b604051908152602001610166565b3480156101db57600080fd5b506101c16101ea36600461157f565b61053c565b3480156101fb57600080fd5b5061018f61020a3660046115ad565b61055e565b34801561021b57600080fd5b5061018f61022a3660046115ad565b61057a565b34801561023b57600080fd5b5061018f61024a3660046115f0565b6105b2565b61018f61025d366004611623565b61065c565b34801561026e57600080fd5b506101c161067b565b34801561028357600080fd5b5061029761029236600461157f565b610698565b604051610166919061179c565b3480156102b057600080fd5b5061018f610851565b3480156102c557600080fd5b506102d96102d436600461157f565b61098a565b60405161016691906117e1565b3480156102f257600080fd5b5061015a6103013660046115ad565b610b0d565b34801561031257600080fd5b5061018f6103213660046117fe565b610b45565b34801561033257600080fd5b506101c1600081565b34801561034757600080fd5b5061036c604051806040016040528060058152602001640352e302e360dc1b81525081565b6040516101669190611847565b34801561038557600080fd5b5061015a61039436600461157f565b610bb8565b3480156103a557600080fd5b50600080516020611c2e833981519152546101c1565b3480156103c757600080fd5b5061018f6103d636600461187a565b610dd8565b3480156103e757600080fd5b5061018f6103f63660046115ad565b610e59565b34801561040757600080fd5b506101c1600080516020611c6e83398151915281565b34801561042957600080fd5b5061018f6104383660046118a8565b610e75565b60006001600160e01b03198216637965db0b60e01b148061046e57506301ffc9a760e01b6001600160e01b03198316145b92915050565b61047f600033610b0d565b1580156104a1575061049f600080516020611c6e83398151915233610b0d565b155b156104d257335b604051638dd2f3ad60e01b81526001600160a01b0390911660048201526024015b60405180910390fd5b600080516020611c2e833981519152805482907f22d92fcab92f8b7bd38070857ff2e905223aa3eaf2335ccc1f0a32fdc5ef11039060009084908290610517906118e3565b918290555081526020810191909152604001600020610536828261196c565b50505050565b6000908152600080516020611c8e833981519152602052604090206001015490565b6105678261053c565b61057081610ee4565b6105368383610ef1565b6001600160a01b03811633146105a35760405163334bd91960e11b815260040160405180910390fd5b6105ad8282610f9d565b505050565b6105bd600033610b0d565b1580156105df57506105dd600080516020611c6e83398151915233610b0d565b155b156105ea57336104a8565b7f22d92fcab92f8b7bd38070857ff2e905223aa3eaf2335ccc1f0a32fdc5ef11018054600080516020611c2e833981519152918391600080516020611c0e83398151915291600091829061063d906118e3565b9182905550815260208101919091526040016000206105368282611ab2565b610664611019565b61066d826110c0565b6106778282611113565b5050565b60006106856111d0565b50600080516020611c4e83398151915290565b6106a061147b565b6000828152600080516020611c0e83398151915260205260408082208151610240810192839052600080516020611c2e83398151915293909283916080830191849183916101a086019184916005918390855b82829054906101000a900463ffffffff1663ffffffff16815260200190600401906020826003010492830192600103820291508084116106f357505050928452505050600182015463ffffffff808216602084015264010000000082048116604080850191909152600160401b909204166060830152805160a0810191829052608090920191906002840190600590826000855b82829054906101000a900463ffffffff1663ffffffff168152602001906004019060208260030104928301926001038202915080841161078757505050928452505050600382015463ffffffff80821660208085019190915264010000000092839004821660408086019190915260048601546060808701919091526005909601546001600160a01b03166080909501949094529486526006969096015480871694860194909452830490941693830193909352600160401b900460ff1615159101529392505050565b7ff0c57e16840df040f15088dc2f81fe391c3923bec73e23a9662efc9c229c6a008054600160401b810460ff16159067ffffffffffffffff166000811580156108975750825b905060008267ffffffffffffffff1660011480156108b45750303b155b9050811580156108c2575080155b156108e05760405163f92ee8a960e01b815260040160405180910390fd5b845467ffffffffffffffff19166001178555831561090a57845460ff60401b1916600160401b1785555b600080516020611c2e833981519152610921611219565b610929611219565b610934600033610ef1565b506001600290910155831561098357845460ff60401b19168555604051600181527fc7f505b2f371ae2175ee4913f4499e1f2633a7b5936321eed1cdaeb6115181d29060200160405180910390a15b5050505050565b6109926114a9565b60008281527f22d92fcab92f8b7bd38070857ff2e905223aa3eaf2335ccc1f0a32fdc5ef1103602052604080822081516101c0810192839052600080516020611c2e83398151915293909283916101208301918491600591908390855b82829054906101000a900463ffffffff1663ffffffff16815260200190600401906020826003010492830192600103820291508084116109ef57505050928452505050600182015463ffffffff808216602084015264010000000082048116604080850191909152600160401b909204166060830152805160a0810191829052608090920191906002840190600590826000855b82829054906101000a900463ffffffff1663ffffffff1681526020019060040190602082600301049283019260010382029150808411610a8357505050928452505050600382015463ffffffff8082166020840152640100000000909104166040820152600482015460608201526005909101546001600160a01b03166080909101529392505050565b6000918252600080516020611c8e833981519152602090815260408084206001600160a01b0393909316845291905290205460ff1690565b610b50600033610b0d565b158015610b725750610b70600080516020611c6e83398151915233610b0d565b155b15610b7d57336104a8565b6000918252600080516020611c0e83398151915260205260409091206006018054911515600160401b0260ff60401b19909216919091179055565b6000818152600080516020611c0e83398151915260205260408082208151610240810192839052600080516020611c2e8339815191529284929082906080820190839082906101a08501908390600590828b855b82829054906101000a900463ffffffff1663ffffffff1681526020019060040190602082600301049283019260010382029150808411610c0c57505050928452505050600182015463ffffffff808216602084015264010000000082048116604080850191909152600160401b909204166060830152805160a0810191829052608090920191906002840190600590826000855b82829054906101000a900463ffffffff1663ffffffff1681526020019060040190602082600301049283019260010382029150808411610ca057505050928452505050600382015463ffffffff80821660208085019190915264010000000092839004821660408086019190915260048601546060808701919091526005909601546001600160a01b03166080909501949094529486526006969096015480871686860152908104861691850191909152600160401b900460ff1615159201919091528201519192501615801590610d805750604081015163ffffffff16155b15610d8f575060019392505050565b806020015163ffffffff1642118015610dc0575080604001518160200151610db79190611bbb565b63ffffffff1642105b8015610dd0575081600101548411155b949350505050565b610de3600033610b0d565b158015610e055750610e03600080516020611c6e83398151915233610b0d565b155b15610e1057336104a8565b60008281527f22d92fcab92f8b7bd38070857ff2e905223aa3eaf2335ccc1f0a32fdc5ef110360205260409020600080516020611c2e833981519152908290610983828261196c565b610e628261053c565b610e6b81610ee4565b6105368383610f9d565b610e80600033610b0d565b158015610ea25750610ea0600080516020611c6e83398151915233610b0d565b155b15610ead57336104a8565b6000828152600080516020611c0e83398151915260205260409020600080516020611c2e8339815191529082906109838282611ab2565b610eee8133611221565b50565b6000600080516020611c8e833981519152610f0c8484610b0d565b610f8c576000848152602082815260408083206001600160a01b03871684529091529020805460ff19166001179055610f423390565b6001600160a01b0316836001600160a01b0316857f2f8788117e7eff1d82e926ec794901d17c78024a50270940304540a733656f0d60405160405180910390a4600191505061046e565b600091505061046e565b5092915050565b6000600080516020611c8e833981519152610fb88484610b0d565b15610f8c576000848152602082815260408083206001600160a01b0387168085529252808320805460ff1916905551339287917ff6391f5c32d9c69d2a47ea670b442974b53935d1edc7fd64eb21e047a839171b9190a4600191505061046e565b306001600160a01b037f00000000000000000000000000000000000000000000000000000000000000001614806110a057507f00000000000000000000000000000000000000000000000000000000000000006001600160a01b0316611094600080516020611c4e833981519152546001600160a01b031690565b6001600160a01b031614155b156110be5760405163703e46dd60e11b815260040160405180910390fd5b565b60006110cb81610ee4565b7f22d92fcab92f8b7bd38070857ff2e905223aa3eaf2335ccc1f0a32fdc5ef11028054600080516020611c2e833981519152916000611109836118e3565b9190505550505050565b816001600160a01b03166352d1902d6040518163ffffffff1660e01b8152600401602060405180830381865afa92505050801561116d575060408051601f3d908101601f1916820190925261116a91810190611bd8565b60015b61119557604051634c9c8ce360e01b81526001600160a01b03831660048201526024016104c9565b600080516020611c4e83398151915281146111c657604051632a87526960e21b8152600481018290526024016104c9565b6105ad838361125a565b306001600160a01b037f000000000000000000000000000000000000000000000000000000000000000016146110be5760405163703e46dd60e11b815260040160405180910390fd5b6110be6112b0565b61122b8282610b0d565b6106775760405163e2517d3f60e01b81526001600160a01b0382166004820152602481018390526044016104c9565b611263826112f9565b6040516001600160a01b038316907fbc7cd75a20ee27fd9adebab32041f755214dbc6bffa90cc0225b39da2e5c2d3b90600090a28051156112a8576105ad828261135e565b6106776113d4565b7ff0c57e16840df040f15088dc2f81fe391c3923bec73e23a9662efc9c229c6a0054600160401b900460ff166110be57604051631afcd79f60e31b815260040160405180910390fd5b806001600160a01b03163b60000361132f57604051634c9c8ce360e01b81526001600160a01b03821660048201526024016104c9565b600080516020611c4e83398151915280546001600160a01b0319166001600160a01b0392909216919091179055565b6060600080846001600160a01b03168460405161137b9190611bf1565b600060405180830381855af49150503d80600081146113b6576040519150601f19603f3d011682016040523d82523d6000602084013e6113bb565b606091505b50915091506113cb8583836113f3565b95945050505050565b34156110be5760405163b398979f60e01b815260040160405180910390fd5b6060826114085761140382611452565b61144b565b815115801561141f57506001600160a01b0384163b155b1561144857604051639996b31560e01b81526001600160a01b03851660048201526024016104c9565b50805b9392505050565b8051156114625780518082602001fd5b604051630a12f52160e11b815260040160405180910390fd5b604051806080016040528061148e6114a9565b81526000602082018190526040820181905260609091015290565b6040518061012001604052806114bd611501565b81526000602082018190526040820181905260608201526080016114df611501565b8152600060208201819052604082018190526060820181905260809091015290565b6040518060a001604052806005906020820280368337509192915050565b60006020828403121561153157600080fd5b81356001600160e01b03198116811461144b57600080fd5b6000610220828403121561155c57600080fd5b50919050565b6000610220828403121561157557600080fd5b61144b8383611549565b60006020828403121561159157600080fd5b5035919050565b6001600160a01b0381168114610eee57600080fd5b600080604083850312156115c057600080fd5b8235915060208301356115d281611598565b809150509250929050565b6000610280828403121561155c57600080fd5b6000610280828403121561160357600080fd5b61144b83836115dd565b634e487b7160e01b600052604160045260246000fd5b6000806040838503121561163657600080fd5b823561164181611598565b9150602083013567ffffffffffffffff8082111561165e57600080fd5b818501915085601f83011261167257600080fd5b8135818111156116845761168461160d565b604051601f8201601f19908116603f011681019083821181831017156116ac576116ac61160d565b816040528281528860208487010111156116c557600080fd5b8260208601602083013760006020848301015280955050505050509250929050565b8060005b600581101561053657815163ffffffff168452602093840193909101906001016116eb565b61171b8282516116e7565b602081015163ffffffff90811660a08401526040820151811660c084015260608201511660e08301526080810151610100611758818501836116e7565b60a083015163ffffffff9081166101a086015260c0840151166101c085015260e08301516101e0850152909101516001600160a01b03166102009092019190915250565b6000610280820190506117b0828451611710565b602083015163ffffffff90811661022084015260408401511661024083015260609092015115156102609091015290565b610220810161046e8284611710565b8015158114610eee57600080fd5b6000806040838503121561181157600080fd5b8235915060208301356115d2816117f0565b60005b8381101561183e578181015183820152602001611826565b50506000910152565b6020815260008251806020840152611866816040850160208701611823565b601f01601f19169190910160400192915050565b600080610240838503121561188e57600080fd5b8235915061189f8460208501611549565b90509250929050565b6000806102a083850312156118bc57600080fd5b8235915061189f84602085016115dd565b634e487b7160e01b600052601160045260246000fd5b6000600182016118f5576118f56118cd565b5060010190565b6000813563ffffffff8116811461046e57600080fd5b816000805b60058110156119575761194661192c846118fc565b63ffffffff908116600584901b90811b91901b1984161790565b602093909301929150600101611917565b509091555050565b6000813561046e81611598565b816000805b60058110156119975761198661192c846118fc565b602093909301929150600101611971565b50825550600181016119c56119ae60a085016118fc565b825463ffffffff191663ffffffff91909116178255565b6119f66119d460c085016118fc565b825467ffffffff00000000191660209190911b67ffffffff0000000016178255565b611a2f611a0560e085016118fc565b82546bffffffff0000000000000000191660409190911b6bffffffff000000000000000016178255565b50611a41610100830160028301611912565b60038101611a556119ae6101a085016118fc565b611a656119d46101c085016118fc565b506101e08201356004820155610677611a81610200840161195f565b6005830180546001600160a01b0319166001600160a01b0392909216919091179055565b6000813561046e816117f0565b816000805b6005811015611add57611acc61192c846118fc565b602093909301929150600101611ab7565b5082555060018101611af46119ae60a085016118fc565b611b036119d460c085016118fc565b611b12611a0560e085016118fc565b50611b24610100830160028301611912565b60038101611b386119ae6101a085016118fc565b611b486119d46101c085016118fc565b506101e08201356004820155611b64611a81610200840161195f565b60068101611b786119ae61022085016118fc565b611b886119d461024085016118fc565b6105ad611b986102608501611aa5565b82805460ff60401b191691151560401b68ff000000000000000016919091179055565b63ffffffff818116838216019080821115610f9657610f966118cd565b600060208284031215611bea57600080fd5b5051919050565b60008251611c03818460208701611823565b919091019291505056fe22d92fcab92f8b7bd38070857ff2e905223aa3eaf2335ccc1f0a32fdc5ef110422d92fcab92f8b7bd38070857ff2e905223aa3eaf2335ccc1f0a32fdc5ef1100360894a13ba1a3210667c828492db98dca3e2076cc3735a920a3ca505d382bbc97667070c54ef182b0f5858b034beac1b6f3089aa2d3188bb1e8929f4fa9b92902dd7bc7dec4dceedda775e58dd541e08a116c6c53815c0bd028192f7b626800a26469706673582212201113c625d7bbda44fa603e84dbd7e69b409718b1d88fbf40f583a87baec1a37b64736f6c63430008140033",
  "linkReferences": {},
  "deployedLinkReferences": {}
}