{
  "_format": "hh-sol-artifact-1",
  "contractName": "LevelUpHelper",
  "sourceName": "contracts/heroes/LevelUpHelper.sol",
  "abi": [
    {
      "inputs": [
        {
          "internalType": "uint256",
          "name": "lv",
          "type": "uint256"
        }
      ],
      "name": "getExp",
      "outputs": [
        {
          "internalType": "uint256",
          "name": "",
          "type": "uint256"
        }
      ],
      "stateMutability": "pure",
      "type": "function"
    }
  ],
  "bytecode": "0x608060405234801561001057600080fd5b5061015f806100206000396000f3fe608060405234801561001057600080fd5b506004361061002b5760003560e01c8063e498922f14610030575b600080fd5b61004361003e3660046100d3565b610055565b60405190815260200160405180910390f35b6040805161012081018252601481526032602082015260649181019190915260c8606082015261019060808201526103e860a08201526107d060c082015261138860e0820152612710610100820152600090806100b36001856100ec565b600981106100c3576100c3610113565b602002015161ffff169392505050565b6000602082840312156100e557600080fd5b5035919050565b8181038181111561010d57634e487b7160e01b600052601160045260246000fd5b92915050565b634e487b7160e01b600052603260045260246000fdfea264697066735822122004e0f8a218ddc8468fe9e1b0bc57b01e856e585b520b00cbc9ab6f8ccb741ab364736f6c63430008140033",
  "linkReferences": {},
  "deployedLinkReferences": {}
}