{
  "_format": "hh-sol-artifact-1",
  "contractName": "Restaking",
  "sourceName": "contracts/Restaking.sol",
  "abi": [
    {
      "anonymous": false,
      "inputs": [
        {
          "indexed": false,
          "internalType": "address",
          "name": "previousAdmin",
          "type": "address"
        },
        {
          "indexed": false,
          "internalType": "address",
          "name": "newAdmin",
          "type": "address"
        }
      ],
      "name": "AdminChanged",
      "type": "event"
    },
    {
      "anonymous": false,
      "inputs": [
        {
          "indexed": true,
          "internalType": "address",
          "name": "beacon",
          "type": "address"
        }
      ],
      "name": "BeaconUpgraded",
      "type": "event"
    },
    {
      "anonymous": false,
      "inputs": [
        {
          "indexed": true,
          "internalType": "address",
          "name": "user",
          "type": "address"
        },
        {
          "indexed": true,
          "internalType": "address",
          "name": "token",
          "type": "address"
        },
        {
          "indexed": false,
          "internalType": "uint256",
          "name": "amount",
          "type": "uint256"
        }
      ],
      "name": "Claim",
      "type": "event"
    },
    {
      "anonymous": false,
      "inputs": [
        {
          "indexed": true,
          "internalType": "address",
          "name": "user",
          "type": "address"
        },
        {
          "indexed": true,
          "internalType": "address",
          "name": "token",
          "type": "address"
        },
        {
          "indexed": false,
          "internalType": "uint256",
          "name": "amount",
          "type": "uint256"
        },
        {
          "indexed": false,
          "internalType": "uint256",
          "name": "weekly",
          "type": "uint256"
        }
      ],
      "name": "Deposit",
      "type": "event"
    },
    {
      "anonymous": false,
      "inputs": [
        {
          "indexed": false,
          "internalType": "uint8",
          "name": "version",
          "type": "uint8"
        }
      ],
      "name": "Initialized",
      "type": "event"
    },
    {
      "anonymous": false,
      "inputs": [
        {
          "indexed": true,
          "internalType": "address",
          "name": "token",
          "type": "address"
        },
        {
          "indexed": false,
          "internalType": "uint256",
          "name": "amount",
          "type": "uint256"
        },
        {
          "indexed": false,
          "internalType": "uint256",
          "name": "weekly",
          "type": "uint256"
        }
      ],
      "name": "InvestRewards",
      "type": "event"
    },
    {
      "anonymous": false,
      "inputs": [
        {
          "indexed": true,
          "internalType": "address",
          "name": "previousOwner",
          "type": "address"
        },
        {
          "indexed": true,
          "internalType": "address",
          "name": "newOwner",
          "type": "address"
        }
      ],
      "name": "OwnershipTransferred",
      "type": "event"
    },
    {
      "anonymous": false,
      "inputs": [
        {
          "indexed": true,
          "internalType": "address",
          "name": "user",
          "type": "address"
        },
        {
          "indexed": true,
          "internalType": "address",
          "name": "token",
          "type": "address"
        },
        {
          "indexed": false,
          "internalType": "uint256",
          "name": "amount",
          "type": "uint256"
        },
        {
          "indexed": false,
          "internalType": "uint256",
          "name": "weekly",
          "type": "uint256"
        }
      ],
      "name": "Redeosit",
      "type": "event"
    },
    {
      "anonymous": false,
      "inputs": [
        {
          "indexed": true,
          "internalType": "address",
          "name": "implementation",
          "type": "address"
        }
      ],
      "name": "Upgraded",
      "type": "event"
    },
    {
      "anonymous": false,
      "inputs": [
        {
          "indexed": true,
          "internalType": "address",
          "name": "user",
          "type": "address"
        },
        {
          "indexed": true,
          "internalType": "address",
          "name": "token",
          "type": "address"
        },
        {
          "indexed": false,
          "internalType": "uint256",
          "name": "amount",
          "type": "uint256"
        }
      ],
      "name": "Withdraw",
      "type": "event"
    },
    {
      "inputs": [],
      "name": "END_TIME",
      "outputs": [
        {
          "internalType": "uint256",
          "name": "",
          "type": "uint256"
        }
      ],
      "stateMutability": "view",
      "type": "function"
    },
    {
      "inputs": [],
      "name": "WEEK",
      "outputs": [
        {
          "internalType": "uint256",
          "name": "",
          "type": "uint256"
        }
      ],
      "stateMutability": "view",
      "type": "function"
    },
    {
      "inputs": [],
      "name": "WETH",
      "outputs": [
        {
          "internalType": "address",
          "name": "",
          "type": "address"
        }
      ],
      "stateMutability": "view",
      "type": "function"
    },
    {
      "inputs": [
        {
          "internalType": "address",
          "name": "_token",
          "type": "address"
        },
        {
          "internalType": "uint256",
          "name": "_weekly",
          "type": "uint256"
        },
        {
          "internalType": "uint256",
          "name": "_amount",
          "type": "uint256"
        }
      ],
      "name": "artificialInvestRewards",
      "outputs": [],
      "stateMutability": "nonpayable",
      "type": "function"
    },
    {
      "inputs": [],
      "name": "burnMaximum",
      "outputs": [
        {
          "internalType": "uint256",
          "name": "",
          "type": "uint256"
        }
      ],
      "stateMutability": "view",
      "type": "function"
    },
    {
      "inputs": [
        {
          "internalType": "address[]",
          "name": "tokens",
          "type": "address[]"
        }
      ],
      "name": "claim",
      "outputs": [],
      "stateMutability": "nonpayable",
      "type": "function"
    },
    {
      "inputs": [
        {
          "internalType": "address",
          "name": "user",
          "type": "address"
        },
        {
          "internalType": "address[]",
          "name": "tokens",
          "type": "address[]"
        }
      ],
      "name": "claimable",
      "outputs": [
        {
          "internalType": "uint256[]",
          "name": "amounts",
          "type": "uint256[]"
        }
      ],
      "stateMutability": "view",
      "type": "function"
    },
    {
      "inputs": [
        {
          "internalType": "address",
          "name": "token",
          "type": "address"
        },
        {
          "internalType": "uint256",
          "name": "amount",
          "type": "uint256"
        }
      ],
      "name": "deposit",
      "outputs": [],
      "stateMutability": "nonpayable",
      "type": "function"
    },
    {
      "inputs": [],
      "name": "depositETH",
      "outputs": [],
      "stateMutability": "payable",
      "type": "function"
    },
    {
      "inputs": [],
      "name": "getWeek",
      "outputs": [
        {
          "internalType": "uint256",
          "name": "",
          "type": "uint256"
        }
      ],
      "stateMutability": "view",
      "type": "function"
    },
    {
      "inputs": [
        {
          "internalType": "uint256",
          "name": "time",
          "type": "uint256"
        }
      ],
      "name": "getWeekByTime",
      "outputs": [
        {
          "internalType": "uint256",
          "name": "",
          "type": "uint256"
        }
      ],
      "stateMutability": "view",
      "type": "function"
    },
    {
      "inputs": [
        {
          "internalType": "address",
          "name": "token",
          "type": "address"
        },
        {
          "internalType": "uint256",
          "name": "weekly",
          "type": "uint256"
        }
      ],
      "name": "getWeeklyApr",
      "outputs": [
        {
          "internalType": "uint256",
          "name": "",
          "type": "uint256"
        }
      ],
      "stateMutability": "view",
      "type": "function"
    },
    {
      "inputs": [
        {
          "internalType": "address",
          "name": "user",
          "type": "address"
        },
        {
          "internalType": "address",
          "name": "token",
          "type": "address"
        },
        {
          "internalType": "uint256",
          "name": "week",
          "type": "uint256"
        }
      ],
      "name": "getWeeklyWeight",
      "outputs": [
        {
          "internalType": "uint256",
          "name": "",
          "type": "uint256"
        },
        {
          "internalType": "uint256",
          "name": "",
          "type": "uint256"
        }
      ],
      "stateMutability": "view",
      "type": "function"
    },
    {
      "inputs": [
        {
          "internalType": "address",
          "name": "",
          "type": "address"
        },
        {
          "internalType": "address",
          "name": "",
          "type": "address"
        }
      ],
      "name": "hasSBT",
      "outputs": [
        {
          "internalType": "uint256",
          "name": "",
          "type": "uint256"
        }
      ],
      "stateMutability": "view",
      "type": "function"
    },
    {
      "inputs": [
        {
          "internalType": "uint256",
          "name": "_startTime",
          "type": "uint256"
        },
        {
          "internalType": "address",
          "name": "_rewardToken",
          "type": "address"
        },
        {
          "internalType": "address",
          "name": "_WETH",
          "type": "address"
        },
        {
          "internalType": "address",
          "name": "_securedAccount",
          "type": "address"
        },
        {
          "internalType": "address",
          "name": "_soulbound",
          "type": "address"
        }
      ],
      "name": "initialize",
      "outputs": [],
      "stateMutability": "nonpayable",
      "type": "function"
    },
    {
      "inputs": [
        {
          "internalType": "address",
          "name": "",
          "type": "address"
        },
        {
          "internalType": "uint256",
          "name": "",
          "type": "uint256"
        }
      ],
      "name": "investRewards",
      "outputs": [
        {
          "internalType": "uint256",
          "name": "",
          "type": "uint256"
        }
      ],
      "stateMutability": "view",
      "type": "function"
    },
    {
      "inputs": [
        {
          "internalType": "address",
          "name": "",
          "type": "address"
        }
      ],
      "name": "lastInvestWeek",
      "outputs": [
        {
          "internalType": "uint256",
          "name": "",
          "type": "uint256"
        }
      ],
      "stateMutability": "view",
      "type": "function"
    },
    {
      "inputs": [],
      "name": "mintMinimum",
      "outputs": [
        {
          "internalType": "uint256",
          "name": "",
          "type": "uint256"
        }
      ],
      "stateMutability": "view",
      "type": "function"
    },
    {
      "inputs": [],
      "name": "owner",
      "outputs": [
        {
          "internalType": "address",
          "name": "",
          "type": "address"
        }
      ],
      "stateMutability": "view",
      "type": "function"
    },
    {
      "inputs": [],
      "name": "proxiableUUID",
      "outputs": [
        {
          "internalType": "bytes32",
          "name": "",
          "type": "bytes32"
        }
      ],
      "stateMutability": "view",
      "type": "function"
    },
    {
      "inputs": [
        {
          "internalType": "address",
          "name": "token",
          "type": "address"
        },
        {
          "internalType": "uint256",
          "name": "endTime",
          "type": "uint256"
        }
      ],
      "name": "redeposit",
      "outputs": [],
      "stateMutability": "nonpayable",
      "type": "function"
    },
    {
      "inputs": [],
      "name": "renounceOwnership",
      "outputs": [],
      "stateMutability": "nonpayable",
      "type": "function"
    },
    {
      "inputs": [],
      "name": "rewardToken",
      "outputs": [
        {
          "internalType": "address",
          "name": "",
          "type": "address"
        }
      ],
      "stateMutability": "view",
      "type": "function"
    },
    {
      "inputs": [],
      "name": "securedAccount",
      "outputs": [
        {
          "internalType": "address",
          "name": "",
          "type": "address"
        }
      ],
      "stateMutability": "view",
      "type": "function"
    },
    {
      "inputs": [
        {
          "internalType": "address",
          "name": "_rewardToken",
          "type": "address"
        }
      ],
      "name": "setRewardToken",
      "outputs": [],
      "stateMutability": "nonpayable",
      "type": "function"
    },
    {
      "inputs": [
        {
          "internalType": "uint256",
          "name": "_mintMinimum",
          "type": "uint256"
        },
        {
          "internalType": "uint256",
          "name": "_burnMaximum",
          "type": "uint256"
        }
      ],
      "name": "setSBTConf",
      "outputs": [],
      "stateMutability": "nonpayable",
      "type": "function"
    },
    {
      "inputs": [
        {
          "internalType": "address",
          "name": "_securedAccount",
          "type": "address"
        }
      ],
      "name": "setSecuredAccount",
      "outputs": [],
      "stateMutability": "nonpayable",
      "type": "function"
    },
    {
      "inputs": [
        {
          "internalType": "address",
          "name": "token",
          "type": "address"
        },
        {
          "internalType": "bool",
          "name": "enable",
          "type": "bool"
        }
      ],
      "name": "setTokenEnable",
      "outputs": [],
      "stateMutability": "nonpayable",
      "type": "function"
    },
    {
      "inputs": [
        {
          "internalType": "address",
          "name": "token",
          "type": "address"
        },
        {
          "internalType": "uint256",
          "name": "swapRatio",
          "type": "uint256"
        },
        {
          "internalType": "uint256",
          "name": "rate",
          "type": "uint256"
        }
      ],
      "name": "setTokenInfo",
      "outputs": [],
      "stateMutability": "nonpayable",
      "type": "function"
    },
    {
      "inputs": [],
      "name": "soulbound",
      "outputs": [
        {
          "internalType": "address",
          "name": "",
          "type": "address"
        }
      ],
      "stateMutability": "view",
      "type": "function"
    },
    {
      "inputs": [],
      "name": "startTime",
      "outputs": [
        {
          "internalType": "uint256",
          "name": "",
          "type": "uint256"
        }
      ],
      "stateMutability": "view",
      "type": "function"
    },
    {
      "inputs": [
        {
          "internalType": "address",
          "name": "",
          "type": "address"
        }
      ],
      "name": "tokenEnable",
      "outputs": [
        {
          "internalType": "bool",
          "name": "",
          "type": "bool"
        }
      ],
      "stateMutability": "view",
      "type": "function"
    },
    {
      "inputs": [
        {
          "internalType": "address",
          "name": "",
          "type": "address"
        }
      ],
      "name": "tokenInfo",
      "outputs": [
        {
          "internalType": "uint256",
          "name": "swapRatio",
          "type": "uint256"
        },
        {
          "internalType": "uint256",
          "name": "rate",
          "type": "uint256"
        }
      ],
      "stateMutability": "view",
      "type": "function"
    },
    {
      "inputs": [
        {
          "internalType": "address",
          "name": "newOwner",
          "type": "address"
        }
      ],
      "name": "transferOwnership",
      "outputs": [],
      "stateMutability": "nonpayable",
      "type": "function"
    },
    {
      "inputs": [
        {
          "internalType": "address",
          "name": "newImplementation",
          "type": "address"
        }
      ],
      "name": "upgradeTo",
      "outputs": [],
      "stateMutability": "nonpayable",
      "type": "function"
    },
    {
      "inputs": [
        {
          "internalType": "address",
          "name": "newImplementation",
          "type": "address"
        },
        {
          "internalType": "bytes",
          "name": "data",
          "type": "bytes"
        }
      ],
      "name": "upgradeToAndCall",
      "outputs": [],
      "stateMutability": "payable",
      "type": "function"
    },
    {
      "inputs": [
        {
          "internalType": "address",
          "name": "",
          "type": "address"
        },
        {
          "internalType": "address",
          "name": "",
          "type": "address"
        }
      ],
      "name": "userInfo",
      "outputs": [
        {
          "internalType": "uint256",
          "name": "unlockTime",
          "type": "uint256"
        },
        {
          "internalType": "uint256",
          "name": "amount",
          "type": "uint256"
        }
      ],
      "stateMutability": "view",
      "type": "function"
    },
    {
      "inputs": [],
      "name": "version",
      "outputs": [
        {
          "internalType": "uint8",
          "name": "",
          "type": "uint8"
        }
      ],
      "stateMutability": "view",
      "type": "function"
    },
    {
      "inputs": [
        {
          "internalType": "address",
          "name": "",
          "type": "address"
        },
        {
          "internalType": "address",
          "name": "",
          "type": "address"
        },
        {
          "internalType": "uint256",
          "name": "",
          "type": "uint256"
        }
      ],
      "name": "weeklyLockData",
      "outputs": [
        {
          "internalType": "uint256",
          "name": "",
          "type": "uint256"
        }
      ],
      "stateMutability": "view",
      "type": "function"
    },
    {
      "inputs": [
        {
          "internalType": "address",
          "name": "",
          "type": "address"
        },
        {
          "internalType": "uint256",
          "name": "",
          "type": "uint256"
        }
      ],
      "name": "weeklyTotalWeight",
      "outputs": [
        {
          "internalType": "uint256",
          "name": "",
          "type": "uint256"
        }
      ],
      "stateMutability": "view",
      "type": "function"
    },
    {
      "inputs": [
        {
          "internalType": "address",
          "name": "token",
          "type": "address"
        },
        {
          "internalType": "uint256",
          "name": "amount",
          "type": "uint256"
        }
      ],
      "name": "withdraw",
      "outputs": [],
      "stateMutability": "nonpayable",
      "type": "function"
    },
    {
      "inputs": [
        {
          "internalType": "uint256",
          "name": "amount",
          "type": "uint256"
        }
      ],
      "name": "withdrawETH",
      "outputs": [],
      "stateMutability": "nonpayable",
      "type": "function"
    }
  ],
  "bytecode": "0x60a06040523060805234801561001457600080fd5b5060805161307461004c60003960008181610cbe01528181610cfe01528181610f1801528181610f580152610fe701526130746000f3fe6080604052600436106102515760003560e01c8063874d6d8111610139578063ecab03f2116100b6578063f4359ce51161007a578063f4359ce51461077e578063f4cec12e14610795578063f5dab711146107c2578063f6326fb3146107f6578063f7c618c1146107fe578063f835976b1461081e57600080fd5b8063ecab03f2146106c6578063efee7c7a146106e6578063f14210a61461071e578063f2fde38b1461073e578063f3fef3a31461075e57600080fd5b8063ad5c4648116100fd578063ad5c46481461060e578063aea617041461062e578063b4663f381461064e578063bb864c5b1461066e578063e964ec4c1461068e57600080fd5b8063874d6d81146105635780638aee8127146105785780638da5cb5b14610598578063951d9926146105b6578063a6a2ded4146105d657600080fd5b806345230e10116101d25780634f1ef286116101965780634f1ef286146104ce57806352d1902d146104e157806354fd4d50146104f6578063715018a61461052257806378e9792514610537578063808175f21461054d57600080fd5b806345230e101461040357806347e7ef24146104415780634b9d1cb5146104615780634c8ad1c91461048e5780634e4d91b7146104ae57600080fd5b8063318d9e5d11610219578063318d9e5d1461036957806332644658146103895780633641e083146103ad5780633659cfe6146103cd57806337ba682d146103ed57600080fd5b80630556d16a146102565780630d5d0d771461029b5780630f208beb146102bd5780630fad0f51146103115780632ea6bdc014610349575b600080fd5b34801561026257600080fd5b506102866102713660046129ad565b60d46020526000908152604090205460ff1681565b60405190151581526020015b60405180910390f35b3480156102a757600080fd5b506102bb6102b63660046129d6565b61083e565b005b3480156102c957600080fd5b506102fc6102d8366004612a0d565b60d06020908152600092835260408084209091529082529020805460019091015482565b60408051928352602083019190915201610292565b34801561031d57600080fd5b5060d754610331906001600160a01b031681565b6040516001600160a01b039091168152602001610292565b34801561035557600080fd5b506102bb610364366004612a40565b610871565b34801561037557600080fd5b506102bb610384366004612aa7565b610884565b34801561039557600080fd5b5061039f60d85481565b604051908152602001610292565b3480156103b957600080fd5b506102bb6103c8366004612ae9565b610acf565b3480156103d957600080fd5b506102bb6103e83660046129ad565b610cb3565b3480156103f957600080fd5b5061039f60ca5481565b34801561040f57600080fd5b5061039f61041e366004612b47565b60d160209081526000938452604080852082529284528284209052825290205481565b34801561044d57600080fd5b506102bb61045c366004612b83565b610d93565b34801561046d57600080fd5b5061048161047c366004612bad565b610dee565b6040516102929190612c00565b34801561049a57600080fd5b506102fc6104a9366004612b47565b610e8e565b3480156104ba57600080fd5b506102bb6104c9366004612c44565b610eda565b6102bb6104dc366004612c8d565b610f0d565b3480156104ed57600080fd5b5061039f610fda565b34801561050257600080fd5b5060c9546105109060ff1681565b60405160ff9091168152602001610292565b34801561052e57600080fd5b506102bb61108d565b34801561054357600080fd5b5061039f60cd5481565b34801561055957600080fd5b5061039f60d95481565b34801561056f57600080fd5b5061039f6110a1565b34801561058457600080fd5b506102bb6105933660046129ad565b6110c4565b3480156105a457600080fd5b506033546001600160a01b0316610331565b3480156105c257600080fd5b506102bb6105d1366004612b83565b6110ee565b3480156105e257600080fd5b5061039f6105f1366004612b83565b60d660209081526000928352604080842090915290825290205481565b34801561061a57600080fd5b5060cb54610331906001600160a01b031681565b34801561063a57600080fd5b5061039f610649366004612d4f565b611363565b34801561065a57600080fd5b5061039f610669366004612b83565b611387565b34801561067a57600080fd5b5060cc54610331906001600160a01b031681565b34801561069a57600080fd5b5061039f6106a9366004612b83565b60d260209081526000928352604080842090915290825290205481565b3480156106d257600080fd5b506102bb6106e1366004612c44565b611450565b3480156106f257600080fd5b5061039f610701366004612a0d565b60da60209081526000928352604080842090915290825290205481565b34801561072a57600080fd5b506102bb610739366004612d4f565b6114fa565b34801561074a57600080fd5b506102bb6107593660046129ad565b6115a9565b34801561076a57600080fd5b506102bb610779366004612b83565b61161f565b34801561078a57600080fd5b5061039f62093a8081565b3480156107a157600080fd5b5061039f6107b03660046129ad565b60d56020526000908152604090205481565b3480156107ce57600080fd5b506102fc6107dd3660046129ad565b60cf602052600090815260409020805460019091015482565b6102bb61163d565b34801561080a57600080fd5b5060ce54610331906001600160a01b031681565b34801561082a57600080fd5b506102bb6108393660046129ad565b6116be565b6108466116e8565b6001600160a01b0391909116600090815260d460205260409020805460ff1916911515919091179055565b6108796116e8565b60d89190915560d955565b60008167ffffffffffffffff81111561089f5761089f612c77565b6040519080825280602002602001820160405280156108c8578160200160208202803683370190505b5090506108ef60405180606001604052806000815260200160008152602001600081525090565b60005b83811015610ac85761092985858381811061090f5761090f612d68565b905060200201602081019061092491906129ad565b611742565b6109593386868481811061093f5761093f612d68565b905060200201602081019061095491906129ad565b6118e8565b84838151811061096b5761096b612d68565b60209081029190910181019290925233600090815260d39092526040822090935083918787858181106109a0576109a0612d68565b90506020020160208101906109b591906129ad565b6001600160a01b03166001600160a01b03168152602001908152602001600020600082015181600001556020820151816001015560408201518160020155905050610a2a33848381518110610a0c57610a0c612d68565b602090810291909101015160ce546001600160a01b03169190611ad4565b848482818110610a3c57610a3c612d68565b9050602002016020810190610a5191906129ad565b6001600160a01b0316336001600160a01b03167f70eb43c4a8ae8c40502dcf22436c509c28d6ff421cf07c491be56984bd987068858481518110610a9757610a97612d68565b6020026020010151604051610aae91815260200190565b60405180910390a380610ac081612d94565b9150506108f2565b5050505050565b600054610100900460ff1615808015610aef5750600054600160ff909116105b80610b095750303b158015610b09575060005460ff166001145b610b715760405162461bcd60e51b815260206004820152602e60248201527f496e697469616c697a61626c653a20636f6e747261637420697320616c72656160448201526d191e481a5b9a5d1a585b1a5e995960921b60648201526084015b60405180910390fd5b6000805460ff191660011790558015610b94576000805461ff0019166101001790555b8562093a80610ba38183612daf565b610bad9190612dd1565b14610be85760405162461bcd60e51b815260206004820152600b60248201526a2165706f6368207765656b60a81b6044820152606401610b68565b60cd86905560ce80546001600160a01b0319166001600160a01b038716179055610c15866277f880612df0565b60ca5560cb80546001600160a01b038087166001600160a01b03199283161790925560cc805486841690831617905560d7805492851692909116919091179055610c5d611b3c565b610c65611b6b565b8015610cab576000805461ff0019169055604051600181527f7f26b83ff96e1f2b6a682f133852f6798a09c465da95921460cefb38474024989060200160405180910390a15b505050505050565b306001600160a01b037f0000000000000000000000000000000000000000000000000000000000000000161415610cfc5760405162461bcd60e51b8152600401610b6890612e08565b7f00000000000000000000000000000000000000000000000000000000000000006001600160a01b0316610d45600080516020612ff8833981519152546001600160a01b031690565b6001600160a01b031614610d6b5760405162461bcd60e51b8152600401610b6890612e54565b610d7481611b92565b60408051600080825260208201909252610d9091839190611bc9565b50565b6001600160a01b038216600090815260d4602052604090205460ff16610dcb5760405162461bcd60e51b8152600401610b6890612ea0565b610de06001600160a01b038316333084611d34565b610dea8282611d6c565b5050565b60608167ffffffffffffffff811115610e0957610e09612c77565b604051908082528060200260200182016040528015610e32578160200160208202803683370190505b50905060005b82811015610e8657610e568585858481811061093f5761093f612d68565b50828281518110610e6957610e69612d68565b602090810291909101015280610e7e81612d94565b915050610e38565b509392505050565b6001600160a01b03808416600090815260d16020908152604080832093861680845293825280832085845282528083205493835260d28252808320858452909152902054935093915050565b610ee26116e8565b610eeb83611742565b6001600160a01b03909216600090815260cf6020526040902090815560010155565b306001600160a01b037f0000000000000000000000000000000000000000000000000000000000000000161415610f565760405162461bcd60e51b8152600401610b6890612e08565b7f00000000000000000000000000000000000000000000000000000000000000006001600160a01b0316610f9f600080516020612ff8833981519152546001600160a01b031690565b6001600160a01b031614610fc55760405162461bcd60e51b8152600401610b6890612e54565b610fce82611b92565b610dea82826001611bc9565b6000306001600160a01b037f0000000000000000000000000000000000000000000000000000000000000000161461107a5760405162461bcd60e51b815260206004820152603860248201527f555550535570677261646561626c653a206d757374206e6f742062652063616c60448201527f6c6564207468726f7567682064656c656761746563616c6c00000000000000006064820152608401610b68565b50600080516020612ff883398151915290565b6110956116e8565b61109f6000611e89565b565b600062093a8060cd54426110b59190612ec4565b6110bf9190612daf565b905090565b6110cc6116e8565b60ce80546001600160a01b0319166001600160a01b0392909216919091179055565b6001600160a01b038216600090815260d4602052604090205460ff166111265760405162461bcd60e51b8152600401610b6890612ea0565b8062093a806111358183612daf565b61113f9190612dd1565b1461117d5760405162461bcd60e51b815260206004820152600e60248201526d6e6f742065706f6368207765656b60901b6044820152606401610b68565b6111856110a1565b61118e82611363565b116111c85760405162461bcd60e51b815260206004820152600a6024820152693bb2b2b59032b93937b960b11b6044820152606401610b68565b33600090815260d0602090815260408083206001600160a01b03861684529091529020600101546112285760405162461bcd60e51b815260206004820152600a6024820152690dcdee840cadcdeeaced60b31b6044820152606401610b68565b33600090815260d0602090815260408083206001600160a01b038616845290915290205442116112895760405162461bcd60e51b815260206004820152600c60248201526b1b9bdd081d5b9b1bd8dad95960a21b6044820152606401610b68565b33600081815260d0602090815260408083206001600160a01b038716845290915290208290556112f190836112bc6110a1565b6112c585611363565b33600090815260d0602090815260408083206001600160a01b038b168452909152902060010154611edb565b33600081815260d0602090815260408083206001600160a01b0387168085529252909120600101549091907f59a464c755fd8d80751b91336b557fbfe1b933ae3aa06e0f2de0169a747677a19061134785611363565b6040805192835260208301919091520160405180910390a35050565b600062093a8060cd54836113779190612ec4565b6113819190612daf565b92915050565b6001600160a01b038216600090815260d660209081526040808320848452909152812054156113da57506001600160a01b038216600090815260d660209081526040808320848452909152902054611381565b6001600160a01b038316600090815260cf602090815260408083206001810154905460d2845282852087865290935292205461016d926127109290916114209190612dd1565b61142a9190612dd1565b6114349190612daf565b61143e9190612daf565b611449906007612dd1565b9392505050565b6114586116e8565b61146183611742565b6001600160a01b03838116600090815260d56020908152604080832086905560d682528083208684529091529081902083905560ce549051632baf2acb60e01b81523060048201526024810184905260448101849052911690632baf2acb90606401600060405180830381600087803b1580156114dd57600080fd5b505af11580156114f1573d6000803e3d6000fd5b50505050505050565b60cb54611510906001600160a01b031682611f86565b60cb54604051632e1a7d4d60e01b8152600481018390526001600160a01b0390911690632e1a7d4d90602401600060405180830381600087803b15801561155657600080fd5b505af115801561156a573d6000803e3d6000fd5b50506040516000925033915083156108fc0290849084818181858888f19350505050905080610dea5760cc54610dea906001600160a01b0316836120d6565b6115b16116e8565b6001600160a01b0381166116165760405162461bcd60e51b815260206004820152602660248201527f4f776e61626c653a206e6577206f776e657220697320746865207a65726f206160448201526564647265737360d01b6064820152608401610b68565b610d9081611e89565b6116298282611f86565b610dea6001600160a01b0383163383611ad4565b60cb60009054906101000a90046001600160a01b03166001600160a01b031663d0e30db0346040518263ffffffff1660e01b81526004016000604051808303818588803b15801561168d57600080fd5b505af11580156116a1573d6000803e3d6000fd5b505060cb5461109f93506001600160a01b03169150349050611d6c565b6116c66116e8565b60cc80546001600160a01b0319166001600160a01b0392909216919091179055565b6033546001600160a01b0316331461109f5760405162461bcd60e51b815260206004820181905260248201527f4f776e61626c653a2063616c6c6572206973206e6f7420746865206f776e65726044820152606401610b68565b60008061174d6110a1565b6001600160a01b038416600090815260d560205260408120549192509015611798576001600160a01b038416600090815260d56020526040902054611793906001612df0565b6117a3565b6117a360cd54611363565b9050805b8281101561186f576001600160a01b038516600090815260d66020908152604080832084845290915290205461185d5760006117e38683611387565b6001600160a01b038716600081815260d56020908152604080832087905560d68252808320878452825291829020849055815184815290810186905292935090917ff06658c711f98854bd16db8ee1058efc4657aa8503e5dd939e64d67c1472b26b910160405180910390a26118598186612df0565b9450505b8061186781612d94565b9150506117a7565b5082156118e25760ce54604051632baf2acb60e01b815230600482015260248101859052604481018590526001600160a01b0390911690632baf2acb90606401600060405180830381600087803b1580156118c957600080fd5b505af11580156118dd573d6000803e3d6000fd5b505050505b50505050565b600061190e60405180606001604052806000815260200160008152602001600081525090565b60006119186110a1565b90508061194a576000604051806060016040528060cd5481526020016000815260200160008152509250925050611acd565b611955600182612ec4565b6001600160a01b03808716600090815260d3602090815260408083209389168352928152828220835160608101855281548082526001830154938201939093526002909101549381019390935292935090916119b3575060006119d3565b60cd54825162093a80916119c691612ec4565b6119d09190612daf565b90505b600081841415611a0e5760408301516119ed8989876121ef565b93508084604001516119ff9190612ec4565b9650929450611acd9350505050565b825115611a395782604001518360200151611a299190612ec4565b9050611a36600183612df0565b91505b815b84811015611aa657600080611a518b8b85610e8e565b915091508160001415611a65575050611a94565b8082611a718c86611387565b611a7b9190612dd1565b611a859190612daf565b611a8f9085612df0565b935050505b80611a9e81612d94565b915050611a3b565b50611ab28888866121ef565b9250826040015181611ac49190612df0565b95509193505050505b9250929050565b6040516001600160a01b038316602482015260448101829052611b3790849063a9059cbb60e01b906064015b60408051601f198184030181529190526020810180516001600160e01b03166001600160e01b0319909316929092179091526122c3565b505050565b600054610100900460ff16611b635760405162461bcd60e51b8152600401610b6890612edb565b61109f612398565b600054610100900460ff1661109f5760405162461bcd60e51b8152600401610b6890612edb565b611b9a6116e8565b60c9805460ff16906000611bad83612f26565b91906101000a81548160ff021916908360ff1602179055505050565b7f4910fdfa16fed3260ed0e7147f7cc6da11a60208b5b9406d12a635614ffd91435460ff1615611bfc57611b37836123c8565b826001600160a01b03166352d1902d6040518163ffffffff1660e01b8152600401602060405180830381865afa925050508015611c56575060408051601f3d908101601f19168201909252611c5391810190612f46565b60015b611cb95760405162461bcd60e51b815260206004820152602e60248201527f45524331393637557067726164653a206e657720696d706c656d656e7461746960448201526d6f6e206973206e6f74205555505360901b6064820152608401610b68565b600080516020612ff88339815191528114611d285760405162461bcd60e51b815260206004820152602960248201527f45524331393637557067726164653a20756e737570706f727465642070726f786044820152681a58589b195555525160ba1b6064820152608401610b68565b50611b37838383612464565b6040516001600160a01b03808516602483015283166044820152606481018290526118e29085906323b872dd60e01b90608401611b00565b60ca544210611da35760405162461bcd60e51b8152602060048201526003602482015262195b9960ea1b6044820152606401610b68565b33600090815260d0602090815260408083206001600160a01b038616845290915281206001018054839290611dd9908490612df0565b909155505060ca5433600081815260d0602090815260408083206001600160a01b0388168452909152902091909155611e269083611e156110a1565b611e2060ca54611363565b85611edb565b816001600160a01b0316336001600160a01b03167fdcbc1c05240f31ff3ad067ef1ee35ce4997762752e3a095284754544f4c709d783611e6760ca54611363565b6040805192835260208301919091520160405180910390a3610dea3383612489565b603380546001600160a01b038381166001600160a01b0319831681179093556040519116919082907f8be0079c531659141344cd1fd0a4f28419497f9722a3daafe3b4186f6b6457e090600090a35050565b825b82811015610cab576001600160a01b038516600090815260d260209081526040808320848452909152812080546001600160801b0385169290611f21908490612df0565b90915550506001600160a01b03808716600090815260d1602090815260408083209389168352928152828220848352905290812080546001600160801b0385169290611f6e908490612df0565b90915550819050611f7e81612d94565b915050611edd565b6001600160a01b038216600090815260d4602052604090205460ff16611fbe5760405162461bcd60e51b8152600401610b6890612ea0565b33600090815260d0602090815260408083206001600160a01b03861684529091529020600101548111156120215760405162461bcd60e51b815260206004820152600a6024820152690dcdee840cadcdeeaced60b31b6044820152606401610b68565b33600090815260d0602090815260408083206001600160a01b038616845290915290205442101561205157600080fd5b33600090815260d0602090815260408083206001600160a01b038616845290915281206001018054839290612087908490612ec4565b90915550506040518181526001600160a01b0383169033907f9b1bfa7fa9ee420a16e124f794c35ac9f90472acc99140eb2f6447c714cad8eb9060200160405180910390a3610dea338361261b565b804710156121265760405162461bcd60e51b815260206004820152601d60248201527f416464726573733a20696e73756666696369656e742062616c616e63650000006044820152606401610b68565b6000826001600160a01b03168260405160006040518083038185875af1925050503d8060008114612173576040519150601f19603f3d011682016040523d82523d6000602084013e612178565b606091505b5050905080611b375760405162461bcd60e51b815260206004820152603a60248201527f416464726573733a20756e61626c6520746f2073656e642076616c75652c207260448201527f6563697069656e74206d617920686176652072657665727465640000000000006064820152608401610b68565b61221360405180606001604052806000815260200160008152602001600081525090565b600061222262093a8084612dd1565b60cd5461222f9190612df0565b905060008061223f878787610e8e565b9092509050600080831561229f5782846122598a8a611387565b6122639190612dd1565b61226d9190612daf565b915062093a808561227e8242612ec4565b6122889190612ec4565b6122929084612dd1565b61229c9190612daf565b90505b60408051606081018252958652602086019290925290840152509095945050505050565b6000612318826040518060400160405280602081526020017f5361666545524332303a206c6f772d6c6576656c2063616c6c206661696c6564815250856001600160a01b03166127279092919063ffffffff16565b90508051600014806123395750808060200190518101906123399190612f5f565b611b375760405162461bcd60e51b815260206004820152602a60248201527f5361666545524332303a204552433230206f7065726174696f6e20646964206e6044820152691bdd081cdd58d8d9595960b21b6064820152608401610b68565b600054610100900460ff166123bf5760405162461bcd60e51b8152600401610b6890612edb565b61109f33611e89565b6001600160a01b0381163b6124355760405162461bcd60e51b815260206004820152602d60248201527f455243313936373a206e657720696d706c656d656e746174696f6e206973206e60448201526c1bdd08184818dbdb9d1c9858dd609a1b6064820152608401610b68565b600080516020612ff883398151915280546001600160a01b0319166001600160a01b0392909216919091179055565b61246d8361273e565b60008251118061247a5750805b15611b37576118e2838361277e565b60d7546040516370a0823160e01b81526001600160a01b03848116600483015260009216906370a0823190602401602060405180830381865afa1580156124d4573d6000803e3d6000fd5b505050506040513d601f19601f820116820180604052508101906124f89190612f46565b905080158015612532575060d8546001600160a01b03808516600090815260d0602090815260408083209387168352929052206001015410155b15611b375760d7546040805180820182526001600160a01b03868116600081815260d06020908152858220898516808452818352878420600181015488529084529082525490850190815294516337067b4b60e11b81526004810192909252925160248201529251604484015290921690636e0cf696906064016020604051808303816000875af11580156125cb573d6000803e3d6000fd5b505050506040513d601f19601f820116820180604052508101906125ef9190612f46565b6001600160a01b03808616600090815260da602090815260408083209388168352929052205550505050565b6001600160a01b03808316600090815260da602090815260408083209385168352929052205415801590612678575060d9546001600160a01b03808416600090815260d06020908152604080832093861683529290522060010154105b15610dea5760d7546001600160a01b03838116600090815260da60209081526040808320868516845290915290819020549051630852cd8d60e31b815260048101919091529116906342966c6890602401600060405180830381600087803b1580156126e357600080fd5b505af11580156126f7573d6000803e3d6000fd5b5050506001600160a01b03808416600090815260da60209081526040808320938616835292905290812055505050565b606061273684846000856127a3565b949350505050565b612747816123c8565b6040516001600160a01b038216907fbc7cd75a20ee27fd9adebab32041f755214dbc6bffa90cc0225b39da2e5c2d3b90600090a250565b606061144983836040518060600160405280602781526020016130186027913961287e565b6060824710156128045760405162461bcd60e51b815260206004820152602660248201527f416464726573733a20696e73756666696369656e742062616c616e636520666f6044820152651c8818d85b1b60d21b6064820152608401610b68565b600080866001600160a01b031685876040516128209190612fa8565b60006040518083038185875af1925050503d806000811461285d576040519150601f19603f3d011682016040523d82523d6000602084013e612862565b606091505b5091509150612873878383876128f6565b979650505050505050565b6060600080856001600160a01b03168560405161289b9190612fa8565b600060405180830381855af49150503d80600081146128d6576040519150601f19603f3d011682016040523d82523d6000602084013e6128db565b606091505b50915091506128ec868383876128f6565b9695505050505050565b6060831561296257825161295b576001600160a01b0385163b61295b5760405162461bcd60e51b815260206004820152601d60248201527f416464726573733a2063616c6c20746f206e6f6e2d636f6e74726163740000006044820152606401610b68565b5081612736565b61273683838151156129775781518083602001fd5b8060405162461bcd60e51b8152600401610b689190612fc4565b80356001600160a01b03811681146129a857600080fd5b919050565b6000602082840312156129bf57600080fd5b61144982612991565b8015158114610d9057600080fd5b600080604083850312156129e957600080fd5b6129f283612991565b91506020830135612a02816129c8565b809150509250929050565b60008060408385031215612a2057600080fd5b612a2983612991565b9150612a3760208401612991565b90509250929050565b60008060408385031215612a5357600080fd5b50508035926020909101359150565b60008083601f840112612a7457600080fd5b50813567ffffffffffffffff811115612a8c57600080fd5b6020830191508360208260051b8501011115611acd57600080fd5b60008060208385031215612aba57600080fd5b823567ffffffffffffffff811115612ad157600080fd5b612add85828601612a62565b90969095509350505050565b600080600080600060a08688031215612b0157600080fd5b85359450612b1160208701612991565b9350612b1f60408701612991565b9250612b2d60608701612991565b9150612b3b60808701612991565b90509295509295909350565b600080600060608486031215612b5c57600080fd5b612b6584612991565b9250612b7360208501612991565b9150604084013590509250925092565b60008060408385031215612b9657600080fd5b612b9f83612991565b946020939093013593505050565b600080600060408486031215612bc257600080fd5b612bcb84612991565b9250602084013567ffffffffffffffff811115612be757600080fd5b612bf386828701612a62565b9497909650939450505050565b6020808252825182820181905260009190848201906040850190845b81811015612c3857835183529284019291840191600101612c1c565b50909695505050505050565b600080600060608486031215612c5957600080fd5b612c6284612991565b95602085013595506040909401359392505050565b634e487b7160e01b600052604160045260246000fd5b60008060408385031215612ca057600080fd5b612ca983612991565b9150602083013567ffffffffffffffff80821115612cc657600080fd5b818501915085601f830112612cda57600080fd5b813581811115612cec57612cec612c77565b604051601f8201601f19908116603f01168101908382118183101715612d1457612d14612c77565b81604052828152886020848701011115612d2d57600080fd5b8260208601602083013760006020848301015280955050505050509250929050565b600060208284031215612d6157600080fd5b5035919050565b634e487b7160e01b600052603260045260246000fd5b634e487b7160e01b600052601160045260246000fd5b6000600019821415612da857612da8612d7e565b5060010190565b600082612dcc57634e487b7160e01b600052601260045260246000fd5b500490565b6000816000190483118215151615612deb57612deb612d7e565b500290565b60008219821115612e0357612e03612d7e565b500190565b6020808252602c908201527f46756e6374696f6e206d7573742062652063616c6c6564207468726f7567682060408201526b19195b1959d85d1958d85b1b60a21b606082015260800190565b6020808252602c908201527f46756e6374696f6e206d7573742062652063616c6c6564207468726f7567682060408201526b6163746976652070726f787960a01b606082015260800190565b6020808252600a90820152696e6f7420656e61626c6560b01b604082015260600190565b600082821015612ed657612ed6612d7e565b500390565b6020808252602b908201527f496e697469616c697a61626c653a20636f6e7472616374206973206e6f74206960408201526a6e697469616c697a696e6760a81b606082015260800190565b600060ff821660ff811415612f3d57612f3d612d7e565b60010192915050565b600060208284031215612f5857600080fd5b5051919050565b600060208284031215612f7157600080fd5b8151611449816129c8565b60005b83811015612f97578181015183820152602001612f7f565b838111156118e25750506000910152565b60008251612fba818460208701612f7c565b9190910192915050565b6020815260008251806020840152612fe3816040850160208701612f7c565b601f01601f1916919091016040019291505056fe360894a13ba1a3210667c828492db98dca3e2076cc3735a920a3ca505d382bbc416464726573733a206c6f772d6c6576656c2064656c65676174652063616c6c206661696c6564a2646970667358221220b8c43950f6c868e796d83292510a5913aee261979aef87ff23d22b75f19b7f6464736f6c634300080a0033",
  "linkReferences": {},
  "deployedLinkReferences": {}
}