{
  "_format": "hh-sol-artifact-1",
  "contractName": "SeasonHelper",
  "sourceName": "contracts/farm/SeasonHelper.sol",
  "abi": [
    {
      "inputs": [],
      "name": "AccessControlBadConfirmation",
      "type": "error"
    },
    {
      "inputs": [
        {
          "internalType": "address",
          "name": "account",
          "type": "address"
        },
        {
          "internalType": "bytes32",
          "name": "neededRole",
          "type": "bytes32"
        }
      ],
      "name": "AccessControlUnauthorizedAccount",
      "type": "error"
    },
    {
      "inputs": [
        {
          "internalType": "address",
          "name": "target",
          "type": "address"
        }
      ],
      "name": "AddressEmptyCode",
      "type": "error"
    },
    {
      "inputs": [
        {
          "internalType": "address",
          "name": "implementation",
          "type": "address"
        }
      ],
      "name": "ERC1967InvalidImplementation",
      "type": "error"
    },
    {
      "inputs": [],
      "name": "ERC1967NonPayable",
      "type": "error"
    },
    {
      "inputs": [],
      "name": "FailedInnerCall",
      "type": "error"
    },
    {
      "inputs": [],
      "name": "InvalidInitialization",
      "type": "error"
    },
    {
      "inputs": [],
      "name": "NotInitializing",
      "type": "error"
    },
    {
      "inputs": [],
      "name": "UUPSUnauthorizedCallContext",
      "type": "error"
    },
    {
      "inputs": [
        {
          "internalType": "bytes32",
          "name": "slot",
          "type": "bytes32"
        }
      ],
      "name": "UUPSUnsupportedProxiableUUID",
      "type": "error"
    },
    {
      "anonymous": false,
      "inputs": [
        {
          "indexed": false,
          "internalType": "uint64",
          "name": "version",
          "type": "uint64"
        }
      ],
      "name": "Initialized",
      "type": "event"
    },
    {
      "anonymous": false,
      "inputs": [
        {
          "indexed": true,
          "internalType": "bytes32",
          "name": "role",
          "type": "bytes32"
        },
        {
          "indexed": true,
          "internalType": "bytes32",
          "name": "previousAdminRole",
          "type": "bytes32"
        },
        {
          "indexed": true,
          "internalType": "bytes32",
          "name": "newAdminRole",
          "type": "bytes32"
        }
      ],
      "name": "RoleAdminChanged",
      "type": "event"
    },
    {
      "anonymous": false,
      "inputs": [
        {
          "indexed": true,
          "internalType": "bytes32",
          "name": "role",
          "type": "bytes32"
        },
        {
          "indexed": true,
          "internalType": "address",
          "name": "account",
          "type": "address"
        },
        {
          "indexed": true,
          "internalType": "address",
          "name": "sender",
          "type": "address"
        }
      ],
      "name": "RoleGranted",
      "type": "event"
    },
    {
      "anonymous": false,
      "inputs": [
        {
          "indexed": true,
          "internalType": "bytes32",
          "name": "role",
          "type": "bytes32"
        },
        {
          "indexed": true,
          "internalType": "address",
          "name": "account",
          "type": "address"
        },
        {
          "indexed": true,
          "internalType": "address",
          "name": "sender",
          "type": "address"
        }
      ],
      "name": "RoleRevoked",
      "type": "event"
    },
    {
      "anonymous": false,
      "inputs": [
        {
          "indexed": true,
          "internalType": "address",
          "name": "implementation",
          "type": "address"
        }
      ],
      "name": "Upgraded",
      "type": "event"
    },
    {
      "inputs": [],
      "name": "DEFAULT_ADMIN_ROLE",
      "outputs": [
        {
          "internalType": "bytes32",
          "name": "",
          "type": "bytes32"
        }
      ],
      "stateMutability": "view",
      "type": "function"
    },
    {
      "inputs": [],
      "name": "UPGRADE_INTERFACE_VERSION",
      "outputs": [
        {
          "internalType": "string",
          "name": "",
          "type": "string"
        }
      ],
      "stateMutability": "view",
      "type": "function"
    },
    {
      "inputs": [],
      "name": "currentSeason",
      "outputs": [
        {
          "internalType": "uint256",
          "name": "",
          "type": "uint256"
        }
      ],
      "stateMutability": "view",
      "type": "function"
    },
    {
      "inputs": [],
      "name": "currentSeasonEnd",
      "outputs": [
        {
          "internalType": "uint256",
          "name": "",
          "type": "uint256"
        }
      ],
      "stateMutability": "view",
      "type": "function"
    },
    {
      "inputs": [],
      "name": "getMaxSeasonIndex",
      "outputs": [
        {
          "internalType": "uint256",
          "name": "",
          "type": "uint256"
        }
      ],
      "stateMutability": "view",
      "type": "function"
    },
    {
      "inputs": [
        {
          "internalType": "bytes32",
          "name": "role",
          "type": "bytes32"
        }
      ],
      "name": "getRoleAdmin",
      "outputs": [
        {
          "internalType": "bytes32",
          "name": "",
          "type": "bytes32"
        }
      ],
      "stateMutability": "view",
      "type": "function"
    },
    {
      "inputs": [],
      "name": "getSeason",
      "outputs": [
        {
          "components": [
            {
              "internalType": "uint256",
              "name": "startAfter",
              "type": "uint256"
            },
            {
              "internalType": "uint256",
              "name": "period",
              "type": "uint256"
            },
            {
              "internalType": "uint256",
              "name": "seasonOffset",
              "type": "uint256"
            }
          ],
          "internalType": "struct ISeasonHelper.Season",
          "name": "",
          "type": "tuple"
        }
      ],
      "stateMutability": "view",
      "type": "function"
    },
    {
      "inputs": [
        {
          "internalType": "uint256",
          "name": "ts",
          "type": "uint256"
        }
      ],
      "name": "getSeasonPeriod",
      "outputs": [
        {
          "internalType": "uint256",
          "name": "start",
          "type": "uint256"
        },
        {
          "internalType": "uint256",
          "name": "period",
          "type": "uint256"
        }
      ],
      "stateMutability": "view",
      "type": "function"
    },
    {
      "inputs": [
        {
          "internalType": "uint256",
          "name": "ss",
          "type": "uint256"
        }
      ],
      "name": "getSeasonPeriodBySeason",
      "outputs": [
        {
          "internalType": "uint256",
          "name": "start",
          "type": "uint256"
        },
        {
          "internalType": "uint256",
          "name": "period",
          "type": "uint256"
        }
      ],
      "stateMutability": "view",
      "type": "function"
    },
    {
      "inputs": [
        {
          "internalType": "bytes32",
          "name": "role",
          "type": "bytes32"
        },
        {
          "internalType": "address",
          "name": "account",
          "type": "address"
        }
      ],
      "name": "grantRole",
      "outputs": [],
      "stateMutability": "nonpayable",
      "type": "function"
    },
    {
      "inputs": [
        {
          "internalType": "bytes32",
          "name": "role",
          "type": "bytes32"
        },
        {
          "internalType": "address",
          "name": "account",
          "type": "address"
        }
      ],
      "name": "hasRole",
      "outputs": [
        {
          "internalType": "bool",
          "name": "",
          "type": "bool"
        }
      ],
      "stateMutability": "view",
      "type": "function"
    },
    {
      "inputs": [],
      "name": "initialize",
      "outputs": [],
      "stateMutability": "nonpayable",
      "type": "function"
    },
    {
      "inputs": [
        {
          "internalType": "uint256",
          "name": "ss",
          "type": "uint256"
        }
      ],
      "name": "isSeasonValid",
      "outputs": [
        {
          "internalType": "bool",
          "name": "seasonExist",
          "type": "bool"
        }
      ],
      "stateMutability": "view",
      "type": "function"
    },
    {
      "inputs": [],
      "name": "proxiableUUID",
      "outputs": [
        {
          "internalType": "bytes32",
          "name": "",
          "type": "bytes32"
        }
      ],
      "stateMutability": "view",
      "type": "function"
    },
    {
      "inputs": [
        {
          "internalType": "bytes32",
          "name": "role",
          "type": "bytes32"
        },
        {
          "internalType": "address",
          "name": "callerConfirmation",
          "type": "address"
        }
      ],
      "name": "renounceRole",
      "outputs": [],
      "stateMutability": "nonpayable",
      "type": "function"
    },
    {
      "inputs": [
        {
          "internalType": "bytes32",
          "name": "role",
          "type": "bytes32"
        },
        {
          "internalType": "address",
          "name": "account",
          "type": "address"
        }
      ],
      "name": "revokeRole",
      "outputs": [],
      "stateMutability": "nonpayable",
      "type": "function"
    },
    {
      "inputs": [
        {
          "internalType": "uint256",
          "name": "timestamp",
          "type": "uint256"
        }
      ],
      "name": "season",
      "outputs": [
        {
          "internalType": "uint256",
          "name": "",
          "type": "uint256"
        }
      ],
      "stateMutability": "view",
      "type": "function"
    },
    {
      "inputs": [
        {
          "internalType": "uint256",
          "name": "",
          "type": "uint256"
        }
      ],
      "name": "seasons",
      "outputs": [
        {
          "internalType": "uint256",
          "name": "startAfter",
          "type": "uint256"
        },
        {
          "internalType": "uint256",
          "name": "period",
          "type": "uint256"
        },
        {
          "internalType": "uint256",
          "name": "seasonOffset",
          "type": "uint256"
        }
      ],
      "stateMutability": "view",
      "type": "function"
    },
    {
      "inputs": [
        {
          "components": [
            {
              "internalType": "uint256",
              "name": "startAfter",
              "type": "uint256"
            },
            {
              "internalType": "uint256",
              "name": "period",
              "type": "uint256"
            },
            {
              "internalType": "uint256",
              "name": "seasonOffset",
              "type": "uint256"
            }
          ],
          "internalType": "struct ISeasonHelper.Season",
          "name": "s",
          "type": "tuple"
        }
      ],
      "name": "setSeason",
      "outputs": [],
      "stateMutability": "nonpayable",
      "type": "function"
    },
    {
      "inputs": [
        {
          "internalType": "bytes4",
          "name": "interfaceId",
          "type": "bytes4"
        }
      ],
      "name": "supportsInterface",
      "outputs": [
        {
          "internalType": "bool",
          "name": "",
          "type": "bool"
        }
      ],
      "stateMutability": "view",
      "type": "function"
    },
    {
      "inputs": [
        {
          "internalType": "uint256",
          "name": "index",
          "type": "uint256"
        },
        {
          "components": [
            {
              "internalType": "uint256",
              "name": "startAfter",
              "type": "uint256"
            },
            {
              "internalType": "uint256",
              "name": "period",
              "type": "uint256"
            },
            {
              "internalType": "uint256",
              "name": "seasonOffset",
              "type": "uint256"
            }
          ],
          "internalType": "struct ISeasonHelper.Season",
          "name": "s",
          "type": "tuple"
        }
      ],
      "name": "updateSeason",
      "outputs": [],
      "stateMutability": "nonpayable",
      "type": "function"
    },
    {
      "inputs": [
        {
          "internalType": "address",
          "name": "newImplementation",
          "type": "address"
        },
        {
          "internalType": "bytes",
          "name": "data",
          "type": "bytes"
        }
      ],
      "name": "upgradeToAndCall",
      "outputs": [],
      "stateMutability": "payable",
      "type": "function"
    },
    {
      "inputs": [],
      "name": "version",
      "outputs": [
        {
          "internalType": "uint256",
          "name": "",
          "type": "uint256"
        }
      ],
      "stateMutability": "view",
      "type": "function"
    }
  ],
  "bytecode": "0x60a06040523060805234801561001457600080fd5b5060805161172161003e60003960008181610f4c01528181610f7501526110d401526117216000f3fe6080604052600436106101405760003560e01c80638371b1c5116100b6578063ad3cb1cc1161006f578063ad3cb1cc14610368578063bcb39621146103a6578063d547741f146103bb578063ec1b0a78146103db578063f5d709a1146103fb578063fb6c767b1461043657600080fd5b80638371b1c5146102a95780638bc32d49146102c9578063913f60dd146102fe57806391d1485414610313578063a217fddf14610333578063ab872a8f1461034857600080fd5b80634f1ef286116101085780634f1ef2861461020a57806352d1902d1461021d57806354c9d2731461023257806354fd4d5014610269578063579ae4fe1461027f5780638129fc1c1461029457600080fd5b806301ffc9a714610145578063248a9ca31461017a5780632f2ff15d146101a857806336568abe146101ca5780633927dc1e146101ea575b600080fd5b34801561015157600080fd5b50610165610160366004611374565b610456565b60405190151581526020015b60405180910390f35b34801561018657600080fd5b5061019a61019536600461139e565b61048d565b604051908152602001610171565b3480156101b457600080fd5b506101c86101c33660046113d3565b6104af565b005b3480156101d657600080fd5b506101c86101e53660046113d3565b6104d1565b3480156101f657600080fd5b5061016561020536600461139e565b610509565b6101c8610218366004611446565b610588565b34801561022957600080fd5b5061019a6105a7565b34801561023e57600080fd5b506102476105c4565b6040805182518152602080840151908201529181015190820152606001610171565b34801561027557600080fd5b5061019a60015481565b34801561028b57600080fd5b5061019a610644565b3480156102a057600080fd5b506101c8610659565b3480156102b557600080fd5b5061019a6102c436600461139e565b61077f565b3480156102d557600080fd5b506102e96102e436600461139e565b610856565b60408051928352602083019190915201610171565b34801561030a57600080fd5b5061019a610931565b34801561031f57600080fd5b5061016561032e3660046113d3565b610a12565b34801561033f57600080fd5b5061019a600081565b34801561035457600080fd5b506101c8610363366004611548565b610a4a565b34801561037457600080fd5b50610399604051806040016040528060058152602001640352e302e360dc1b81525081565b6040516101719190611590565b3480156103b257600080fd5b5061019a610aea565b3480156103c757600080fd5b506101c86103d63660046113d3565b610af5565b3480156103e757600080fd5b506102e96103f636600461139e565b610b11565b34801561040757600080fd5b5061041b61041636600461139e565b610bd1565b60408051938452602084019290925290820152606001610171565b34801561044257600080fd5b506101c86104513660046115c3565b610c04565b60006001600160e01b03198216637965db0b60e01b148061048757506301ffc9a760e01b6001600160e01b03198316145b92915050565b60009081526000805160206116cc833981519152602052604090206001015490565b6104b88261048d565b6104c181610e13565b6104cb8383610e20565b50505050565b6001600160a01b03811633146104fa5760405163334bd91960e11b815260040160405180910390fd5b6105048282610ec5565b505050565b60008054810361051b57506000919050565b6000805461052b906001906115f5565b90505b60008112610582576000818154811061054957610549611608565b906000526020600020906003020160020154830361056a5760019150610582565b8015610582578061057a8161161e565b91505061052e565b50919050565b610590610f41565b61059982610fe8565b6105a3828261100c565b5050565b60006105b16110c9565b506000805160206116ac83398151915290565b6105e860405180606001604052806000815260200160008152602001600081525090565b600080546105f8906001906115f5565b8154811061060857610608611608565b90600052602060002090600302016040518060600160405290816000820154815260200160018201548152602001600282015481525050905090565b60008054610654906001906115f5565b905090565b7ff0c57e16840df040f15088dc2f81fe391c3923bec73e23a9662efc9c229c6a008054600160401b810460ff16159067ffffffffffffffff1660008115801561069f5750825b905060008267ffffffffffffffff1660011480156106bc5750303b155b9050811580156106ca575080155b156106e85760405163f92ee8a960e01b815260040160405180910390fd5b845467ffffffffffffffff19166001178555831561071257845460ff60401b1916600160401b1785555b61071a611112565b610722611112565b61072d600033610e20565b5060018055831561077857845460ff60401b19168555604051600181527fc7f505b2f371ae2175ee4913f4499e1f2633a7b5936321eed1cdaeb6115181d29060200160405180910390a15b5050505050565b60008054810361079157506000919050565b600080546107a1906001906115f5565b90505b6000811261084d5760008082815481106107c0576107c0611608565b9060005260206000209060030201604051806060016040529081600082015481526020016001820154815260200160028201548152505090508060000151841015801561081c575060208101518151610819919061163b565b84105b1561082c57604001519392505050565b8160000361083a575061084d565b50806108458161161e565b9150506107a4565b50600092915050565b600080548190810361086d57506000928392509050565b6000805461087d906001906115f5565b90505b6000811261092b57600080828154811061089c5761089c611608565b906000526020600020906003020160405180606001604052908160008201548152602001600182015481526020016002820154815250509050806000015185101580156108f85750602081015181516108f5919061163b565b85105b1561090a578051602082015190945092505b81600003610918575061092b565b50806109238161161e565b915050610880565b50915091565b6000805481036109415750600090565b60008054610951906001906115f5565b90505b60008112610a0a57600080828154811061097057610970611608565b906000526020600020906003020160405180606001604052908160008201548152602001600182015481526020016002820154815250509050806000015142101580156109cc5750602081015181516109c9919061163b565b42105b156109e957602081015181516109e2919061163b565b9250505090565b816000036109f75750610a0a565b5080610a028161161e565b915050610954565b506000905090565b60009182526000805160206116cc833981519152602090815260408084206001600160a01b0393909316845291905290205460ff1690565b6000610a5581610e13565b6000548310610aa25760405162461bcd60e51b81526020600482015260146024820152730d2dcecc2d8d2c840e6cac2e6dedc40d2dcc8caf60631b60448201526064015b60405180910390fd5b8160008481548110610ab657610ab6611608565b9060005260206000209060030201600082015181600001556020820151816001015560408201518160020155905050505050565b60006106544261077f565b610afe8261048d565b610b0781610e13565b6104cb8383610ec5565b6000805481908103610b2857506000928392509050565b60008054610b38906001906115f5565b90505b60008181548110610b4e57610b4e611608565b9060005260206000209060030201600201548403610bb95760008181548110610b7957610b79611608565b906000526020600020906003020160000154925060008181548110610ba057610ba0611608565b906000526020600020906003020160010154915061092b565b801561092b5780610bc98161164e565b915050610b3b565b60008181548110610be157600080fd5b600091825260209091206003909102018054600182015460029092015490925083565b6000610c0f81610e13565b600080549003610cad5750600160408201818152600080549283018155805282517f290decd9548b62a8d60345a988386fc84ba6bc95484008f6362f93160ef3e5636003909302928301556020909201517f290decd9548b62a8d60345a988386fc84ba6bc95484008f6362f93160ef3e56482015590517f290decd9548b62a8d60345a988386fc84ba6bc95484008f6362f93160ef3e56590910155565b600080548190610cbf906001906115f5565b81548110610ccf57610ccf611608565b90600052602060002090600302016040518060600160405290816000820154815260200160018201548152602001600282015481525050905080602001518160000151610d1c919061163b565b83511015610d6c5760405162461bcd60e51b815260206004820152601a60248201527f696e76616c6964206e657720736561736f6e2073657474696e670000000000006044820152606401610a99565b6040810151610d7c90600161163b565b6040840190815260008054600181018255908052845160039091027f290decd9548b62a8d60345a988386fc84ba6bc95484008f6362f93160ef3e56381019190915560208501517f290decd9548b62a8d60345a988386fc84ba6bc95484008f6362f93160ef3e56482015590517f290decd9548b62a8d60345a988386fc84ba6bc95484008f6362f93160ef3e56590910155505050565b610e1d813361111a565b50565b60006000805160206116cc833981519152610e3b8484610a12565b610ebb576000848152602082815260408083206001600160a01b03871684529091529020805460ff19166001179055610e713390565b6001600160a01b0316836001600160a01b0316857f2f8788117e7eff1d82e926ec794901d17c78024a50270940304540a733656f0d60405160405180910390a46001915050610487565b6000915050610487565b60006000805160206116cc833981519152610ee08484610a12565b15610ebb576000848152602082815260408083206001600160a01b0387168085529252808320805460ff1916905551339287917ff6391f5c32d9c69d2a47ea670b442974b53935d1edc7fd64eb21e047a839171b9190a46001915050610487565b306001600160a01b037f0000000000000000000000000000000000000000000000000000000000000000161480610fc857507f00000000000000000000000000000000000000000000000000000000000000006001600160a01b0316610fbc6000805160206116ac833981519152546001600160a01b031690565b6001600160a01b031614155b15610fe65760405163703e46dd60e11b815260040160405180910390fd5b565b6000610ff381610e13565b600180549060006110038361165d565b91905055505050565b816001600160a01b03166352d1902d6040518163ffffffff1660e01b8152600401602060405180830381865afa925050508015611066575060408051601f3d908101601f1916820190925261106391810190611676565b60015b61108e57604051634c9c8ce360e01b81526001600160a01b0383166004820152602401610a99565b6000805160206116ac83398151915281146110bf57604051632a87526960e21b815260048101829052602401610a99565b6105048383611153565b306001600160a01b037f00000000000000000000000000000000000000000000000000000000000000001614610fe65760405163703e46dd60e11b815260040160405180910390fd5b610fe66111a9565b6111248282610a12565b6105a35760405163e2517d3f60e01b81526001600160a01b038216600482015260248101839052604401610a99565b61115c826111f2565b6040516001600160a01b038316907fbc7cd75a20ee27fd9adebab32041f755214dbc6bffa90cc0225b39da2e5c2d3b90600090a28051156111a1576105048282611257565b6105a36112cd565b7ff0c57e16840df040f15088dc2f81fe391c3923bec73e23a9662efc9c229c6a0054600160401b900460ff16610fe657604051631afcd79f60e31b815260040160405180910390fd5b806001600160a01b03163b60000361122857604051634c9c8ce360e01b81526001600160a01b0382166004820152602401610a99565b6000805160206116ac83398151915280546001600160a01b0319166001600160a01b0392909216919091179055565b6060600080846001600160a01b031684604051611274919061168f565b600060405180830381855af49150503d80600081146112af576040519150601f19603f3d011682016040523d82523d6000602084013e6112b4565b606091505b50915091506112c48583836112ec565b95945050505050565b3415610fe65760405163b398979f60e01b815260040160405180910390fd5b606082611301576112fc8261134b565b611344565b815115801561131857506001600160a01b0384163b155b1561134157604051639996b31560e01b81526001600160a01b0385166004820152602401610a99565b50805b9392505050565b80511561135b5780518082602001fd5b604051630a12f52160e11b815260040160405180910390fd5b60006020828403121561138657600080fd5b81356001600160e01b03198116811461134457600080fd5b6000602082840312156113b057600080fd5b5035919050565b80356001600160a01b03811681146113ce57600080fd5b919050565b600080604083850312156113e657600080fd5b823591506113f6602084016113b7565b90509250929050565b634e487b7160e01b600052604160045260246000fd5b604051601f8201601f1916810167ffffffffffffffff8111828210171561143e5761143e6113ff565b604052919050565b6000806040838503121561145957600080fd5b611462836113b7565b915060208084013567ffffffffffffffff8082111561148057600080fd5b818601915086601f83011261149457600080fd5b8135818111156114a6576114a66113ff565b6114b8601f8201601f19168501611415565b915080825287848285010111156114ce57600080fd5b80848401858401376000848284010152508093505050509250929050565b6000606082840312156114fe57600080fd5b6040516060810181811067ffffffffffffffff82111715611521576115216113ff565b80604052508091508235815260208301356020820152604083013560408201525092915050565b6000806080838503121561155b57600080fd5b823591506113f684602085016114ec565b60005b8381101561158757818101518382015260200161156f565b50506000910152565b60208152600082518060208401526115af81604085016020870161156c565b601f01601f19169190910160400192915050565b6000606082840312156115d557600080fd5b61134483836114ec565b634e487b7160e01b600052601160045260246000fd5b81810381811115610487576104876115df565b634e487b7160e01b600052603260045260246000fd5b6000600160ff1b8201611633576116336115df565b506000190190565b80820180821115610487576104876115df565b600081611633576116336115df565b60006001820161166f5761166f6115df565b5060010190565b60006020828403121561168857600080fd5b5051919050565b600082516116a181846020870161156c565b919091019291505056fe360894a13ba1a3210667c828492db98dca3e2076cc3735a920a3ca505d382bbc02dd7bc7dec4dceedda775e58dd541e08a116c6c53815c0bd028192f7b626800a264697066735822122009d1c41680a789c71624bb7d921884ceb184666c37e85070ceacb2e9a07c396b64736f6c63430008140033",
  "linkReferences": {},
  "deployedLinkReferences": {}
}